{
  "address": "0x614b50fb268eFE9cA758628fd6c7021B77E66aC6",
  "abi": [
    {
      "inputs": [
        {
          "internalType": "address",
          "name": "_kyberSwapRouter",
          "type": "address"
        },
        {
          "internalType": "address",
          "name": "_usd",
          "type": "address"
        },
        {
          "internalType": "address",
          "name": "_safeToken",
          "type": "address"
        }
      ],
      "stateMutability": "nonpayable",
      "type": "constructor"
    },
    {
      "inputs": [
        {
          "internalType": "address[]",
          "name": "tokens",
          "type": "address[]"
        },
        {
          "internalType": "address",
          "name": "spender",
          "type": "address"
        },
        {
          "internalType": "uint256",
          "name": "amount",
          "type": "uint256"
        }
      ],
      "name": "approveTokens",
      "outputs": [],
      "stateMutability": "nonpayable",
      "type": "function"
    },
    {
      "inputs": [
        {
          "internalType": "address",
          "name": "_kyberSwapRouter",
          "type": "address"
        },
        {
          "internalType": "address",
          "name": "_usd",
          "type": "address"
        },
        {
          "internalType": "address",
          "name": "_safeToken",
          "type": "address"
        }
      ],
      "name": "initialize",
      "outputs": [],
      "stateMutability": "nonpayable",
      "type": "function"
    },
    {
      "inputs": [],
      "name": "kyberSwapRouterContract",
      "outputs": [
        {
          "internalType": "address",
          "name": "",
          "type": "address"
        }
      ],
      "stateMutability": "view",
      "type": "function"
    },
    {
      "inputs": [
        {
          "internalType": "bytes",
          "name": "data",
          "type": "bytes"
        }
      ],
      "name": "proxyAndBuy",
      "outputs": [],
      "stateMutability": "nonpayable",
      "type": "function"
    },
    {
      "inputs": [],
      "name": "safeTokenContract",
      "outputs": [
        {
          "internalType": "contract ISafeToken",
          "name": "",
          "type": "address"
        }
      ],
      "stateMutability": "view",
      "type": "function"
    },
    {
      "inputs": [
        {
          "internalType": "bytes",
          "name": "data",
          "type": "bytes"
        },
        {
          "internalType": "uint256",
          "name": "safeAmount",
          "type": "uint256"
        }
      ],
      "name": "sellAndProxy",
      "outputs": [],
      "stateMutability": "nonpayable",
      "type": "function"
    },
    {
      "inputs": [],
      "name": "swap",
      "outputs": [
        {
          "internalType": "bytes4",
          "name": "",
          "type": "bytes4"
        }
      ],
      "stateMutability": "view",
      "type": "function"
    },
    {
      "inputs": [],
      "name": "swapSimpleMode",
      "outputs": [
        {
          "internalType": "bytes4",
          "name": "",
          "type": "bytes4"
        }
      ],
      "stateMutability": "view",
      "type": "function"
    },
    {
      "inputs": [
        {
          "internalType": "address",
          "name": "_allowedContract",
          "type": "address"
        }
      ],
      "name": "updateAllowedContract",
      "outputs": [],
      "stateMutability": "nonpayable",
      "type": "function"
    },
    {
      "inputs": [],
      "name": "usd",
      "outputs": [
        {
          "internalType": "contract IERC20",
          "name": "",
          "type": "address"
        }
      ],
      "stateMutability": "view",
      "type": "function"
    }
  ],
  "transactionHash": "0x4f61ed476fd4900abfeec99a60efb393e79d1848629fde9b79b63b91c16c0ae3",
  "args": [
    "0x6131B5fae19EA4f9D964eAc0408E4408b66337b5",
    "0xFF970A61A04b1cA14834A43f5dE4533eBDDB5CC8",
    "0x519EfB2bEFBd3f00D335dc9DF42BF721D591604f"
  ],
  "numDeployments": 1,
  "solcInputHash": "0f6fbf4c461440d191a158c05c7bb7fb",
  "bytecode": "0x60806040523480156200001157600080fd5b5060405162001150380380620011508339810160408190526200003491620001f9565b6001600055620000468383836200004f565b5050506200026e565b600062000069600080516020620011308339815191525490565b90506001600160a01b03811662000099576001600160a01b036000805160206200113083398151915255620000af565b336001600160a01b03821614620000af57600080fd5b600180546001600160a01b038681166001600160a01b0319928316179092556003805486841690831681179091556002805493861693909216831790915560405163095ea7b360e01b8152600481019290925260001960248301529063095ea7b3906044016020604051808303816000875af115801562000134573d6000803e3d6000fd5b505050506040513d601f19601f820116820180604052508101906200015a919062000243565b5060025460405163095ea7b360e01b81526001600160a01b039091166004820181905260001960248301529063095ea7b3906044016020604051808303816000875af1158015620001af573d6000803e3d6000fd5b505050506040513d601f19601f82011682018060405250810190620001d5919062000243565b5050505050565b80516001600160a01b0381168114620001f457600080fd5b919050565b6000806000606084860312156200020f57600080fd5b6200021a84620001dc565b92506200022a60208501620001dc565b91506200023a60408501620001dc565b90509250925092565b6000602082840312156200025657600080fd5b815180151581146200026757600080fd5b9392505050565b610eb2806200027e6000396000f3fe608060405234801561001057600080fd5b506004361061009e5760003560e01c806391acb8481161006657806391acb84814610118578063c0c53b8b14610143578063c72adad814610156578063d63a6ccd14610169578063e75875fc1461017c57600080fd5b80631a6dc57b146100a3578063255345e4146100cf5780633aa93254146100e4578063584710d9146100f75780638119c0651461010a575b600080fd5b6100b1638af033fb60e01b81565b6040516001600160e01b031990911681526020015b60405180910390f35b6100e26100dd366004610c14565b61018f565b005b6100e26100f2366004610c72565b6103e4565b6100e2610105366004610cfe565b610569565b6100b163e21fd0e960e01b81565b60015461012b906001600160a01b031681565b6040516001600160a01b0390911681526020016100c6565b6100e2610151366004610d4a565b6108f9565b6100e2610164366004610d8d565b610a9e565b60035461012b906001600160a01b031681565b60025461012b906001600160a01b031681565b610197610b20565b60006101d883838080601f016020809104026020016040519081016040528093929190818152602001838380828437600092019190915250610b7992505050565b90506001600160e01b0319811663e21fd0e960e01b148061020957506001600160e01b03198116638af033fb60e01b145b6102515760405162461bcd60e51b81526020600482015260146024820152732737ba1030b63637bbb2b210333ab731ba34b7b760611b60448201526064015b60405180910390fd5b60015460405160009182916001600160a01b03909116906102759087908790610daf565b6000604051808303816000865af19150503d80600081146102b2576040519150601f19603f3d011682016040523d82523d6000602084013e6102b7565b606091505b5091509150816102ca5780518082602001fd5b600080828060200190518101906102e19190610dbf565b60025460405163f7e0ba5f60e01b8152600481018490529294509092506000916001600160a01b039091169063f7e0ba5f906024016020604051808303816000875af1158015610335573d6000803e3d6000fd5b505050506040513d601f19601f820116820180604052508101906103599190610de3565b60025460405163a9059cbb60e01b8152336004820152602481018390529192506001600160a01b03169063a9059cbb906044016020604051808303816000875af11580156103ab573d6000803e3d6000fd5b505050506040513d601f19601f820116820180604052508101906103cf9190610dfc565b505050505050506103e06001600055565b5050565b7fb53127684a568b3173ae13b9f8a6016e243e63b6e8ee1178d6a717850b5d6103546001600160a01b0316336001600160a01b0316146104575760405162461bcd60e51b815260206004820152600e60248201526d1393d517d055551213d49256915160921b6044820152606401610248565b8260005b8181101561056157600086868381811061047757610477610e1e565b905060200201602081019061048c9190610d8d565b60405163095ea7b360e01b81526001600160a01b0387811660048301526024820187905291925060009183169063095ea7b3906044016020604051808303816000875af11580156104e1573d6000803e3d6000fd5b505050506040513d601f19601f820116820180604052508101906105059190610dfc565b90508061054c5760405162461bcd60e51b8152602060048201526015602482015274151bdad95b88185c1c1c9bdd985b0819985a5b1959605a1b6044820152606401610248565b5050808061055990610e4a565b91505061045b565b505050505050565b610571610b20565b60006105b284848080601f016020809104026020016040519081016040528093929190818152602001838380828437600092019190915250610b7992505050565b90506001600160e01b0319811663e21fd0e960e01b14806105e357506001600160e01b03198116638af033fb60e01b145b6106265760405162461bcd60e51b81526020600482015260146024820152732737ba1030b63637bbb2b210333ab731ba34b7b760611b6044820152606401610248565b6003546040516370a0823160e01b81523060048201526000916001600160a01b0316906370a0823190602401602060405180830381865afa15801561066f573d6000803e3d6000fd5b505050506040513d601f19601f820116820180604052508101906106939190610de3565b60025460405163174d386b60e31b8152600481018690529192506000916001600160a01b039091169063ba69c358906024016020604051808303816000875af11580156106e4573d6000803e3d6000fd5b505050506040513d601f19601f820116820180604052508101906107089190610de3565b60015460405191925060009182916001600160a01b03169061072d908a908a90610daf565b600060405180830381855af49150503d8060008114610768576040519150601f19603f3d011682016040523d82523d6000602084013e61076d565b606091505b5091509150816107bf5760405162461bcd60e51b815260206004820152601a60248201527f4b796265725377617020657865637574696f6e206661696c65640000000000006044820152606401610248565b600080828060200190518101906107d69190610dbf565b6003546040516370a0823160e01b81523060048201529294509092506000916001600160a01b03909116906370a0823190602401602060405180830381865afa158015610827573d6000803e3d6000fd5b505050506040513d601f19601f8201168201806040525081019061084b9190610de3565b9050868111156108e2576003546001600160a01b031663a9059cbb336108718a85610e63565b6040516001600160e01b031960e085901b1681526001600160a01b03909216600483015260248201526044016020604051808303816000875af11580156108bc573d6000803e3d6000fd5b505050506040513d601f19601f820116820180604052508101906108e09190610dfc565b505b50505050505050506108f46001600055565b505050565b60006109237fb53127684a568b3173ae13b9f8a6016e243e63b6e8ee1178d6a717850b5d61035490565b90506001600160a01b038116610962576001600160a01b037fb53127684a568b3173ae13b9f8a6016e243e63b6e8ee1178d6a717850b5d610355610977565b336001600160a01b0382161461097757600080fd5b600180546001600160a01b038681166001600160a01b0319928316179092556003805486841690831681179091556002805493861693909216831790915560405163095ea7b360e01b8152600481019290925260001960248301529063095ea7b3906044016020604051808303816000875af11580156109fb573d6000803e3d6000fd5b505050506040513d601f19601f82011682018060405250810190610a1f9190610dfc565b5060025460405163095ea7b360e01b81526001600160a01b039091166004820181905260001960248301529063095ea7b3906044016020604051808303816000875af1158015610a73573d6000803e3d6000fd5b505050506040513d601f19601f82011682018060405250810190610a979190610dfc565b5050505050565b333214610afe5760405162461bcd60e51b815260206004820152602860248201527f4f6e6c7920454f412063616e207570646174652074686520616c6c6f7765642060448201526718dbdb9d1c9858dd60c21b6064820152608401610248565b600180546001600160a01b0319166001600160a01b0392909216919091179055565b600260005403610b725760405162461bcd60e51b815260206004820152601f60248201527f5265656e7472616e637947756172643a207265656e7472616e742063616c6c006044820152606401610248565b6002600055565b6000600482511015610bc35760405162461bcd60e51b8152602060048201526013602482015272092dcecc2d8d2c840c8c2e8c240d8cadccee8d606b1b6044820152606401610248565b506020015190565b60008083601f840112610bdd57600080fd5b50813567ffffffffffffffff811115610bf557600080fd5b602083019150836020828501011115610c0d57600080fd5b9250929050565b60008060208385031215610c2757600080fd5b823567ffffffffffffffff811115610c3e57600080fd5b610c4a85828601610bcb565b90969095509350505050565b80356001600160a01b0381168114610c6d57600080fd5b919050565b60008060008060608587031215610c8857600080fd5b843567ffffffffffffffff80821115610ca057600080fd5b818701915087601f830112610cb457600080fd5b813581811115610cc357600080fd5b8860208260051b8501011115610cd857600080fd5b602092830196509450610cee9187019050610c56565b9396929550929360400135925050565b600080600060408486031215610d1357600080fd5b833567ffffffffffffffff811115610d2a57600080fd5b610d3686828701610bcb565b909790965060209590950135949350505050565b600080600060608486031215610d5f57600080fd5b610d6884610c56565b9250610d7660208501610c56565b9150610d8460408501610c56565b90509250925092565b600060208284031215610d9f57600080fd5b610da882610c56565b9392505050565b8183823760009101908152919050565b60008060408385031215610dd257600080fd5b505080516020909101519092909150565b600060208284031215610df557600080fd5b5051919050565b600060208284031215610e0e57600080fd5b81518015158114610da857600080fd5b634e487b7160e01b600052603260045260246000fd5b634e487b7160e01b600052601160045260246000fd5b600060018201610e5c57610e5c610e34565b5060010190565b81810381811115610e7657610e76610e34565b9291505056fea2646970667358221220708d7539cd54eff71d6bbb55b9fd2f450f9ab7991cd58d57c0fc2ea8aeba1b9f64736f6c63430008110033b53127684a568b3173ae13b9f8a6016e243e63b6e8ee1178d6a717850b5d6103",
  "devdoc": {
    "kind": "dev",
    "methods": {},
    "version": 1
  },
  "userdoc": {
    "kind": "user",
    "methods": {},
    "version": 1
  },
  "storageLayout": {
    "storage": [
      {
        "astId": 657,
        "contract": "contracts/SafeRouter.sol:SafeRouter",
        "label": "_status",
        "offset": 0,
        "slot": "0",
        "type": "t_uint256"
      },
      {
        "astId": 7370,
        "contract": "contracts/SafeRouter.sol:SafeRouter",
        "label": "kyberSwapRouterContract",
        "offset": 0,
        "slot": "1",
        "type": "t_address"
      },
      {
        "astId": 7373,
        "contract": "contracts/SafeRouter.sol:SafeRouter",
        "label": "safeTokenContract",
        "offset": 0,
        "slot": "2",
        "type": "t_contract(ISafeToken)9227"
      },
      {
        "astId": 7382,
        "contract": "contracts/SafeRouter.sol:SafeRouter",
        "label": "usd",
        "offset": 0,
        "slot": "3",
        "type": "t_contract(IERC20)3238"
      }
    ],
    "types": {
      "t_address": {
        "encoding": "inplace",
        "label": "address",
        "numberOfBytes": "20"
      },
      "t_contract(IERC20)3238": {
        "encoding": "inplace",
        "label": "contract IERC20",
        "numberOfBytes": "20"
      },
      "t_contract(ISafeToken)9227": {
        "encoding": "inplace",
        "label": "contract ISafeToken",
        "numberOfBytes": "20"
      },
      "t_uint256": {
        "encoding": "inplace",
        "label": "uint256",
        "numberOfBytes": "32"
      }
    }
  }
}