{
  "address": "0xD69ebf9339Aad09d08e2b9658B51E0e3f2f2320e",
  "abi": [
    {
      "inputs": [
        {
          "internalType": "string",
          "name": "_uri",
          "type": "string"
        },
        {
          "internalType": "uint256[4]",
          "name": "_price",
          "type": "uint256[4]"
        },
        {
          "internalType": "uint256[4]",
          "name": "_maxSupply",
          "type": "uint256[4]"
        },
        {
          "internalType": "contract ISafeToken",
          "name": "_safeToken",
          "type": "address"
        },
        {
          "internalType": "uint256[2]",
          "name": "_priceDistributionOnMint",
          "type": "uint256[2]"
        },
        {
          "internalType": "uint256",
          "name": "_referralShareForNFTPurchase",
          "type": "uint256"
        },
        {
          "internalType": "uint256[2]",
          "name": "_profitDistribution",
          "type": "uint256[2]"
        },
        {
          "internalType": "address",
          "name": "_prevaultWallet",
          "type": "address"
        }
      ],
      "stateMutability": "nonpayable",
      "type": "constructor"
    },
    {
      "anonymous": false,
      "inputs": [
        {
          "indexed": true,
          "internalType": "address",
          "name": "account",
          "type": "address"
        },
        {
          "indexed": true,
          "internalType": "address",
          "name": "operator",
          "type": "address"
        },
        {
          "indexed": false,
          "internalType": "bool",
          "name": "approved",
          "type": "bool"
        }
      ],
      "name": "ApprovalForAll",
      "type": "event"
    },
    {
      "anonymous": false,
      "inputs": [
        {
          "indexed": false,
          "internalType": "address",
          "name": "account",
          "type": "address"
        }
      ],
      "name": "Paused",
      "type": "event"
    },
    {
      "anonymous": false,
      "inputs": [
        {
          "indexed": true,
          "internalType": "bytes32",
          "name": "role",
          "type": "bytes32"
        },
        {
          "indexed": true,
          "internalType": "bytes32",
          "name": "previousAdminRole",
          "type": "bytes32"
        },
        {
          "indexed": true,
          "internalType": "bytes32",
          "name": "newAdminRole",
          "type": "bytes32"
        }
      ],
      "name": "RoleAdminChanged",
      "type": "event"
    },
    {
      "anonymous": false,
      "inputs": [
        {
          "indexed": true,
          "internalType": "bytes32",
          "name": "role",
          "type": "bytes32"
        },
        {
          "indexed": true,
          "internalType": "address",
          "name": "account",
          "type": "address"
        },
        {
          "indexed": true,
          "internalType": "address",
          "name": "sender",
          "type": "address"
        }
      ],
      "name": "RoleGranted",
      "type": "event"
    },
    {
      "anonymous": false,
      "inputs": [
        {
          "indexed": true,
          "internalType": "bytes32",
          "name": "role",
          "type": "bytes32"
        },
        {
          "indexed": true,
          "internalType": "address",
          "name": "account",
          "type": "address"
        },
        {
          "indexed": true,
          "internalType": "address",
          "name": "sender",
          "type": "address"
        }
      ],
      "name": "RoleRevoked",
      "type": "event"
    },
    {
      "anonymous": false,
      "inputs": [
        {
          "indexed": true,
          "internalType": "address",
          "name": "to",
          "type": "address"
        },
        {
          "indexed": true,
          "internalType": "uint256",
          "name": "id",
          "type": "uint256"
        },
        {
          "indexed": true,
          "internalType": "uint256",
          "name": "amount",
          "type": "uint256"
        },
        {
          "indexed": false,
          "internalType": "uint256",
          "name": "price",
          "type": "uint256"
        }
      ],
      "name": "Sale",
      "type": "event"
    },
    {
      "anonymous": false,
      "inputs": [
        {
          "indexed": false,
          "internalType": "bool",
          "name": "_status",
          "type": "bool"
        }
      ],
      "name": "TogglePresale",
      "type": "event"
    },
    {
      "anonymous": false,
      "inputs": [
        {
          "indexed": true,
          "internalType": "address",
          "name": "operator",
          "type": "address"
        },
        {
          "indexed": true,
          "internalType": "address",
          "name": "from",
          "type": "address"
        },
        {
          "indexed": true,
          "internalType": "address",
          "name": "to",
          "type": "address"
        },
        {
          "indexed": false,
          "internalType": "uint256[]",
          "name": "ids",
          "type": "uint256[]"
        },
        {
          "indexed": false,
          "internalType": "uint256[]",
          "name": "values",
          "type": "uint256[]"
        }
      ],
      "name": "TransferBatch",
      "type": "event"
    },
    {
      "anonymous": false,
      "inputs": [
        {
          "indexed": true,
          "internalType": "address",
          "name": "operator",
          "type": "address"
        },
        {
          "indexed": true,
          "internalType": "address",
          "name": "from",
          "type": "address"
        },
        {
          "indexed": true,
          "internalType": "address",
          "name": "to",
          "type": "address"
        },
        {
          "indexed": false,
          "internalType": "uint256",
          "name": "id",
          "type": "uint256"
        },
        {
          "indexed": false,
          "internalType": "uint256",
          "name": "value",
          "type": "uint256"
        }
      ],
      "name": "TransferSingle",
      "type": "event"
    },
    {
      "anonymous": false,
      "inputs": [
        {
          "indexed": false,
          "internalType": "string",
          "name": "value",
          "type": "string"
        },
        {
          "indexed": true,
          "internalType": "uint256",
          "name": "id",
          "type": "uint256"
        }
      ],
      "name": "URI",
      "type": "event"
    },
    {
      "anonymous": false,
      "inputs": [
        {
          "indexed": false,
          "internalType": "address",
          "name": "account",
          "type": "address"
        }
      ],
      "name": "Unpaused",
      "type": "event"
    },
    {
      "inputs": [],
      "name": "DEFAULT_ADMIN_ROLE",
      "outputs": [
        {
          "internalType": "bytes32",
          "name": "",
          "type": "bytes32"
        }
      ],
      "stateMutability": "view",
      "type": "function"
    },
    {
      "inputs": [],
      "name": "HUNDRED_PERCENT",
      "outputs": [
        {
          "internalType": "uint256",
          "name": "",
          "type": "uint256"
        }
      ],
      "stateMutability": "view",
      "type": "function"
    },
    {
      "inputs": [],
      "name": "MINTER_ROLE",
      "outputs": [
        {
          "internalType": "bytes32",
          "name": "",
          "type": "bytes32"
        }
      ],
      "stateMutability": "view",
      "type": "function"
    },
    {
      "inputs": [],
      "name": "PAUSER_ROLE",
      "outputs": [
        {
          "internalType": "bytes32",
          "name": "",
          "type": "bytes32"
        }
      ],
      "stateMutability": "view",
      "type": "function"
    },
    {
      "inputs": [],
      "name": "TIERS",
      "outputs": [
        {
          "internalType": "uint256",
          "name": "",
          "type": "uint256"
        }
      ],
      "stateMutability": "view",
      "type": "function"
    },
    {
      "inputs": [],
      "name": "WALLETS",
      "outputs": [
        {
          "internalType": "uint256",
          "name": "",
          "type": "uint256"
        }
      ],
      "stateMutability": "view",
      "type": "function"
    },
    {
      "inputs": [],
      "name": "WEEKS",
      "outputs": [
        {
          "internalType": "uint256",
          "name": "",
          "type": "uint256"
        }
      ],
      "stateMutability": "view",
      "type": "function"
    },
    {
      "inputs": [
        {
          "internalType": "uint256",
          "name": "",
          "type": "uint256"
        },
        {
          "internalType": "address",
          "name": "",
          "type": "address"
        }
      ],
      "name": "alreadyDistributed",
      "outputs": [
        {
          "internalType": "uint256",
          "name": "",
          "type": "uint256"
        }
      ],
      "stateMutability": "view",
      "type": "function"
    },
    {
      "inputs": [
        {
          "internalType": "uint256",
          "name": "",
          "type": "uint256"
        }
      ],
      "name": "alreadyDistributedTotal",
      "outputs": [
        {
          "internalType": "uint256",
          "name": "",
          "type": "uint256"
        }
      ],
      "stateMutability": "view",
      "type": "function"
    },
    {
      "inputs": [],
      "name": "ambassador",
      "outputs": [
        {
          "internalType": "address",
          "name": "",
          "type": "address"
        }
      ],
      "stateMutability": "view",
      "type": "function"
    },
    {
      "inputs": [
        {
          "internalType": "address",
          "name": "account",
          "type": "address"
        },
        {
          "internalType": "uint256",
          "name": "id",
          "type": "uint256"
        }
      ],
      "name": "balanceOf",
      "outputs": [
        {
          "internalType": "uint256",
          "name": "",
          "type": "uint256"
        }
      ],
      "stateMutability": "view",
      "type": "function"
    },
    {
      "inputs": [
        {
          "internalType": "address[]",
          "name": "accounts",
          "type": "address[]"
        },
        {
          "internalType": "uint256[]",
          "name": "ids",
          "type": "uint256[]"
        }
      ],
      "name": "balanceOfBatch",
      "outputs": [
        {
          "internalType": "uint256[]",
          "name": "",
          "type": "uint256[]"
        }
      ],
      "stateMutability": "view",
      "type": "function"
    },
    {
      "inputs": [
        {
          "internalType": "address",
          "name": "account",
          "type": "address"
        },
        {
          "internalType": "uint256",
          "name": "id",
          "type": "uint256"
        },
        {
          "internalType": "uint256",
          "name": "value",
          "type": "uint256"
        }
      ],
      "name": "burn",
      "outputs": [],
      "stateMutability": "nonpayable",
      "type": "function"
    },
    {
      "inputs": [
        {
          "internalType": "address",
          "name": "account",
          "type": "address"
        },
        {
          "internalType": "uint256",
          "name": "id",
          "type": "uint256"
        },
        {
          "internalType": "uint256",
          "name": "value",
          "type": "uint256"
        }
      ],
      "name": "burnAdmin",
      "outputs": [],
      "stateMutability": "nonpayable",
      "type": "function"
    },
    {
      "inputs": [
        {
          "internalType": "address",
          "name": "account",
          "type": "address"
        },
        {
          "internalType": "uint256[]",
          "name": "ids",
          "type": "uint256[]"
        },
        {
          "internalType": "uint256[]",
          "name": "values",
          "type": "uint256[]"
        }
      ],
      "name": "burnBatch",
      "outputs": [],
      "stateMutability": "nonpayable",
      "type": "function"
    },
    {
      "inputs": [
        {
          "internalType": "enum ISafeNFT.Tiers",
          "name": "_tier",
          "type": "uint8"
        },
        {
          "internalType": "uint256",
          "name": "_amount",
          "type": "uint256"
        },
        {
          "internalType": "address",
          "name": "_referral",
          "type": "address"
        }
      ],
      "name": "buy",
      "outputs": [],
      "stateMutability": "nonpayable",
      "type": "function"
    },
    {
      "inputs": [
        {
          "internalType": "uint256[2]",
          "name": "_priceDistributionOnMint",
          "type": "uint256[2]"
        }
      ],
      "name": "changePriceDistributionOnMint",
      "outputs": [],
      "stateMutability": "nonpayable",
      "type": "function"
    },
    {
      "inputs": [],
      "name": "claimReward",
      "outputs": [],
      "stateMutability": "nonpayable",
      "type": "function"
    },
    {
      "inputs": [],
      "name": "currentDistributionId",
      "outputs": [
        {
          "internalType": "uint256",
          "name": "",
          "type": "uint256"
        }
      ],
      "stateMutability": "view",
      "type": "function"
    },
    {
      "inputs": [
        {
          "internalType": "uint256",
          "name": "",
          "type": "uint256"
        }
      ],
      "name": "currentlySoldInPresale",
      "outputs": [
        {
          "internalType": "uint256",
          "name": "",
          "type": "uint256"
        }
      ],
      "stateMutability": "view",
      "type": "function"
    },
    {
      "inputs": [],
      "name": "discountedPrice",
      "outputs": [
        {
          "internalType": "uint256",
          "name": "",
          "type": "uint256"
        }
      ],
      "stateMutability": "view",
      "type": "function"
    },
    {
      "inputs": [
        {
          "internalType": "uint256",
          "name": "_amountUSD",
          "type": "uint256"
        }
      ],
      "name": "distributeProfit",
      "outputs": [],
      "stateMutability": "nonpayable",
      "type": "function"
    },
    {
      "inputs": [
        {
          "internalType": "uint256",
          "name": "id",
          "type": "uint256"
        }
      ],
      "name": "exists",
      "outputs": [
        {
          "internalType": "bool",
          "name": "",
          "type": "bool"
        }
      ],
      "stateMutability": "view",
      "type": "function"
    },
    {
      "inputs": [
        {
          "internalType": "address",
          "name": "_user",
          "type": "address"
        }
      ],
      "name": "getBalanceTable",
      "outputs": [
        {
          "internalType": "uint256[]",
          "name": "",
          "type": "uint256[]"
        }
      ],
      "stateMutability": "view",
      "type": "function"
    },
    {
      "inputs": [
        {
          "internalType": "enum ISafeNFT.Tiers",
          "name": "_tier",
          "type": "uint8"
        }
      ],
      "name": "getFairPrice",
      "outputs": [
        {
          "internalType": "uint256",
          "name": "",
          "type": "uint256"
        }
      ],
      "stateMutability": "view",
      "type": "function"
    },
    {
      "inputs": [],
      "name": "getFairPriceTable",
      "outputs": [
        {
          "internalType": "uint256[]",
          "name": "",
          "type": "uint256[]"
        }
      ],
      "stateMutability": "view",
      "type": "function"
    },
    {
      "inputs": [],
      "name": "getMyBalanceTable",
      "outputs": [
        {
          "internalType": "uint256[]",
          "name": "",
          "type": "uint256[]"
        }
      ],
      "stateMutability": "view",
      "type": "function"
    },
    {
      "inputs": [],
      "name": "getMyPendingRewards",
      "outputs": [
        {
          "internalType": "uint256",
          "name": "",
          "type": "uint256"
        }
      ],
      "stateMutability": "view",
      "type": "function"
    },
    {
      "inputs": [],
      "name": "getMyShareOfTreasury",
      "outputs": [
        {
          "internalType": "uint256",
          "name": "",
          "type": "uint256"
        }
      ],
      "stateMutability": "view",
      "type": "function"
    },
    {
      "inputs": [],
      "name": "getNFTSupplyAvailable",
      "outputs": [
        {
          "internalType": "uint256[]",
          "name": "",
          "type": "uint256[]"
        }
      ],
      "stateMutability": "view",
      "type": "function"
    },
    {
      "inputs": [
        {
          "internalType": "address",
          "name": "_user",
          "type": "address"
        },
        {
          "internalType": "uint256",
          "name": "_distributionId",
          "type": "uint256"
        }
      ],
      "name": "getPendingRewards",
      "outputs": [
        {
          "internalType": "uint256",
          "name": "",
          "type": "uint256"
        }
      ],
      "stateMutability": "view",
      "type": "function"
    },
    {
      "inputs": [
        {
          "internalType": "enum ISafeNFT.Tiers",
          "name": "_tier",
          "type": "uint8"
        }
      ],
      "name": "getPrice",
      "outputs": [
        {
          "internalType": "uint256",
          "name": "",
          "type": "uint256"
        }
      ],
      "stateMutability": "view",
      "type": "function"
    },
    {
      "inputs": [],
      "name": "getPriceTable",
      "outputs": [
        {
          "internalType": "uint256[]",
          "name": "",
          "type": "uint256[]"
        }
      ],
      "stateMutability": "view",
      "type": "function"
    },
    {
      "inputs": [
        {
          "internalType": "bytes32",
          "name": "role",
          "type": "bytes32"
        }
      ],
      "name": "getRoleAdmin",
      "outputs": [
        {
          "internalType": "bytes32",
          "name": "",
          "type": "bytes32"
        }
      ],
      "stateMutability": "view",
      "type": "function"
    },
    {
      "inputs": [
        {
          "internalType": "bytes32",
          "name": "role",
          "type": "bytes32"
        },
        {
          "internalType": "uint256",
          "name": "index",
          "type": "uint256"
        }
      ],
      "name": "getRoleMember",
      "outputs": [
        {
          "internalType": "address",
          "name": "",
          "type": "address"
        }
      ],
      "stateMutability": "view",
      "type": "function"
    },
    {
      "inputs": [
        {
          "internalType": "bytes32",
          "name": "role",
          "type": "bytes32"
        }
      ],
      "name": "getRoleMemberCount",
      "outputs": [
        {
          "internalType": "uint256",
          "name": "",
          "type": "uint256"
        }
      ],
      "stateMutability": "view",
      "type": "function"
    },
    {
      "inputs": [],
      "name": "getTotalSupplyAllTiers",
      "outputs": [
        {
          "internalType": "uint256[4]",
          "name": "",
          "type": "uint256[4]"
        }
      ],
      "stateMutability": "view",
      "type": "function"
    },
    {
      "inputs": [],
      "name": "getUnclaimedRewards",
      "outputs": [
        {
          "internalType": "uint256",
          "name": "",
          "type": "uint256"
        }
      ],
      "stateMutability": "view",
      "type": "function"
    },
    {
      "inputs": [
        {
          "internalType": "bytes32",
          "name": "role",
          "type": "bytes32"
        },
        {
          "internalType": "address",
          "name": "account",
          "type": "address"
        }
      ],
      "name": "grantRole",
      "outputs": [],
      "stateMutability": "nonpayable",
      "type": "function"
    },
    {
      "inputs": [
        {
          "internalType": "bytes32",
          "name": "role",
          "type": "bytes32"
        },
        {
          "internalType": "address",
          "name": "account",
          "type": "address"
        }
      ],
      "name": "hasRole",
      "outputs": [
        {
          "internalType": "bool",
          "name": "",
          "type": "bool"
        }
      ],
      "stateMutability": "view",
      "type": "function"
    },
    {
      "inputs": [
        {
          "internalType": "string",
          "name": "_uri",
          "type": "string"
        },
        {
          "internalType": "uint256[4]",
          "name": "_price",
          "type": "uint256[4]"
        },
        {
          "internalType": "uint256[4]",
          "name": "_maxSupply",
          "type": "uint256[4]"
        },
        {
          "internalType": "contract ISafeToken",
          "name": "_safeToken",
          "type": "address"
        },
        {
          "internalType": "uint256[2]",
          "name": "_priceDistributionOnMint",
          "type": "uint256[2]"
        },
        {
          "internalType": "uint256",
          "name": "_referralShareForNFTPurchase",
          "type": "uint256"
        },
        {
          "internalType": "uint256[2]",
          "name": "_profitDistribution",
          "type": "uint256[2]"
        },
        {
          "internalType": "address",
          "name": "_prevaultWallet",
          "type": "address"
        }
      ],
      "name": "initialize",
      "outputs": [],
      "stateMutability": "nonpayable",
      "type": "function"
    },
    {
      "inputs": [
        {
          "internalType": "address",
          "name": "account",
          "type": "address"
        },
        {
          "internalType": "address",
          "name": "operator",
          "type": "address"
        }
      ],
      "name": "isApprovedForAll",
      "outputs": [
        {
          "internalType": "bool",
          "name": "",
          "type": "bool"
        }
      ],
      "stateMutability": "view",
      "type": "function"
    },
    {
      "inputs": [
        {
          "internalType": "address",
          "name": "",
          "type": "address"
        }
      ],
      "name": "isTokenHolder",
      "outputs": [
        {
          "internalType": "bool",
          "name": "",
          "type": "bool"
        }
      ],
      "stateMutability": "view",
      "type": "function"
    },
    {
      "inputs": [
        {
          "internalType": "uint256",
          "name": "",
          "type": "uint256"
        }
      ],
      "name": "maxSupply",
      "outputs": [
        {
          "internalType": "uint256",
          "name": "",
          "type": "uint256"
        }
      ],
      "stateMutability": "view",
      "type": "function"
    },
    {
      "inputs": [
        {
          "internalType": "address",
          "name": "to",
          "type": "address"
        },
        {
          "internalType": "uint256",
          "name": "id",
          "type": "uint256"
        },
        {
          "internalType": "uint256",
          "name": "amount",
          "type": "uint256"
        },
        {
          "internalType": "bytes",
          "name": "data",
          "type": "bytes"
        }
      ],
      "name": "mint",
      "outputs": [],
      "stateMutability": "nonpayable",
      "type": "function"
    },
    {
      "inputs": [
        {
          "internalType": "address",
          "name": "to",
          "type": "address"
        },
        {
          "internalType": "uint256[]",
          "name": "ids",
          "type": "uint256[]"
        },
        {
          "internalType": "uint256[]",
          "name": "amounts",
          "type": "uint256[]"
        },
        {
          "internalType": "bytes",
          "name": "data",
          "type": "bytes"
        }
      ],
      "name": "mintBatch",
      "outputs": [],
      "stateMutability": "nonpayable",
      "type": "function"
    },
    {
      "inputs": [],
      "name": "name",
      "outputs": [
        {
          "internalType": "string",
          "name": "",
          "type": "string"
        }
      ],
      "stateMutability": "view",
      "type": "function"
    },
    {
      "inputs": [],
      "name": "pause",
      "outputs": [],
      "stateMutability": "nonpayable",
      "type": "function"
    },
    {
      "inputs": [],
      "name": "paused",
      "outputs": [
        {
          "internalType": "bool",
          "name": "",
          "type": "bool"
        }
      ],
      "stateMutability": "view",
      "type": "function"
    },
    {
      "inputs": [],
      "name": "preVaultWallet",
      "outputs": [
        {
          "internalType": "address",
          "name": "",
          "type": "address"
        }
      ],
      "stateMutability": "view",
      "type": "function"
    },
    {
      "inputs": [],
      "name": "presale",
      "outputs": [
        {
          "internalType": "bool",
          "name": "",
          "type": "bool"
        }
      ],
      "stateMutability": "view",
      "type": "function"
    },
    {
      "inputs": [
        {
          "internalType": "uint256",
          "name": "",
          "type": "uint256"
        }
      ],
      "name": "presaleMaxSupply",
      "outputs": [
        {
          "internalType": "uint256",
          "name": "",
          "type": "uint256"
        }
      ],
      "stateMutability": "view",
      "type": "function"
    },
    {
      "inputs": [
        {
          "internalType": "uint256",
          "name": "",
          "type": "uint256"
        },
        {
          "internalType": "uint256",
          "name": "",
          "type": "uint256"
        }
      ],
      "name": "presalePrice",
      "outputs": [
        {
          "internalType": "uint256",
          "name": "",
          "type": "uint256"
        }
      ],
      "stateMutability": "view",
      "type": "function"
    },
    {
      "inputs": [
        {
          "internalType": "uint256",
          "name": "",
          "type": "uint256"
        }
      ],
      "name": "price",
      "outputs": [
        {
          "internalType": "uint256",
          "name": "",
          "type": "uint256"
        }
      ],
      "stateMutability": "view",
      "type": "function"
    },
    {
      "inputs": [
        {
          "internalType": "uint256",
          "name": "",
          "type": "uint256"
        }
      ],
      "name": "priceDistributionOnMint",
      "outputs": [
        {
          "internalType": "uint256",
          "name": "",
          "type": "uint256"
        }
      ],
      "stateMutability": "view",
      "type": "function"
    },
    {
      "inputs": [
        {
          "internalType": "uint256",
          "name": "",
          "type": "uint256"
        }
      ],
      "name": "profitDistribution",
      "outputs": [
        {
          "internalType": "uint256",
          "name": "",
          "type": "uint256"
        }
      ],
      "stateMutability": "view",
      "type": "function"
    },
    {
      "inputs": [
        {
          "internalType": "uint256",
          "name": "",
          "type": "uint256"
        }
      ],
      "name": "profitToDistribute",
      "outputs": [
        {
          "internalType": "uint256",
          "name": "",
          "type": "uint256"
        }
      ],
      "stateMutability": "view",
      "type": "function"
    },
    {
      "inputs": [],
      "name": "referralShareForNFTPurchase",
      "outputs": [
        {
          "internalType": "uint256",
          "name": "",
          "type": "uint256"
        }
      ],
      "stateMutability": "view",
      "type": "function"
    },
    {
      "inputs": [
        {
          "internalType": "bytes32",
          "name": "role",
          "type": "bytes32"
        },
        {
          "internalType": "address",
          "name": "account",
          "type": "address"
        }
      ],
      "name": "renounceRole",
      "outputs": [],
      "stateMutability": "nonpayable",
      "type": "function"
    },
    {
      "inputs": [
        {
          "internalType": "bytes32",
          "name": "role",
          "type": "bytes32"
        },
        {
          "internalType": "address",
          "name": "account",
          "type": "address"
        }
      ],
      "name": "revokeRole",
      "outputs": [],
      "stateMutability": "nonpayable",
      "type": "function"
    },
    {
      "inputs": [
        {
          "internalType": "address",
          "name": "from",
          "type": "address"
        },
        {
          "internalType": "address",
          "name": "to",
          "type": "address"
        },
        {
          "internalType": "uint256[]",
          "name": "ids",
          "type": "uint256[]"
        },
        {
          "internalType": "uint256[]",
          "name": "amounts",
          "type": "uint256[]"
        },
        {
          "internalType": "bytes",
          "name": "data",
          "type": "bytes"
        }
      ],
      "name": "safeBatchTransferFrom",
      "outputs": [],
      "stateMutability": "nonpayable",
      "type": "function"
    },
    {
      "inputs": [
        {
          "internalType": "uint256",
          "name": "",
          "type": "uint256"
        }
      ],
      "name": "safeToDistribute",
      "outputs": [
        {
          "internalType": "uint256",
          "name": "",
          "type": "uint256"
        }
      ],
      "stateMutability": "view",
      "type": "function"
    },
    {
      "inputs": [],
      "name": "safeToken",
      "outputs": [
        {
          "internalType": "contract ISafeToken",
          "name": "",
          "type": "address"
        }
      ],
      "stateMutability": "view",
      "type": "function"
    },
    {
      "inputs": [
        {
          "internalType": "address",
          "name": "from",
          "type": "address"
        },
        {
          "internalType": "address",
          "name": "to",
          "type": "address"
        },
        {
          "internalType": "uint256",
          "name": "id",
          "type": "uint256"
        },
        {
          "internalType": "uint256",
          "name": "amount",
          "type": "uint256"
        },
        {
          "internalType": "bytes",
          "name": "data",
          "type": "bytes"
        }
      ],
      "name": "safeTransferFrom",
      "outputs": [],
      "stateMutability": "nonpayable",
      "type": "function"
    },
    {
      "inputs": [],
      "name": "safeVault",
      "outputs": [
        {
          "internalType": "contract ISafeVault",
          "name": "",
          "type": "address"
        }
      ],
      "stateMutability": "view",
      "type": "function"
    },
    {
      "inputs": [
        {
          "internalType": "address",
          "name": "_ambassador",
          "type": "address"
        }
      ],
      "name": "setAmbassador",
      "outputs": [],
      "stateMutability": "nonpayable",
      "type": "function"
    },
    {
      "inputs": [
        {
          "internalType": "address",
          "name": "operator",
          "type": "address"
        },
        {
          "internalType": "bool",
          "name": "approved",
          "type": "bool"
        }
      ],
      "name": "setApprovalForAll",
      "outputs": [],
      "stateMutability": "nonpayable",
      "type": "function"
    },
    {
      "inputs": [
        {
          "internalType": "uint256",
          "name": "_discountedPrice",
          "type": "uint256"
        }
      ],
      "name": "setDiscountedPrice",
      "outputs": [],
      "stateMutability": "nonpayable",
      "type": "function"
    },
    {
      "inputs": [
        {
          "internalType": "uint256[4]",
          "name": "_presaleMaxSupply",
          "type": "uint256[4]"
        }
      ],
      "name": "setPresaleMaxSupply",
      "outputs": [],
      "stateMutability": "nonpayable",
      "type": "function"
    },
    {
      "inputs": [
        {
          "internalType": "uint256",
          "name": "_tokenId",
          "type": "uint256"
        },
        {
          "internalType": "string",
          "name": "_tokenURI",
          "type": "string"
        }
      ],
      "name": "setURI",
      "outputs": [],
      "stateMutability": "nonpayable",
      "type": "function"
    },
    {
      "inputs": [
        {
          "internalType": "uint256",
          "name": "",
          "type": "uint256"
        },
        {
          "internalType": "address",
          "name": "",
          "type": "address"
        },
        {
          "internalType": "uint256",
          "name": "",
          "type": "uint256"
        }
      ],
      "name": "snapshotOfOwnedTokens",
      "outputs": [
        {
          "internalType": "uint256",
          "name": "",
          "type": "uint256"
        }
      ],
      "stateMutability": "view",
      "type": "function"
    },
    {
      "inputs": [
        {
          "internalType": "uint256",
          "name": "",
          "type": "uint256"
        },
        {
          "internalType": "uint256",
          "name": "",
          "type": "uint256"
        }
      ],
      "name": "snapshotOfTotalSupply",
      "outputs": [
        {
          "internalType": "uint256",
          "name": "",
          "type": "uint256"
        }
      ],
      "stateMutability": "view",
      "type": "function"
    },
    {
      "inputs": [
        {
          "internalType": "uint256",
          "name": "",
          "type": "uint256"
        }
      ],
      "name": "soldInDiscountedSale",
      "outputs": [
        {
          "internalType": "uint256",
          "name": "",
          "type": "uint256"
        }
      ],
      "stateMutability": "view",
      "type": "function"
    },
    {
      "inputs": [
        {
          "internalType": "address",
          "name": "",
          "type": "address"
        },
        {
          "internalType": "uint256",
          "name": "",
          "type": "uint256"
        },
        {
          "internalType": "uint256",
          "name": "",
          "type": "uint256"
        }
      ],
      "name": "soldPerPresaleWeek",
      "outputs": [
        {
          "internalType": "uint256",
          "name": "",
          "type": "uint256"
        }
      ],
      "stateMutability": "view",
      "type": "function"
    },
    {
      "inputs": [
        {
          "internalType": "bytes4",
          "name": "interfaceId",
          "type": "bytes4"
        }
      ],
      "name": "supportsInterface",
      "outputs": [
        {
          "internalType": "bool",
          "name": "",
          "type": "bool"
        }
      ],
      "stateMutability": "view",
      "type": "function"
    },
    {
      "inputs": [],
      "name": "togglePresale",
      "outputs": [],
      "stateMutability": "nonpayable",
      "type": "function"
    },
    {
      "inputs": [
        {
          "internalType": "uint256",
          "name": "",
          "type": "uint256"
        }
      ],
      "name": "tokenHolders",
      "outputs": [
        {
          "internalType": "address",
          "name": "",
          "type": "address"
        }
      ],
      "stateMutability": "view",
      "type": "function"
    },
    {
      "inputs": [
        {
          "internalType": "uint256",
          "name": "id",
          "type": "uint256"
        }
      ],
      "name": "totalSupply",
      "outputs": [
        {
          "internalType": "uint256",
          "name": "",
          "type": "uint256"
        }
      ],
      "stateMutability": "view",
      "type": "function"
    },
    {
      "inputs": [],
      "name": "unpause",
      "outputs": [],
      "stateMutability": "nonpayable",
      "type": "function"
    },
    {
      "inputs": [
        {
          "internalType": "uint256",
          "name": "_tokenId",
          "type": "uint256"
        }
      ],
      "name": "uri",
      "outputs": [
        {
          "internalType": "string",
          "name": "",
          "type": "string"
        }
      ],
      "stateMutability": "view",
      "type": "function"
    },
    {
      "inputs": [],
      "name": "usd",
      "outputs": [
        {
          "internalType": "contract IERC20",
          "name": "",
          "type": "address"
        }
      ],
      "stateMutability": "view",
      "type": "function"
    },
    {
      "inputs": [
        {
          "internalType": "uint256",
          "name": "",
          "type": "uint256"
        }
      ],
      "name": "wallets",
      "outputs": [
        {
          "internalType": "address",
          "name": "",
          "type": "address"
        }
      ],
      "stateMutability": "view",
      "type": "function"
    }
  ],
  "transactionHash": "0x544d0c2ae09675a4466b3bbb1577df635daa1612caadadb25114e4f0df648684",
  "args": [
    "",
    [
      "131250000",
      "262500000",
      "525000000",
      "1050000000"
    ],
    [
      2000,
      1000,
      1000,
      1000
    ],
    "0x519EfB2bEFBd3f00D335dc9DF42BF721D591604f",
    [
      20000000,
      30000000
    ],
    5000000,
    [
      10000000,
      30000000
    ],
    "0xe97BDb5600d711C38854d603a4748f98063314AB"
  ],
  "numDeployments": 17,
  "solcInputHash": "026ce2145223f8d924640983ffa469df",
  "bytecode": "0x60806040523480156200001157600080fd5b5060405162006697380380620066978339810160408190526200003491620008ad565b87806200004181620000b5565b506007805460ff1916905562000059600033620000c7565b620000746000805160206200667783398151915233620000c7565b6200008f6000805160206200665783398151915233620000c7565b506001600955620000a78888888888888888620000d3565b505050505050505062000bf2565b6006620000c3828262000a74565b5050565b620000c382826200050c565b6000620000ed600080516020620066378339815191525490565b90506001600160a01b0381166200011d576001600160a01b03600080516020620066378339815191525562000133565b336001600160a01b038216146200013357600080fd5b6200013e89620000b5565b6200014b600033620000c7565b620001666000805160206200667783398151915233620000c7565b620001816000805160206200665783398151915233620000c7565b62000190600a8960046200066f565b50620001a0601e8860046200066f565b50602480546001600160a01b0319166001600160a01b038816179055620001cb6027866002620006b2565b50602b849055620001e06029846002620006b2565b50602c80546001600160a01b0319166001600160a01b03848116919091179091556024546040805163db7a460560e01b815281516200027394939093169263db7a4605926004808401939192918290030181865afa15801562000247573d6000803e3d6000fd5b505050506040513d601f19601f820116820180604052508101906200026d919062000b40565b6200054f565b602460009054906101000a90046001600160a01b03166001600160a01b031663deef94de6040518163ffffffff1660e01b8152600401602060405180830381865afa158015620002c7573d6000803e3d6000fd5b505050506040513d601f19601f82011682018060405250810190620002ed919062000ba7565b602580546001600160a01b0319166001600160a01b039283161790556024546040805163d63a6ccd60e01b81529051919092169163d63a6ccd9160048083019260209291908290030181865afa1580156200034c573d6000803e3d6000fd5b505050506040513d601f19601f8201168201806040525081019062000372919062000ba7565b602680546001600160a01b0319166001600160a01b039283169081179091556024805460405163095ea7b360e01b815293166004840152600019908301529063095ea7b3906044016020604051808303816000875af1158015620003da573d6000803e3d6000fd5b505050506040513d601f19601f8201168201806040525081019062000400919062000bce565b5060265460255460405163095ea7b360e01b81526001600160a01b039182166004820152600019602482015291169063095ea7b3906044016020604051808303816000875af115801562000458573d6000803e3d6000fd5b505050506040513d601f19601f820116820180604052508101906200047e919062000bce565b506024805460405163095ea7b360e01b81526001600160a01b03909116600482018190526000199282019290925263095ea7b3906044016020604051808303816000875af1158015620004d5573d6000803e3d6000fd5b505050506040513d601f19601f82011682018060405250810190620004fb919062000bce565b505060006037555050505050505050565b6200052382826200055d60201b62002d011760201c565b60008281526001602090815260409091206200054a91839062002d85620005fd821b17901c565b505050565b620000c360028281620006e2565b6000828152602081815260408083206001600160a01b038516845290915290205460ff16620000c3576000828152602081815260408083206001600160a01b03851684529091529020805460ff19166001179055620005b93390565b6001600160a01b0316816001600160a01b0316837f2f8788117e7eff1d82e926ec794901d17c78024a50270940304540a733656f0d60405160405180910390a45050565b600062000614836001600160a01b0384166200061d565b90505b92915050565b6000818152600183016020526040812054620006665750815460018181018455600084815260208082209093018490558454848252828601909352604090209190915562000617565b50600062000617565b8260048101928215620006a0579160200282015b82811115620006a057825182559160200191906001019062000683565b50620006ae9291506200072d565b5090565b8260028101928215620006a05791602002820182811115620006a057825182559160200191906001019062000683565b8260028101928215620006a0579160200282015b82811115620006a057825182546001600160a01b0319166001600160a01b03909116178255602090920191600190910190620006f6565b5b80821115620006ae57600081556001016200072e565b634e487b7160e01b600052604160045260246000fd5b604080519081016001600160401b03811182821017156200077f576200077f62000744565b60405290565b604051601f8201601f191681016001600160401b0381118282101715620007b057620007b062000744565b604052919050565b600082601f830112620007ca57600080fd5b604051608081016001600160401b0381118282101715620007ef57620007ef62000744565b6040528060808401858111156200080557600080fd5b845b818110156200082157805183526020928301920162000807565b509195945050505050565b6001600160a01b03811681146200084257600080fd5b50565b805162000852816200082c565b919050565b600082601f8301126200086957600080fd5b620008736200075a565b8060408401858111156200088657600080fd5b845b81811015620008a257805184526020938401930162000888565b509095945050505050565b600080600080600080600080610200898b031215620008cb57600080fd5b88516001600160401b0380821115620008e357600080fd5b818b0191508b601f830112620008f857600080fd5b8151818111156200090d576200090d62000744565b6020915062000925601f8201601f1916830162000785565b8181528d838386010111156200093a57600080fd5b60005b828110156200095a5784810184015182820185015283016200093d565b506000838383010152809b505050620009768c828d01620007b8565b98505050620009898a60a08b01620007b8565b95506200099a6101208a0162000845565b9450620009ac8a6101408b0162000857565b93506101808901519250620009c68a6101a08b0162000857565b9150620009d76101e08a0162000845565b90509295985092959890939650565b600181811c90821680620009fb57607f821691505b60208210810362000a1c57634e487b7160e01b600052602260045260246000fd5b50919050565b601f8211156200054a57600081815260208120601f850160051c8101602086101562000a4b5750805b601f850160051c820191505b8181101562000a6c5782815560010162000a57565b505050505050565b81516001600160401b0381111562000a905762000a9062000744565b62000aa88162000aa18454620009e6565b8462000a22565b602080601f83116001811462000ae0576000841562000ac75750858301515b600019600386901b1c1916600185901b17855562000a6c565b600085815260208120601f198616915b8281101562000b115788860151825594840194600190910190840162000af0565b508582101562000b305787850151600019600388901b60f8161c191681555b5050505050600190811b01905550565b60006040828403121562000b5357600080fd5b82601f83011262000b6357600080fd5b62000b6d6200075a565b80604084018581111562000b8057600080fd5b845b81811015620008a257805162000b98816200082c565b84526020938401930162000b82565b60006020828403121562000bba57600080fd5b815162000bc7816200082c565b9392505050565b60006020828403121562000be157600080fd5b8151801515811462000bc757600080fd5b615a358062000c026000396000f3fe608060405234801561001057600080fd5b50600436106104935760003560e01c8063780069e011610262578063ca15c87311610151578063e4e7c6b4116100ce578063f0b8024d11610092578063f0b8024d14610acc578063f242432a14610adf578063f3430a1614610af2578063f5298aca14610b05578063fd18a25314610b18578063fdea8e0b14610b2b57600080fd5b8063e4e7c6b414610a18578063e63ab1e914610a2b578063e985e9c514610a52578063ebd3bb7714610a8e578063f0b2df8914610ab957600080fd5b8063d547741f11610115578063d547741f146109b9578063d63a6ccd146109cc578063deef94de146109df578063df71da76146109f2578063e2a21a9814610a0557600080fd5b8063ca15c87314610946578063ca7b244714610959578063d0d5a1ba1461096c578063d36dfac81461097f578063d53913931461099257600080fd5b8063923108d9116101df578063b1873f19116101a3578063b1873f1914610905578063b88a802f1461090d578063bd85b03914610915578063bf587d9a14610935578063c87881341461093d57600080fd5b8063923108d9146108bc5780639324b42a146108cf578063a1f5c239146108e2578063a217fddf146108ea578063a22cb465146108f257600080fd5b8063869f759411610226578063869f75941461085b5780638d3bd55b1461086e5780638e4ca8f8146108765780639010d07c1461089657806391d14854146108a957600080fd5b8063780069e0146107f35780637ad71f72146107fc5780637dfe59141461080f5780638456cb5914610840578063862440e21461084857600080fd5b80633a78a7d6116103895780635c975abb116103065780636d6689ea116102ca5780636d6689ea1461079a5780636e748f971461079a5780636ed93dd0146107a2578063730a83e5146107ad578063731133e9146107cd57806375970016146107e057600080fd5b80635c975abb1461073357806365011c101461073e57806365731fe9146107515780636ac60068146107745780636b20c4541461078757600080fd5b806351ba5b441161034d57806351ba5b44146106c557806352a1ad54146106cd57806352ad8e56146106e0578063553b6975146107005780635a89065a1461071357600080fd5b80633a78a7d61461064a5780633f4ba83a146106755780634b3fd05a1461067d5780634e1273f4146106905780634f558e79146106a357600080fd5b80631f7fdffa116104175780632eb2c2d6116103db5780632eb2c2d6146105f65780632f2ff15d14610609578063343937431461061c57806336568abe1461062457806337f1e7f21461063757600080fd5b80631f7fdffa1461059257806323f77fa9146105a5578063248a9ca3146105b857806326a49e37146105db5780632c13f08c146105ee57600080fd5b806306fdde031161045e57806306fdde03146105125780630e89341c1461054d578063104304f31461056057806316230257146105755780631a5e85e51461057d57600080fd5b8062a13c4c14610498578062ab1fa3146104b4578062fdd58e146104c957806301ffc9a7146104dc57806303b2add0146104ff575b600080fd5b6104a1602b5481565b6040519081526020015b60405180910390f35b6104c76104c23660046148b8565b610b3f565b005b6104a16104d73660046148e6565b610b74565b6104ef6104ea366004614928565b610c0a565b60405190151581526020016104ab565b6104a161050d3660046148b8565b610c15565b6105406040518060400160405280600f81526020016e14d8599948165a595b191cc8139195608a1b81525081565b6040516104ab9190614995565b61054061055b3660046148b8565b610c2c565b610568610cea565b6040516104ab91906149e3565b6104a1610d67565b610585610db9565b6040516104ab91906149f6565b6104c76105a0366004614b8a565b610e0d565b6105686105b3366004614c24565b610e65565b6104a16105c63660046148b8565b60009081526020819052604090206001015490565b6104a16105e93660046148b8565b610ed8565b610568610ee8565b6104c7610604366004614c41565b610f5f565b6104c7610617366004614cee565b610fab565b6104c7610fd5565b6104c7610632366004614cee565b611062565b6104a1610645366004614d32565b6110e0565b603b5461065d906001600160a01b031681565b6040516001600160a01b0390911681526020016104ab565b6104c761110e565b60245461065d906001600160a01b031681565b61056861069e366004614d4d565b6111b4565b6104ef6106b13660046148b8565b600090815260086020526040902054151590565b6104a16112dd565b6104a16106db366004614e19565b6113be565b6104a16106ee3660046148b8565b603f6020526000908152604090205481565b6104c761070e366004614c24565b6113e9565b6104a16107213660046148b8565b60386020526000908152604090205481565b60075460ff166104ef565b602c5461065d906001600160a01b031681565b6104ef61075f366004614c24565b60366020526000908152604090205460ff1681565b6104c7610782366004614ed7565b611432565b6104c7610795366004614f90565b611887565b6104a1600481565b6104a16305f5e10081565b6104a16107bb3660046148b8565b60396020526000908152604090205481565b6104c76107db366004615005565b6118ca565b6104c76107ee36600461505b565b61191c565b6104a160375481565b61065d61080a3660046148b8565b611950565b6104a161081d366004615077565b602d60209081526000938452604080852082529284528284209052825290205481565b6104c7611970565b6104c76108563660046150ac565b611a14565b6104a16108693660046148b8565b611a53565b6104a1600281565b6104a16108843660046148b8565b60406020819052600091825290205481565b61065d6108a4366004614e19565b611a63565b6104ef6108b7366004614cee565b611a7b565b61065d6108ca3660046148b8565b611aa4565b6104c76108dd366004615077565b611ace565b610568611b00565b6104a1600081565b6104c76109003660046150f6565b611b12565b610568611b1d565b6104c7611bd7565b6104a16109233660046148b8565b60009081526008602052604090205490565b6104a1611d36565b6104a1603e5481565b6104a16109543660046148b8565b611d49565b6104a16109673660046148b8565b611d60565b6104c761097a366004615124565b611d70565b6104c761098d3660046148b8565b612599565b6104a17f9f2df0fed2c77648de5860a4cc508cd0818c85b8b8a1ab4ceeef8d981c8956a681565b6104c76109c7366004614cee565b612961565b60265461065d906001600160a01b031681565b60255461065d906001600160a01b031681565b6104a1610a003660046148b8565b612986565b6104a1610a13366004615164565b612996565b6104a1610a263660046148e6565b6129c8565b6104a17f65d7a28e3265b37a6474929f336521b332c1681b933f6cb9f3376673440d862a81565b6104ef610a6036600461519c565b6001600160a01b03918216600090815260056020908152604080832093909416825291909152205460ff1690565b6104a1610a9c366004614cee565b603a60209081526000928352604080842090915290825290205481565b6104a1610ac7366004614d32565b612b44565b6104a1610ada366004614e19565b612c24565b6104c7610aed3660046151ca565b612c40565b6104c7610b00366004615232565b612c85565b6104c7610b13366004615077565b612cb9565b6104a1610b263660046148b8565b612cf1565b602c546104ef90600160a01b900460ff1681565b610b4a600033611a7b565b610b6f5760405162461bcd60e51b8152600401610b669061524e565b60405180910390fd5b603e55565b60006001600160a01b038316610bdf5760405162461bcd60e51b815260206004820152602a60248201527f455243313135353a2061646472657373207a65726f206973206e6f742061207660448201526930b634b21037bbb732b960b11b6064820152608401610b66565b5060008181526004602090815260408083206001600160a01b03861684529091529020545b92915050565b6000610c0482612d9a565b60328160048110610c2557600080fd5b0154905081565b600081815260226020526040812080546060929190610c4a9061529d565b80601f0160208091040260200160405190810160405280929190818152602001828054610c769061529d565b8015610cc35780601f10610c9857610100808354040283529160200191610cc3565b820191906000526020600020905b815481529060010190602001808311610ca657829003601f168201915b505050505090506000815111610ce157610cdc83612da5565b610ce3565b805b9392505050565b60408051600480825260a08201909252606091600091906020820160808036833701905050905060005b6004811015610d6157600a8160048110610d3057610d306152d1565b0154828281518110610d4457610d446152d1565b602090810291909101015280610d59816152fd565b915050610d14565b50919050565b60375460009081905b8015610d6157603754600090815260406020818152818320546039909152912054610d9b9190615316565b610da59083615329565b915080610db18161533c565b915050610d70565b610dc16147d2565b610dc96147d2565b60005b6004811015610d6157600081815260086020526040902054828260048110610df657610df66152d1565b602002015280610e05816152fd565b915050610dcc565b610e377f9f2df0fed2c77648de5860a4cc508cd0818c85b8b8a1ab4ceeef8d981c8956a633611a7b565b610e535760405162461bcd60e51b8152600401610b6690615353565b610e5f84848484612e39565b50505050565b60408051600480825260a08201909252606091600091906020820160808036833701905050905060005b6004811015610ed157610ea28482610b74565b828281518110610eb457610eb46152d1565b602090810291909101015280610ec9816152fd565b915050610e8f565b5092915050565b600a8160048110610c2557600080fd5b60408051600480825260a08201909252606091600091906020820160808036833701905050905060005b6004811015610d6157610f30816003811115610ac757610ac76153b0565b828281518110610f4257610f426152d1565b602090810291909101015280610f57816152fd565b915050610f12565b6001600160a01b038516331480610f7b5750610f7b8533610a60565b610f975760405162461bcd60e51b8152600401610b66906153c6565b610fa48585858585612fa3565b5050505050565b600082815260208190526040902060010154610fc68161315e565b610fd08383613168565b505050565b610fe0600033611a7b565b610ffc5760405162461bcd60e51b8152600401610b669061524e565b602c805460ff600160a01b808304821615810260ff60a01b1990931692909217928390556040517f512e257b3133a95bd1fef520dafc0dfb212f406af4f808d030e788c8ff536c04936110589390049091161515815260200190565b60405180910390a1565b6001600160a01b03811633146110d25760405162461bcd60e51b815260206004820152602f60248201527f416363657373436f6e74726f6c3a2063616e206f6e6c792072656e6f756e636560448201526e103937b632b9903337b91039b2b63360891b6064820152608401610b66565b6110dc828261318a565b5050565b6000600a8260038111156110f6576110f66153b0565b60048110611106576111066152d1565b015492915050565b6111387f65d7a28e3265b37a6474929f336521b332c1681b933f6cb9f3376673440d862a33611a7b565b6111aa5760405162461bcd60e51b815260206004820152603b60248201527f455243313135355072657365744d696e7465725061757365723a206d7573742060448201527f686176652070617573657220726f6c6520746f20756e706175736500000000006064820152608401610b66565b6111b26131ac565b565b606081518351146112195760405162461bcd60e51b815260206004820152602960248201527f455243313135353a206163636f756e747320616e6420696473206c656e677468604482015268040dad2e6dac2e8c6d60bb1b6064820152608401610b66565b600083516001600160401b0381111561123457611234614a27565b60405190808252806020026020018201604052801561125d578160200160208202803683370190505b50905060005b84518110156112d5576112a8858281518110611281576112816152d1565b602002602001015185838151811061129b5761129b6152d1565b6020026020010151610b74565b8282815181106112ba576112ba6152d1565b60209081029190910101526112ce816152fd565b9050611263565b509392505050565b60003381805b6004811015611329576112f7816001615329565b6113018483610b74565b61130b9190615414565b6113159083615329565b915080611321816152fd565b9150506112e3565b506000611334610db9565b90506000805b600481101561138d5761134e816001615329565b838260048110611360576113606152d1565b602002015161136f9190615414565b6113799083615329565b915080611385816152fd565b91505061133a565b5080156113b257806113a36305f5e10085615414565b6113ad919061542b565b6113b5565b60005b94505050505090565b600e82600481106113ce57600080fd5b6004020181600481106113e057600080fd5b01549150829050565b6113f4600033611a7b565b6114105760405162461bcd60e51b8152600401610b669061524e565b603b80546001600160a01b0319166001600160a01b0392909216919091179055565b600061145c7fb53127684a568b3173ae13b9f8a6016e243e63b6e8ee1178d6a717850b5d61035490565b90506001600160a01b03811661149b576001600160a01b037fb53127684a568b3173ae13b9f8a6016e243e63b6e8ee1178d6a717850b5d6103556114b0565b336001600160a01b038216146114b057600080fd5b6114b9896131f9565b6114c4600033613205565b6114ee7f9f2df0fed2c77648de5860a4cc508cd0818c85b8b8a1ab4ceeef8d981c8956a633613205565b6115187f65d7a28e3265b37a6474929f336521b332c1681b933f6cb9f3376673440d862a33613205565b611525600a8960046147f0565b50611533601e8860046147f0565b50602480546001600160a01b0319166001600160a01b03881617905561155c602786600261482e565b50602b84905561156f602984600261482e565b50602c80546001600160a01b0319166001600160a01b03848116919091179091556024546040805163db7a460560e01b815281516115fd94939093169263db7a4605926004808401939192918290030181865afa1580156115d4573d6000803e3d6000fd5b505050506040513d601f19601f820116820180604052508101906115f8919061544d565b61320f565b602460009054906101000a90046001600160a01b03166001600160a01b031663deef94de6040518163ffffffff1660e01b8152600401602060405180830381865afa158015611650573d6000803e3d6000fd5b505050506040513d601f19601f8201168201806040525081019061167491906154af565b602580546001600160a01b0319166001600160a01b039283161790556024546040805163d63a6ccd60e01b81529051919092169163d63a6ccd9160048083019260209291908290030181865afa1580156116d2573d6000803e3d6000fd5b505050506040513d601f19601f820116820180604052508101906116f691906154af565b602680546001600160a01b0319166001600160a01b039283169081179091556024805460405163095ea7b360e01b815293166004840152600019908301529063095ea7b3906044016020604051808303816000875af115801561175d573d6000803e3d6000fd5b505050506040513d601f19601f8201168201806040525081019061178191906154cc565b5060265460255460405163095ea7b360e01b81526001600160a01b039182166004820152600019602482015291169063095ea7b3906044016020604051808303816000875af11580156117d8573d6000803e3d6000fd5b505050506040513d601f19601f820116820180604052508101906117fc91906154cc565b506024805460405163095ea7b360e01b81526001600160a01b03909116600482018190526000199282019290925263095ea7b3906044016020604051808303816000875af1158015611852573d6000803e3d6000fd5b505050506040513d601f19601f8201168201806040525081019061187691906154cc565b505060006037555050505050505050565b6001600160a01b0383163314806118a357506118a38333610a60565b6118bf5760405162461bcd60e51b8152600401610b66906153c6565b610fd083838361321b565b6118f47f9f2df0fed2c77648de5860a4cc508cd0818c85b8b8a1ab4ceeef8d981c8956a633611a7b565b6119105760405162461bcd60e51b8152600401610b6690615353565b610e5f848484846133c4565b611927600033611a7b565b6119435760405162461bcd60e51b8152600401610b669061524e565b6110dc602782600261482e565b6002816002811061196057600080fd5b01546001600160a01b0316905081565b61199a7f65d7a28e3265b37a6474929f336521b332c1681b933f6cb9f3376673440d862a33611a7b565b611a0c5760405162461bcd60e51b815260206004820152603960248201527f455243313135355072657365744d696e7465725061757365723a206d7573742060448201527f686176652070617573657220726f6c6520746f207061757365000000000000006064820152608401610b66565b6111b26134be565b611a1f600033611a7b565b611a3b5760405162461bcd60e51b8152600401610b669061524e565b6000828152602260205260409020610fd0828261552f565b601e8160048110610c2557600080fd5b6000828152600160205260408120610ce390836134fb565b6000918252602082815260408084206001600160a01b0393909316845291905290205460ff1690565b60238181548110611ab457600080fd5b6000918252602090912001546001600160a01b0316905081565b611ad9600033611a7b565b611af55760405162461bcd60e51b8152600401610b669061524e565b610fd0838383613507565b606033611b0c81610e65565b91505090565b6110dc33838361362d565b60408051600480825260a08201909252606091600091906020820160808036833701905050905060005b6004811015610d61576000818152603f602052604090205460328260048110611b7257611b726152d1565b0154602e8360048110611b8757611b876152d1565b0154611b94906004615414565b611b9e9190615316565b611ba89190615316565b828281518110611bba57611bba6152d1565b602090810291909101015280611bcf816152fd565b915050611b47565b611bdf61370d565b60375433905b8015611d2a576000611bf783836129c8565b905060008111611c3f5760405162461bcd60e51b81526020600482015260136024820152724e6f207265776172647320746f20636c61696d60681b6044820152606401610b66565b8015611d17576024805460405163a9059cbb60e01b81526001600160a01b03868116600483015292810184905291169063a9059cbb906044016020604051808303816000875af1158015611c97573d6000803e3d6000fd5b505050506040513d601f19601f82011682018060405250810190611cbb91906154cc565b506000828152603a602090815260408083206001600160a01b038716845290915281208054839290611cee908490615329565b909155505060008281526040602081905281208054839290611d11908490615329565b90915550505b5080611d228161533c565b915050611be5565b50506111b26001600955565b6000611d44336037546129c8565b905090565b6000818152600160205260408120610c0490613766565b60298160028110610c2557600080fd5b611d7861370d565b60008211611dee5760405162461bcd60e51b815260206004820152603960248201527f45205243313135355072657365744d696e7465725061757365723a20616d6f7560448201527f6e74206d7573742062652067726561746572207468616e2030000000000000006064820152608401610b66565b6000600a846003811115611e0457611e046153b0565b60048110611e1457611e146152d1565b015411611e895760405162461bcd60e51b815260206004820152603c60248201527f455243313135355072657365744d696e7465725061757365723a20746965722060448201527f7072696365206d7573742062652067726561746572207468616e2030000000006064820152608401610b66565b6001600160a01b0381161580159080611eb35750808015611eb357506001600160a01b0382163314155b611f0e5760405162461bcd60e51b815260206004820152602660248201527f526566657272616c206d75737420626520646966666572656e742066726f6d2060448201526539b2b73232b960d11b6064820152608401610b66565b6000846003811115611f2257611f226153b0565b602c54909150600160a01b900460ff16156122ed573360006032876003811115611f4e57611f4e6153b0565b60048110611f5e57611f5e6152d1565b0154602e886003811115611f7457611f746153b0565b60048110611f8457611f846152d1565b0154611f91906004615414565b611f9b9190615316565b9050808611156120025760405162461bcd60e51b815260206004820152602c60248201527f4d6178696d756d20737570706c7920686173206265656e20726561636865642060448201526b3337b9103a3432903a34b2b960a11b6064820152608401610b66565b85603f6000896003811115612019576120196153b0565b815260200190815260200160002060008282546120369190615329565b9250508190555060006305f5e10087603e54600a8b600381111561205c5761205c6153b0565b6004811061206c5761206c6152d1565b01546120789190615414565b6120829190615414565b61208c919061542b565b6026549091506001600160a01b03166323b872dd336040516001600160e01b031960e084901b1681526001600160a01b039091166004820152306024820152604481018490526064016020604051808303816000875af11580156120f4573d6000803e3d6000fd5b505050506040513d601f19601f8201168201806040525081019061211891906154cc565b50600085612127576000612144565b602654602b54612144916001600160a01b03169084908a90613770565b905060008615612155576000612178565b602654603b54602b54612178926001600160a01b03908116928792911690613770565b602654909150600090612196906001600160a01b03168560276138d5565b6026546040516370a0823160e01b81523060048201529192506000916001600160a01b03909116906370a0823190602401602060405180830381865afa1580156121e4573d6000803e3d6000fd5b505050506040513d601f19601f8201168201806040525081019061220891906155ee565b9050801561228b57602654602c5460405163a9059cbb60e01b81526001600160a01b0391821660048201526024810184905291169063a9059cbb906044016020604051808303816000875af1158015612265573d6000803e3d6000fd5b505050506040513d601f19601f8201168201806040525081019061228991906154cc565b505b8b600381111561229d5761229d6153b0565b8b886001600160a01b03167f4e26b0356a15833a75d497ecc40ebbb716b99466ed0dba9454f1fff451e25a90886040516122d991815260200190565b60405180910390a450505050505050612572565b600084600a876003811115612304576123046153b0565b60048110612314576123146152d1565b01546123209190615414565b6026549091506001600160a01b03166323b872dd336040516001600160e01b031960e084901b1681526001600160a01b039091166004820152306024820152604481018490526064016020604051808303816000875af1158015612388573d6000803e3d6000fd5b505050506040513d601f19601f820116820180604052508101906123ac91906154cc565b5060006123c9826027866123c15760006139d3565b602b546139d3565b6024805460405163f7e0ba5f60e01b8152600481018490529293506000926001600160a01b039091169163f7e0ba5f91016020604051808303816000875af1158015612419573d6000803e3d6000fd5b505050506040513d601f19601f8201168201806040525081019061243d91906155ee565b60245490915060009061245b906001600160a01b03168360276138d5565b90508515612498576000612488602460009054906101000a90046001600160a01b0316848a602b54613770565b90506124948183615329565b9150505b6026546040516370a0823160e01b81523060048201526000916001600160a01b0316906370a0823190602401602060405180830381865afa1580156124e1573d6000803e3d6000fd5b505050506040513d601f19601f8201168201806040525081019061250591906155ee565b9050801561256c5760255460405163b6b55f2560e01b8152600481018390526001600160a01b039091169063b6b55f2590602401600060405180830381600087803b15801561255357600080fd5b505af1158015612567573d6000803e3d6000fd5b505050505b50505050505b61258d338286604051806020016040528060008152506133c4565b5050610fd06001600955565b6125a161370d565b6026546001600160a01b03166323b872dd336040516001600160e01b031960e084901b1681526001600160a01b039091166004820152306024820152604481018490526064016020604051808303816000875af1158015612606573d6000803e3d6000fd5b505050506040513d601f19601f8201168201806040525081019061262a91906154cc565b506037805490600061263b836152fd565b9091555050603754600090815260386020526040812082905560265461266c906001600160a01b03168360296138d5565b905060006305f5e10061268284620f4240615414565b61268d906005615414565b612697919061542b565b603b549091506001600160a01b03161561272657602654603b5460405163a9059cbb60e01b81526001600160a01b0391821660048201526024810184905291169063a9059cbb906044016020604051808303816000875af1158015612700573d6000803e3d6000fd5b505050506040513d601f19601f8201168201806040525081019061272491906154cc565b505b602654602c5460405163a9059cbb60e01b81526001600160a01b0391821660048201526024810184905291169063a9059cbb906044016020604051808303816000875af115801561277b573d6000803e3d6000fd5b505050506040513d601f19601f8201168201806040525081019061279f91906154cc565b5060006127ad826002615414565b6127b78486615316565b6127c19190615316565b905060005b6023548110156128ab576000602382815481106127e5576127e56152d1565b6000918252602090912001546001600160a01b03169050801580159061282357506001600160a01b03811660009081526036602052604090205460ff165b156128985760005b60048110156128965760006128408383610b74565b90508015612883576037546000908152603c602090815260408083206001600160a01b0387168452909152902081908360048110612880576128806152d1565b01555b508061288e816152fd565b91505061282b565b505b50806128a3816152fd565b9150506127c6565b506024805460405163f7e0ba5f60e01b8152600481018490526001600160a01b039091169163f7e0ba5f91016020604051808303816000875af11580156128f6573d6000803e3d6000fd5b505050506040513d601f19601f8201168201806040525081019061291a91906155ee565b603754600090815260396020526040902055612934610db9565b6037546000908152603d602052604090206129509160046147f0565b5050505061295e6001600955565b50565b60008281526020819052604090206001015461297c8161315e565b610fd0838361318a565b60278160028110610c2557600080fd5b603c60205282600052604060002060205281600052604060002081600481106129be57600080fd5b0154925083915050565b6000818152603c602090815260408083206001600160a01b038616845290915280822081516080810192839052839283929060049082845b815481526020019060010190808311612a00575050505050905060005b6004811015612a7057612a31816001615329565b828260048110612a4357612a436152d1565b6020020151612a529190615414565b612a5c9084615329565b925080612a68816152fd565b915050612a1d565b506000805b6004811015612ad257612a89816001615329565b6000878152603d602052604090208260048110612aa857612aa86152d1565b0154612ab49190615414565b612abe9083615329565b915080612aca816152fd565b915050612a75565b5060008115612b06576000868152603960205260409020548290612af7908690615414565b612b01919061542b565b612b09565b60005b6000878152603a602090815260408083206001600160a01b038c168452909152902054909150612b399082615316565b979650505050505050565b600080600a836003811115612b5b57612b5b6153b0565b60048110612b6b57612b6b6152d1565b015490506000612b86846003811115610923576109236153b0565b15612ba557612ba0846003811115610923576109236153b0565b612ba8565b60015b90506000805b603754811015612be557600081815260386020526040902054612bd19083615329565b915080612bdd816152fd565b915050612bae565b50600082866003811115612bfb57612bfb6153b0565b612c059084615414565b612c0f919061542b565b612c199085615329565b509295945050505050565b603d60205281600052604060002081600481106113e057600080fd5b6001600160a01b038516331480612c5c5750612c5c8533610a60565b612c785760405162461bcd60e51b8152600401610b66906153c6565b610fa48585858585613a44565b612c90600033611a7b565b612cac5760405162461bcd60e51b8152600401610b669061524e565b6110dc602e8260046147f0565b6001600160a01b038316331480612cd55750612cd58333610a60565b611af55760405162461bcd60e51b8152600401610b66906153c6565b602e8160048110610c2557600080fd5b612d0b8282611a7b565b6110dc576000828152602081815260408083206001600160a01b03851684529091529020805460ff19166001179055612d413390565b6001600160a01b0316816001600160a01b0316837f2f8788117e7eff1d82e926ec794901d17c78024a50270940304540a733656f0d60405160405180910390a45050565b6000610ce3836001600160a01b038416613b8e565b6000610c0482613bdd565b606060068054612db49061529d565b80601f0160208091040260200160405190810160405280929190818152602001828054612de09061529d565b8015612e2d5780601f10612e0257610100808354040283529160200191612e2d565b820191906000526020600020905b815481529060010190602001808311612e1057829003601f168201915b50505050509050919050565b6001600160a01b038416612e5f5760405162461bcd60e51b8152600401610b6690615607565b8151835114612e805760405162461bcd60e51b8152600401610b6690615648565b33612e9081600087878787613c1d565b60005b8451811015612f2c57838181518110612eae57612eae6152d1565b602002602001015160046000878481518110612ecc57612ecc6152d1565b602002602001015181526020019081526020016000206000886001600160a01b03166001600160a01b031681526020019081526020016000206000828254612f149190615329565b90915550819050612f24816152fd565b915050612e93565b50846001600160a01b031660006001600160a01b0316826001600160a01b03167f4a39dc06d4c0dbc64b70af90fd698a233a518aa5d07e595d983b8c0526c8f7fb8787604051612f7d929190615690565b60405180910390a4612f9481600087878787613d63565b610fa481600087878787613ef3565b8151835114612fc45760405162461bcd60e51b8152600401610b6690615648565b6001600160a01b038416612fea5760405162461bcd60e51b8152600401610b66906156be565b33612ff9818787878787613c1d565b60005b84518110156130e2576000858281518110613019576130196152d1565b602002602001015190506000858381518110613037576130376152d1565b60209081029190910181015160008481526004835260408082206001600160a01b038e1683529093529190912054909150818110156130885760405162461bcd60e51b8152600401610b6690615703565b60008381526004602090815260408083206001600160a01b038e8116855292528083208585039055908b168252812080548492906130c7908490615329565b92505081905550505050806130db906152fd565b9050612ffc565b50846001600160a01b0316866001600160a01b0316826001600160a01b03167f4a39dc06d4c0dbc64b70af90fd698a233a518aa5d07e595d983b8c0526c8f7fb8787604051613132929190615690565b60405180910390a4613148818787878787613d63565b613156818787878787613ef3565b505050505050565b61295e813361404e565b6131728282612d01565b6000828152600160205260409020610fd09082612d85565b61319482826140a7565b6000828152600160205260409020610fd0908261410c565b6131b4614121565b6007805460ff191690557f5db9ee0a495bf2e6ff9c91a7834c1ba4fdd244a5e8aa4e537bd38aeae4b073aa335b6040516001600160a01b039091168152602001611058565b60066110dc828261552f565b6110dc8282613168565b6110dc6002828161485b565b6001600160a01b0383166132415760405162461bcd60e51b8152600401610b669061574d565b80518251146132625760405162461bcd60e51b8152600401610b6690615648565b600033905061328581856000868660405180602001604052806000815250613c1d565b60005b835181101561334d5760008482815181106132a5576132a56152d1565b6020026020010151905060008483815181106132c3576132c36152d1565b60209081029190910181015160008481526004835260408082206001600160a01b038c1683529093529190912054909150818110156133145760405162461bcd60e51b8152600401610b6690615790565b60009283526004602090815260408085206001600160a01b038b1686529091529092209103905580613345816152fd565b915050613288565b5060006001600160a01b0316846001600160a01b0316826001600160a01b03167f4a39dc06d4c0dbc64b70af90fd698a233a518aa5d07e595d983b8c0526c8f7fb868660405161339e929190615690565b60405180910390a4610e5f81856000868660405180602001604052806000815250613d63565b6001600160a01b0384166133ea5760405162461bcd60e51b8152600401610b6690615607565b3360006133f68561416a565b905060006134038561416a565b905061341483600089858589613c1d565b60008681526004602090815260408083206001600160a01b038b16845290915281208054879290613446908490615329565b909155505060408051878152602081018790526001600160a01b03808a1692600092918716917fc3d58168c5ae7397731d063d5bbf3d657854427343f4c083240f7aacaa2d0f62910160405180910390a46134a683600089858589613d63565b6134b5836000898989896141b5565b50505050505050565b6134c6614270565b6007805460ff191660011790557f62e78cea01bee320cd4e420270b5ea74000d11b0c9f74754ebdbfc544b05a2586131e13390565b6000610ce383836142b6565b6001600160a01b03831661352d5760405162461bcd60e51b8152600401610b669061574d565b3360006135398461416a565b905060006135468461416a565b905061356683876000858560405180602001604052806000815250613c1d565b60008581526004602090815260408083206001600160a01b038a168452909152902054848110156135a95760405162461bcd60e51b8152600401610b6690615790565b60008681526004602090815260408083206001600160a01b038b81168086529184528285208a8703905582518b81529384018a90529092908816917fc3d58168c5ae7397731d063d5bbf3d657854427343f4c083240f7aacaa2d0f62910160405180910390a46134b584886000868660405180602001604052806000815250613d63565b816001600160a01b0316836001600160a01b0316036136a05760405162461bcd60e51b815260206004820152602960248201527f455243313135353a2073657474696e6720617070726f76616c20737461747573604482015268103337b91039b2b63360b91b6064820152608401610b66565b6001600160a01b03838116600081815260056020908152604080832094871680845294825291829020805460ff191686151590811790915591519182527f17307eab39ab6107e8899845ad3d59bd9653f200f220920489ca2b5937696c31910160405180910390a3505050565b60026009540361375f5760405162461bcd60e51b815260206004820152601f60248201527f5265656e7472616e637947756172643a207265656e7472616e742063616c6c006044820152606401610b66565b6002600955565b6000610c04825490565b6040516370a0823160e01b815230600482015260009081906001600160a01b038716906370a0823190602401602060405180830381865afa1580156137b9573d6000803e3d6000fd5b505050506040513d601f19601f820116820180604052508101906137dd91906155ee565b905060006305f5e1006137f08588615414565b6137fa919061542b565b9050808210156138575760405162461bcd60e51b815260206004820152602260248201527f4e6f7420656e6f7567682062616c616e6365206f6e2074686520636f6e74726160448201526118dd60f21b6064820152608401610b66565b60405163a9059cbb60e01b81526001600160a01b0386811660048301526024820183905288169063a9059cbb906044016020604051808303816000875af11580156138a6573d6000803e3d6000fd5b505050506040513d601f19601f820116820180604052508101906138ca91906154cc565b509695505050505050565b600080805b60028110156139ca5760006305f5e1008583600281106138fc576138fc6152d1565b01546139089088615414565b613912919061542b565b9050866001600160a01b031663a9059cbb60028460028110613936576139366152d1565b015460405160e083901b6001600160e01b03191681526001600160a01b039091166004820152602481018490526044016020604051808303816000875af1158015613985573d6000803e3d6000fd5b505050506040513d601f19601f820116820180604052508101906139a991906154cc565b506139b48184615329565b92505080806139c2906152fd565b9150506138da565b50949350505050565b6000806002815b81811015613a14578581600281106139f4576139f46152d1565b0154613a009084615329565b925080613a0c816152fd565b9150506139da565b50613a1f8483615329565b91506305f5e100613a308388615414565b613a3a919061542b565b9695505050505050565b6001600160a01b038416613a6a5760405162461bcd60e51b8152600401610b66906156be565b336000613a768561416a565b90506000613a838561416a565b9050613a93838989858589613c1d565b60008681526004602090815260408083206001600160a01b038c16845290915290205485811015613ad65760405162461bcd60e51b8152600401610b6690615703565b60008781526004602090815260408083206001600160a01b038d8116855292528083208985039055908a16825281208054889290613b15908490615329565b909155505060408051888152602081018890526001600160a01b03808b16928c821692918816917fc3d58168c5ae7397731d063d5bbf3d657854427343f4c083240f7aacaa2d0f62910160405180910390a4613b75848a8a86868a613d63565b613b83848a8a8a8a8a6141b5565b505050505050505050565b6000818152600183016020526040812054613bd557508154600181810184556000848152602080822090930184905584548482528286019093526040902091909155610c04565b506000610c04565b60006001600160e01b03198216636cdb3d1360e11b1480613c0e57506001600160e01b031982166303a24d0760e21b145b80610c045750610c04826142e0565b6001600160a01b038516613d555760005b8351811015613d53576004848281518110613c4b57613c4b6152d1565b602002602001015110613c965760405162461bcd60e51b815260206004820152601360248201527229b0b332a7232a1d103bb937b733903a34b2b960691b6044820152606401610b66565b601e848281518110613caa57613caa6152d1565b602002602001015160048110613cc257613cc26152d1565b0154613cf3858381518110613cd957613cd96152d1565b602002602001015160009081526008602052604090205490565b1115613d415760405162461bcd60e51b815260206004820152601b60248201527f536166654e46543a206d617820737570706c79207265616368656400000000006044820152606401610b66565b80613d4b816152fd565b915050613c2e565b505b613156868686868686614305565b6001600160a01b03851615613ddc57600160005b8451811015613db257613d968786838151811061129b5761129b6152d1565b15613da057600091505b80613daa816152fd565b915050613d77565b508015613dda576001600160a01b0386166000908152603660205260409020805460ff191690555b505b6001600160a01b03841615613eee5760005b8351811015613eec576004848281518110613e0b57613e0b6152d1565b602002602001015110613e565760405162461bcd60e51b815260206004820152601360248201527229b0b332a7232a1d103bb937b733903a34b2b960691b6044820152606401610b66565b6001600160a01b03851660009081526036602052604090205460ff16613eda576023805460018082019092557fd57b2b5166478fd4318d2acc6cc2c704584312bdd8781b32d5d06abda57f42300180546001600160a01b0319166001600160a01b0388169081179091556000908152603660205260409020805460ff191690911790555b80613ee4816152fd565b915050613dee565b505b613156565b6001600160a01b0384163b156131565760405163bc197c8160e01b81526001600160a01b0385169063bc197c8190613f3790899089908890889088906004016157d4565b6020604051808303816000875af1925050508015613f72575060408051601f3d908101601f19168201909252613f6f91810190615832565b60015b61401e57613f7e61584f565b806308c379a003613fb75750613f9261586b565b80613f9d5750613fb9565b8060405162461bcd60e51b8152600401610b669190614995565b505b60405162461bcd60e51b815260206004820152603460248201527f455243313135353a207472616e7366657220746f206e6f6e2d455243313135356044820152732932b1b2b4bb32b91034b6b83632b6b2b73a32b960611b6064820152608401610b66565b6001600160e01b0319811663bc197c8160e01b146134b55760405162461bcd60e51b8152600401610b66906158f4565b6140588282611a7b565b6110dc576140658161448c565b61407083602061449e565b60405160200161408192919061593c565b60408051601f198184030181529082905262461bcd60e51b8252610b6691600401614995565b6140b18282611a7b565b156110dc576000828152602081815260408083206001600160a01b0385168085529252808320805460ff1916905551339285917ff6391f5c32d9c69d2a47ea670b442974b53935d1edc7fd64eb21e047a839171b9190a45050565b6000610ce3836001600160a01b038416614639565b60075460ff166111b25760405162461bcd60e51b815260206004820152601460248201527314185d5cd8589b194e881b9bdd081c185d5cd95960621b6044820152606401610b66565b604080516001808252818301909252606091600091906020808301908036833701905050905082816000815181106141a4576141a46152d1565b602090810291909101015292915050565b6001600160a01b0384163b156131565760405163f23a6e6160e01b81526001600160a01b0385169063f23a6e61906141f990899089908890889088906004016159b1565b6020604051808303816000875af1925050508015614234575060408051601f3d908101601f1916820190925261423191810190615832565b60015b61424057613f7e61584f565b6001600160e01b0319811663f23a6e6160e01b146134b55760405162461bcd60e51b8152600401610b66906158f4565b60075460ff16156111b25760405162461bcd60e51b815260206004820152601060248201526f14185d5cd8589b194e881c185d5cd95960821b6044820152606401610b66565b60008260000182815481106142cd576142cd6152d1565b9060005260206000200154905092915050565b60006001600160e01b03198216635a05180f60e01b1480610c045750610c048261472c565b614313868686868686614761565b6001600160a01b03851661439a5760005b83518110156143985782818151811061433f5761433f6152d1565b60200260200101516008600086848151811061435d5761435d6152d1565b6020026020010151815260200190815260200160002060008282546143829190615329565b909155506143919050816152fd565b9050614324565b505b6001600160a01b0384166131565760005b83518110156134b55760008482815181106143c8576143c86152d1565b6020026020010151905060008483815181106143e6576143e66152d1565b60200260200101519050600060086000848152602001908152602001600020549050818110156144695760405162461bcd60e51b815260206004820152602860248201527f455243313135353a206275726e20616d6f756e74206578636565647320746f74604482015267616c537570706c7960c01b6064820152608401610b66565b60009283526008602052604090922091039055614485816152fd565b90506143ab565b6060610c046001600160a01b03831660145b606060006144ad836002615414565b6144b8906002615329565b6001600160401b038111156144cf576144cf614a27565b6040519080825280601f01601f1916602001820160405280156144f9576020820181803683370190505b509050600360fc1b81600081518110614514576145146152d1565b60200101906001600160f81b031916908160001a905350600f60fb1b81600181518110614543576145436152d1565b60200101906001600160f81b031916908160001a9053506000614567846002615414565b614572906001615329565b90505b60018111156145ea576f181899199a1a9b1b9c1cb0b131b232b360811b85600f16601081106145a6576145a66152d1565b1a60f81b8282815181106145bc576145bc6152d1565b60200101906001600160f81b031916908160001a90535060049490941c936145e38161533c565b9050614575565b508315610ce35760405162461bcd60e51b815260206004820181905260248201527f537472696e67733a20686578206c656e67746820696e73756666696369656e746044820152606401610b66565b6000818152600183016020526040812054801561472257600061465d600183615316565b855490915060009061467190600190615316565b90508181146146d6576000866000018281548110614691576146916152d1565b90600052602060002001549050808760000184815481106146b4576146b46152d1565b6000918252602080832090910192909255918252600188019052604090208390555b85548690806146e7576146e76159e9565b600190038181906000526020600020016000905590558560010160008681526020019081526020016000206000905560019350505050610c04565b6000915050610c04565b60006001600160e01b03198216637965db0b60e01b1480610c0457506301ffc9a760e01b6001600160e01b0319831614610c04565b61315686868686868660075460ff16156131565760405162461bcd60e51b815260206004820152602c60248201527f455243313135355061757361626c653a20746f6b656e207472616e736665722060448201526b1dda1a5b19481c185d5cd95960a21b6064820152608401610b66565b60405180608001604052806004906020820280368337509192915050565b826004810192821561481e579160200282015b8281111561481e578251825591602001919060010190614803565b5061482a9291506148a3565b5090565b826002810192821561481e579160200282018281111561481e578251825591602001919060010190614803565b826002810192821561481e579160200282015b8281111561481e57825182546001600160a01b0319166001600160a01b0390911617825560209092019160019091019061486e565b5b8082111561482a57600081556001016148a4565b6000602082840312156148ca57600080fd5b5035919050565b6001600160a01b038116811461295e57600080fd5b600080604083850312156148f957600080fd5b8235614904816148d1565b946020939093013593505050565b6001600160e01b03198116811461295e57600080fd5b60006020828403121561493a57600080fd5b8135610ce381614912565b60005b83811015614960578181015183820152602001614948565b50506000910152565b60008151808452614981816020860160208601614945565b601f01601f19169290920160200192915050565b602081526000610ce36020830184614969565b600081518084526020808501945080840160005b838110156149d8578151875295820195908201906001016149bc565b509495945050505050565b602081526000610ce360208301846149a8565b60808101818360005b6004811015614a1e5781518352602092830192909101906001016149ff565b50505092915050565b634e487b7160e01b600052604160045260246000fd5b604081018181106001600160401b0382111715614a5c57614a5c614a27565b60405250565b601f8201601f191681016001600160401b0381118282101715614a8757614a87614a27565b6040525050565b60006001600160401b03821115614aa757614aa7614a27565b5060051b60200190565b600082601f830112614ac257600080fd5b81356020614acf82614a8e565b604051614adc8282614a62565b83815260059390931b8501820192828101915086841115614afc57600080fd5b8286015b848110156138ca5780358352918301918301614b00565b600082601f830112614b2857600080fd5b81356001600160401b03811115614b4157614b41614a27565b604051614b58601f8301601f191660200182614a62565b818152846020838601011115614b6d57600080fd5b816020850160208301376000918101602001919091529392505050565b60008060008060808587031215614ba057600080fd5b8435614bab816148d1565b935060208501356001600160401b0380821115614bc757600080fd5b614bd388838901614ab1565b94506040870135915080821115614be957600080fd5b614bf588838901614ab1565b93506060870135915080821115614c0b57600080fd5b50614c1887828801614b17565b91505092959194509250565b600060208284031215614c3657600080fd5b8135610ce3816148d1565b600080600080600060a08688031215614c5957600080fd5b8535614c64816148d1565b94506020860135614c74816148d1565b935060408601356001600160401b0380821115614c9057600080fd5b614c9c89838a01614ab1565b94506060880135915080821115614cb257600080fd5b614cbe89838a01614ab1565b93506080880135915080821115614cd457600080fd5b50614ce188828901614b17565b9150509295509295909350565b60008060408385031215614d0157600080fd5b823591506020830135614d13816148d1565b809150509250929050565b803560048110614d2d57600080fd5b919050565b600060208284031215614d4457600080fd5b610ce382614d1e565b60008060408385031215614d6057600080fd5b82356001600160401b0380821115614d7757600080fd5b818501915085601f830112614d8b57600080fd5b81356020614d9882614a8e565b604051614da58282614a62565b83815260059390931b8501820192828101915089841115614dc557600080fd5b948201945b83861015614dec578535614ddd816148d1565b82529482019490820190614dca565b96505086013592505080821115614e0257600080fd5b50614e0f85828601614ab1565b9150509250929050565b60008060408385031215614e2c57600080fd5b50508035926020909101359150565b600082601f830112614e4c57600080fd5b604051608081018181106001600160401b0382111715614e6e57614e6e614a27565b604052806080840185811115614e8357600080fd5b845b81811015614e9d578035835260209283019201614e85565b509195945050505050565b600082601f830112614eb957600080fd5b604051614ec581614a3d565b806040840185811115614e8357600080fd5b600080600080600080600080610200898b031215614ef457600080fd5b88356001600160401b03811115614f0a57600080fd5b614f168b828c01614b17565b985050614f268a60208b01614e3b565b9650614f358a60a08b01614e3b565b9550610120890135614f46816148d1565b9450614f568a6101408b01614ea8565b93506101808901359250614f6e8a6101a08b01614ea8565b91506101e0890135614f7f816148d1565b809150509295985092959890939650565b600080600060608486031215614fa557600080fd5b8335614fb0816148d1565b925060208401356001600160401b0380821115614fcc57600080fd5b614fd887838801614ab1565b93506040860135915080821115614fee57600080fd5b50614ffb86828701614ab1565b9150509250925092565b6000806000806080858703121561501b57600080fd5b8435615026816148d1565b9350602085013592506040850135915060608501356001600160401b0381111561504f57600080fd5b614c1887828801614b17565b60006040828403121561506d57600080fd5b610ce38383614ea8565b60008060006060848603121561508c57600080fd5b8335615097816148d1565b95602085013595506040909401359392505050565b600080604083850312156150bf57600080fd5b8235915060208301356001600160401b038111156150dc57600080fd5b614e0f85828601614b17565b801515811461295e57600080fd5b6000806040838503121561510957600080fd5b8235615114816148d1565b91506020830135614d13816150e8565b60008060006060848603121561513957600080fd5b61514284614d1e565b9250602084013591506040840135615159816148d1565b809150509250925092565b60008060006060848603121561517957600080fd5b83359250602084013561518b816148d1565b929592945050506040919091013590565b600080604083850312156151af57600080fd5b82356151ba816148d1565b91506020830135614d13816148d1565b600080600080600060a086880312156151e257600080fd5b85356151ed816148d1565b945060208601356151fd816148d1565b9350604086013592506060860135915060808601356001600160401b0381111561522657600080fd5b614ce188828901614b17565b60006080828403121561524457600080fd5b610ce38383614e3b565b6020808252602f908201527f455243313135355072657365744d696e7465725061757365723a206d7573742060408201526e686176652061646d696e20726f6c6560881b606082015260800190565b600181811c908216806152b157607f821691505b602082108103610d6157634e487b7160e01b600052602260045260246000fd5b634e487b7160e01b600052603260045260246000fd5b634e487b7160e01b600052601160045260246000fd5b60006001820161530f5761530f6152e7565b5060010190565b81810381811115610c0457610c046152e7565b80820180821115610c0457610c046152e7565b60008161534b5761534b6152e7565b506000190190565b60208082526038908201527f455243313135355072657365744d696e7465725061757365723a206d7573742060408201527f68617665206d696e74657220726f6c6520746f206d696e740000000000000000606082015260800190565b634e487b7160e01b600052602160045260246000fd5b6020808252602e908201527f455243313135353a2063616c6c6572206973206e6f7420746f6b656e206f776e60408201526d195c881bdc88185c1c1c9bdd995960921b606082015260800190565b8082028115828204841417610c0457610c046152e7565b60008261544857634e487b7160e01b600052601260045260246000fd5b500490565b60006040828403121561545f57600080fd5b82601f83011261546e57600080fd5b60405161547a81614a3d565b80604084018581111561548c57600080fd5b845b81811015614e9d5780516154a1816148d1565b83526020928301920161548e565b6000602082840312156154c157600080fd5b8151610ce3816148d1565b6000602082840312156154de57600080fd5b8151610ce3816150e8565b601f821115610fd057600081815260208120601f850160051c810160208610156155105750805b601f850160051c820191505b818110156131565782815560010161551c565b81516001600160401b0381111561554857615548614a27565b61555c81615556845461529d565b846154e9565b602080601f83116001811461559157600084156155795750858301515b600019600386901b1c1916600185901b178555613156565b600085815260208120601f198616915b828110156155c0578886015182559484019460019091019084016155a1565b50858210156155de5787850151600019600388901b60f8161c191681555b5050505050600190811b01905550565b60006020828403121561560057600080fd5b5051919050565b60208082526021908201527f455243313135353a206d696e7420746f20746865207a65726f206164647265736040820152607360f81b606082015260800190565b60208082526028908201527f455243313135353a2069647320616e6420616d6f756e7473206c656e677468206040820152670dad2e6dac2e8c6d60c31b606082015260800190565b6040815260006156a360408301856149a8565b82810360208401526156b581856149a8565b95945050505050565b60208082526025908201527f455243313135353a207472616e7366657220746f20746865207a65726f206164604082015264647265737360d81b606082015260800190565b6020808252602a908201527f455243313135353a20696e73756666696369656e742062616c616e636520666f60408201526939103a3930b739b332b960b11b606082015260800190565b60208082526023908201527f455243313135353a206275726e2066726f6d20746865207a65726f206164647260408201526265737360e81b606082015260800190565b60208082526024908201527f455243313135353a206275726e20616d6f756e7420657863656564732062616c604082015263616e636560e01b606082015260800190565b60006001600160a01b03808816835280871660208401525060a0604083015261580060a08301866149a8565b828103606084015261581281866149a8565b905082810360808401526158268185614969565b98975050505050505050565b60006020828403121561584457600080fd5b8151610ce381614912565b600060033d11156158685760046000803e5060005160e01c5b90565b600060443d10156158795790565b6040516003193d81016004833e81513d6001600160401b0381602484011181841117156158a857505050505090565b82850191508151818111156158c05750505050505090565b843d87010160208285010111156158da5750505050505090565b6158e960208286010187614a62565b509095945050505050565b60208082526028908201527f455243313135353a204552433131353552656365697665722072656a656374656040820152676420746f6b656e7360c01b606082015260800190565b7f416363657373436f6e74726f6c3a206163636f756e7420000000000000000000815260008351615974816017850160208801614945565b7001034b99036b4b9b9b4b733903937b6329607d1b60179184019182015283516159a5816028840160208801614945565b01602801949350505050565b60006001600160a01b03808816835280871660208401525084604083015283606083015260a06080830152612b3960a0830184614969565b634e487b7160e01b600052603160045260246000fdfea2646970667358221220cc0e9361e655506ccedb81ff7867516713c63f0c2c68384b60caba17b15ab2a864736f6c63430008110033b53127684a568b3173ae13b9f8a6016e243e63b6e8ee1178d6a717850b5d610365d7a28e3265b37a6474929f336521b332c1681b933f6cb9f3376673440d862a9f2df0fed2c77648de5860a4cc508cd0818c85b8b8a1ab4ceeef8d981c8956a6",
  "devdoc": {
    "author": "crypt0grapher",
    "kind": "dev",
    "methods": {
      "balanceOf(address,uint256)": {
        "details": "See {IERC1155-balanceOf}. Requirements: - `account` cannot be the zero address."
      },
      "balanceOfBatch(address[],uint256[])": {
        "details": "See {IERC1155-balanceOfBatch}. Requirements: - `accounts` and `ids` must have the same length."
      },
      "buy(uint8,uint256,address)": {
        "params": {
          "_amount": "amount of USD to spend",
          "_referral": "referral getting 5% of the price, should not be the sender, if not specified, goes to treasury",
          "_tier": "tier of the NFT to purchase which stands for ERC1155 token id [0..3]"
        }
      },
      "distributeProfit(uint256)": {
        "params": {
          "_amountUSD": "amount of USD to distribute"
        }
      },
      "exists(uint256)": {
        "details": "Indicates whether any token exist with a given id, or not."
      },
      "getFairPrice(uint8)": {
        "returns": {
          "_0": "counts not only the sale price but also share of the profit for the tier"
        }
      },
      "getPrice(uint8)": {
        "returns": {
          "_0": "NFT price in USD"
        }
      },
      "getPriceTable()": {
        "returns": {
          "_0": "uint256[] containing all NFT prices in one table in USD"
        }
      },
      "getRoleAdmin(bytes32)": {
        "details": "Returns the admin role that controls `role`. See {grantRole} and {revokeRole}. To change a role's admin, use {_setRoleAdmin}."
      },
      "getRoleMember(bytes32,uint256)": {
        "details": "Returns one of the accounts that have `role`. `index` must be a value between 0 and {getRoleMemberCount}, non-inclusive. Role bearers are not sorted in any particular way, and their ordering may change at any point. WARNING: When using {getRoleMember} and {getRoleMemberCount}, make sure you perform all queries on the same block. See the following https://forum.openzeppelin.com/t/iterating-over-elements-on-enumerableset-in-openzeppelin-contracts/2296[forum post] for more information."
      },
      "getRoleMemberCount(bytes32)": {
        "details": "Returns the number of accounts that have `role`. Can be used together with {getRoleMember} to enumerate all bearers of a role."
      },
      "getUnclaimedRewards()": {
        "returns": {
          "_0": "amount of the rewards not yet distributed to NFT holders"
        }
      },
      "grantRole(bytes32,address)": {
        "details": "Grants `role` to `account`. If `account` had not been already granted `role`, emits a {RoleGranted} event. Requirements: - the caller must have ``role``'s admin role. May emit a {RoleGranted} event."
      },
      "hasRole(bytes32,address)": {
        "details": "Returns `true` if `account` has been granted `role`."
      },
      "isApprovedForAll(address,address)": {
        "details": "See {IERC1155-isApprovedForAll}."
      },
      "mint(address,uint256,uint256,bytes)": {
        "details": "Creates `amount` new tokens for `to`, of token type `id`. See {ERC1155-_mint}. Requirements: - the caller must have the `MINTER_ROLE`."
      },
      "mintBatch(address,uint256[],uint256[],bytes)": {
        "details": "xref:ROOT:erc1155.adoc#batch-operations[Batched] variant of {mint}."
      },
      "pause()": {
        "details": "Pauses all token transfers. See {ERC1155Pausable} and {Pausable-_pause}. Requirements: - the caller must have the `PAUSER_ROLE`."
      },
      "paused()": {
        "details": "Returns true if the contract is paused, and false otherwise."
      },
      "renounceRole(bytes32,address)": {
        "details": "Revokes `role` from the calling account. Roles are often managed via {grantRole} and {revokeRole}: this function's purpose is to provide a mechanism for accounts to lose their privileges if they are compromised (such as when a trusted device is misplaced). If the calling account had been revoked `role`, emits a {RoleRevoked} event. Requirements: - the caller must be `account`. May emit a {RoleRevoked} event."
      },
      "revokeRole(bytes32,address)": {
        "details": "Revokes `role` from `account`. If `account` had been granted `role`, emits a {RoleRevoked} event. Requirements: - the caller must have ``role``'s admin role. May emit a {RoleRevoked} event."
      },
      "safeBatchTransferFrom(address,address,uint256[],uint256[],bytes)": {
        "details": "See {IERC1155-safeBatchTransferFrom}."
      },
      "safeTransferFrom(address,address,uint256,uint256,bytes)": {
        "details": "See {IERC1155-safeTransferFrom}."
      },
      "setApprovalForAll(address,bool)": {
        "details": "See {IERC1155-setApprovalForAll}."
      },
      "totalSupply(uint256)": {
        "details": "Total amount of tokens in with a given id."
      },
      "unpause()": {
        "details": "Unpauses all token transfers. See {ERC1155Pausable} and {Pausable-_unpause}. Requirements: - the caller must have the `PAUSER_ROLE`."
      }
    },
    "stateVariables": {
      "currentDistributionId": {
        "return": "current distribution number, the one that assigned to the latest distribution",
        "returns": {
          "_0": "current distribution number, the one that assigned to the latest distribution"
        }
      },
      "discountedPrice": {
        "return": "uint256 containing percent to multiply to the price to get a discount",
        "returns": {
          "_0": "uint256 containing percent to multiply to the price to get a discount"
        }
      }
    },
    "title": "Safe NFT",
    "version": 1
  },
  "userdoc": {
    "kind": "user",
    "methods": {
      "TIERS()": {
        "notice": "todo a number of tiers should be flexible"
      },
      "WALLETS()": {
        "notice": "total wallets on the protocol less vault, see Wallets enum, this can be basically any number"
      },
      "buy(uint8,uint256,address)": {
        "notice": "purchase Safe NFT for exact amount of USD"
      },
      "claimReward()": {
        "notice": "the function calculates the amount of the reward for the NFT holder and transfers it to the NFT holder"
      },
      "currentDistributionId()": {
        "notice": "gets the current distribution number"
      },
      "discountedPrice()": {
        "notice": "gets all discounted NFT prices in USD, for presale for all 4 weeks of the presale"
      },
      "distributeProfit(uint256)": {
        "notice": "distribute profit among the NFT holders, the function fixes the amount of the reward and the NFT holders and their shares at the moment of the call. It does not transfer the reward to the NFT holders, it just records the amount of the reward for each NFT holder."
      },
      "getBalanceTable(address)": {
        "notice": "gets NFT balance for all tiers"
      },
      "getFairPrice(uint8)": {
        "notice": "gets NFT fair price in USD"
      },
      "getFairPriceTable()": {
        "notice": "gets NFT price for all tiers in USD ///todo in SAFE!"
      },
      "getMyBalanceTable()": {
        "notice": "gets NFT balance for all tiers"
      },
      "getMyShareOfTreasury()": {
        "notice": "**Your NFTs (% Treasury) **is calculated in $ as a relation of total price of NFTs possessed by the $ amount of Investment Pool - including its SAFE and stable coin  components."
      },
      "getPendingRewards(address,uint256)": {
        "notice": "returns the amount of the reward share for the NFT holder"
      },
      "getPrice(uint8)": {
        "notice": "gets NFT price in USD"
      },
      "getPriceTable()": {
        "notice": "gets all NFT prices in USD, the original ones without discounts"
      },
      "getUnclaimedRewards()": {
        "notice": "undistributed profit amount in USD"
      },
      "togglePresale()": {
        "notice": "toggles presale status"
      }
    },
    "notice": "Safe Yields NFT token based on ERC1155 standard, id [0..3] represents one of the 4 tiers",
    "version": 1
  },
  "storageLayout": {
    "storage": [
      {
        "astId": 24,
        "contract": "contracts/SafeNFT.sol:SafeNFT",
        "label": "_roles",
        "offset": 0,
        "slot": "0",
        "type": "t_mapping(t_bytes32,t_struct(RoleData)19_storage)"
      },
      {
        "astId": 334,
        "contract": "contracts/SafeNFT.sol:SafeNFT",
        "label": "_roleMembers",
        "offset": 0,
        "slot": "1",
        "type": "t_mapping(t_bytes32,t_struct(AddressSet)4430_storage)"
      },
      {
        "astId": 6501,
        "contract": "contracts/SafeNFT.sol:SafeNFT",
        "label": "wallets",
        "offset": 0,
        "slot": "2",
        "type": "t_array(t_address)2_storage"
      },
      {
        "astId": 726,
        "contract": "contracts/SafeNFT.sol:SafeNFT",
        "label": "_balances",
        "offset": 0,
        "slot": "4",
        "type": "t_mapping(t_uint256,t_mapping(t_address,t_uint256))"
      },
      {
        "astId": 732,
        "contract": "contracts/SafeNFT.sol:SafeNFT",
        "label": "_operatorApprovals",
        "offset": 0,
        "slot": "5",
        "type": "t_mapping(t_address,t_mapping(t_address,t_bool))"
      },
      {
        "astId": 734,
        "contract": "contracts/SafeNFT.sol:SafeNFT",
        "label": "_uri",
        "offset": 0,
        "slot": "6",
        "type": "t_string_storage"
      },
      {
        "astId": 556,
        "contract": "contracts/SafeNFT.sol:SafeNFT",
        "label": "_paused",
        "offset": 0,
        "slot": "7",
        "type": "t_bool"
      },
      {
        "astId": 2213,
        "contract": "contracts/SafeNFT.sol:SafeNFT",
        "label": "_totalSupply",
        "offset": 0,
        "slot": "8",
        "type": "t_mapping(t_uint256,t_uint256)"
      },
      {
        "astId": 657,
        "contract": "contracts/SafeNFT.sol:SafeNFT",
        "label": "_status",
        "offset": 0,
        "slot": "9",
        "type": "t_uint256"
      },
      {
        "astId": 4752,
        "contract": "contracts/SafeNFT.sol:SafeNFT",
        "label": "price",
        "offset": 0,
        "slot": "10",
        "type": "t_array(t_uint256)4_storage"
      },
      {
        "astId": 4758,
        "contract": "contracts/SafeNFT.sol:SafeNFT",
        "label": "presalePrice",
        "offset": 0,
        "slot": "14",
        "type": "t_array(t_array(t_uint256)4_storage)4_storage"
      },
      {
        "astId": 4762,
        "contract": "contracts/SafeNFT.sol:SafeNFT",
        "label": "maxSupply",
        "offset": 0,
        "slot": "30",
        "type": "t_array(t_uint256)4_storage"
      },
      {
        "astId": 4766,
        "contract": "contracts/SafeNFT.sol:SafeNFT",
        "label": "tokenURIs",
        "offset": 0,
        "slot": "34",
        "type": "t_mapping(t_uint256,t_string_storage)"
      },
      {
        "astId": 4769,
        "contract": "contracts/SafeNFT.sol:SafeNFT",
        "label": "tokenHolders",
        "offset": 0,
        "slot": "35",
        "type": "t_array(t_address)dyn_storage"
      },
      {
        "astId": 4772,
        "contract": "contracts/SafeNFT.sol:SafeNFT",
        "label": "safeToken",
        "offset": 0,
        "slot": "36",
        "type": "t_contract(ISafeToken)6887"
      },
      {
        "astId": 4775,
        "contract": "contracts/SafeNFT.sol:SafeNFT",
        "label": "safeVault",
        "offset": 0,
        "slot": "37",
        "type": "t_contract(ISafeVault)6925"
      },
      {
        "astId": 4778,
        "contract": "contracts/SafeNFT.sol:SafeNFT",
        "label": "usd",
        "offset": 0,
        "slot": "38",
        "type": "t_contract(IERC20)2651"
      },
      {
        "astId": 4785,
        "contract": "contracts/SafeNFT.sol:SafeNFT",
        "label": "priceDistributionOnMint",
        "offset": 0,
        "slot": "39",
        "type": "t_array(t_uint256)2_storage"
      },
      {
        "astId": 4789,
        "contract": "contracts/SafeNFT.sol:SafeNFT",
        "label": "profitDistribution",
        "offset": 0,
        "slot": "41",
        "type": "t_array(t_uint256)2_storage"
      },
      {
        "astId": 4791,
        "contract": "contracts/SafeNFT.sol:SafeNFT",
        "label": "referralShareForNFTPurchase",
        "offset": 0,
        "slot": "43",
        "type": "t_uint256"
      },
      {
        "astId": 4793,
        "contract": "contracts/SafeNFT.sol:SafeNFT",
        "label": "preVaultWallet",
        "offset": 0,
        "slot": "44",
        "type": "t_address"
      },
      {
        "astId": 4795,
        "contract": "contracts/SafeNFT.sol:SafeNFT",
        "label": "presale",
        "offset": 20,
        "slot": "44",
        "type": "t_bool"
      },
      {
        "astId": 4803,
        "contract": "contracts/SafeNFT.sol:SafeNFT",
        "label": "soldPerPresaleWeek",
        "offset": 0,
        "slot": "45",
        "type": "t_mapping(t_address,t_mapping(t_uint256,t_mapping(t_uint256,t_uint256)))"
      },
      {
        "astId": 4807,
        "contract": "contracts/SafeNFT.sol:SafeNFT",
        "label": "presaleMaxSupply",
        "offset": 0,
        "slot": "46",
        "type": "t_array(t_uint256)4_storage"
      },
      {
        "astId": 4811,
        "contract": "contracts/SafeNFT.sol:SafeNFT",
        "label": "currentlySoldInPresale",
        "offset": 0,
        "slot": "50",
        "type": "t_array(t_uint256)4_storage"
      },
      {
        "astId": 4815,
        "contract": "contracts/SafeNFT.sol:SafeNFT",
        "label": "isTokenHolder",
        "offset": 0,
        "slot": "54",
        "type": "t_mapping(t_address,t_bool)"
      },
      {
        "astId": 4817,
        "contract": "contracts/SafeNFT.sol:SafeNFT",
        "label": "currentDistributionId",
        "offset": 0,
        "slot": "55",
        "type": "t_uint256"
      },
      {
        "astId": 4821,
        "contract": "contracts/SafeNFT.sol:SafeNFT",
        "label": "profitToDistribute",
        "offset": 0,
        "slot": "56",
        "type": "t_mapping(t_uint256,t_uint256)"
      },
      {
        "astId": 4825,
        "contract": "contracts/SafeNFT.sol:SafeNFT",
        "label": "safeToDistribute",
        "offset": 0,
        "slot": "57",
        "type": "t_mapping(t_uint256,t_uint256)"
      },
      {
        "astId": 4831,
        "contract": "contracts/SafeNFT.sol:SafeNFT",
        "label": "alreadyDistributed",
        "offset": 0,
        "slot": "58",
        "type": "t_mapping(t_uint256,t_mapping(t_address,t_uint256))"
      },
      {
        "astId": 4833,
        "contract": "contracts/SafeNFT.sol:SafeNFT",
        "label": "ambassador",
        "offset": 0,
        "slot": "59",
        "type": "t_address"
      },
      {
        "astId": 4841,
        "contract": "contracts/SafeNFT.sol:SafeNFT",
        "label": "snapshotOfOwnedTokens",
        "offset": 0,
        "slot": "60",
        "type": "t_mapping(t_uint256,t_mapping(t_address,t_array(t_uint256)4_storage))"
      },
      {
        "astId": 4847,
        "contract": "contracts/SafeNFT.sol:SafeNFT",
        "label": "snapshotOfTotalSupply",
        "offset": 0,
        "slot": "61",
        "type": "t_mapping(t_uint256,t_array(t_uint256)4_storage)"
      },
      {
        "astId": 4849,
        "contract": "contracts/SafeNFT.sol:SafeNFT",
        "label": "discountedPrice",
        "offset": 0,
        "slot": "62",
        "type": "t_uint256"
      },
      {
        "astId": 4853,
        "contract": "contracts/SafeNFT.sol:SafeNFT",
        "label": "soldInDiscountedSale",
        "offset": 0,
        "slot": "63",
        "type": "t_mapping(t_uint256,t_uint256)"
      },
      {
        "astId": 4857,
        "contract": "contracts/SafeNFT.sol:SafeNFT",
        "label": "alreadyDistributedTotal",
        "offset": 0,
        "slot": "64",
        "type": "t_mapping(t_uint256,t_uint256)"
      }
    ],
    "types": {
      "t_address": {
        "encoding": "inplace",
        "label": "address",
        "numberOfBytes": "20"
      },
      "t_array(t_address)2_storage": {
        "base": "t_address",
        "encoding": "inplace",
        "label": "address[2]",
        "numberOfBytes": "64"
      },
      "t_array(t_address)dyn_storage": {
        "base": "t_address",
        "encoding": "dynamic_array",
        "label": "address[]",
        "numberOfBytes": "32"
      },
      "t_array(t_array(t_uint256)4_storage)4_storage": {
        "base": "t_array(t_uint256)4_storage",
        "encoding": "inplace",
        "label": "uint256[4][4]",
        "numberOfBytes": "512"
      },
      "t_array(t_bytes32)dyn_storage": {
        "base": "t_bytes32",
        "encoding": "dynamic_array",
        "label": "bytes32[]",
        "numberOfBytes": "32"
      },
      "t_array(t_uint256)2_storage": {
        "base": "t_uint256",
        "encoding": "inplace",
        "label": "uint256[2]",
        "numberOfBytes": "64"
      },
      "t_array(t_uint256)4_storage": {
        "base": "t_uint256",
        "encoding": "inplace",
        "label": "uint256[4]",
        "numberOfBytes": "128"
      },
      "t_bool": {
        "encoding": "inplace",
        "label": "bool",
        "numberOfBytes": "1"
      },
      "t_bytes32": {
        "encoding": "inplace",
        "label": "bytes32",
        "numberOfBytes": "32"
      },
      "t_contract(IERC20)2651": {
        "encoding": "inplace",
        "label": "contract IERC20",
        "numberOfBytes": "20"
      },
      "t_contract(ISafeToken)6887": {
        "encoding": "inplace",
        "label": "contract ISafeToken",
        "numberOfBytes": "20"
      },
      "t_contract(ISafeVault)6925": {
        "encoding": "inplace",
        "label": "contract ISafeVault",
        "numberOfBytes": "20"
      },
      "t_mapping(t_address,t_array(t_uint256)4_storage)": {
        "encoding": "mapping",
        "key": "t_address",
        "label": "mapping(address => uint256[4])",
        "numberOfBytes": "32",
        "value": "t_array(t_uint256)4_storage"
      },
      "t_mapping(t_address,t_bool)": {
        "encoding": "mapping",
        "key": "t_address",
        "label": "mapping(address => bool)",
        "numberOfBytes": "32",
        "value": "t_bool"
      },
      "t_mapping(t_address,t_mapping(t_address,t_bool))": {
        "encoding": "mapping",
        "key": "t_address",
        "label": "mapping(address => mapping(address => bool))",
        "numberOfBytes": "32",
        "value": "t_mapping(t_address,t_bool)"
      },
      "t_mapping(t_address,t_mapping(t_uint256,t_mapping(t_uint256,t_uint256)))": {
        "encoding": "mapping",
        "key": "t_address",
        "label": "mapping(address => mapping(uint256 => mapping(uint256 => uint256)))",
        "numberOfBytes": "32",
        "value": "t_mapping(t_uint256,t_mapping(t_uint256,t_uint256))"
      },
      "t_mapping(t_address,t_uint256)": {
        "encoding": "mapping",
        "key": "t_address",
        "label": "mapping(address => uint256)",
        "numberOfBytes": "32",
        "value": "t_uint256"
      },
      "t_mapping(t_bytes32,t_struct(AddressSet)4430_storage)": {
        "encoding": "mapping",
        "key": "t_bytes32",
        "label": "mapping(bytes32 => struct EnumerableSet.AddressSet)",
        "numberOfBytes": "32",
        "value": "t_struct(AddressSet)4430_storage"
      },
      "t_mapping(t_bytes32,t_struct(RoleData)19_storage)": {
        "encoding": "mapping",
        "key": "t_bytes32",
        "label": "mapping(bytes32 => struct AccessControl.RoleData)",
        "numberOfBytes": "32",
        "value": "t_struct(RoleData)19_storage"
      },
      "t_mapping(t_bytes32,t_uint256)": {
        "encoding": "mapping",
        "key": "t_bytes32",
        "label": "mapping(bytes32 => uint256)",
        "numberOfBytes": "32",
        "value": "t_uint256"
      },
      "t_mapping(t_uint256,t_array(t_uint256)4_storage)": {
        "encoding": "mapping",
        "key": "t_uint256",
        "label": "mapping(uint256 => uint256[4])",
        "numberOfBytes": "32",
        "value": "t_array(t_uint256)4_storage"
      },
      "t_mapping(t_uint256,t_mapping(t_address,t_array(t_uint256)4_storage))": {
        "encoding": "mapping",
        "key": "t_uint256",
        "label": "mapping(uint256 => mapping(address => uint256[4]))",
        "numberOfBytes": "32",
        "value": "t_mapping(t_address,t_array(t_uint256)4_storage)"
      },
      "t_mapping(t_uint256,t_mapping(t_address,t_uint256))": {
        "encoding": "mapping",
        "key": "t_uint256",
        "label": "mapping(uint256 => mapping(address => uint256))",
        "numberOfBytes": "32",
        "value": "t_mapping(t_address,t_uint256)"
      },
      "t_mapping(t_uint256,t_mapping(t_uint256,t_uint256))": {
        "encoding": "mapping",
        "key": "t_uint256",
        "label": "mapping(uint256 => mapping(uint256 => uint256))",
        "numberOfBytes": "32",
        "value": "t_mapping(t_uint256,t_uint256)"
      },
      "t_mapping(t_uint256,t_string_storage)": {
        "encoding": "mapping",
        "key": "t_uint256",
        "label": "mapping(uint256 => string)",
        "numberOfBytes": "32",
        "value": "t_string_storage"
      },
      "t_mapping(t_uint256,t_uint256)": {
        "encoding": "mapping",
        "key": "t_uint256",
        "label": "mapping(uint256 => uint256)",
        "numberOfBytes": "32",
        "value": "t_uint256"
      },
      "t_string_storage": {
        "encoding": "bytes",
        "label": "string",
        "numberOfBytes": "32"
      },
      "t_struct(AddressSet)4430_storage": {
        "encoding": "inplace",
        "label": "struct EnumerableSet.AddressSet",
        "members": [
          {
            "astId": 4429,
            "contract": "contracts/SafeNFT.sol:SafeNFT",
            "label": "_inner",
            "offset": 0,
            "slot": "0",
            "type": "t_struct(Set)4115_storage"
          }
        ],
        "numberOfBytes": "64"
      },
      "t_struct(RoleData)19_storage": {
        "encoding": "inplace",
        "label": "struct AccessControl.RoleData",
        "members": [
          {
            "astId": 16,
            "contract": "contracts/SafeNFT.sol:SafeNFT",
            "label": "members",
            "offset": 0,
            "slot": "0",
            "type": "t_mapping(t_address,t_bool)"
          },
          {
            "astId": 18,
            "contract": "contracts/SafeNFT.sol:SafeNFT",
            "label": "adminRole",
            "offset": 0,
            "slot": "1",
            "type": "t_bytes32"
          }
        ],
        "numberOfBytes": "64"
      },
      "t_struct(Set)4115_storage": {
        "encoding": "inplace",
        "label": "struct EnumerableSet.Set",
        "members": [
          {
            "astId": 4110,
            "contract": "contracts/SafeNFT.sol:SafeNFT",
            "label": "_values",
            "offset": 0,
            "slot": "0",
            "type": "t_array(t_bytes32)dyn_storage"
          },
          {
            "astId": 4114,
            "contract": "contracts/SafeNFT.sol:SafeNFT",
            "label": "_indexes",
            "offset": 0,
            "slot": "1",
            "type": "t_mapping(t_bytes32,t_uint256)"
          }
        ],
        "numberOfBytes": "64"
      },
      "t_uint256": {
        "encoding": "inplace",
        "label": "uint256",
        "numberOfBytes": "32"
      }
    }
  }
}