{
  "address": "0xd321A9678B075FBc5a07cEbB6d8E6271111aF560",
  "abi": [
    {
      "inputs": [
        {
          "internalType": "string",
          "name": "_uri",
          "type": "string"
        },
        {
          "internalType": "uint256[4]",
          "name": "_price",
          "type": "uint256[4]"
        },
        {
          "internalType": "uint256[4]",
          "name": "_maxSupply",
          "type": "uint256[4]"
        },
        {
          "internalType": "contract ISafeToken",
          "name": "_safeToken",
          "type": "address"
        },
        {
          "internalType": "uint256[2]",
          "name": "_priceDistributionOnMint",
          "type": "uint256[2]"
        },
        {
          "internalType": "uint256",
          "name": "_referralShareForNFTPurchase",
          "type": "uint256"
        },
        {
          "internalType": "uint256[2]",
          "name": "_profitDistribution",
          "type": "uint256[2]"
        },
        {
          "internalType": "address",
          "name": "_prevaultWallet",
          "type": "address"
        }
      ],
      "stateMutability": "nonpayable",
      "type": "constructor"
    },
    {
      "anonymous": false,
      "inputs": [
        {
          "indexed": true,
          "internalType": "address",
          "name": "account",
          "type": "address"
        },
        {
          "indexed": true,
          "internalType": "address",
          "name": "operator",
          "type": "address"
        },
        {
          "indexed": false,
          "internalType": "bool",
          "name": "approved",
          "type": "bool"
        }
      ],
      "name": "ApprovalForAll",
      "type": "event"
    },
    {
      "anonymous": false,
      "inputs": [
        {
          "indexed": true,
          "internalType": "address",
          "name": "operator",
          "type": "address"
        },
        {
          "indexed": false,
          "internalType": "uint256",
          "name": "distribution",
          "type": "uint256"
        },
        {
          "indexed": false,
          "internalType": "uint256",
          "name": "amount",
          "type": "uint256"
        }
      ],
      "name": "Claimed",
      "type": "event"
    },
    {
      "anonymous": false,
      "inputs": [
        {
          "indexed": false,
          "internalType": "address",
          "name": "account",
          "type": "address"
        }
      ],
      "name": "Paused",
      "type": "event"
    },
    {
      "anonymous": false,
      "inputs": [
        {
          "indexed": false,
          "internalType": "uint256",
          "name": "distribution",
          "type": "uint256"
        },
        {
          "indexed": false,
          "internalType": "uint256",
          "name": "amountUSD",
          "type": "uint256"
        },
        {
          "indexed": false,
          "internalType": "uint256",
          "name": "amountSAFE",
          "type": "uint256"
        }
      ],
      "name": "ProfitDistributed",
      "type": "event"
    },
    {
      "anonymous": false,
      "inputs": [
        {
          "indexed": true,
          "internalType": "bytes32",
          "name": "role",
          "type": "bytes32"
        },
        {
          "indexed": true,
          "internalType": "bytes32",
          "name": "previousAdminRole",
          "type": "bytes32"
        },
        {
          "indexed": true,
          "internalType": "bytes32",
          "name": "newAdminRole",
          "type": "bytes32"
        }
      ],
      "name": "RoleAdminChanged",
      "type": "event"
    },
    {
      "anonymous": false,
      "inputs": [
        {
          "indexed": true,
          "internalType": "bytes32",
          "name": "role",
          "type": "bytes32"
        },
        {
          "indexed": true,
          "internalType": "address",
          "name": "account",
          "type": "address"
        },
        {
          "indexed": true,
          "internalType": "address",
          "name": "sender",
          "type": "address"
        }
      ],
      "name": "RoleGranted",
      "type": "event"
    },
    {
      "anonymous": false,
      "inputs": [
        {
          "indexed": true,
          "internalType": "bytes32",
          "name": "role",
          "type": "bytes32"
        },
        {
          "indexed": true,
          "internalType": "address",
          "name": "account",
          "type": "address"
        },
        {
          "indexed": true,
          "internalType": "address",
          "name": "sender",
          "type": "address"
        }
      ],
      "name": "RoleRevoked",
      "type": "event"
    },
    {
      "anonymous": false,
      "inputs": [
        {
          "indexed": true,
          "internalType": "address",
          "name": "to",
          "type": "address"
        },
        {
          "indexed": true,
          "internalType": "uint256",
          "name": "id",
          "type": "uint256"
        },
        {
          "indexed": true,
          "internalType": "uint256",
          "name": "amount",
          "type": "uint256"
        },
        {
          "indexed": false,
          "internalType": "uint256",
          "name": "price",
          "type": "uint256"
        }
      ],
      "name": "Sale",
      "type": "event"
    },
    {
      "anonymous": false,
      "inputs": [
        {
          "indexed": false,
          "internalType": "bool",
          "name": "_status",
          "type": "bool"
        }
      ],
      "name": "TogglePresale",
      "type": "event"
    },
    {
      "anonymous": false,
      "inputs": [
        {
          "indexed": true,
          "internalType": "address",
          "name": "operator",
          "type": "address"
        },
        {
          "indexed": true,
          "internalType": "address",
          "name": "from",
          "type": "address"
        },
        {
          "indexed": true,
          "internalType": "address",
          "name": "to",
          "type": "address"
        },
        {
          "indexed": false,
          "internalType": "uint256[]",
          "name": "ids",
          "type": "uint256[]"
        },
        {
          "indexed": false,
          "internalType": "uint256[]",
          "name": "values",
          "type": "uint256[]"
        }
      ],
      "name": "TransferBatch",
      "type": "event"
    },
    {
      "anonymous": false,
      "inputs": [
        {
          "indexed": true,
          "internalType": "address",
          "name": "operator",
          "type": "address"
        },
        {
          "indexed": true,
          "internalType": "address",
          "name": "from",
          "type": "address"
        },
        {
          "indexed": true,
          "internalType": "address",
          "name": "to",
          "type": "address"
        },
        {
          "indexed": false,
          "internalType": "uint256",
          "name": "id",
          "type": "uint256"
        },
        {
          "indexed": false,
          "internalType": "uint256",
          "name": "value",
          "type": "uint256"
        }
      ],
      "name": "TransferSingle",
      "type": "event"
    },
    {
      "anonymous": false,
      "inputs": [
        {
          "indexed": false,
          "internalType": "string",
          "name": "value",
          "type": "string"
        },
        {
          "indexed": true,
          "internalType": "uint256",
          "name": "id",
          "type": "uint256"
        }
      ],
      "name": "URI",
      "type": "event"
    },
    {
      "anonymous": false,
      "inputs": [
        {
          "indexed": false,
          "internalType": "address",
          "name": "account",
          "type": "address"
        }
      ],
      "name": "Unpaused",
      "type": "event"
    },
    {
      "inputs": [],
      "name": "DEFAULT_ADMIN_ROLE",
      "outputs": [
        {
          "internalType": "bytes32",
          "name": "",
          "type": "bytes32"
        }
      ],
      "stateMutability": "view",
      "type": "function"
    },
    {
      "inputs": [],
      "name": "HUNDRED_PERCENT",
      "outputs": [
        {
          "internalType": "uint256",
          "name": "",
          "type": "uint256"
        }
      ],
      "stateMutability": "view",
      "type": "function"
    },
    {
      "inputs": [],
      "name": "MINTER_ROLE",
      "outputs": [
        {
          "internalType": "bytes32",
          "name": "",
          "type": "bytes32"
        }
      ],
      "stateMutability": "view",
      "type": "function"
    },
    {
      "inputs": [],
      "name": "PAUSER_ROLE",
      "outputs": [
        {
          "internalType": "bytes32",
          "name": "",
          "type": "bytes32"
        }
      ],
      "stateMutability": "view",
      "type": "function"
    },
    {
      "inputs": [],
      "name": "TIERS",
      "outputs": [
        {
          "internalType": "uint256",
          "name": "",
          "type": "uint256"
        }
      ],
      "stateMutability": "view",
      "type": "function"
    },
    {
      "inputs": [],
      "name": "WALLETS",
      "outputs": [
        {
          "internalType": "uint256",
          "name": "",
          "type": "uint256"
        }
      ],
      "stateMutability": "view",
      "type": "function"
    },
    {
      "inputs": [],
      "name": "WEEKS",
      "outputs": [
        {
          "internalType": "uint256",
          "name": "",
          "type": "uint256"
        }
      ],
      "stateMutability": "view",
      "type": "function"
    },
    {
      "inputs": [
        {
          "internalType": "uint256",
          "name": "",
          "type": "uint256"
        }
      ],
      "name": "addressesExcludedFromRewardsDistribution",
      "outputs": [
        {
          "internalType": "address",
          "name": "",
          "type": "address"
        }
      ],
      "stateMutability": "view",
      "type": "function"
    },
    {
      "inputs": [
        {
          "internalType": "uint256",
          "name": "",
          "type": "uint256"
        },
        {
          "internalType": "address",
          "name": "",
          "type": "address"
        }
      ],
      "name": "alreadyDistributed",
      "outputs": [
        {
          "internalType": "uint256",
          "name": "",
          "type": "uint256"
        }
      ],
      "stateMutability": "view",
      "type": "function"
    },
    {
      "inputs": [
        {
          "internalType": "uint256",
          "name": "",
          "type": "uint256"
        }
      ],
      "name": "alreadyDistributedTotal",
      "outputs": [
        {
          "internalType": "uint256",
          "name": "",
          "type": "uint256"
        }
      ],
      "stateMutability": "view",
      "type": "function"
    },
    {
      "inputs": [],
      "name": "ambassador",
      "outputs": [
        {
          "internalType": "address",
          "name": "",
          "type": "address"
        }
      ],
      "stateMutability": "view",
      "type": "function"
    },
    {
      "inputs": [
        {
          "internalType": "address",
          "name": "account",
          "type": "address"
        },
        {
          "internalType": "uint256",
          "name": "id",
          "type": "uint256"
        }
      ],
      "name": "balanceOf",
      "outputs": [
        {
          "internalType": "uint256",
          "name": "",
          "type": "uint256"
        }
      ],
      "stateMutability": "view",
      "type": "function"
    },
    {
      "inputs": [
        {
          "internalType": "address[]",
          "name": "accounts",
          "type": "address[]"
        },
        {
          "internalType": "uint256[]",
          "name": "ids",
          "type": "uint256[]"
        }
      ],
      "name": "balanceOfBatch",
      "outputs": [
        {
          "internalType": "uint256[]",
          "name": "",
          "type": "uint256[]"
        }
      ],
      "stateMutability": "view",
      "type": "function"
    },
    {
      "inputs": [
        {
          "internalType": "address[]",
          "name": "_addresses",
          "type": "address[]"
        }
      ],
      "name": "blacklistForRewardsDistribution",
      "outputs": [],
      "stateMutability": "nonpayable",
      "type": "function"
    },
    {
      "inputs": [
        {
          "internalType": "address",
          "name": "account",
          "type": "address"
        },
        {
          "internalType": "uint256",
          "name": "id",
          "type": "uint256"
        },
        {
          "internalType": "uint256",
          "name": "value",
          "type": "uint256"
        }
      ],
      "name": "burn",
      "outputs": [],
      "stateMutability": "nonpayable",
      "type": "function"
    },
    {
      "inputs": [
        {
          "internalType": "address",
          "name": "account",
          "type": "address"
        },
        {
          "internalType": "uint256",
          "name": "id",
          "type": "uint256"
        },
        {
          "internalType": "uint256",
          "name": "value",
          "type": "uint256"
        }
      ],
      "name": "burnAdmin",
      "outputs": [],
      "stateMutability": "nonpayable",
      "type": "function"
    },
    {
      "inputs": [
        {
          "internalType": "address",
          "name": "account",
          "type": "address"
        },
        {
          "internalType": "uint256[]",
          "name": "ids",
          "type": "uint256[]"
        },
        {
          "internalType": "uint256[]",
          "name": "values",
          "type": "uint256[]"
        }
      ],
      "name": "burnBatch",
      "outputs": [],
      "stateMutability": "nonpayable",
      "type": "function"
    },
    {
      "inputs": [
        {
          "internalType": "enum ISafeNFT.Tiers",
          "name": "_tier",
          "type": "uint8"
        },
        {
          "internalType": "uint256",
          "name": "_amount",
          "type": "uint256"
        },
        {
          "internalType": "address",
          "name": "_referral",
          "type": "address"
        }
      ],
      "name": "buy",
      "outputs": [],
      "stateMutability": "nonpayable",
      "type": "function"
    },
    {
      "inputs": [
        {
          "internalType": "uint256[2]",
          "name": "_priceDistributionOnMint",
          "type": "uint256[2]"
        }
      ],
      "name": "changePriceDistributionOnMint",
      "outputs": [],
      "stateMutability": "nonpayable",
      "type": "function"
    },
    {
      "inputs": [],
      "name": "claimReward",
      "outputs": [],
      "stateMutability": "nonpayable",
      "type": "function"
    },
    {
      "inputs": [],
      "name": "currentDistributionId",
      "outputs": [
        {
          "internalType": "uint256",
          "name": "",
          "type": "uint256"
        }
      ],
      "stateMutability": "view",
      "type": "function"
    },
    {
      "inputs": [
        {
          "internalType": "uint256",
          "name": "",
          "type": "uint256"
        }
      ],
      "name": "currentlySoldInPresale",
      "outputs": [
        {
          "internalType": "uint256",
          "name": "",
          "type": "uint256"
        }
      ],
      "stateMutability": "view",
      "type": "function"
    },
    {
      "inputs": [],
      "name": "discountedPrice",
      "outputs": [
        {
          "internalType": "uint256",
          "name": "",
          "type": "uint256"
        }
      ],
      "stateMutability": "view",
      "type": "function"
    },
    {
      "inputs": [
        {
          "internalType": "uint256",
          "name": "_amountUSD",
          "type": "uint256"
        }
      ],
      "name": "distributeProfit",
      "outputs": [],
      "stateMutability": "nonpayable",
      "type": "function"
    },
    {
      "inputs": [
        {
          "internalType": "uint256",
          "name": "id",
          "type": "uint256"
        }
      ],
      "name": "exists",
      "outputs": [
        {
          "internalType": "bool",
          "name": "",
          "type": "bool"
        }
      ],
      "stateMutability": "view",
      "type": "function"
    },
    {
      "inputs": [
        {
          "internalType": "address",
          "name": "_user",
          "type": "address"
        }
      ],
      "name": "getBalanceTable",
      "outputs": [
        {
          "internalType": "uint256[]",
          "name": "",
          "type": "uint256[]"
        }
      ],
      "stateMutability": "view",
      "type": "function"
    },
    {
      "inputs": [
        {
          "internalType": "enum ISafeNFT.Tiers",
          "name": "_tier",
          "type": "uint8"
        }
      ],
      "name": "getFairPrice",
      "outputs": [
        {
          "internalType": "uint256",
          "name": "",
          "type": "uint256"
        }
      ],
      "stateMutability": "view",
      "type": "function"
    },
    {
      "inputs": [],
      "name": "getFairPriceTable",
      "outputs": [
        {
          "internalType": "uint256[]",
          "name": "",
          "type": "uint256[]"
        }
      ],
      "stateMutability": "view",
      "type": "function"
    },
    {
      "inputs": [],
      "name": "getMyBalanceTable",
      "outputs": [
        {
          "internalType": "uint256[]",
          "name": "",
          "type": "uint256[]"
        }
      ],
      "stateMutability": "view",
      "type": "function"
    },
    {
      "inputs": [],
      "name": "getMyPendingRewards",
      "outputs": [
        {
          "internalType": "uint256",
          "name": "",
          "type": "uint256"
        }
      ],
      "stateMutability": "view",
      "type": "function"
    },
    {
      "inputs": [],
      "name": "getMyShareOfTreasury",
      "outputs": [
        {
          "internalType": "uint256",
          "name": "",
          "type": "uint256"
        }
      ],
      "stateMutability": "view",
      "type": "function"
    },
    {
      "inputs": [],
      "name": "getNFTSupplyAvailable",
      "outputs": [
        {
          "internalType": "uint256[]",
          "name": "",
          "type": "uint256[]"
        }
      ],
      "stateMutability": "view",
      "type": "function"
    },
    {
      "inputs": [
        {
          "internalType": "address",
          "name": "_user",
          "type": "address"
        },
        {
          "internalType": "uint256",
          "name": "_distributionId",
          "type": "uint256"
        }
      ],
      "name": "getPendingRewards",
      "outputs": [
        {
          "internalType": "uint256",
          "name": "",
          "type": "uint256"
        }
      ],
      "stateMutability": "view",
      "type": "function"
    },
    {
      "inputs": [
        {
          "internalType": "enum ISafeNFT.Tiers",
          "name": "_tier",
          "type": "uint8"
        }
      ],
      "name": "getPrice",
      "outputs": [
        {
          "internalType": "uint256",
          "name": "",
          "type": "uint256"
        }
      ],
      "stateMutability": "view",
      "type": "function"
    },
    {
      "inputs": [],
      "name": "getPriceTable",
      "outputs": [
        {
          "internalType": "uint256[]",
          "name": "",
          "type": "uint256[]"
        }
      ],
      "stateMutability": "view",
      "type": "function"
    },
    {
      "inputs": [
        {
          "internalType": "bytes32",
          "name": "role",
          "type": "bytes32"
        }
      ],
      "name": "getRoleAdmin",
      "outputs": [
        {
          "internalType": "bytes32",
          "name": "",
          "type": "bytes32"
        }
      ],
      "stateMutability": "view",
      "type": "function"
    },
    {
      "inputs": [
        {
          "internalType": "bytes32",
          "name": "role",
          "type": "bytes32"
        },
        {
          "internalType": "uint256",
          "name": "index",
          "type": "uint256"
        }
      ],
      "name": "getRoleMember",
      "outputs": [
        {
          "internalType": "address",
          "name": "",
          "type": "address"
        }
      ],
      "stateMutability": "view",
      "type": "function"
    },
    {
      "inputs": [
        {
          "internalType": "bytes32",
          "name": "role",
          "type": "bytes32"
        }
      ],
      "name": "getRoleMemberCount",
      "outputs": [
        {
          "internalType": "uint256",
          "name": "",
          "type": "uint256"
        }
      ],
      "stateMutability": "view",
      "type": "function"
    },
    {
      "inputs": [],
      "name": "getTokenHolders",
      "outputs": [
        {
          "internalType": "address[]",
          "name": "",
          "type": "address[]"
        }
      ],
      "stateMutability": "view",
      "type": "function"
    },
    {
      "inputs": [],
      "name": "getTokenHoldersLength",
      "outputs": [
        {
          "internalType": "uint256",
          "name": "",
          "type": "uint256"
        }
      ],
      "stateMutability": "view",
      "type": "function"
    },
    {
      "inputs": [],
      "name": "getTotalSupplyAllTiers",
      "outputs": [
        {
          "internalType": "uint256[4]",
          "name": "",
          "type": "uint256[4]"
        }
      ],
      "stateMutability": "view",
      "type": "function"
    },
    {
      "inputs": [],
      "name": "getUnclaimedRewards",
      "outputs": [
        {
          "internalType": "uint256",
          "name": "",
          "type": "uint256"
        }
      ],
      "stateMutability": "view",
      "type": "function"
    },
    {
      "inputs": [
        {
          "internalType": "bytes32",
          "name": "role",
          "type": "bytes32"
        },
        {
          "internalType": "address",
          "name": "account",
          "type": "address"
        }
      ],
      "name": "grantRole",
      "outputs": [],
      "stateMutability": "nonpayable",
      "type": "function"
    },
    {
      "inputs": [
        {
          "internalType": "bytes32",
          "name": "role",
          "type": "bytes32"
        },
        {
          "internalType": "address",
          "name": "account",
          "type": "address"
        }
      ],
      "name": "hasRole",
      "outputs": [
        {
          "internalType": "bool",
          "name": "",
          "type": "bool"
        }
      ],
      "stateMutability": "view",
      "type": "function"
    },
    {
      "inputs": [
        {
          "internalType": "string",
          "name": "_uri",
          "type": "string"
        },
        {
          "internalType": "uint256[4]",
          "name": "_price",
          "type": "uint256[4]"
        },
        {
          "internalType": "uint256[4]",
          "name": "_maxSupply",
          "type": "uint256[4]"
        },
        {
          "internalType": "contract ISafeToken",
          "name": "_safeToken",
          "type": "address"
        },
        {
          "internalType": "uint256[2]",
          "name": "_priceDistributionOnMint",
          "type": "uint256[2]"
        },
        {
          "internalType": "uint256",
          "name": "_referralShareForNFTPurchase",
          "type": "uint256"
        },
        {
          "internalType": "uint256[2]",
          "name": "_profitDistribution",
          "type": "uint256[2]"
        },
        {
          "internalType": "address",
          "name": "_prevaultWallet",
          "type": "address"
        }
      ],
      "name": "initialize",
      "outputs": [],
      "stateMutability": "nonpayable",
      "type": "function"
    },
    {
      "inputs": [
        {
          "internalType": "address",
          "name": "account",
          "type": "address"
        },
        {
          "internalType": "address",
          "name": "operator",
          "type": "address"
        }
      ],
      "name": "isApprovedForAll",
      "outputs": [
        {
          "internalType": "bool",
          "name": "",
          "type": "bool"
        }
      ],
      "stateMutability": "view",
      "type": "function"
    },
    {
      "inputs": [
        {
          "internalType": "address",
          "name": "",
          "type": "address"
        }
      ],
      "name": "isExcludedFromRewardsDistribution",
      "outputs": [
        {
          "internalType": "bool",
          "name": "",
          "type": "bool"
        }
      ],
      "stateMutability": "view",
      "type": "function"
    },
    {
      "inputs": [
        {
          "internalType": "address",
          "name": "",
          "type": "address"
        }
      ],
      "name": "isTokenHolder",
      "outputs": [
        {
          "internalType": "bool",
          "name": "",
          "type": "bool"
        }
      ],
      "stateMutability": "view",
      "type": "function"
    },
    {
      "inputs": [
        {
          "internalType": "uint256",
          "name": "",
          "type": "uint256"
        }
      ],
      "name": "maxSupply",
      "outputs": [
        {
          "internalType": "uint256",
          "name": "",
          "type": "uint256"
        }
      ],
      "stateMutability": "view",
      "type": "function"
    },
    {
      "inputs": [
        {
          "internalType": "address",
          "name": "to",
          "type": "address"
        },
        {
          "internalType": "uint256",
          "name": "id",
          "type": "uint256"
        },
        {
          "internalType": "uint256",
          "name": "amount",
          "type": "uint256"
        },
        {
          "internalType": "bytes",
          "name": "data",
          "type": "bytes"
        }
      ],
      "name": "mint",
      "outputs": [],
      "stateMutability": "nonpayable",
      "type": "function"
    },
    {
      "inputs": [
        {
          "internalType": "address",
          "name": "to",
          "type": "address"
        },
        {
          "internalType": "uint256[]",
          "name": "ids",
          "type": "uint256[]"
        },
        {
          "internalType": "uint256[]",
          "name": "amounts",
          "type": "uint256[]"
        },
        {
          "internalType": "bytes",
          "name": "data",
          "type": "bytes"
        }
      ],
      "name": "mintBatch",
      "outputs": [],
      "stateMutability": "nonpayable",
      "type": "function"
    },
    {
      "inputs": [],
      "name": "name",
      "outputs": [
        {
          "internalType": "string",
          "name": "",
          "type": "string"
        }
      ],
      "stateMutability": "view",
      "type": "function"
    },
    {
      "inputs": [],
      "name": "pause",
      "outputs": [],
      "stateMutability": "nonpayable",
      "type": "function"
    },
    {
      "inputs": [],
      "name": "paused",
      "outputs": [
        {
          "internalType": "bool",
          "name": "",
          "type": "bool"
        }
      ],
      "stateMutability": "view",
      "type": "function"
    },
    {
      "inputs": [],
      "name": "preVaultWallet",
      "outputs": [
        {
          "internalType": "address",
          "name": "",
          "type": "address"
        }
      ],
      "stateMutability": "view",
      "type": "function"
    },
    {
      "inputs": [],
      "name": "presale",
      "outputs": [
        {
          "internalType": "bool",
          "name": "",
          "type": "bool"
        }
      ],
      "stateMutability": "view",
      "type": "function"
    },
    {
      "inputs": [
        {
          "internalType": "uint256",
          "name": "",
          "type": "uint256"
        }
      ],
      "name": "presaleMaxSupply",
      "outputs": [
        {
          "internalType": "uint256",
          "name": "",
          "type": "uint256"
        }
      ],
      "stateMutability": "view",
      "type": "function"
    },
    {
      "inputs": [
        {
          "internalType": "uint256",
          "name": "",
          "type": "uint256"
        },
        {
          "internalType": "uint256",
          "name": "",
          "type": "uint256"
        }
      ],
      "name": "presalePrice",
      "outputs": [
        {
          "internalType": "uint256",
          "name": "",
          "type": "uint256"
        }
      ],
      "stateMutability": "view",
      "type": "function"
    },
    {
      "inputs": [
        {
          "internalType": "uint256",
          "name": "",
          "type": "uint256"
        }
      ],
      "name": "price",
      "outputs": [
        {
          "internalType": "uint256",
          "name": "",
          "type": "uint256"
        }
      ],
      "stateMutability": "view",
      "type": "function"
    },
    {
      "inputs": [
        {
          "internalType": "uint256",
          "name": "",
          "type": "uint256"
        }
      ],
      "name": "priceDistributionOnMint",
      "outputs": [
        {
          "internalType": "uint256",
          "name": "",
          "type": "uint256"
        }
      ],
      "stateMutability": "view",
      "type": "function"
    },
    {
      "inputs": [
        {
          "internalType": "uint256",
          "name": "",
          "type": "uint256"
        }
      ],
      "name": "profitDistribution",
      "outputs": [
        {
          "internalType": "uint256",
          "name": "",
          "type": "uint256"
        }
      ],
      "stateMutability": "view",
      "type": "function"
    },
    {
      "inputs": [
        {
          "internalType": "uint256",
          "name": "",
          "type": "uint256"
        }
      ],
      "name": "profitToDistribute",
      "outputs": [
        {
          "internalType": "uint256",
          "name": "",
          "type": "uint256"
        }
      ],
      "stateMutability": "view",
      "type": "function"
    },
    {
      "inputs": [],
      "name": "referralShareForNFTPurchase",
      "outputs": [
        {
          "internalType": "uint256",
          "name": "",
          "type": "uint256"
        }
      ],
      "stateMutability": "view",
      "type": "function"
    },
    {
      "inputs": [
        {
          "internalType": "bytes32",
          "name": "role",
          "type": "bytes32"
        },
        {
          "internalType": "address",
          "name": "account",
          "type": "address"
        }
      ],
      "name": "renounceRole",
      "outputs": [],
      "stateMutability": "nonpayable",
      "type": "function"
    },
    {
      "inputs": [
        {
          "internalType": "bytes32",
          "name": "role",
          "type": "bytes32"
        },
        {
          "internalType": "address",
          "name": "account",
          "type": "address"
        }
      ],
      "name": "revokeRole",
      "outputs": [],
      "stateMutability": "nonpayable",
      "type": "function"
    },
    {
      "inputs": [
        {
          "internalType": "address",
          "name": "from",
          "type": "address"
        },
        {
          "internalType": "address",
          "name": "to",
          "type": "address"
        },
        {
          "internalType": "uint256[]",
          "name": "ids",
          "type": "uint256[]"
        },
        {
          "internalType": "uint256[]",
          "name": "amounts",
          "type": "uint256[]"
        },
        {
          "internalType": "bytes",
          "name": "data",
          "type": "bytes"
        }
      ],
      "name": "safeBatchTransferFrom",
      "outputs": [],
      "stateMutability": "nonpayable",
      "type": "function"
    },
    {
      "inputs": [
        {
          "internalType": "uint256",
          "name": "",
          "type": "uint256"
        }
      ],
      "name": "safeToDistribute",
      "outputs": [
        {
          "internalType": "uint256",
          "name": "",
          "type": "uint256"
        }
      ],
      "stateMutability": "view",
      "type": "function"
    },
    {
      "inputs": [],
      "name": "safeToken",
      "outputs": [
        {
          "internalType": "contract ISafeToken",
          "name": "",
          "type": "address"
        }
      ],
      "stateMutability": "view",
      "type": "function"
    },
    {
      "inputs": [
        {
          "internalType": "address",
          "name": "from",
          "type": "address"
        },
        {
          "internalType": "address",
          "name": "to",
          "type": "address"
        },
        {
          "internalType": "uint256",
          "name": "id",
          "type": "uint256"
        },
        {
          "internalType": "uint256",
          "name": "amount",
          "type": "uint256"
        },
        {
          "internalType": "bytes",
          "name": "data",
          "type": "bytes"
        }
      ],
      "name": "safeTransferFrom",
      "outputs": [],
      "stateMutability": "nonpayable",
      "type": "function"
    },
    {
      "inputs": [],
      "name": "safeVault",
      "outputs": [
        {
          "internalType": "contract ISafeVault",
          "name": "",
          "type": "address"
        }
      ],
      "stateMutability": "view",
      "type": "function"
    },
    {
      "inputs": [
        {
          "internalType": "address",
          "name": "_ambassador",
          "type": "address"
        }
      ],
      "name": "setAmbassador",
      "outputs": [],
      "stateMutability": "nonpayable",
      "type": "function"
    },
    {
      "inputs": [
        {
          "internalType": "address",
          "name": "operator",
          "type": "address"
        },
        {
          "internalType": "bool",
          "name": "approved",
          "type": "bool"
        }
      ],
      "name": "setApprovalForAll",
      "outputs": [],
      "stateMutability": "nonpayable",
      "type": "function"
    },
    {
      "inputs": [
        {
          "internalType": "uint256",
          "name": "_discountedPrice",
          "type": "uint256"
        }
      ],
      "name": "setDiscountedPrice",
      "outputs": [],
      "stateMutability": "nonpayable",
      "type": "function"
    },
    {
      "inputs": [
        {
          "internalType": "uint256[4]",
          "name": "_presaleMaxSupply",
          "type": "uint256[4]"
        }
      ],
      "name": "setPresaleMaxSupply",
      "outputs": [],
      "stateMutability": "nonpayable",
      "type": "function"
    },
    {
      "inputs": [
        {
          "internalType": "uint256",
          "name": "_tokenId",
          "type": "uint256"
        },
        {
          "internalType": "string",
          "name": "_tokenURI",
          "type": "string"
        }
      ],
      "name": "setURI",
      "outputs": [],
      "stateMutability": "nonpayable",
      "type": "function"
    },
    {
      "inputs": [
        {
          "internalType": "uint256",
          "name": "",
          "type": "uint256"
        },
        {
          "internalType": "address",
          "name": "",
          "type": "address"
        },
        {
          "internalType": "uint256",
          "name": "",
          "type": "uint256"
        }
      ],
      "name": "snapshotOfOwnedTokens",
      "outputs": [
        {
          "internalType": "uint256",
          "name": "",
          "type": "uint256"
        }
      ],
      "stateMutability": "view",
      "type": "function"
    },
    {
      "inputs": [
        {
          "internalType": "uint256",
          "name": "",
          "type": "uint256"
        },
        {
          "internalType": "uint256",
          "name": "",
          "type": "uint256"
        }
      ],
      "name": "snapshotOfTotalSupply",
      "outputs": [
        {
          "internalType": "uint256",
          "name": "",
          "type": "uint256"
        }
      ],
      "stateMutability": "view",
      "type": "function"
    },
    {
      "inputs": [
        {
          "internalType": "uint256",
          "name": "",
          "type": "uint256"
        }
      ],
      "name": "soldInDiscountedSale",
      "outputs": [
        {
          "internalType": "uint256",
          "name": "",
          "type": "uint256"
        }
      ],
      "stateMutability": "view",
      "type": "function"
    },
    {
      "inputs": [
        {
          "internalType": "address",
          "name": "",
          "type": "address"
        },
        {
          "internalType": "uint256",
          "name": "",
          "type": "uint256"
        },
        {
          "internalType": "uint256",
          "name": "",
          "type": "uint256"
        }
      ],
      "name": "soldPerPresaleWeek",
      "outputs": [
        {
          "internalType": "uint256",
          "name": "",
          "type": "uint256"
        }
      ],
      "stateMutability": "view",
      "type": "function"
    },
    {
      "inputs": [
        {
          "internalType": "bytes4",
          "name": "interfaceId",
          "type": "bytes4"
        }
      ],
      "name": "supportsInterface",
      "outputs": [
        {
          "internalType": "bool",
          "name": "",
          "type": "bool"
        }
      ],
      "stateMutability": "view",
      "type": "function"
    },
    {
      "inputs": [],
      "name": "togglePresale",
      "outputs": [],
      "stateMutability": "nonpayable",
      "type": "function"
    },
    {
      "inputs": [
        {
          "internalType": "uint256",
          "name": "",
          "type": "uint256"
        }
      ],
      "name": "tokenHolders",
      "outputs": [
        {
          "internalType": "address",
          "name": "",
          "type": "address"
        }
      ],
      "stateMutability": "view",
      "type": "function"
    },
    {
      "inputs": [
        {
          "internalType": "uint256",
          "name": "id",
          "type": "uint256"
        }
      ],
      "name": "totalSupply",
      "outputs": [
        {
          "internalType": "uint256",
          "name": "",
          "type": "uint256"
        }
      ],
      "stateMutability": "view",
      "type": "function"
    },
    {
      "inputs": [],
      "name": "unpause",
      "outputs": [],
      "stateMutability": "nonpayable",
      "type": "function"
    },
    {
      "inputs": [
        {
          "internalType": "uint256",
          "name": "",
          "type": "uint256"
        }
      ],
      "name": "unused",
      "outputs": [
        {
          "internalType": "address",
          "name": "",
          "type": "address"
        }
      ],
      "stateMutability": "view",
      "type": "function"
    },
    {
      "inputs": [
        {
          "internalType": "uint256",
          "name": "_tokenId",
          "type": "uint256"
        }
      ],
      "name": "uri",
      "outputs": [
        {
          "internalType": "string",
          "name": "",
          "type": "string"
        }
      ],
      "stateMutability": "view",
      "type": "function"
    },
    {
      "inputs": [],
      "name": "usd",
      "outputs": [
        {
          "internalType": "contract IERC20",
          "name": "",
          "type": "address"
        }
      ],
      "stateMutability": "view",
      "type": "function"
    },
    {
      "inputs": [
        {
          "internalType": "address",
          "name": "_owner",
          "type": "address"
        }
      ],
      "name": "votingPower",
      "outputs": [
        {
          "internalType": "uint256",
          "name": "",
          "type": "uint256"
        }
      ],
      "stateMutability": "view",
      "type": "function"
    },
    {
      "inputs": [
        {
          "internalType": "uint256",
          "name": "",
          "type": "uint256"
        }
      ],
      "name": "wallets",
      "outputs": [
        {
          "internalType": "address",
          "name": "",
          "type": "address"
        }
      ],
      "stateMutability": "view",
      "type": "function"
    },
    {
      "inputs": [
        {
          "internalType": "address[]",
          "name": "_addresses",
          "type": "address[]"
        }
      ],
      "name": "whitelistForRewardsDistribution",
      "outputs": [],
      "stateMutability": "nonpayable",
      "type": "function"
    }
  ],
  "transactionHash": "0x8d49aa6d70cf17db63566269a2b2b0de2a11d9e0c727735cf36851ebafa3912a",
  "args": [
    "",
    [
      "131250000",
      "262500000",
      "525000000",
      "1050000000"
    ],
    [
      2000,
      1000,
      1000,
      1000
    ],
    "0x519EfB2bEFBd3f00D335dc9DF42BF721D591604f",
    [
      20000000,
      30000000
    ],
    5000000,
    [
      10000000,
      30000000
    ],
    "0xe97BDb5600d711C38854d603a4748f98063314AB"
  ],
  "numDeployments": 25,
  "solcInputHash": "a5413c9e944241d249ec23dcf71bf59d",
  "bytecode": "0x60806040523480156200001157600080fd5b5060405162006a0538038062006a058339810160408190526200003491620008a8565b87806200004181620000b5565b506007805460ff1916905562000059600033620000c7565b62000074600080516020620069e583398151915233620000c7565b6200008f600080516020620069c583398151915233620000c7565b506001600955620000a78888888888888888620000d3565b505050505050505062000bed565b6006620000c3828262000a6f565b5050565b620000c3828262000507565b6000620000ed600080516020620069a58339815191525490565b90506001600160a01b0381166200011d576001600160a01b03600080516020620069a58339815191525562000133565b336001600160a01b038216146200013357600080fd5b6200013e89620000b5565b6200014b600033620000c7565b62000166600080516020620069e583398151915233620000c7565b62000181600080516020620069c583398151915233620000c7565b62000190600a8960046200066a565b50620001a0601e8860046200066a565b50602480546001600160a01b0319166001600160a01b038816179055620001cb6027866002620006ad565b50602b849055620001e06029846002620006ad565b50602c80546001600160a01b0319166001600160a01b03848116919091179091556024546040805163db7a460560e01b815281516200027394939093169263db7a4605926004808401939192918290030181865afa15801562000247573d6000803e3d6000fd5b505050506040513d601f19601f820116820180604052508101906200026d919062000b3b565b6200054a565b602460009054906101000a90046001600160a01b03166001600160a01b031663deef94de6040518163ffffffff1660e01b8152600401602060405180830381865afa158015620002c7573d6000803e3d6000fd5b505050506040513d601f19601f82011682018060405250810190620002ed919062000ba2565b602580546001600160a01b0319166001600160a01b039283161790556024546040805163d63a6ccd60e01b81529051919092169163d63a6ccd9160048083019260209291908290030181865afa1580156200034c573d6000803e3d6000fd5b505050506040513d601f19601f8201168201806040525081019062000372919062000ba2565b602680546001600160a01b0319166001600160a01b039283169081179091556024805460405163095ea7b360e01b815293166004840152600019908301529063095ea7b3906044016020604051808303816000875af1158015620003da573d6000803e3d6000fd5b505050506040513d601f19601f8201168201806040525081019062000400919062000bc9565b5060265460255460405163095ea7b360e01b81526001600160a01b039182166004820152600019602482015291169063095ea7b3906044016020604051808303816000875af115801562000458573d6000803e3d6000fd5b505050506040513d601f19601f820116820180604052508101906200047e919062000bc9565b506024805460405163095ea7b360e01b81526001600160a01b03909116600482018190526000199282019290925263095ea7b3906044016020604051808303816000875af1158015620004d5573d6000803e3d6000fd5b505050506040513d601f19601f82011682018060405250810190620004fb919062000bc9565b50505050505050505050565b6200051e82826200055860201b620030561760201c565b600082815260016020908152604090912062000545918390620030da620005f8821b17901c565b505050565b620000c360028281620006dd565b6000828152602081815260408083206001600160a01b038516845290915290205460ff16620000c3576000828152602081815260408083206001600160a01b03851684529091529020805460ff19166001179055620005b43390565b6001600160a01b0316816001600160a01b0316837f2f8788117e7eff1d82e926ec794901d17c78024a50270940304540a733656f0d60405160405180910390a45050565b60006200060f836001600160a01b03841662000618565b90505b92915050565b6000818152600183016020526040812054620006615750815460018181018455600084815260208082209093018490558454848252828601909352604090209190915562000612565b50600062000612565b82600481019282156200069b579160200282015b828111156200069b5782518255916020019190600101906200067e565b50620006a992915062000728565b5090565b82600281019282156200069b57916020028201828111156200069b5782518255916020019190600101906200067e565b82600281019282156200069b579160200282015b828111156200069b57825182546001600160a01b0319166001600160a01b03909116178255602090920191600190910190620006f1565b5b80821115620006a9576000815560010162000729565b634e487b7160e01b600052604160045260246000fd5b604080519081016001600160401b03811182821017156200077a576200077a6200073f565b60405290565b604051601f8201601f191681016001600160401b0381118282101715620007ab57620007ab6200073f565b604052919050565b600082601f830112620007c557600080fd5b604051608081016001600160401b0381118282101715620007ea57620007ea6200073f565b6040528060808401858111156200080057600080fd5b845b818110156200081c57805183526020928301920162000802565b509195945050505050565b6001600160a01b03811681146200083d57600080fd5b50565b80516200084d8162000827565b919050565b600082601f8301126200086457600080fd5b6200086e62000755565b8060408401858111156200088157600080fd5b845b818110156200089d57805184526020938401930162000883565b509095945050505050565b600080600080600080600080610200898b031215620008c657600080fd5b88516001600160401b0380821115620008de57600080fd5b818b0191508b601f830112620008f357600080fd5b8151818111156200090857620009086200073f565b6020915062000920601f8201601f1916830162000780565b8181528d838386010111156200093557600080fd5b60005b828110156200095557848101840151828201850152830162000938565b506000838383010152809b505050620009718c828d01620007b3565b98505050620009848a60a08b01620007b3565b9550620009956101208a0162000840565b9450620009a78a6101408b0162000852565b93506101808901519250620009c18a6101a08b0162000852565b9150620009d26101e08a0162000840565b90509295985092959890939650565b600181811c90821680620009f657607f821691505b60208210810362000a1757634e487b7160e01b600052602260045260246000fd5b50919050565b601f8211156200054557600081815260208120601f850160051c8101602086101562000a465750805b601f850160051c820191505b8181101562000a675782815560010162000a52565b505050505050565b81516001600160401b0381111562000a8b5762000a8b6200073f565b62000aa38162000a9c8454620009e1565b8462000a1d565b602080601f83116001811462000adb576000841562000ac25750858301515b600019600386901b1c1916600185901b17855562000a67565b600085815260208120601f198616915b8281101562000b0c5788860151825594840194600190910190840162000aeb565b508582101562000b2b5787850151600019600388901b60f8161c191681555b5050505050600190811b01905550565b60006040828403121562000b4e57600080fd5b82601f83011262000b5e57600080fd5b62000b6862000755565b80604084018581111562000b7b57600080fd5b845b818110156200089d57805162000b938162000827565b84526020938401930162000b7d565b60006020828403121562000bb557600080fd5b815162000bc28162000827565b9392505050565b60006020828403121562000bdc57600080fd5b8151801515811462000bc257600080fd5b615da88062000bfd6000396000f3fe608060405234801561001057600080fd5b50600436106104eb5760003560e01c80637dfe59141161028e578063c878813411610167578063e2a21a98116100d9578063f0b8024d11610092578063f0b8024d14610bc3578063f242432a14610bd6578063f3430a1614610be9578063f5298aca14610bfc578063fd18a25314610c0f578063fdea8e0b14610c2257600080fd5b8063e2a21a9814610afc578063e4e7c6b414610b0f578063e63ab1e914610b22578063e985e9c514610b49578063ebd3bb7714610b85578063f0b2df8914610bb057600080fd5b8063d53913931161012b578063d539139314610a66578063d547741f14610a8d578063d63a6ccd14610aa0578063dd77ec4414610ab3578063deef94de14610ad6578063df71da7614610ae957600080fd5b8063c878813414610a11578063ca15c87314610a1a578063ca7b244714610a2d578063d0d5a1ba14610a40578063d36dfac814610a5357600080fd5b8063a1f5c23911610200578063b786680e116101c4578063b786680e146109a8578063b88a802f146109bb578063bd85b039146109c3578063bef217cc146109e3578063bf587d9a146109f6578063c07473f6146109fe57600080fd5b8063a1f5c23914610975578063a217fddf1461097d578063a22cb46514610985578063a8ad42aa14610998578063b1873f19146109a057600080fd5b80638d3bd55b116102525780638d3bd55b146109015780638e4ca8f8146109095780639010d07c1461092957806391d148541461093c578063923108d91461094f5780639324b42a1461096257600080fd5b80637dfe59141461088d5780638456cb59146108be578063862440e2146108c6578063869f7594146108d9578063876b1566146108ec57600080fd5b80633a78a7d6116103cb57806365011c101161033d5780636ed93dd0116102f65780636ed93dd014610820578063730a83e51461082b578063731133e91461084b578063759700161461085e578063780069e0146108715780637ad71f721461087a57600080fd5b806365011c10146107bc57806365731fe9146107cf5780636ac60068146107f25780636b20c454146108055780636d6689ea146108185780636e748f971461081857600080fd5b806351ba5b441161038f57806351ba5b441461074357806352a1ad541461074b57806352ad8e561461075e578063553b69751461077e5780635a89065a146107915780635c975abb146107b157600080fd5b80633a78a7d6146106e05780633f4ba83a146106f35780634b3fd05a146106fb5780634e1273f41461070e5780634f558e791461072157600080fd5b80631f7fdffa116104645780632eb2c2d6116104285780632eb2c2d6146106615780632f2ff15d1461067457806331bb1d6a1461068757806334393743146106b257806336568abe146106ba57806337f1e7f2146106cd57600080fd5b80631f7fdffa146105fd57806323f77fa914610610578063248a9ca31461062357806326a49e37146106465780632c13f08c1461065957600080fd5b806304ad7319116104b657806304ad73191461056a57806306fdde031461057d5780630e89341c146105b8578063104304f3146105cb57806316230257146105e05780631a5e85e5146105e857600080fd5b8062a13c4c146104f0578062ab1fa31461050c578062fdd58e1461052157806301ffc9a71461053457806303b2add014610557575b600080fd5b6104f9602b5481565b6040519081526020015b60405180910390f35b61051f61051a366004614b9c565b610c36565b005b6104f961052f366004614bca565b610c6b565b610547610542366004614c0c565b610d01565b6040519015158152602001610503565b6104f9610565366004614b9c565b610d0c565b61051f610578366004614d22565b610d23565b6105ab6040518060400160405280600f81526020016e14d8599948165a595b191cc8139195608a1b81525081565b6040516105039190614dae565b6105ab6105c6366004614b9c565b610e32565b6105d3610ef0565b6040516105039190614dfc565b6104f9610f6d565b6105f0610fbf565b6040516105039190614e0f565b61051f61060b366004614f19565b611013565b6105d361061e366004614fb3565b61106b565b6104f9610631366004614b9c565b60009081526020819052604090206001015490565b6104f9610654366004614b9c565b6110de565b6105d36110ee565b61051f61066f366004614fd0565b611165565b61051f61068236600461507d565b6111b1565b61069a610695366004614b9c565b6111db565b6040516001600160a01b039091168152602001610503565b61051f611205565b61051f6106c836600461507d565b611292565b6104f96106db3660046150c1565b61130c565b603b5461069a906001600160a01b031681565b61051f61133a565b60245461069a906001600160a01b031681565b6105d361071c3660046150dc565b6113e0565b61054761072f366004614b9c565b600090815260086020526040902054151590565b6104f9611509565b6104f961075936600461513f565b6115ac565b6104f961076c366004614b9c565b603f6020526000908152604090205481565b61051f61078c366004614fb3565b6115d7565b6104f961079f366004614b9c565b60386020526000908152604090205481565b60075460ff16610547565b602c5461069a906001600160a01b031681565b6105476107dd366004614fb3565b60366020526000908152604090205460ff1681565b61051f6108003660046151fd565b611620565b61051f6108133660046152b6565b611a70565b6104f9600481565b6104f96305f5e10081565b6104f9610839366004614b9c565b60396020526000908152604090205481565b61051f61085936600461532b565b611ab3565b61051f61086c366004615381565b611b05565b6104f960375481565b61069a610888366004614b9c565b611b39565b6104f961089b36600461539d565b602d60209081526000938452604080852082529284528284209052825290205481565b61051f611b59565b61051f6108d43660046153d2565b611bfd565b6104f96108e7366004614b9c565b611c3c565b6108f4611c4c565b604051610503919061540e565b6104f9600281565b6104f9610917366004614b9c565b60406020819052600091825290205481565b61069a61093736600461513f565b611cae565b61054761094a36600461507d565b611cc6565b61069a61095d366004614b9c565b611cef565b61051f61097036600461539d565b611cff565b6105d3611d31565b6104f9600081565b61051f610993366004615469565b611d43565b6041546104f9565b6105d3611d4e565b61051f6109b6366004614d22565b611e08565b61051f611fd4565b6104f96109d1366004614b9c565b60009081526008602052604090205490565b61069a6109f1366004614b9c565b612131565b6104f9612141565b6104f9610a0c366004614fb3565b612178565b6104f9603e5481565b6104f9610a28366004614b9c565b6121c3565b6104f9610a3b366004614b9c565b6121da565b61051f610a4e366004615497565b6121ea565b61051f610a61366004614b9c565b61278a565b6104f97f9f2df0fed2c77648de5860a4cc508cd0818c85b8b8a1ab4ceeef8d981c8956a681565b61051f610a9b36600461507d565b612cb6565b60265461069a906001600160a01b031681565b610547610ac1366004614fb3565b60426020526000908152604090205460ff1681565b60255461069a906001600160a01b031681565b6104f9610af7366004614b9c565b612cdb565b6104f9610b0a3660046154d7565b612ceb565b6104f9610b1d366004614bca565b612d1d565b6104f97f65d7a28e3265b37a6474929f336521b332c1681b933f6cb9f3376673440d862a81565b610547610b5736600461550f565b6001600160a01b03918216600090815260056020908152604080832093909416825291909152205460ff1690565b6104f9610b9336600461507d565b603a60209081526000928352604080842090915290825290205481565b6104f9610bbe3660046150c1565b612e99565b6104f9610bd136600461513f565b612f79565b61051f610be436600461553d565b612f95565b61051f610bf73660046155a5565b612fda565b61051f610c0a36600461539d565b61300e565b6104f9610c1d366004614b9c565b613046565b602c5461054790600160a01b900460ff1681565b610c41600033611cc6565b610c665760405162461bcd60e51b8152600401610c5d906155c1565b60405180910390fd5b603e55565b60006001600160a01b038316610cd65760405162461bcd60e51b815260206004820152602a60248201527f455243313135353a2061646472657373207a65726f206973206e6f742061207660448201526930b634b21037bbb732b960b11b6064820152608401610c5d565b5060008181526004602090815260408083206001600160a01b03861684529091529020545b92915050565b6000610cfb826130ef565b60328160048110610d1c57600080fd5b0154905081565b610d2e600033611cc6565b610d4a5760405162461bcd60e51b8152600401610c5d906155c1565b60005b8151811015610e2e576000828281518110610d6a57610d6a615610565b6020026020010151905060006001600160a01b0316816001600160a01b031614158015610db057506001600160a01b03811660009081526042602052604090205460ff16155b15610e1b576001600160a01b0381166000818152604260205260408120805460ff191660019081179091556043805491820181559091527f9690ad99d6ce244efa8a0f6c2d04036d3b33a9474db32a71b71135c6951027930180546001600160a01b03191690911790555b5080610e268161563c565b915050610d4d565b5050565b600081815260226020526040812080546060929190610e5090615655565b80601f0160208091040260200160405190810160405280929190818152602001828054610e7c90615655565b8015610ec95780601f10610e9e57610100808354040283529160200191610ec9565b820191906000526020600020905b815481529060010190602001808311610eac57829003601f168201915b505050505090506000815111610ee757610ee2836130fa565b610ee9565b805b9392505050565b60408051600480825260a08201909252606091600091906020820160808036833701905050905060005b6004811015610f6757600a8160048110610f3657610f36615610565b0154828281518110610f4a57610f4a615610565b602090810291909101015280610f5f8161563c565b915050610f1a565b50919050565b60375460009081905b8015610f6757603754600090815260406020818152818320546039909152912054610fa19190615689565b610fab908361569c565b915080610fb7816156af565b915050610f76565b610fc7614ab6565b610fcf614ab6565b60005b6004811015610f6757600081815260086020526040902054828260048110610ffc57610ffc615610565b60200201528061100b8161563c565b915050610fd2565b61103d7f9f2df0fed2c77648de5860a4cc508cd0818c85b8b8a1ab4ceeef8d981c8956a633611cc6565b6110595760405162461bcd60e51b8152600401610c5d906156c6565b6110658484848461318e565b50505050565b60408051600480825260a08201909252606091600091906020820160808036833701905050905060005b60048110156110d7576110a88482610c6b565b8282815181106110ba576110ba615610565b6020908102919091010152806110cf8161563c565b915050611095565b5092915050565b600a8160048110610d1c57600080fd5b60408051600480825260a08201909252606091600091906020820160808036833701905050905060005b6004811015610f6757611136816003811115610bbe57610bbe615723565b82828151811061114857611148615610565b60209081029190910101528061115d8161563c565b915050611118565b6001600160a01b03851633148061118157506111818533610b57565b61119d5760405162461bcd60e51b8152600401610c5d90615739565b6111aa85858585856132f8565b5050505050565b6000828152602081905260409020600101546111cc816134b3565b6111d683836134bd565b505050565b604381815481106111eb57600080fd5b6000918252602090912001546001600160a01b0316905081565b611210600033611cc6565b61122c5760405162461bcd60e51b8152600401610c5d906155c1565b602c805460ff600160a01b808304821615810260ff60a01b1990931692909217928390556040517f512e257b3133a95bd1fef520dafc0dfb212f406af4f808d030e788c8ff536c04936112889390049091161515815260200190565b60405180910390a1565b6001600160a01b03811633146113025760405162461bcd60e51b815260206004820152602f60248201527f416363657373436f6e74726f6c3a2063616e206f6e6c792072656e6f756e636560448201526e103937b632b9903337b91039b2b63360891b6064820152608401610c5d565b610e2e82826134df565b6000600a82600381111561132257611322615723565b6004811061133257611332615610565b015492915050565b6113647f65d7a28e3265b37a6474929f336521b332c1681b933f6cb9f3376673440d862a33611cc6565b6113d65760405162461bcd60e51b815260206004820152603b60248201527f455243313135355072657365744d696e7465725061757365723a206d7573742060448201527f686176652070617573657220726f6c6520746f20756e706175736500000000006064820152608401610c5d565b6113de613501565b565b606081518351146114455760405162461bcd60e51b815260206004820152602960248201527f455243313135353a206163636f756e747320616e6420696473206c656e677468604482015268040dad2e6dac2e8c6d60bb1b6064820152608401610c5d565b600083516001600160401b0381111561146057611460614c29565b604051908082528060200260200182016040528015611489578160200160208202803683370190505b50905060005b8451811015611501576114d48582815181106114ad576114ad615610565b60200260200101518583815181106114c7576114c7615610565b6020026020010151610c6b565b8282815181106114e6576114e6615610565b60209081029190910101526114fa8161563c565b905061148f565b509392505050565b6000338161151682612178565b90506000611522610fbf565b90506000805b600481101561157b5761153c81600161569c565b83826004811061154e5761154e615610565b602002015161155d9190615787565b611567908361569c565b9150806115738161563c565b915050611528565b5080156115a057806115916305f5e10085615787565b61159b919061579e565b6115a3565b60005b94505050505090565b600e82600481106115bc57600080fd5b6004020181600481106115ce57600080fd5b01549150829050565b6115e2600033611cc6565b6115fe5760405162461bcd60e51b8152600401610c5d906155c1565b603b80546001600160a01b0319166001600160a01b0392909216919091179055565b600061164a7fb53127684a568b3173ae13b9f8a6016e243e63b6e8ee1178d6a717850b5d61035490565b90506001600160a01b038116611689576001600160a01b037fb53127684a568b3173ae13b9f8a6016e243e63b6e8ee1178d6a717850b5d61035561169e565b336001600160a01b0382161461169e57600080fd5b6116a78961354e565b6116b260003361355a565b6116dc7f9f2df0fed2c77648de5860a4cc508cd0818c85b8b8a1ab4ceeef8d981c8956a63361355a565b6117067f65d7a28e3265b37a6474929f336521b332c1681b933f6cb9f3376673440d862a3361355a565b611713600a896004614ad4565b50611721601e886004614ad4565b50602480546001600160a01b0319166001600160a01b03881617905561174a6027866002614b12565b50602b84905561175d6029846002614b12565b50602c80546001600160a01b0319166001600160a01b03848116919091179091556024546040805163db7a460560e01b815281516117eb94939093169263db7a4605926004808401939192918290030181865afa1580156117c2573d6000803e3d6000fd5b505050506040513d601f19601f820116820180604052508101906117e691906157c0565b613564565b602460009054906101000a90046001600160a01b03166001600160a01b031663deef94de6040518163ffffffff1660e01b8152600401602060405180830381865afa15801561183e573d6000803e3d6000fd5b505050506040513d601f19601f820116820180604052508101906118629190615822565b602580546001600160a01b0319166001600160a01b039283161790556024546040805163d63a6ccd60e01b81529051919092169163d63a6ccd9160048083019260209291908290030181865afa1580156118c0573d6000803e3d6000fd5b505050506040513d601f19601f820116820180604052508101906118e49190615822565b602680546001600160a01b0319166001600160a01b039283169081179091556024805460405163095ea7b360e01b815293166004840152600019908301529063095ea7b3906044016020604051808303816000875af115801561194b573d6000803e3d6000fd5b505050506040513d601f19601f8201168201806040525081019061196f919061583f565b5060265460255460405163095ea7b360e01b81526001600160a01b039182166004820152600019602482015291169063095ea7b3906044016020604051808303816000875af11580156119c6573d6000803e3d6000fd5b505050506040513d601f19601f820116820180604052508101906119ea919061583f565b506024805460405163095ea7b360e01b81526001600160a01b03909116600482018190526000199282019290925263095ea7b3906044016020604051808303816000875af1158015611a40573d6000803e3d6000fd5b505050506040513d601f19601f82011682018060405250810190611a64919061583f565b50505050505050505050565b6001600160a01b038316331480611a8c5750611a8c8333610b57565b611aa85760405162461bcd60e51b8152600401610c5d90615739565b6111d6838383613570565b611add7f9f2df0fed2c77648de5860a4cc508cd0818c85b8b8a1ab4ceeef8d981c8956a633611cc6565b611af95760405162461bcd60e51b8152600401610c5d906156c6565b61106584848484613719565b611b10600033611cc6565b611b2c5760405162461bcd60e51b8152600401610c5d906155c1565b610e2e6027826002614b12565b60028160028110611b4957600080fd5b01546001600160a01b0316905081565b611b837f65d7a28e3265b37a6474929f336521b332c1681b933f6cb9f3376673440d862a33611cc6565b611bf55760405162461bcd60e51b815260206004820152603960248201527f455243313135355072657365744d696e7465725061757365723a206d7573742060448201527f686176652070617573657220726f6c6520746f207061757365000000000000006064820152608401610c5d565b6113de613813565b611c08600033611cc6565b611c245760405162461bcd60e51b8152600401610c5d906155c1565b60008281526022602052604090206111d682826158a2565b601e8160048110610d1c57600080fd5b60606041805480602002602001604051908101604052809291908181526020018280548015611ca457602002820191906000526020600020905b81546001600160a01b03168152600190910190602001808311611c86575b5050505050905090565b6000828152600160205260408120610ee99083613850565b6000918252602082815260408084206001600160a01b0393909316845291905290205460ff1690565b604181815481106111eb57600080fd5b611d0a600033611cc6565b611d265760405162461bcd60e51b8152600401610c5d906155c1565b6111d683838361385c565b606033611d3d8161106b565b91505090565b610e2e338383613982565b60408051600480825260a08201909252606091600091906020820160808036833701905050905060005b6004811015610f67576000818152603f602052604090205460328260048110611da357611da3615610565b0154602e8360048110611db857611db8615610565b0154611dc5906004615787565b611dcf9190615689565b611dd99190615689565b828281518110611deb57611deb615610565b602090810291909101015280611e008161563c565b915050611d78565b611e13600033611cc6565b611e2f5760405162461bcd60e51b8152600401610c5d906155c1565b60005b8151811015610e2e576000828281518110611e4f57611e4f615610565b6020026020010151905060006001600160a01b0316816001600160a01b031614158015611e9457506001600160a01b03811660009081526042602052604090205460ff165b15611fc1576001600160a01b0381166000908152604260205260408120805460ff191690555b604354811015611fbf57816001600160a01b031660438281548110611ee157611ee1615610565b6000918252602090912001546001600160a01b031603611fad5760438054611f0b90600190615689565b81548110611f1b57611f1b615610565b600091825260209091200154604380546001600160a01b039092169183908110611f4757611f47615610565b9060005260206000200160006101000a8154816001600160a01b0302191690836001600160a01b031602179055506043805480611f8657611f86615961565b600082815260209020810160001990810180546001600160a01b0319169055019055611fbf565b80611fb78161563c565b915050611eba565b505b5080611fcc8161563c565b915050611e32565b611fdc613a62565b60375433905b8015612125576000611ff48383612d1d565b90508015612112576024805460405163a9059cbb60e01b81526001600160a01b03868116600483015292810184905291169063a9059cbb906044016020604051808303816000875af115801561204e573d6000803e3d6000fd5b505050506040513d601f19601f82011682018060405250810190612072919061583f565b506000828152603a602090815260408083206001600160a01b0387168452909152812080548392906120a590849061569c565b9091555050600082815260406020819052812080548392906120c890849061569c565b909155505060408051838152602081018390526001600160a01b038516917f987d620f307ff6b94d58743cb7a7509f24071586a77759b77c2d4e29f75a2f9a910160405180910390a25b508061211d816156af565b915050611fe2565b50506113de6001600955565b602381815481106111eb57600080fd5b60375460009081905b8015610f675761215a3382612d1d565b612164908361569c565b915080612170816156af565b91505061214a565b600080805b60048110156110d75761219181600161569c565b61219b8583610c6b565b6121a59190615787565b6121af908361569c565b9150806121bb8161563c565b91505061217d565b6000818152600160205260408120610cfb90613abb565b60298160028110610d1c57600080fd5b6121f2613a62565b600082116122685760405162461bcd60e51b815260206004820152603960248201527f45205243313135355072657365744d696e7465725061757365723a20616d6f7560448201527f6e74206d7573742062652067726561746572207468616e2030000000000000006064820152608401610c5d565b6000600a84600381111561227e5761227e615723565b6004811061228e5761228e615610565b0154116123035760405162461bcd60e51b815260206004820152603c60248201527f455243313135355072657365744d696e7465725061757365723a20746965722060448201527f7072696365206d7573742062652067726561746572207468616e2030000000006064820152608401610c5d565b6001600160a01b038116158015908061232d575080801561232d57506001600160a01b0382163314155b6123885760405162461bcd60e51b815260206004820152602660248201527f526566657272616c206d75737420626520646966666572656e742066726f6d2060448201526539b2b73232b960d11b6064820152608401610c5d565b600084600381111561239c5761239c615723565b602c54909150600160a01b900460ff16156127635733600060328760038111156123c8576123c8615723565b600481106123d8576123d8615610565b0154602e8860038111156123ee576123ee615723565b600481106123fe576123fe615610565b015461240b906004615787565b6124159190615689565b90508086111561247c5760405162461bcd60e51b815260206004820152602c60248201527f4d6178696d756d20737570706c7920686173206265656e20726561636865642060448201526b3337b9103a3432903a34b2b960a11b6064820152608401610c5d565b85603f600089600381111561249357612493615723565b815260200190815260200160002060008282546124b0919061569c565b9250508190555060006305f5e10087603e54600a8b60038111156124d6576124d6615723565b600481106124e6576124e6615610565b01546124f29190615787565b6124fc9190615787565b612506919061579e565b6026549091506001600160a01b03166323b872dd336040516001600160e01b031960e084901b1681526001600160a01b039091166004820152306024820152604481018490526064016020604051808303816000875af115801561256e573d6000803e3d6000fd5b505050506040513d601f19601f82011682018060405250810190612592919061583f565b506000856125a15760006125be565b602654602b546125be916001600160a01b03169084908a90613ac5565b9050600086156125cf5760006125f2565b602654603b54602b546125f2926001600160a01b03908116928792911690613ac5565b602654909150600090612610906001600160a01b0316856027613c2a565b6026546040516370a0823160e01b81523060048201529192506000916001600160a01b03909116906370a0823190602401602060405180830381865afa15801561265e573d6000803e3d6000fd5b505050506040513d601f19601f820116820180604052508101906126829190615977565b9050801561270557602654602c5460405163a9059cbb60e01b81526001600160a01b0391821660048201526024810184905291169063a9059cbb906044016020604051808303816000875af11580156126df573d6000803e3d6000fd5b505050506040513d601f19601f82011682018060405250810190612703919061583f565b505b8b600381111561271757612717615723565b8b886001600160a01b03167f4e26b0356a15833a75d497ecc40ebbb716b99466ed0dba9454f1fff451e25a908860405161275391815260200190565b60405180910390a4505050505050505b61277e33828660405180602001604052806000815250613719565b50506111d66001600955565b612792613a62565b600081116127e25760405162461bcd60e51b815260206004820152601d60248201527f416d6f756e74206d7573742062652067726561746572207468616e20300000006044820152606401610c5d565b6026546001600160a01b03166323b872dd336040516001600160e01b031960e084901b1681526001600160a01b039091166004820152306024820152604481018490526064016020604051808303816000875af1158015612847573d6000803e3d6000fd5b505050506040513d601f19601f8201168201806040525081019061286b919061583f565b506037805490600061287c8361563c565b909155505060375460009081526038602052604081208290556026546128ad906001600160a01b0316836029613c2a565b905060006305f5e1006128c384620f4240615787565b6128ce906005615787565b6128d8919061579e565b603b549091506001600160a01b03161561296757602654603b5460405163a9059cbb60e01b81526001600160a01b0391821660048201526024810184905291169063a9059cbb906044016020604051808303816000875af1158015612941573d6000803e3d6000fd5b505050506040513d601f19601f82011682018060405250810190612965919061583f565b505b602654602c5460405163a9059cbb60e01b81526001600160a01b0391821660048201526024810184905291169063a9059cbb906044016020604051808303816000875af11580156129bc573d6000803e3d6000fd5b505050506040513d601f19601f820116820180604052508101906129e0919061583f565b5060006129ee826002615787565b6129f88486615689565b612a029190615689565b905060005b604154811015612b1157600060418281548110612a2657612a26615610565b6000918252602090912001546001600160a01b031690508015801590612a6457506001600160a01b03811660009081526036602052604090205460ff165b8015612a8957506001600160a01b03811660009081526042602052604090205460ff16155b15612afe5760005b6004811015612afc576000612aa68383610c6b565b90508015612ae9576037546000908152603c602090815260408083206001600160a01b0387168452909152902081908360048110612ae657612ae6615610565b01555b5080612af48161563c565b915050612a91565b505b5080612b098161563c565b915050612a07565b506024805460405163f7e0ba5f60e01b8152600481018490526001600160a01b039091169163f7e0ba5f91016020604051808303816000875af1158015612b5c573d6000803e3d6000fd5b505050506040513d601f19601f82011682018060405250810190612b809190615977565b603754600090815260396020526040902055612b9a610fbf565b6037546000908152603d60205260409020612bb6916004614ad4565b5060005b604354811015612c6257600060438281548110612bd957612bd9615610565b60009182526020822001546001600160a01b031691505b6004811015612c4d57612c038282610c6b565b6037546000908152603d602052604090208260048110612c2557612c25615610565b016000828254612c359190615689565b90915550819050612c458161563c565b915050612bf0565b50508080612c5a9061563c565b915050612bba565b50603754604080519182526020820186905281018290527f35a0431ae8ac3e583720a9e25576a99b5b4bb2cb375a867047eef1e6ea81b26f9060600160405180910390a1505050612cb36001600955565b50565b600082815260208190526040902060010154612cd1816134b3565b6111d683836134df565b60278160028110610d1c57600080fd5b603c6020528260005260406000206020528160005260406000208160048110612d1357600080fd5b0154925083915050565b6000818152603c602090815260408083206001600160a01b038616845290915280822081516080810192839052839283929060049082845b815481526020019060010190808311612d55575050505050905060005b6004811015612dc557612d8681600161569c565b828260048110612d9857612d98615610565b6020020151612da79190615787565b612db1908461569c565b925080612dbd8161563c565b915050612d72565b506000805b6004811015612e2757612dde81600161569c565b6000878152603d602052604090208260048110612dfd57612dfd615610565b0154612e099190615787565b612e13908361569c565b915080612e1f8161563c565b915050612dca565b5060008115612e5b576000868152603960205260409020548290612e4c908690615787565b612e56919061579e565b612e5e565b60005b6000878152603a602090815260408083206001600160a01b038c168452909152902054909150612e8e9082615689565b979650505050505050565b600080600a836003811115612eb057612eb0615723565b60048110612ec057612ec0615610565b015490506000612edb8460038111156109d1576109d1615723565b15612efa57612ef58460038111156109d1576109d1615723565b612efd565b60015b90506000805b603754811015612f3a57600081815260386020526040902054612f26908361569c565b915080612f328161563c565b915050612f03565b50600082866003811115612f5057612f50615723565b612f5a9084615787565b612f64919061579e565b612f6e908561569c565b509295945050505050565b603d60205281600052604060002081600481106115ce57600080fd5b6001600160a01b038516331480612fb15750612fb18533610b57565b612fcd5760405162461bcd60e51b8152600401610c5d90615739565b6111aa8585858585613d28565b612fe5600033611cc6565b6130015760405162461bcd60e51b8152600401610c5d906155c1565b610e2e602e826004614ad4565b6001600160a01b03831633148061302a575061302a8333610b57565b611d265760405162461bcd60e51b8152600401610c5d90615739565b602e8160048110610d1c57600080fd5b6130608282611cc6565b610e2e576000828152602081815260408083206001600160a01b03851684529091529020805460ff191660011790556130963390565b6001600160a01b0316816001600160a01b0316837f2f8788117e7eff1d82e926ec794901d17c78024a50270940304540a733656f0d60405160405180910390a45050565b6000610ee9836001600160a01b038416613e72565b6000610cfb82613ec1565b60606006805461310990615655565b80601f016020809104026020016040519081016040528092919081815260200182805461313590615655565b80156131825780601f1061315757610100808354040283529160200191613182565b820191906000526020600020905b81548152906001019060200180831161316557829003601f168201915b50505050509050919050565b6001600160a01b0384166131b45760405162461bcd60e51b8152600401610c5d90615990565b81518351146131d55760405162461bcd60e51b8152600401610c5d906159d1565b336131e581600087878787613f01565b60005b84518110156132815783818151811061320357613203615610565b60200260200101516004600087848151811061322157613221615610565b602002602001015181526020019081526020016000206000886001600160a01b03166001600160a01b031681526020019081526020016000206000828254613269919061569c565b909155508190506132798161563c565b9150506131e8565b50846001600160a01b031660006001600160a01b0316826001600160a01b03167f4a39dc06d4c0dbc64b70af90fd698a233a518aa5d07e595d983b8c0526c8f7fb87876040516132d2929190615a19565b60405180910390a46132e981600087878787614047565b6111aa816000878787876141d7565b81518351146133195760405162461bcd60e51b8152600401610c5d906159d1565b6001600160a01b03841661333f5760405162461bcd60e51b8152600401610c5d90615a47565b3361334e818787878787613f01565b60005b845181101561343757600085828151811061336e5761336e615610565b60200260200101519050600085838151811061338c5761338c615610565b60209081029190910181015160008481526004835260408082206001600160a01b038e1683529093529190912054909150818110156133dd5760405162461bcd60e51b8152600401610c5d90615a8c565b60008381526004602090815260408083206001600160a01b038e8116855292528083208585039055908b1682528120805484929061341c90849061569c565b92505081905550505050806134309061563c565b9050613351565b50846001600160a01b0316866001600160a01b0316826001600160a01b03167f4a39dc06d4c0dbc64b70af90fd698a233a518aa5d07e595d983b8c0526c8f7fb8787604051613487929190615a19565b60405180910390a461349d818787878787614047565b6134ab8187878787876141d7565b505050505050565b612cb38133614332565b6134c78282613056565b60008281526001602052604090206111d690826130da565b6134e9828261438b565b60008281526001602052604090206111d690826143f0565b613509614405565b6007805460ff191690557f5db9ee0a495bf2e6ff9c91a7834c1ba4fdd244a5e8aa4e537bd38aeae4b073aa335b6040516001600160a01b039091168152602001611288565b6006610e2e82826158a2565b610e2e82826134bd565b610e2e60028281614b3f565b6001600160a01b0383166135965760405162461bcd60e51b8152600401610c5d90615ad6565b80518251146135b75760405162461bcd60e51b8152600401610c5d906159d1565b60003390506135da81856000868660405180602001604052806000815250613f01565b60005b83518110156136a25760008482815181106135fa576135fa615610565b60200260200101519050600084838151811061361857613618615610565b60209081029190910181015160008481526004835260408082206001600160a01b038c1683529093529190912054909150818110156136695760405162461bcd60e51b8152600401610c5d90615b19565b60009283526004602090815260408085206001600160a01b038b168652909152909220910390558061369a8161563c565b9150506135dd565b5060006001600160a01b0316846001600160a01b0316826001600160a01b03167f4a39dc06d4c0dbc64b70af90fd698a233a518aa5d07e595d983b8c0526c8f7fb86866040516136f3929190615a19565b60405180910390a461106581856000868660405180602001604052806000815250614047565b6001600160a01b03841661373f5760405162461bcd60e51b8152600401610c5d90615990565b33600061374b8561444e565b905060006137588561444e565b905061376983600089858589613f01565b60008681526004602090815260408083206001600160a01b038b1684529091528120805487929061379b90849061569c565b909155505060408051878152602081018790526001600160a01b03808a1692600092918716917fc3d58168c5ae7397731d063d5bbf3d657854427343f4c083240f7aacaa2d0f62910160405180910390a46137fb83600089858589614047565b61380a83600089898989614499565b50505050505050565b61381b614554565b6007805460ff191660011790557f62e78cea01bee320cd4e420270b5ea74000d11b0c9f74754ebdbfc544b05a2586135363390565b6000610ee9838361459a565b6001600160a01b0383166138825760405162461bcd60e51b8152600401610c5d90615ad6565b33600061388e8461444e565b9050600061389b8461444e565b90506138bb83876000858560405180602001604052806000815250613f01565b60008581526004602090815260408083206001600160a01b038a168452909152902054848110156138fe5760405162461bcd60e51b8152600401610c5d90615b19565b60008681526004602090815260408083206001600160a01b038b81168086529184528285208a8703905582518b81529384018a90529092908816917fc3d58168c5ae7397731d063d5bbf3d657854427343f4c083240f7aacaa2d0f62910160405180910390a461380a84886000868660405180602001604052806000815250614047565b816001600160a01b0316836001600160a01b0316036139f55760405162461bcd60e51b815260206004820152602960248201527f455243313135353a2073657474696e6720617070726f76616c20737461747573604482015268103337b91039b2b63360b91b6064820152608401610c5d565b6001600160a01b03838116600081815260056020908152604080832094871680845294825291829020805460ff191686151590811790915591519182527f17307eab39ab6107e8899845ad3d59bd9653f200f220920489ca2b5937696c31910160405180910390a3505050565b600260095403613ab45760405162461bcd60e51b815260206004820152601f60248201527f5265656e7472616e637947756172643a207265656e7472616e742063616c6c006044820152606401610c5d565b6002600955565b6000610cfb825490565b6040516370a0823160e01b815230600482015260009081906001600160a01b038716906370a0823190602401602060405180830381865afa158015613b0e573d6000803e3d6000fd5b505050506040513d601f19601f82011682018060405250810190613b329190615977565b905060006305f5e100613b458588615787565b613b4f919061579e565b905080821015613bac5760405162461bcd60e51b815260206004820152602260248201527f4e6f7420656e6f7567682062616c616e6365206f6e2074686520636f6e74726160448201526118dd60f21b6064820152608401610c5d565b60405163a9059cbb60e01b81526001600160a01b0386811660048301526024820183905288169063a9059cbb906044016020604051808303816000875af1158015613bfb573d6000803e3d6000fd5b505050506040513d601f19601f82011682018060405250810190613c1f919061583f565b509695505050505050565b600080805b6002811015613d1f5760006305f5e100858360028110613c5157613c51615610565b0154613c5d9088615787565b613c67919061579e565b9050866001600160a01b031663a9059cbb60028460028110613c8b57613c8b615610565b015460405160e083901b6001600160e01b03191681526001600160a01b039091166004820152602481018490526044016020604051808303816000875af1158015613cda573d6000803e3d6000fd5b505050506040513d601f19601f82011682018060405250810190613cfe919061583f565b50613d09818461569c565b9250508080613d179061563c565b915050613c2f565b50949350505050565b6001600160a01b038416613d4e5760405162461bcd60e51b8152600401610c5d90615a47565b336000613d5a8561444e565b90506000613d678561444e565b9050613d77838989858589613f01565b60008681526004602090815260408083206001600160a01b038c16845290915290205485811015613dba5760405162461bcd60e51b8152600401610c5d90615a8c565b60008781526004602090815260408083206001600160a01b038d8116855292528083208985039055908a16825281208054889290613df990849061569c565b909155505060408051888152602081018890526001600160a01b03808b16928c821692918816917fc3d58168c5ae7397731d063d5bbf3d657854427343f4c083240f7aacaa2d0f62910160405180910390a4613e59848a8a86868a614047565b613e67848a8a8a8a8a614499565b505050505050505050565b6000818152600183016020526040812054613eb957508154600181810184556000848152602080822090930184905584548482528286019093526040902091909155610cfb565b506000610cfb565b60006001600160e01b03198216636cdb3d1360e11b1480613ef257506001600160e01b031982166303a24d0760e21b145b80610cfb5750610cfb826145c4565b6001600160a01b0385166140395760005b8351811015614037576004848281518110613f2f57613f2f615610565b602002602001015110613f7a5760405162461bcd60e51b815260206004820152601360248201527229b0b332a7232a1d103bb937b733903a34b2b960691b6044820152606401610c5d565b601e848281518110613f8e57613f8e615610565b602002602001015160048110613fa657613fa6615610565b0154613fd7858381518110613fbd57613fbd615610565b602002602001015160009081526008602052604090205490565b11156140255760405162461bcd60e51b815260206004820152601b60248201527f536166654e46543a206d617820737570706c79207265616368656400000000006044820152606401610c5d565b8061402f8161563c565b915050613f12565b505b6134ab8686868686866145e9565b6001600160a01b038516156140c057600160005b84518110156140965761407a878683815181106114c7576114c7615610565b1561408457600091505b8061408e8161563c565b91505061405b565b5080156140be576001600160a01b0386166000908152603660205260409020805460ff191690555b505b6001600160a01b038416156141d25760005b83518110156141d05760048482815181106140ef576140ef615610565b60200260200101511061413a5760405162461bcd60e51b815260206004820152601360248201527229b0b332a7232a1d103bb937b733903a34b2b960691b6044820152606401610c5d565b6001600160a01b03851660009081526036602052604090205460ff166141be576041805460018082019092557f7c9785e8241615bc80415d89775984a1337d15dc1bf4ce50f41988b2a2b336a70180546001600160a01b0319166001600160a01b0388169081179091556000908152603660205260409020805460ff191690911790555b806141c88161563c565b9150506140d2565b505b6134ab565b6001600160a01b0384163b156134ab5760405163bc197c8160e01b81526001600160a01b0385169063bc197c819061421b9089908990889088908890600401615b5d565b6020604051808303816000875af1925050508015614256575060408051601f3d908101601f1916820190925261425391810190615bbb565b60015b61430257614262615bd8565b806308c379a00361429b5750614276615bf4565b80614281575061429d565b8060405162461bcd60e51b8152600401610c5d9190614dae565b505b60405162461bcd60e51b815260206004820152603460248201527f455243313135353a207472616e7366657220746f206e6f6e2d455243313135356044820152732932b1b2b4bb32b91034b6b83632b6b2b73a32b960611b6064820152608401610c5d565b6001600160e01b0319811663bc197c8160e01b1461380a5760405162461bcd60e51b8152600401610c5d90615c7d565b61433c8282611cc6565b610e2e5761434981614770565b614354836020614782565b604051602001614365929190615cc5565b60408051601f198184030181529082905262461bcd60e51b8252610c5d91600401614dae565b6143958282611cc6565b15610e2e576000828152602081815260408083206001600160a01b0385168085529252808320805460ff1916905551339285917ff6391f5c32d9c69d2a47ea670b442974b53935d1edc7fd64eb21e047a839171b9190a45050565b6000610ee9836001600160a01b03841661491d565b60075460ff166113de5760405162461bcd60e51b815260206004820152601460248201527314185d5cd8589b194e881b9bdd081c185d5cd95960621b6044820152606401610c5d565b6040805160018082528183019092526060916000919060208083019080368337019050509050828160008151811061448857614488615610565b602090810291909101015292915050565b6001600160a01b0384163b156134ab5760405163f23a6e6160e01b81526001600160a01b0385169063f23a6e61906144dd9089908990889088908890600401615d3a565b6020604051808303816000875af1925050508015614518575060408051601f3d908101601f1916820190925261451591810190615bbb565b60015b61452457614262615bd8565b6001600160e01b0319811663f23a6e6160e01b1461380a5760405162461bcd60e51b8152600401610c5d90615c7d565b60075460ff16156113de5760405162461bcd60e51b815260206004820152601060248201526f14185d5cd8589b194e881c185d5cd95960821b6044820152606401610c5d565b60008260000182815481106145b1576145b1615610565b9060005260206000200154905092915050565b60006001600160e01b03198216635a05180f60e01b1480610cfb5750610cfb82614a10565b6145f7868686868686614a45565b6001600160a01b03851661467e5760005b835181101561467c5782818151811061462357614623615610565b60200260200101516008600086848151811061464157614641615610565b602002602001015181526020019081526020016000206000828254614666919061569c565b9091555061467590508161563c565b9050614608565b505b6001600160a01b0384166134ab5760005b835181101561380a5760008482815181106146ac576146ac615610565b6020026020010151905060008483815181106146ca576146ca615610565b602002602001015190506000600860008481526020019081526020016000205490508181101561474d5760405162461bcd60e51b815260206004820152602860248201527f455243313135353a206275726e20616d6f756e74206578636565647320746f74604482015267616c537570706c7960c01b6064820152608401610c5d565b600092835260086020526040909220910390556147698161563c565b905061468f565b6060610cfb6001600160a01b03831660145b60606000614791836002615787565b61479c90600261569c565b6001600160401b038111156147b3576147b3614c29565b6040519080825280601f01601f1916602001820160405280156147dd576020820181803683370190505b509050600360fc1b816000815181106147f8576147f8615610565b60200101906001600160f81b031916908160001a905350600f60fb1b8160018151811061482757614827615610565b60200101906001600160f81b031916908160001a905350600061484b846002615787565b61485690600161569c565b90505b60018111156148ce576f181899199a1a9b1b9c1cb0b131b232b360811b85600f166010811061488a5761488a615610565b1a60f81b8282815181106148a0576148a0615610565b60200101906001600160f81b031916908160001a90535060049490941c936148c7816156af565b9050614859565b508315610ee95760405162461bcd60e51b815260206004820181905260248201527f537472696e67733a20686578206c656e67746820696e73756666696369656e746044820152606401610c5d565b60008181526001830160205260408120548015614a06576000614941600183615689565b855490915060009061495590600190615689565b90508181146149ba57600086600001828154811061497557614975615610565b906000526020600020015490508087600001848154811061499857614998615610565b6000918252602080832090910192909255918252600188019052604090208390555b85548690806149cb576149cb615961565b600190038181906000526020600020016000905590558560010160008681526020019081526020016000206000905560019350505050610cfb565b6000915050610cfb565b60006001600160e01b03198216637965db0b60e01b1480610cfb57506301ffc9a760e01b6001600160e01b0319831614610cfb565b6134ab86868686868660075460ff16156134ab5760405162461bcd60e51b815260206004820152602c60248201527f455243313135355061757361626c653a20746f6b656e207472616e736665722060448201526b1dda1a5b19481c185d5cd95960a21b6064820152608401610c5d565b60405180608001604052806004906020820280368337509192915050565b8260048101928215614b02579160200282015b82811115614b02578251825591602001919060010190614ae7565b50614b0e929150614b87565b5090565b8260028101928215614b025791602002820182811115614b02578251825591602001919060010190614ae7565b8260028101928215614b02579160200282015b82811115614b0257825182546001600160a01b0319166001600160a01b03909116178255602090920191600190910190614b52565b5b80821115614b0e5760008155600101614b88565b600060208284031215614bae57600080fd5b5035919050565b6001600160a01b0381168114612cb357600080fd5b60008060408385031215614bdd57600080fd5b8235614be881614bb5565b946020939093013593505050565b6001600160e01b031981168114612cb357600080fd5b600060208284031215614c1e57600080fd5b8135610ee981614bf6565b634e487b7160e01b600052604160045260246000fd5b604081018181106001600160401b0382111715614c5e57614c5e614c29565b60405250565b601f8201601f191681016001600160401b0381118282101715614c8957614c89614c29565b6040525050565b60006001600160401b03821115614ca957614ca9614c29565b5060051b60200190565b600082601f830112614cc457600080fd5b81356020614cd182614c90565b604051614cde8282614c64565b83815260059390931b8501820192828101915086841115614cfe57600080fd5b8286015b84811015613c1f578035614d1581614bb5565b8352918301918301614d02565b600060208284031215614d3457600080fd5b81356001600160401b03811115614d4a57600080fd5b614d5684828501614cb3565b949350505050565b60005b83811015614d79578181015183820152602001614d61565b50506000910152565b60008151808452614d9a816020860160208601614d5e565b601f01601f19169290920160200192915050565b602081526000610ee96020830184614d82565b600081518084526020808501945080840160005b83811015614df157815187529582019590820190600101614dd5565b509495945050505050565b602081526000610ee96020830184614dc1565b60808101818360005b6004811015614e37578151835260209283019290910190600101614e18565b50505092915050565b600082601f830112614e5157600080fd5b81356020614e5e82614c90565b604051614e6b8282614c64565b83815260059390931b8501820192828101915086841115614e8b57600080fd5b8286015b84811015613c1f5780358352918301918301614e8f565b600082601f830112614eb757600080fd5b81356001600160401b03811115614ed057614ed0614c29565b604051614ee7601f8301601f191660200182614c64565b818152846020838601011115614efc57600080fd5b816020850160208301376000918101602001919091529392505050565b60008060008060808587031215614f2f57600080fd5b8435614f3a81614bb5565b935060208501356001600160401b0380821115614f5657600080fd5b614f6288838901614e40565b94506040870135915080821115614f7857600080fd5b614f8488838901614e40565b93506060870135915080821115614f9a57600080fd5b50614fa787828801614ea6565b91505092959194509250565b600060208284031215614fc557600080fd5b8135610ee981614bb5565b600080600080600060a08688031215614fe857600080fd5b8535614ff381614bb5565b9450602086013561500381614bb5565b935060408601356001600160401b038082111561501f57600080fd5b61502b89838a01614e40565b9450606088013591508082111561504157600080fd5b61504d89838a01614e40565b9350608088013591508082111561506357600080fd5b5061507088828901614ea6565b9150509295509295909350565b6000806040838503121561509057600080fd5b8235915060208301356150a281614bb5565b809150509250929050565b8035600481106150bc57600080fd5b919050565b6000602082840312156150d357600080fd5b610ee9826150ad565b600080604083850312156150ef57600080fd5b82356001600160401b038082111561510657600080fd5b61511286838701614cb3565b9350602085013591508082111561512857600080fd5b5061513585828601614e40565b9150509250929050565b6000806040838503121561515257600080fd5b50508035926020909101359150565b600082601f83011261517257600080fd5b604051608081018181106001600160401b038211171561519457615194614c29565b6040528060808401858111156151a957600080fd5b845b818110156151c35780358352602092830192016151ab565b509195945050505050565b600082601f8301126151df57600080fd5b6040516151eb81614c3f565b8060408401858111156151a957600080fd5b600080600080600080600080610200898b03121561521a57600080fd5b88356001600160401b0381111561523057600080fd5b61523c8b828c01614ea6565b98505061524c8a60208b01615161565b965061525b8a60a08b01615161565b955061012089013561526c81614bb5565b945061527c8a6101408b016151ce565b935061018089013592506152948a6101a08b016151ce565b91506101e08901356152a581614bb5565b809150509295985092959890939650565b6000806000606084860312156152cb57600080fd5b83356152d681614bb5565b925060208401356001600160401b03808211156152f257600080fd5b6152fe87838801614e40565b9350604086013591508082111561531457600080fd5b5061532186828701614e40565b9150509250925092565b6000806000806080858703121561534157600080fd5b843561534c81614bb5565b9350602085013592506040850135915060608501356001600160401b0381111561537557600080fd5b614fa787828801614ea6565b60006040828403121561539357600080fd5b610ee983836151ce565b6000806000606084860312156153b257600080fd5b83356153bd81614bb5565b95602085013595506040909401359392505050565b600080604083850312156153e557600080fd5b8235915060208301356001600160401b0381111561540257600080fd5b61513585828601614ea6565b6020808252825182820181905260009190848201906040850190845b8181101561544f5783516001600160a01b03168352928401929184019160010161542a565b50909695505050505050565b8015158114612cb357600080fd5b6000806040838503121561547c57600080fd5b823561548781614bb5565b915060208301356150a28161545b565b6000806000606084860312156154ac57600080fd5b6154b5846150ad565b92506020840135915060408401356154cc81614bb5565b809150509250925092565b6000806000606084860312156154ec57600080fd5b8335925060208401356154fe81614bb5565b929592945050506040919091013590565b6000806040838503121561552257600080fd5b823561552d81614bb5565b915060208301356150a281614bb5565b600080600080600060a0868803121561555557600080fd5b853561556081614bb5565b9450602086013561557081614bb5565b9350604086013592506060860135915060808601356001600160401b0381111561559957600080fd5b61507088828901614ea6565b6000608082840312156155b757600080fd5b610ee98383615161565b6020808252602f908201527f455243313135355072657365744d696e7465725061757365723a206d7573742060408201526e686176652061646d696e20726f6c6560881b606082015260800190565b634e487b7160e01b600052603260045260246000fd5b634e487b7160e01b600052601160045260246000fd5b60006001820161564e5761564e615626565b5060010190565b600181811c9082168061566957607f821691505b602082108103610f6757634e487b7160e01b600052602260045260246000fd5b81810381811115610cfb57610cfb615626565b80820180821115610cfb57610cfb615626565b6000816156be576156be615626565b506000190190565b60208082526038908201527f455243313135355072657365744d696e7465725061757365723a206d7573742060408201527f68617665206d696e74657220726f6c6520746f206d696e740000000000000000606082015260800190565b634e487b7160e01b600052602160045260246000fd5b6020808252602e908201527f455243313135353a2063616c6c6572206973206e6f7420746f6b656e206f776e60408201526d195c881bdc88185c1c1c9bdd995960921b606082015260800190565b8082028115828204841417610cfb57610cfb615626565b6000826157bb57634e487b7160e01b600052601260045260246000fd5b500490565b6000604082840312156157d257600080fd5b82601f8301126157e157600080fd5b6040516157ed81614c3f565b8060408401858111156157ff57600080fd5b845b818110156151c357805161581481614bb5565b835260209283019201615801565b60006020828403121561583457600080fd5b8151610ee981614bb5565b60006020828403121561585157600080fd5b8151610ee98161545b565b601f8211156111d657600081815260208120601f850160051c810160208610156158835750805b601f850160051c820191505b818110156134ab5782815560010161588f565b81516001600160401b038111156158bb576158bb614c29565b6158cf816158c98454615655565b8461585c565b602080601f83116001811461590457600084156158ec5750858301515b600019600386901b1c1916600185901b1785556134ab565b600085815260208120601f198616915b8281101561593357888601518255948401946001909101908401615914565b50858210156159515787850151600019600388901b60f8161c191681555b5050505050600190811b01905550565b634e487b7160e01b600052603160045260246000fd5b60006020828403121561598957600080fd5b5051919050565b60208082526021908201527f455243313135353a206d696e7420746f20746865207a65726f206164647265736040820152607360f81b606082015260800190565b60208082526028908201527f455243313135353a2069647320616e6420616d6f756e7473206c656e677468206040820152670dad2e6dac2e8c6d60c31b606082015260800190565b604081526000615a2c6040830185614dc1565b8281036020840152615a3e8185614dc1565b95945050505050565b60208082526025908201527f455243313135353a207472616e7366657220746f20746865207a65726f206164604082015264647265737360d81b606082015260800190565b6020808252602a908201527f455243313135353a20696e73756666696369656e742062616c616e636520666f60408201526939103a3930b739b332b960b11b606082015260800190565b60208082526023908201527f455243313135353a206275726e2066726f6d20746865207a65726f206164647260408201526265737360e81b606082015260800190565b60208082526024908201527f455243313135353a206275726e20616d6f756e7420657863656564732062616c604082015263616e636560e01b606082015260800190565b60006001600160a01b03808816835280871660208401525060a06040830152615b8960a0830186614dc1565b8281036060840152615b9b8186614dc1565b90508281036080840152615baf8185614d82565b98975050505050505050565b600060208284031215615bcd57600080fd5b8151610ee981614bf6565b600060033d1115615bf15760046000803e5060005160e01c5b90565b600060443d1015615c025790565b6040516003193d81016004833e81513d6001600160401b038160248401118184111715615c3157505050505090565b8285019150815181811115615c495750505050505090565b843d8701016020828501011115615c635750505050505090565b615c7260208286010187614c64565b509095945050505050565b60208082526028908201527f455243313135353a204552433131353552656365697665722072656a656374656040820152676420746f6b656e7360c01b606082015260800190565b7f416363657373436f6e74726f6c3a206163636f756e7420000000000000000000815260008351615cfd816017850160208801614d5e565b7001034b99036b4b9b9b4b733903937b6329607d1b6017918401918201528351615d2e816028840160208801614d5e565b01602801949350505050565b60006001600160a01b03808816835280871660208401525084604083015283606083015260a06080830152612e8e60a0830184614d8256fea2646970667358221220325985da00983060ec094ab7aafb64ab4965bd255b68eb4e2335e56b68d2004564736f6c63430008110033b53127684a568b3173ae13b9f8a6016e243e63b6e8ee1178d6a717850b5d610365d7a28e3265b37a6474929f336521b332c1681b933f6cb9f3376673440d862a9f2df0fed2c77648de5860a4cc508cd0818c85b8b8a1ab4ceeef8d981c8956a6",
  "devdoc": {
    "author": "crypt0grapher",
    "kind": "dev",
    "methods": {
      "balanceOf(address,uint256)": {
        "details": "See {IERC1155-balanceOf}. Requirements: - `account` cannot be the zero address."
      },
      "balanceOfBatch(address[],uint256[])": {
        "details": "See {IERC1155-balanceOfBatch}. Requirements: - `accounts` and `ids` must have the same length."
      },
      "buy(uint8,uint256,address)": {
        "params": {
          "_amount": "amount of USD to spend",
          "_referral": "referral getting 5% of the price, should not be the sender, if not specified, goes to treasury",
          "_tier": "tier of the NFT to purchase which stands for ERC1155 token id [0..3]"
        }
      },
      "distributeProfit(uint256)": {
        "params": {
          "_amountUSD": "amount of USD to distribute"
        }
      },
      "exists(uint256)": {
        "details": "Indicates whether any token exist with a given id, or not."
      },
      "getFairPrice(uint8)": {
        "returns": {
          "_0": "counts not only the sale price but also share of the profit for the tier"
        }
      },
      "getPrice(uint8)": {
        "returns": {
          "_0": "NFT price in USD"
        }
      },
      "getPriceTable()": {
        "returns": {
          "_0": "uint256[] containing all NFT prices in one table in USD"
        }
      },
      "getRoleAdmin(bytes32)": {
        "details": "Returns the admin role that controls `role`. See {grantRole} and {revokeRole}. To change a role's admin, use {_setRoleAdmin}."
      },
      "getRoleMember(bytes32,uint256)": {
        "details": "Returns one of the accounts that have `role`. `index` must be a value between 0 and {getRoleMemberCount}, non-inclusive. Role bearers are not sorted in any particular way, and their ordering may change at any point. WARNING: When using {getRoleMember} and {getRoleMemberCount}, make sure you perform all queries on the same block. See the following https://forum.openzeppelin.com/t/iterating-over-elements-on-enumerableset-in-openzeppelin-contracts/2296[forum post] for more information."
      },
      "getRoleMemberCount(bytes32)": {
        "details": "Returns the number of accounts that have `role`. Can be used together with {getRoleMember} to enumerate all bearers of a role."
      },
      "getUnclaimedRewards()": {
        "returns": {
          "_0": "amount of the rewards not yet distributed to NFT holders"
        }
      },
      "grantRole(bytes32,address)": {
        "details": "Grants `role` to `account`. If `account` had not been already granted `role`, emits a {RoleGranted} event. Requirements: - the caller must have ``role``'s admin role. May emit a {RoleGranted} event."
      },
      "hasRole(bytes32,address)": {
        "details": "Returns `true` if `account` has been granted `role`."
      },
      "isApprovedForAll(address,address)": {
        "details": "See {IERC1155-isApprovedForAll}."
      },
      "mint(address,uint256,uint256,bytes)": {
        "details": "Creates `amount` new tokens for `to`, of token type `id`. See {ERC1155-_mint}. Requirements: - the caller must have the `MINTER_ROLE`."
      },
      "mintBatch(address,uint256[],uint256[],bytes)": {
        "details": "xref:ROOT:erc1155.adoc#batch-operations[Batched] variant of {mint}."
      },
      "pause()": {
        "details": "Pauses all token transfers. See {ERC1155Pausable} and {Pausable-_pause}. Requirements: - the caller must have the `PAUSER_ROLE`."
      },
      "paused()": {
        "details": "Returns true if the contract is paused, and false otherwise."
      },
      "renounceRole(bytes32,address)": {
        "details": "Revokes `role` from the calling account. Roles are often managed via {grantRole} and {revokeRole}: this function's purpose is to provide a mechanism for accounts to lose their privileges if they are compromised (such as when a trusted device is misplaced). If the calling account had been revoked `role`, emits a {RoleRevoked} event. Requirements: - the caller must be `account`. May emit a {RoleRevoked} event."
      },
      "revokeRole(bytes32,address)": {
        "details": "Revokes `role` from `account`. If `account` had been granted `role`, emits a {RoleRevoked} event. Requirements: - the caller must have ``role``'s admin role. May emit a {RoleRevoked} event."
      },
      "safeBatchTransferFrom(address,address,uint256[],uint256[],bytes)": {
        "details": "See {IERC1155-safeBatchTransferFrom}."
      },
      "safeTransferFrom(address,address,uint256,uint256,bytes)": {
        "details": "See {IERC1155-safeTransferFrom}."
      },
      "setApprovalForAll(address,bool)": {
        "details": "See {IERC1155-setApprovalForAll}."
      },
      "totalSupply(uint256)": {
        "details": "Total amount of tokens in with a given id."
      },
      "unpause()": {
        "details": "Unpauses all token transfers. See {ERC1155Pausable} and {Pausable-_unpause}. Requirements: - the caller must have the `PAUSER_ROLE`."
      }
    },
    "stateVariables": {
      "currentDistributionId": {
        "return": "current distribution number, the one that assigned to the latest distribution",
        "returns": {
          "_0": "current distribution number, the one that assigned to the latest distribution"
        }
      },
      "discountedPrice": {
        "return": "uint256 containing percent to multiply to the price to get a discount",
        "returns": {
          "_0": "uint256 containing percent to multiply to the price to get a discount"
        }
      }
    },
    "title": "Safe NFT",
    "version": 1
  },
  "userdoc": {
    "kind": "user",
    "methods": {
      "TIERS()": {
        "notice": "todo a number of tiers should be flexible"
      },
      "WALLETS()": {
        "notice": "total wallets on the protocol less vault, see Wallets enum, this can be basically any number"
      },
      "buy(uint8,uint256,address)": {
        "notice": "purchase Safe NFT for exact amount of USD"
      },
      "claimReward()": {
        "notice": "the function calculates the amount of the reward for the NFT holder and transfers it to the NFT holder"
      },
      "currentDistributionId()": {
        "notice": "gets the current distribution number"
      },
      "discountedPrice()": {
        "notice": "gets all discounted NFT prices in USD, for presale for all 4 weeks of the presale"
      },
      "distributeProfit(uint256)": {
        "notice": "distribute profit among the NFT holders, the function fixes the amount of the reward and the NFT holders and their shares at the moment of the call. It does not transfer the reward to the NFT holders, it just records the amount of the reward for each NFT holder."
      },
      "getBalanceTable(address)": {
        "notice": "gets NFT balance for all tiers"
      },
      "getFairPrice(uint8)": {
        "notice": "gets NFT fair price in USD"
      },
      "getFairPriceTable()": {
        "notice": "gets NFT price for all tiers in USD ///todo in SAFE!"
      },
      "getMyBalanceTable()": {
        "notice": "gets NFT balance for all tiers"
      },
      "getMyShareOfTreasury()": {
        "notice": "**Your NFTs (% Treasury) **is calculated in $ as a relation of total price of NFTs possessed by the $ amount of Investment Pool - including its SAFE and stable coin  components."
      },
      "getPendingRewards(address,uint256)": {
        "notice": "returns the amount of the reward share for the NFT holder"
      },
      "getPrice(uint8)": {
        "notice": "gets NFT price in USD"
      },
      "getPriceTable()": {
        "notice": "gets all NFT prices in USD, the original ones without discounts"
      },
      "getUnclaimedRewards()": {
        "notice": "undistributed profit amount in USD"
      },
      "togglePresale()": {
        "notice": "toggles presale status"
      }
    },
    "notice": "Safe Yields NFT token based on ERC1155 standard, id [0..3] represents one of the 4 tiers",
    "version": 1
  },
  "storageLayout": {
    "storage": [
      {
        "astId": 24,
        "contract": "contracts/SafeNFT.sol:SafeNFT",
        "label": "_roles",
        "offset": 0,
        "slot": "0",
        "type": "t_mapping(t_bytes32,t_struct(RoleData)19_storage)"
      },
      {
        "astId": 334,
        "contract": "contracts/SafeNFT.sol:SafeNFT",
        "label": "_roleMembers",
        "offset": 0,
        "slot": "1",
        "type": "t_mapping(t_bytes32,t_struct(AddressSet)4430_storage)"
      },
      {
        "astId": 6686,
        "contract": "contracts/SafeNFT.sol:SafeNFT",
        "label": "wallets",
        "offset": 0,
        "slot": "2",
        "type": "t_array(t_address)2_storage"
      },
      {
        "astId": 726,
        "contract": "contracts/SafeNFT.sol:SafeNFT",
        "label": "_balances",
        "offset": 0,
        "slot": "4",
        "type": "t_mapping(t_uint256,t_mapping(t_address,t_uint256))"
      },
      {
        "astId": 732,
        "contract": "contracts/SafeNFT.sol:SafeNFT",
        "label": "_operatorApprovals",
        "offset": 0,
        "slot": "5",
        "type": "t_mapping(t_address,t_mapping(t_address,t_bool))"
      },
      {
        "astId": 734,
        "contract": "contracts/SafeNFT.sol:SafeNFT",
        "label": "_uri",
        "offset": 0,
        "slot": "6",
        "type": "t_string_storage"
      },
      {
        "astId": 556,
        "contract": "contracts/SafeNFT.sol:SafeNFT",
        "label": "_paused",
        "offset": 0,
        "slot": "7",
        "type": "t_bool"
      },
      {
        "astId": 2213,
        "contract": "contracts/SafeNFT.sol:SafeNFT",
        "label": "_totalSupply",
        "offset": 0,
        "slot": "8",
        "type": "t_mapping(t_uint256,t_uint256)"
      },
      {
        "astId": 657,
        "contract": "contracts/SafeNFT.sol:SafeNFT",
        "label": "_status",
        "offset": 0,
        "slot": "9",
        "type": "t_uint256"
      },
      {
        "astId": 4768,
        "contract": "contracts/SafeNFT.sol:SafeNFT",
        "label": "price",
        "offset": 0,
        "slot": "10",
        "type": "t_array(t_uint256)4_storage"
      },
      {
        "astId": 4774,
        "contract": "contracts/SafeNFT.sol:SafeNFT",
        "label": "presalePrice",
        "offset": 0,
        "slot": "14",
        "type": "t_array(t_array(t_uint256)4_storage)4_storage"
      },
      {
        "astId": 4778,
        "contract": "contracts/SafeNFT.sol:SafeNFT",
        "label": "maxSupply",
        "offset": 0,
        "slot": "30",
        "type": "t_array(t_uint256)4_storage"
      },
      {
        "astId": 4782,
        "contract": "contracts/SafeNFT.sol:SafeNFT",
        "label": "tokenURIs",
        "offset": 0,
        "slot": "34",
        "type": "t_mapping(t_uint256,t_string_storage)"
      },
      {
        "astId": 4785,
        "contract": "contracts/SafeNFT.sol:SafeNFT",
        "label": "unused",
        "offset": 0,
        "slot": "35",
        "type": "t_array(t_address)dyn_storage"
      },
      {
        "astId": 4788,
        "contract": "contracts/SafeNFT.sol:SafeNFT",
        "label": "safeToken",
        "offset": 0,
        "slot": "36",
        "type": "t_contract(ISafeToken)7080"
      },
      {
        "astId": 4791,
        "contract": "contracts/SafeNFT.sol:SafeNFT",
        "label": "safeVault",
        "offset": 0,
        "slot": "37",
        "type": "t_contract(ISafeVault)7118"
      },
      {
        "astId": 4794,
        "contract": "contracts/SafeNFT.sol:SafeNFT",
        "label": "usd",
        "offset": 0,
        "slot": "38",
        "type": "t_contract(IERC20)2651"
      },
      {
        "astId": 4801,
        "contract": "contracts/SafeNFT.sol:SafeNFT",
        "label": "priceDistributionOnMint",
        "offset": 0,
        "slot": "39",
        "type": "t_array(t_uint256)2_storage"
      },
      {
        "astId": 4805,
        "contract": "contracts/SafeNFT.sol:SafeNFT",
        "label": "profitDistribution",
        "offset": 0,
        "slot": "41",
        "type": "t_array(t_uint256)2_storage"
      },
      {
        "astId": 4807,
        "contract": "contracts/SafeNFT.sol:SafeNFT",
        "label": "referralShareForNFTPurchase",
        "offset": 0,
        "slot": "43",
        "type": "t_uint256"
      },
      {
        "astId": 4809,
        "contract": "contracts/SafeNFT.sol:SafeNFT",
        "label": "preVaultWallet",
        "offset": 0,
        "slot": "44",
        "type": "t_address"
      },
      {
        "astId": 4811,
        "contract": "contracts/SafeNFT.sol:SafeNFT",
        "label": "presale",
        "offset": 20,
        "slot": "44",
        "type": "t_bool"
      },
      {
        "astId": 4819,
        "contract": "contracts/SafeNFT.sol:SafeNFT",
        "label": "soldPerPresaleWeek",
        "offset": 0,
        "slot": "45",
        "type": "t_mapping(t_address,t_mapping(t_uint256,t_mapping(t_uint256,t_uint256)))"
      },
      {
        "astId": 4823,
        "contract": "contracts/SafeNFT.sol:SafeNFT",
        "label": "presaleMaxSupply",
        "offset": 0,
        "slot": "46",
        "type": "t_array(t_uint256)4_storage"
      },
      {
        "astId": 4827,
        "contract": "contracts/SafeNFT.sol:SafeNFT",
        "label": "currentlySoldInPresale",
        "offset": 0,
        "slot": "50",
        "type": "t_array(t_uint256)4_storage"
      },
      {
        "astId": 4831,
        "contract": "contracts/SafeNFT.sol:SafeNFT",
        "label": "isTokenHolder",
        "offset": 0,
        "slot": "54",
        "type": "t_mapping(t_address,t_bool)"
      },
      {
        "astId": 4833,
        "contract": "contracts/SafeNFT.sol:SafeNFT",
        "label": "currentDistributionId",
        "offset": 0,
        "slot": "55",
        "type": "t_uint256"
      },
      {
        "astId": 4837,
        "contract": "contracts/SafeNFT.sol:SafeNFT",
        "label": "profitToDistribute",
        "offset": 0,
        "slot": "56",
        "type": "t_mapping(t_uint256,t_uint256)"
      },
      {
        "astId": 4841,
        "contract": "contracts/SafeNFT.sol:SafeNFT",
        "label": "safeToDistribute",
        "offset": 0,
        "slot": "57",
        "type": "t_mapping(t_uint256,t_uint256)"
      },
      {
        "astId": 4847,
        "contract": "contracts/SafeNFT.sol:SafeNFT",
        "label": "alreadyDistributed",
        "offset": 0,
        "slot": "58",
        "type": "t_mapping(t_uint256,t_mapping(t_address,t_uint256))"
      },
      {
        "astId": 4849,
        "contract": "contracts/SafeNFT.sol:SafeNFT",
        "label": "ambassador",
        "offset": 0,
        "slot": "59",
        "type": "t_address"
      },
      {
        "astId": 4857,
        "contract": "contracts/SafeNFT.sol:SafeNFT",
        "label": "snapshotOfOwnedTokens",
        "offset": 0,
        "slot": "60",
        "type": "t_mapping(t_uint256,t_mapping(t_address,t_array(t_uint256)4_storage))"
      },
      {
        "astId": 4863,
        "contract": "contracts/SafeNFT.sol:SafeNFT",
        "label": "snapshotOfTotalSupply",
        "offset": 0,
        "slot": "61",
        "type": "t_mapping(t_uint256,t_array(t_uint256)4_storage)"
      },
      {
        "astId": 4865,
        "contract": "contracts/SafeNFT.sol:SafeNFT",
        "label": "discountedPrice",
        "offset": 0,
        "slot": "62",
        "type": "t_uint256"
      },
      {
        "astId": 4869,
        "contract": "contracts/SafeNFT.sol:SafeNFT",
        "label": "soldInDiscountedSale",
        "offset": 0,
        "slot": "63",
        "type": "t_mapping(t_uint256,t_uint256)"
      },
      {
        "astId": 4873,
        "contract": "contracts/SafeNFT.sol:SafeNFT",
        "label": "alreadyDistributedTotal",
        "offset": 0,
        "slot": "64",
        "type": "t_mapping(t_uint256,t_uint256)"
      },
      {
        "astId": 4876,
        "contract": "contracts/SafeNFT.sol:SafeNFT",
        "label": "tokenHolders",
        "offset": 0,
        "slot": "65",
        "type": "t_array(t_address)dyn_storage"
      },
      {
        "astId": 4880,
        "contract": "contracts/SafeNFT.sol:SafeNFT",
        "label": "isExcludedFromRewardsDistribution",
        "offset": 0,
        "slot": "66",
        "type": "t_mapping(t_address,t_bool)"
      },
      {
        "astId": 4883,
        "contract": "contracts/SafeNFT.sol:SafeNFT",
        "label": "addressesExcludedFromRewardsDistribution",
        "offset": 0,
        "slot": "67",
        "type": "t_array(t_address)dyn_storage"
      }
    ],
    "types": {
      "t_address": {
        "encoding": "inplace",
        "label": "address",
        "numberOfBytes": "20"
      },
      "t_array(t_address)2_storage": {
        "base": "t_address",
        "encoding": "inplace",
        "label": "address[2]",
        "numberOfBytes": "64"
      },
      "t_array(t_address)dyn_storage": {
        "base": "t_address",
        "encoding": "dynamic_array",
        "label": "address[]",
        "numberOfBytes": "32"
      },
      "t_array(t_array(t_uint256)4_storage)4_storage": {
        "base": "t_array(t_uint256)4_storage",
        "encoding": "inplace",
        "label": "uint256[4][4]",
        "numberOfBytes": "512"
      },
      "t_array(t_bytes32)dyn_storage": {
        "base": "t_bytes32",
        "encoding": "dynamic_array",
        "label": "bytes32[]",
        "numberOfBytes": "32"
      },
      "t_array(t_uint256)2_storage": {
        "base": "t_uint256",
        "encoding": "inplace",
        "label": "uint256[2]",
        "numberOfBytes": "64"
      },
      "t_array(t_uint256)4_storage": {
        "base": "t_uint256",
        "encoding": "inplace",
        "label": "uint256[4]",
        "numberOfBytes": "128"
      },
      "t_bool": {
        "encoding": "inplace",
        "label": "bool",
        "numberOfBytes": "1"
      },
      "t_bytes32": {
        "encoding": "inplace",
        "label": "bytes32",
        "numberOfBytes": "32"
      },
      "t_contract(IERC20)2651": {
        "encoding": "inplace",
        "label": "contract IERC20",
        "numberOfBytes": "20"
      },
      "t_contract(ISafeToken)7080": {
        "encoding": "inplace",
        "label": "contract ISafeToken",
        "numberOfBytes": "20"
      },
      "t_contract(ISafeVault)7118": {
        "encoding": "inplace",
        "label": "contract ISafeVault",
        "numberOfBytes": "20"
      },
      "t_mapping(t_address,t_array(t_uint256)4_storage)": {
        "encoding": "mapping",
        "key": "t_address",
        "label": "mapping(address => uint256[4])",
        "numberOfBytes": "32",
        "value": "t_array(t_uint256)4_storage"
      },
      "t_mapping(t_address,t_bool)": {
        "encoding": "mapping",
        "key": "t_address",
        "label": "mapping(address => bool)",
        "numberOfBytes": "32",
        "value": "t_bool"
      },
      "t_mapping(t_address,t_mapping(t_address,t_bool))": {
        "encoding": "mapping",
        "key": "t_address",
        "label": "mapping(address => mapping(address => bool))",
        "numberOfBytes": "32",
        "value": "t_mapping(t_address,t_bool)"
      },
      "t_mapping(t_address,t_mapping(t_uint256,t_mapping(t_uint256,t_uint256)))": {
        "encoding": "mapping",
        "key": "t_address",
        "label": "mapping(address => mapping(uint256 => mapping(uint256 => uint256)))",
        "numberOfBytes": "32",
        "value": "t_mapping(t_uint256,t_mapping(t_uint256,t_uint256))"
      },
      "t_mapping(t_address,t_uint256)": {
        "encoding": "mapping",
        "key": "t_address",
        "label": "mapping(address => uint256)",
        "numberOfBytes": "32",
        "value": "t_uint256"
      },
      "t_mapping(t_bytes32,t_struct(AddressSet)4430_storage)": {
        "encoding": "mapping",
        "key": "t_bytes32",
        "label": "mapping(bytes32 => struct EnumerableSet.AddressSet)",
        "numberOfBytes": "32",
        "value": "t_struct(AddressSet)4430_storage"
      },
      "t_mapping(t_bytes32,t_struct(RoleData)19_storage)": {
        "encoding": "mapping",
        "key": "t_bytes32",
        "label": "mapping(bytes32 => struct AccessControl.RoleData)",
        "numberOfBytes": "32",
        "value": "t_struct(RoleData)19_storage"
      },
      "t_mapping(t_bytes32,t_uint256)": {
        "encoding": "mapping",
        "key": "t_bytes32",
        "label": "mapping(bytes32 => uint256)",
        "numberOfBytes": "32",
        "value": "t_uint256"
      },
      "t_mapping(t_uint256,t_array(t_uint256)4_storage)": {
        "encoding": "mapping",
        "key": "t_uint256",
        "label": "mapping(uint256 => uint256[4])",
        "numberOfBytes": "32",
        "value": "t_array(t_uint256)4_storage"
      },
      "t_mapping(t_uint256,t_mapping(t_address,t_array(t_uint256)4_storage))": {
        "encoding": "mapping",
        "key": "t_uint256",
        "label": "mapping(uint256 => mapping(address => uint256[4]))",
        "numberOfBytes": "32",
        "value": "t_mapping(t_address,t_array(t_uint256)4_storage)"
      },
      "t_mapping(t_uint256,t_mapping(t_address,t_uint256))": {
        "encoding": "mapping",
        "key": "t_uint256",
        "label": "mapping(uint256 => mapping(address => uint256))",
        "numberOfBytes": "32",
        "value": "t_mapping(t_address,t_uint256)"
      },
      "t_mapping(t_uint256,t_mapping(t_uint256,t_uint256))": {
        "encoding": "mapping",
        "key": "t_uint256",
        "label": "mapping(uint256 => mapping(uint256 => uint256))",
        "numberOfBytes": "32",
        "value": "t_mapping(t_uint256,t_uint256)"
      },
      "t_mapping(t_uint256,t_string_storage)": {
        "encoding": "mapping",
        "key": "t_uint256",
        "label": "mapping(uint256 => string)",
        "numberOfBytes": "32",
        "value": "t_string_storage"
      },
      "t_mapping(t_uint256,t_uint256)": {
        "encoding": "mapping",
        "key": "t_uint256",
        "label": "mapping(uint256 => uint256)",
        "numberOfBytes": "32",
        "value": "t_uint256"
      },
      "t_string_storage": {
        "encoding": "bytes",
        "label": "string",
        "numberOfBytes": "32"
      },
      "t_struct(AddressSet)4430_storage": {
        "encoding": "inplace",
        "label": "struct EnumerableSet.AddressSet",
        "members": [
          {
            "astId": 4429,
            "contract": "contracts/SafeNFT.sol:SafeNFT",
            "label": "_inner",
            "offset": 0,
            "slot": "0",
            "type": "t_struct(Set)4115_storage"
          }
        ],
        "numberOfBytes": "64"
      },
      "t_struct(RoleData)19_storage": {
        "encoding": "inplace",
        "label": "struct AccessControl.RoleData",
        "members": [
          {
            "astId": 16,
            "contract": "contracts/SafeNFT.sol:SafeNFT",
            "label": "members",
            "offset": 0,
            "slot": "0",
            "type": "t_mapping(t_address,t_bool)"
          },
          {
            "astId": 18,
            "contract": "contracts/SafeNFT.sol:SafeNFT",
            "label": "adminRole",
            "offset": 0,
            "slot": "1",
            "type": "t_bytes32"
          }
        ],
        "numberOfBytes": "64"
      },
      "t_struct(Set)4115_storage": {
        "encoding": "inplace",
        "label": "struct EnumerableSet.Set",
        "members": [
          {
            "astId": 4110,
            "contract": "contracts/SafeNFT.sol:SafeNFT",
            "label": "_values",
            "offset": 0,
            "slot": "0",
            "type": "t_array(t_bytes32)dyn_storage"
          },
          {
            "astId": 4114,
            "contract": "contracts/SafeNFT.sol:SafeNFT",
            "label": "_indexes",
            "offset": 0,
            "slot": "1",
            "type": "t_mapping(t_bytes32,t_uint256)"
          }
        ],
        "numberOfBytes": "64"
      },
      "t_uint256": {
        "encoding": "inplace",
        "label": "uint256",
        "numberOfBytes": "32"
      }
    }
  }
}