{
  "address": "0x55d0d19cA9c3E068d004288da3fFba7EfBe4B658",
  "abi": [
    {
      "inputs": [
        {
          "internalType": "string",
          "name": "_uri",
          "type": "string"
        },
        {
          "internalType": "uint256[4]",
          "name": "_price",
          "type": "uint256[4]"
        },
        {
          "internalType": "uint256[4]",
          "name": "_maxSupply",
          "type": "uint256[4]"
        },
        {
          "internalType": "contract ISafeToken",
          "name": "_safeToken",
          "type": "address"
        },
        {
          "internalType": "uint256[2]",
          "name": "_priceDistributionOnMint",
          "type": "uint256[2]"
        },
        {
          "internalType": "uint256",
          "name": "_referralShareForNFTPurchase",
          "type": "uint256"
        },
        {
          "internalType": "uint256[2]",
          "name": "_profitDistribution",
          "type": "uint256[2]"
        },
        {
          "internalType": "address",
          "name": "_prevaultWallet",
          "type": "address"
        }
      ],
      "stateMutability": "nonpayable",
      "type": "constructor"
    },
    {
      "anonymous": false,
      "inputs": [
        {
          "indexed": true,
          "internalType": "address",
          "name": "account",
          "type": "address"
        },
        {
          "indexed": true,
          "internalType": "address",
          "name": "operator",
          "type": "address"
        },
        {
          "indexed": false,
          "internalType": "bool",
          "name": "approved",
          "type": "bool"
        }
      ],
      "name": "ApprovalForAll",
      "type": "event"
    },
    {
      "anonymous": false,
      "inputs": [
        {
          "indexed": true,
          "internalType": "address",
          "name": "operator",
          "type": "address"
        },
        {
          "indexed": false,
          "internalType": "uint256",
          "name": "distribution",
          "type": "uint256"
        },
        {
          "indexed": false,
          "internalType": "uint256",
          "name": "amount",
          "type": "uint256"
        }
      ],
      "name": "Claimed",
      "type": "event"
    },
    {
      "anonymous": false,
      "inputs": [
        {
          "indexed": false,
          "internalType": "address",
          "name": "account",
          "type": "address"
        }
      ],
      "name": "Paused",
      "type": "event"
    },
    {
      "anonymous": false,
      "inputs": [
        {
          "indexed": false,
          "internalType": "uint256",
          "name": "distribution",
          "type": "uint256"
        },
        {
          "indexed": false,
          "internalType": "uint256",
          "name": "amountUSD",
          "type": "uint256"
        },
        {
          "indexed": false,
          "internalType": "uint256",
          "name": "amountSAFE",
          "type": "uint256"
        }
      ],
      "name": "ProfitDistributed",
      "type": "event"
    },
    {
      "anonymous": false,
      "inputs": [
        {
          "indexed": true,
          "internalType": "bytes32",
          "name": "role",
          "type": "bytes32"
        },
        {
          "indexed": true,
          "internalType": "bytes32",
          "name": "previousAdminRole",
          "type": "bytes32"
        },
        {
          "indexed": true,
          "internalType": "bytes32",
          "name": "newAdminRole",
          "type": "bytes32"
        }
      ],
      "name": "RoleAdminChanged",
      "type": "event"
    },
    {
      "anonymous": false,
      "inputs": [
        {
          "indexed": true,
          "internalType": "bytes32",
          "name": "role",
          "type": "bytes32"
        },
        {
          "indexed": true,
          "internalType": "address",
          "name": "account",
          "type": "address"
        },
        {
          "indexed": true,
          "internalType": "address",
          "name": "sender",
          "type": "address"
        }
      ],
      "name": "RoleGranted",
      "type": "event"
    },
    {
      "anonymous": false,
      "inputs": [
        {
          "indexed": true,
          "internalType": "bytes32",
          "name": "role",
          "type": "bytes32"
        },
        {
          "indexed": true,
          "internalType": "address",
          "name": "account",
          "type": "address"
        },
        {
          "indexed": true,
          "internalType": "address",
          "name": "sender",
          "type": "address"
        }
      ],
      "name": "RoleRevoked",
      "type": "event"
    },
    {
      "anonymous": false,
      "inputs": [
        {
          "indexed": true,
          "internalType": "address",
          "name": "to",
          "type": "address"
        },
        {
          "indexed": true,
          "internalType": "uint256",
          "name": "id",
          "type": "uint256"
        },
        {
          "indexed": true,
          "internalType": "uint256",
          "name": "amount",
          "type": "uint256"
        },
        {
          "indexed": false,
          "internalType": "uint256",
          "name": "price",
          "type": "uint256"
        }
      ],
      "name": "Sale",
      "type": "event"
    },
    {
      "anonymous": false,
      "inputs": [
        {
          "indexed": false,
          "internalType": "bool",
          "name": "_status",
          "type": "bool"
        }
      ],
      "name": "TogglePresale",
      "type": "event"
    },
    {
      "anonymous": false,
      "inputs": [
        {
          "indexed": true,
          "internalType": "address",
          "name": "operator",
          "type": "address"
        },
        {
          "indexed": true,
          "internalType": "address",
          "name": "from",
          "type": "address"
        },
        {
          "indexed": true,
          "internalType": "address",
          "name": "to",
          "type": "address"
        },
        {
          "indexed": false,
          "internalType": "uint256[]",
          "name": "ids",
          "type": "uint256[]"
        },
        {
          "indexed": false,
          "internalType": "uint256[]",
          "name": "values",
          "type": "uint256[]"
        }
      ],
      "name": "TransferBatch",
      "type": "event"
    },
    {
      "anonymous": false,
      "inputs": [
        {
          "indexed": true,
          "internalType": "address",
          "name": "operator",
          "type": "address"
        },
        {
          "indexed": true,
          "internalType": "address",
          "name": "from",
          "type": "address"
        },
        {
          "indexed": true,
          "internalType": "address",
          "name": "to",
          "type": "address"
        },
        {
          "indexed": false,
          "internalType": "uint256",
          "name": "id",
          "type": "uint256"
        },
        {
          "indexed": false,
          "internalType": "uint256",
          "name": "value",
          "type": "uint256"
        }
      ],
      "name": "TransferSingle",
      "type": "event"
    },
    {
      "anonymous": false,
      "inputs": [
        {
          "indexed": false,
          "internalType": "string",
          "name": "value",
          "type": "string"
        },
        {
          "indexed": true,
          "internalType": "uint256",
          "name": "id",
          "type": "uint256"
        }
      ],
      "name": "URI",
      "type": "event"
    },
    {
      "anonymous": false,
      "inputs": [
        {
          "indexed": false,
          "internalType": "address",
          "name": "account",
          "type": "address"
        }
      ],
      "name": "Unpaused",
      "type": "event"
    },
    {
      "inputs": [],
      "name": "DEFAULT_ADMIN_ROLE",
      "outputs": [
        {
          "internalType": "bytes32",
          "name": "",
          "type": "bytes32"
        }
      ],
      "stateMutability": "view",
      "type": "function"
    },
    {
      "inputs": [],
      "name": "HUNDRED_PERCENT",
      "outputs": [
        {
          "internalType": "uint256",
          "name": "",
          "type": "uint256"
        }
      ],
      "stateMutability": "view",
      "type": "function"
    },
    {
      "inputs": [],
      "name": "MINTER_ROLE",
      "outputs": [
        {
          "internalType": "bytes32",
          "name": "",
          "type": "bytes32"
        }
      ],
      "stateMutability": "view",
      "type": "function"
    },
    {
      "inputs": [],
      "name": "PAUSER_ROLE",
      "outputs": [
        {
          "internalType": "bytes32",
          "name": "",
          "type": "bytes32"
        }
      ],
      "stateMutability": "view",
      "type": "function"
    },
    {
      "inputs": [],
      "name": "TIERS",
      "outputs": [
        {
          "internalType": "uint256",
          "name": "",
          "type": "uint256"
        }
      ],
      "stateMutability": "view",
      "type": "function"
    },
    {
      "inputs": [],
      "name": "WALLETS",
      "outputs": [
        {
          "internalType": "uint256",
          "name": "",
          "type": "uint256"
        }
      ],
      "stateMutability": "view",
      "type": "function"
    },
    {
      "inputs": [],
      "name": "WEEKS",
      "outputs": [
        {
          "internalType": "uint256",
          "name": "",
          "type": "uint256"
        }
      ],
      "stateMutability": "view",
      "type": "function"
    },
    {
      "inputs": [
        {
          "internalType": "uint256",
          "name": "",
          "type": "uint256"
        },
        {
          "internalType": "address",
          "name": "",
          "type": "address"
        }
      ],
      "name": "alreadyDistributed",
      "outputs": [
        {
          "internalType": "uint256",
          "name": "",
          "type": "uint256"
        }
      ],
      "stateMutability": "view",
      "type": "function"
    },
    {
      "inputs": [
        {
          "internalType": "uint256",
          "name": "",
          "type": "uint256"
        }
      ],
      "name": "alreadyDistributedTotal",
      "outputs": [
        {
          "internalType": "uint256",
          "name": "",
          "type": "uint256"
        }
      ],
      "stateMutability": "view",
      "type": "function"
    },
    {
      "inputs": [],
      "name": "ambassador",
      "outputs": [
        {
          "internalType": "address",
          "name": "",
          "type": "address"
        }
      ],
      "stateMutability": "view",
      "type": "function"
    },
    {
      "inputs": [
        {
          "internalType": "address",
          "name": "account",
          "type": "address"
        },
        {
          "internalType": "uint256",
          "name": "id",
          "type": "uint256"
        }
      ],
      "name": "balanceOf",
      "outputs": [
        {
          "internalType": "uint256",
          "name": "",
          "type": "uint256"
        }
      ],
      "stateMutability": "view",
      "type": "function"
    },
    {
      "inputs": [
        {
          "internalType": "address[]",
          "name": "accounts",
          "type": "address[]"
        },
        {
          "internalType": "uint256[]",
          "name": "ids",
          "type": "uint256[]"
        }
      ],
      "name": "balanceOfBatch",
      "outputs": [
        {
          "internalType": "uint256[]",
          "name": "",
          "type": "uint256[]"
        }
      ],
      "stateMutability": "view",
      "type": "function"
    },
    {
      "inputs": [
        {
          "internalType": "address",
          "name": "account",
          "type": "address"
        },
        {
          "internalType": "uint256",
          "name": "id",
          "type": "uint256"
        },
        {
          "internalType": "uint256",
          "name": "value",
          "type": "uint256"
        }
      ],
      "name": "burn",
      "outputs": [],
      "stateMutability": "nonpayable",
      "type": "function"
    },
    {
      "inputs": [
        {
          "internalType": "address",
          "name": "account",
          "type": "address"
        },
        {
          "internalType": "uint256",
          "name": "id",
          "type": "uint256"
        },
        {
          "internalType": "uint256",
          "name": "value",
          "type": "uint256"
        }
      ],
      "name": "burnAdmin",
      "outputs": [],
      "stateMutability": "nonpayable",
      "type": "function"
    },
    {
      "inputs": [
        {
          "internalType": "address",
          "name": "account",
          "type": "address"
        },
        {
          "internalType": "uint256[]",
          "name": "ids",
          "type": "uint256[]"
        },
        {
          "internalType": "uint256[]",
          "name": "values",
          "type": "uint256[]"
        }
      ],
      "name": "burnBatch",
      "outputs": [],
      "stateMutability": "nonpayable",
      "type": "function"
    },
    {
      "inputs": [
        {
          "internalType": "enum ISafeNFT.Tiers",
          "name": "_tier",
          "type": "uint8"
        },
        {
          "internalType": "uint256",
          "name": "_amount",
          "type": "uint256"
        },
        {
          "internalType": "address",
          "name": "_referral",
          "type": "address"
        }
      ],
      "name": "buy",
      "outputs": [],
      "stateMutability": "nonpayable",
      "type": "function"
    },
    {
      "inputs": [
        {
          "internalType": "uint256[2]",
          "name": "_priceDistributionOnMint",
          "type": "uint256[2]"
        }
      ],
      "name": "changePriceDistributionOnMint",
      "outputs": [],
      "stateMutability": "nonpayable",
      "type": "function"
    },
    {
      "inputs": [],
      "name": "claimReward",
      "outputs": [],
      "stateMutability": "nonpayable",
      "type": "function"
    },
    {
      "inputs": [],
      "name": "currentDistributionId",
      "outputs": [
        {
          "internalType": "uint256",
          "name": "",
          "type": "uint256"
        }
      ],
      "stateMutability": "view",
      "type": "function"
    },
    {
      "inputs": [
        {
          "internalType": "uint256",
          "name": "",
          "type": "uint256"
        }
      ],
      "name": "currentlySoldInPresale",
      "outputs": [
        {
          "internalType": "uint256",
          "name": "",
          "type": "uint256"
        }
      ],
      "stateMutability": "view",
      "type": "function"
    },
    {
      "inputs": [],
      "name": "discountedPrice",
      "outputs": [
        {
          "internalType": "uint256",
          "name": "",
          "type": "uint256"
        }
      ],
      "stateMutability": "view",
      "type": "function"
    },
    {
      "inputs": [
        {
          "internalType": "uint256",
          "name": "_amountUSD",
          "type": "uint256"
        }
      ],
      "name": "distributeProfit",
      "outputs": [],
      "stateMutability": "nonpayable",
      "type": "function"
    },
    {
      "inputs": [
        {
          "internalType": "uint256",
          "name": "id",
          "type": "uint256"
        }
      ],
      "name": "exists",
      "outputs": [
        {
          "internalType": "bool",
          "name": "",
          "type": "bool"
        }
      ],
      "stateMutability": "view",
      "type": "function"
    },
    {
      "inputs": [
        {
          "internalType": "address",
          "name": "_user",
          "type": "address"
        }
      ],
      "name": "getBalanceTable",
      "outputs": [
        {
          "internalType": "uint256[]",
          "name": "",
          "type": "uint256[]"
        }
      ],
      "stateMutability": "view",
      "type": "function"
    },
    {
      "inputs": [
        {
          "internalType": "enum ISafeNFT.Tiers",
          "name": "_tier",
          "type": "uint8"
        }
      ],
      "name": "getFairPrice",
      "outputs": [
        {
          "internalType": "uint256",
          "name": "",
          "type": "uint256"
        }
      ],
      "stateMutability": "view",
      "type": "function"
    },
    {
      "inputs": [],
      "name": "getFairPriceTable",
      "outputs": [
        {
          "internalType": "uint256[]",
          "name": "",
          "type": "uint256[]"
        }
      ],
      "stateMutability": "view",
      "type": "function"
    },
    {
      "inputs": [],
      "name": "getMyBalanceTable",
      "outputs": [
        {
          "internalType": "uint256[]",
          "name": "",
          "type": "uint256[]"
        }
      ],
      "stateMutability": "view",
      "type": "function"
    },
    {
      "inputs": [],
      "name": "getMyPendingRewards",
      "outputs": [
        {
          "internalType": "uint256",
          "name": "",
          "type": "uint256"
        }
      ],
      "stateMutability": "view",
      "type": "function"
    },
    {
      "inputs": [],
      "name": "getMyShareOfTreasury",
      "outputs": [
        {
          "internalType": "uint256",
          "name": "",
          "type": "uint256"
        }
      ],
      "stateMutability": "view",
      "type": "function"
    },
    {
      "inputs": [],
      "name": "getNFTSupplyAvailable",
      "outputs": [
        {
          "internalType": "uint256[]",
          "name": "",
          "type": "uint256[]"
        }
      ],
      "stateMutability": "view",
      "type": "function"
    },
    {
      "inputs": [
        {
          "internalType": "address",
          "name": "_user",
          "type": "address"
        },
        {
          "internalType": "uint256",
          "name": "_distributionId",
          "type": "uint256"
        }
      ],
      "name": "getPendingRewards",
      "outputs": [
        {
          "internalType": "uint256",
          "name": "",
          "type": "uint256"
        }
      ],
      "stateMutability": "view",
      "type": "function"
    },
    {
      "inputs": [
        {
          "internalType": "enum ISafeNFT.Tiers",
          "name": "_tier",
          "type": "uint8"
        }
      ],
      "name": "getPrice",
      "outputs": [
        {
          "internalType": "uint256",
          "name": "",
          "type": "uint256"
        }
      ],
      "stateMutability": "view",
      "type": "function"
    },
    {
      "inputs": [],
      "name": "getPriceTable",
      "outputs": [
        {
          "internalType": "uint256[]",
          "name": "",
          "type": "uint256[]"
        }
      ],
      "stateMutability": "view",
      "type": "function"
    },
    {
      "inputs": [
        {
          "internalType": "bytes32",
          "name": "role",
          "type": "bytes32"
        }
      ],
      "name": "getRoleAdmin",
      "outputs": [
        {
          "internalType": "bytes32",
          "name": "",
          "type": "bytes32"
        }
      ],
      "stateMutability": "view",
      "type": "function"
    },
    {
      "inputs": [
        {
          "internalType": "bytes32",
          "name": "role",
          "type": "bytes32"
        },
        {
          "internalType": "uint256",
          "name": "index",
          "type": "uint256"
        }
      ],
      "name": "getRoleMember",
      "outputs": [
        {
          "internalType": "address",
          "name": "",
          "type": "address"
        }
      ],
      "stateMutability": "view",
      "type": "function"
    },
    {
      "inputs": [
        {
          "internalType": "bytes32",
          "name": "role",
          "type": "bytes32"
        }
      ],
      "name": "getRoleMemberCount",
      "outputs": [
        {
          "internalType": "uint256",
          "name": "",
          "type": "uint256"
        }
      ],
      "stateMutability": "view",
      "type": "function"
    },
    {
      "inputs": [],
      "name": "getTokenHolders",
      "outputs": [
        {
          "internalType": "address[]",
          "name": "",
          "type": "address[]"
        }
      ],
      "stateMutability": "view",
      "type": "function"
    },
    {
      "inputs": [],
      "name": "getTokenHoldersLength",
      "outputs": [
        {
          "internalType": "uint256",
          "name": "",
          "type": "uint256"
        }
      ],
      "stateMutability": "view",
      "type": "function"
    },
    {
      "inputs": [],
      "name": "getTotalSupplyAllTiers",
      "outputs": [
        {
          "internalType": "uint256[4]",
          "name": "",
          "type": "uint256[4]"
        }
      ],
      "stateMutability": "view",
      "type": "function"
    },
    {
      "inputs": [],
      "name": "getUnclaimedRewards",
      "outputs": [
        {
          "internalType": "uint256",
          "name": "",
          "type": "uint256"
        }
      ],
      "stateMutability": "view",
      "type": "function"
    },
    {
      "inputs": [
        {
          "internalType": "bytes32",
          "name": "role",
          "type": "bytes32"
        },
        {
          "internalType": "address",
          "name": "account",
          "type": "address"
        }
      ],
      "name": "grantRole",
      "outputs": [],
      "stateMutability": "nonpayable",
      "type": "function"
    },
    {
      "inputs": [
        {
          "internalType": "bytes32",
          "name": "role",
          "type": "bytes32"
        },
        {
          "internalType": "address",
          "name": "account",
          "type": "address"
        }
      ],
      "name": "hasRole",
      "outputs": [
        {
          "internalType": "bool",
          "name": "",
          "type": "bool"
        }
      ],
      "stateMutability": "view",
      "type": "function"
    },
    {
      "inputs": [
        {
          "internalType": "string",
          "name": "_uri",
          "type": "string"
        },
        {
          "internalType": "uint256[4]",
          "name": "_price",
          "type": "uint256[4]"
        },
        {
          "internalType": "uint256[4]",
          "name": "_maxSupply",
          "type": "uint256[4]"
        },
        {
          "internalType": "contract ISafeToken",
          "name": "_safeToken",
          "type": "address"
        },
        {
          "internalType": "uint256[2]",
          "name": "_priceDistributionOnMint",
          "type": "uint256[2]"
        },
        {
          "internalType": "uint256",
          "name": "_referralShareForNFTPurchase",
          "type": "uint256"
        },
        {
          "internalType": "uint256[2]",
          "name": "_profitDistribution",
          "type": "uint256[2]"
        },
        {
          "internalType": "address",
          "name": "_prevaultWallet",
          "type": "address"
        }
      ],
      "name": "initialize",
      "outputs": [],
      "stateMutability": "nonpayable",
      "type": "function"
    },
    {
      "inputs": [
        {
          "internalType": "address",
          "name": "account",
          "type": "address"
        },
        {
          "internalType": "address",
          "name": "operator",
          "type": "address"
        }
      ],
      "name": "isApprovedForAll",
      "outputs": [
        {
          "internalType": "bool",
          "name": "",
          "type": "bool"
        }
      ],
      "stateMutability": "view",
      "type": "function"
    },
    {
      "inputs": [
        {
          "internalType": "address",
          "name": "",
          "type": "address"
        }
      ],
      "name": "isTokenHolder",
      "outputs": [
        {
          "internalType": "bool",
          "name": "",
          "type": "bool"
        }
      ],
      "stateMutability": "view",
      "type": "function"
    },
    {
      "inputs": [
        {
          "internalType": "uint256",
          "name": "",
          "type": "uint256"
        }
      ],
      "name": "maxSupply",
      "outputs": [
        {
          "internalType": "uint256",
          "name": "",
          "type": "uint256"
        }
      ],
      "stateMutability": "view",
      "type": "function"
    },
    {
      "inputs": [
        {
          "internalType": "address",
          "name": "to",
          "type": "address"
        },
        {
          "internalType": "uint256",
          "name": "id",
          "type": "uint256"
        },
        {
          "internalType": "uint256",
          "name": "amount",
          "type": "uint256"
        },
        {
          "internalType": "bytes",
          "name": "data",
          "type": "bytes"
        }
      ],
      "name": "mint",
      "outputs": [],
      "stateMutability": "nonpayable",
      "type": "function"
    },
    {
      "inputs": [
        {
          "internalType": "address",
          "name": "to",
          "type": "address"
        },
        {
          "internalType": "uint256[]",
          "name": "ids",
          "type": "uint256[]"
        },
        {
          "internalType": "uint256[]",
          "name": "amounts",
          "type": "uint256[]"
        },
        {
          "internalType": "bytes",
          "name": "data",
          "type": "bytes"
        }
      ],
      "name": "mintBatch",
      "outputs": [],
      "stateMutability": "nonpayable",
      "type": "function"
    },
    {
      "inputs": [],
      "name": "name",
      "outputs": [
        {
          "internalType": "string",
          "name": "",
          "type": "string"
        }
      ],
      "stateMutability": "view",
      "type": "function"
    },
    {
      "inputs": [],
      "name": "pause",
      "outputs": [],
      "stateMutability": "nonpayable",
      "type": "function"
    },
    {
      "inputs": [],
      "name": "paused",
      "outputs": [
        {
          "internalType": "bool",
          "name": "",
          "type": "bool"
        }
      ],
      "stateMutability": "view",
      "type": "function"
    },
    {
      "inputs": [],
      "name": "preVaultWallet",
      "outputs": [
        {
          "internalType": "address",
          "name": "",
          "type": "address"
        }
      ],
      "stateMutability": "view",
      "type": "function"
    },
    {
      "inputs": [],
      "name": "presale",
      "outputs": [
        {
          "internalType": "bool",
          "name": "",
          "type": "bool"
        }
      ],
      "stateMutability": "view",
      "type": "function"
    },
    {
      "inputs": [
        {
          "internalType": "uint256",
          "name": "",
          "type": "uint256"
        }
      ],
      "name": "presaleMaxSupply",
      "outputs": [
        {
          "internalType": "uint256",
          "name": "",
          "type": "uint256"
        }
      ],
      "stateMutability": "view",
      "type": "function"
    },
    {
      "inputs": [
        {
          "internalType": "uint256",
          "name": "",
          "type": "uint256"
        },
        {
          "internalType": "uint256",
          "name": "",
          "type": "uint256"
        }
      ],
      "name": "presalePrice",
      "outputs": [
        {
          "internalType": "uint256",
          "name": "",
          "type": "uint256"
        }
      ],
      "stateMutability": "view",
      "type": "function"
    },
    {
      "inputs": [
        {
          "internalType": "uint256",
          "name": "",
          "type": "uint256"
        }
      ],
      "name": "price",
      "outputs": [
        {
          "internalType": "uint256",
          "name": "",
          "type": "uint256"
        }
      ],
      "stateMutability": "view",
      "type": "function"
    },
    {
      "inputs": [
        {
          "internalType": "uint256",
          "name": "",
          "type": "uint256"
        }
      ],
      "name": "priceDistributionOnMint",
      "outputs": [
        {
          "internalType": "uint256",
          "name": "",
          "type": "uint256"
        }
      ],
      "stateMutability": "view",
      "type": "function"
    },
    {
      "inputs": [
        {
          "internalType": "uint256",
          "name": "",
          "type": "uint256"
        }
      ],
      "name": "profitDistribution",
      "outputs": [
        {
          "internalType": "uint256",
          "name": "",
          "type": "uint256"
        }
      ],
      "stateMutability": "view",
      "type": "function"
    },
    {
      "inputs": [
        {
          "internalType": "uint256",
          "name": "",
          "type": "uint256"
        }
      ],
      "name": "profitToDistribute",
      "outputs": [
        {
          "internalType": "uint256",
          "name": "",
          "type": "uint256"
        }
      ],
      "stateMutability": "view",
      "type": "function"
    },
    {
      "inputs": [],
      "name": "referralShareForNFTPurchase",
      "outputs": [
        {
          "internalType": "uint256",
          "name": "",
          "type": "uint256"
        }
      ],
      "stateMutability": "view",
      "type": "function"
    },
    {
      "inputs": [
        {
          "internalType": "bytes32",
          "name": "role",
          "type": "bytes32"
        },
        {
          "internalType": "address",
          "name": "account",
          "type": "address"
        }
      ],
      "name": "renounceRole",
      "outputs": [],
      "stateMutability": "nonpayable",
      "type": "function"
    },
    {
      "inputs": [
        {
          "internalType": "bytes32",
          "name": "role",
          "type": "bytes32"
        },
        {
          "internalType": "address",
          "name": "account",
          "type": "address"
        }
      ],
      "name": "revokeRole",
      "outputs": [],
      "stateMutability": "nonpayable",
      "type": "function"
    },
    {
      "inputs": [
        {
          "internalType": "address",
          "name": "from",
          "type": "address"
        },
        {
          "internalType": "address",
          "name": "to",
          "type": "address"
        },
        {
          "internalType": "uint256[]",
          "name": "ids",
          "type": "uint256[]"
        },
        {
          "internalType": "uint256[]",
          "name": "amounts",
          "type": "uint256[]"
        },
        {
          "internalType": "bytes",
          "name": "data",
          "type": "bytes"
        }
      ],
      "name": "safeBatchTransferFrom",
      "outputs": [],
      "stateMutability": "nonpayable",
      "type": "function"
    },
    {
      "inputs": [
        {
          "internalType": "uint256",
          "name": "",
          "type": "uint256"
        }
      ],
      "name": "safeToDistribute",
      "outputs": [
        {
          "internalType": "uint256",
          "name": "",
          "type": "uint256"
        }
      ],
      "stateMutability": "view",
      "type": "function"
    },
    {
      "inputs": [],
      "name": "safeToken",
      "outputs": [
        {
          "internalType": "contract ISafeToken",
          "name": "",
          "type": "address"
        }
      ],
      "stateMutability": "view",
      "type": "function"
    },
    {
      "inputs": [
        {
          "internalType": "address",
          "name": "from",
          "type": "address"
        },
        {
          "internalType": "address",
          "name": "to",
          "type": "address"
        },
        {
          "internalType": "uint256",
          "name": "id",
          "type": "uint256"
        },
        {
          "internalType": "uint256",
          "name": "amount",
          "type": "uint256"
        },
        {
          "internalType": "bytes",
          "name": "data",
          "type": "bytes"
        }
      ],
      "name": "safeTransferFrom",
      "outputs": [],
      "stateMutability": "nonpayable",
      "type": "function"
    },
    {
      "inputs": [],
      "name": "safeVault",
      "outputs": [
        {
          "internalType": "contract ISafeVault",
          "name": "",
          "type": "address"
        }
      ],
      "stateMutability": "view",
      "type": "function"
    },
    {
      "inputs": [
        {
          "internalType": "address",
          "name": "_ambassador",
          "type": "address"
        }
      ],
      "name": "setAmbassador",
      "outputs": [],
      "stateMutability": "nonpayable",
      "type": "function"
    },
    {
      "inputs": [
        {
          "internalType": "address",
          "name": "operator",
          "type": "address"
        },
        {
          "internalType": "bool",
          "name": "approved",
          "type": "bool"
        }
      ],
      "name": "setApprovalForAll",
      "outputs": [],
      "stateMutability": "nonpayable",
      "type": "function"
    },
    {
      "inputs": [
        {
          "internalType": "uint256",
          "name": "_discountedPrice",
          "type": "uint256"
        }
      ],
      "name": "setDiscountedPrice",
      "outputs": [],
      "stateMutability": "nonpayable",
      "type": "function"
    },
    {
      "inputs": [
        {
          "internalType": "uint256[4]",
          "name": "_presaleMaxSupply",
          "type": "uint256[4]"
        }
      ],
      "name": "setPresaleMaxSupply",
      "outputs": [],
      "stateMutability": "nonpayable",
      "type": "function"
    },
    {
      "inputs": [
        {
          "internalType": "uint256",
          "name": "_tokenId",
          "type": "uint256"
        },
        {
          "internalType": "string",
          "name": "_tokenURI",
          "type": "string"
        }
      ],
      "name": "setURI",
      "outputs": [],
      "stateMutability": "nonpayable",
      "type": "function"
    },
    {
      "inputs": [
        {
          "internalType": "uint256",
          "name": "",
          "type": "uint256"
        },
        {
          "internalType": "address",
          "name": "",
          "type": "address"
        },
        {
          "internalType": "uint256",
          "name": "",
          "type": "uint256"
        }
      ],
      "name": "snapshotOfOwnedTokens",
      "outputs": [
        {
          "internalType": "uint256",
          "name": "",
          "type": "uint256"
        }
      ],
      "stateMutability": "view",
      "type": "function"
    },
    {
      "inputs": [
        {
          "internalType": "uint256",
          "name": "",
          "type": "uint256"
        },
        {
          "internalType": "uint256",
          "name": "",
          "type": "uint256"
        }
      ],
      "name": "snapshotOfTotalSupply",
      "outputs": [
        {
          "internalType": "uint256",
          "name": "",
          "type": "uint256"
        }
      ],
      "stateMutability": "view",
      "type": "function"
    },
    {
      "inputs": [
        {
          "internalType": "uint256",
          "name": "",
          "type": "uint256"
        }
      ],
      "name": "soldInDiscountedSale",
      "outputs": [
        {
          "internalType": "uint256",
          "name": "",
          "type": "uint256"
        }
      ],
      "stateMutability": "view",
      "type": "function"
    },
    {
      "inputs": [
        {
          "internalType": "address",
          "name": "",
          "type": "address"
        },
        {
          "internalType": "uint256",
          "name": "",
          "type": "uint256"
        },
        {
          "internalType": "uint256",
          "name": "",
          "type": "uint256"
        }
      ],
      "name": "soldPerPresaleWeek",
      "outputs": [
        {
          "internalType": "uint256",
          "name": "",
          "type": "uint256"
        }
      ],
      "stateMutability": "view",
      "type": "function"
    },
    {
      "inputs": [
        {
          "internalType": "bytes4",
          "name": "interfaceId",
          "type": "bytes4"
        }
      ],
      "name": "supportsInterface",
      "outputs": [
        {
          "internalType": "bool",
          "name": "",
          "type": "bool"
        }
      ],
      "stateMutability": "view",
      "type": "function"
    },
    {
      "inputs": [],
      "name": "togglePresale",
      "outputs": [],
      "stateMutability": "nonpayable",
      "type": "function"
    },
    {
      "inputs": [
        {
          "internalType": "uint256",
          "name": "",
          "type": "uint256"
        }
      ],
      "name": "tokenHolders",
      "outputs": [
        {
          "internalType": "address",
          "name": "",
          "type": "address"
        }
      ],
      "stateMutability": "view",
      "type": "function"
    },
    {
      "inputs": [
        {
          "internalType": "uint256",
          "name": "id",
          "type": "uint256"
        }
      ],
      "name": "totalSupply",
      "outputs": [
        {
          "internalType": "uint256",
          "name": "",
          "type": "uint256"
        }
      ],
      "stateMutability": "view",
      "type": "function"
    },
    {
      "inputs": [],
      "name": "unpause",
      "outputs": [],
      "stateMutability": "nonpayable",
      "type": "function"
    },
    {
      "inputs": [
        {
          "internalType": "uint256",
          "name": "",
          "type": "uint256"
        }
      ],
      "name": "unused",
      "outputs": [
        {
          "internalType": "address",
          "name": "",
          "type": "address"
        }
      ],
      "stateMutability": "view",
      "type": "function"
    },
    {
      "inputs": [
        {
          "internalType": "uint256",
          "name": "_tokenId",
          "type": "uint256"
        }
      ],
      "name": "uri",
      "outputs": [
        {
          "internalType": "string",
          "name": "",
          "type": "string"
        }
      ],
      "stateMutability": "view",
      "type": "function"
    },
    {
      "inputs": [],
      "name": "usd",
      "outputs": [
        {
          "internalType": "contract IERC20",
          "name": "",
          "type": "address"
        }
      ],
      "stateMutability": "view",
      "type": "function"
    },
    {
      "inputs": [
        {
          "internalType": "uint256",
          "name": "",
          "type": "uint256"
        }
      ],
      "name": "wallets",
      "outputs": [
        {
          "internalType": "address",
          "name": "",
          "type": "address"
        }
      ],
      "stateMutability": "view",
      "type": "function"
    }
  ],
  "transactionHash": "0x457771e4480ad2d8dba29bde5c12cf481d01511b5f55f9ce011bad24a6871460",
  "args": [
    "",
    [
      "131250000",
      "262500000",
      "525000000",
      "1050000000"
    ],
    [
      2000,
      1000,
      1000,
      1000
    ],
    "0x519EfB2bEFBd3f00D335dc9DF42BF721D591604f",
    [
      20000000,
      30000000
    ],
    5000000,
    [
      10000000,
      30000000
    ],
    "0xe97BDb5600d711C38854d603a4748f98063314AB"
  ],
  "numDeployments": 22,
  "solcInputHash": "34181a2a84cace3d3f762c6541a4eeae",
  "bytecode": "0x60806040523480156200001157600080fd5b5060405162006838380380620068388339810160408190526200003491620008ad565b87806200004181620000b5565b506007805460ff1916905562000059600033620000c7565b620000746000805160206200681883398151915233620000c7565b6200008f600080516020620067f883398151915233620000c7565b506001600955620000a78888888888888888620000d3565b505050505050505062000bf2565b6006620000c3828262000a74565b5050565b620000c382826200050c565b6000620000ed600080516020620067d88339815191525490565b90506001600160a01b0381166200011d576001600160a01b03600080516020620067d88339815191525562000133565b336001600160a01b038216146200013357600080fd5b6200013e89620000b5565b6200014b600033620000c7565b620001666000805160206200681883398151915233620000c7565b62000181600080516020620067f883398151915233620000c7565b62000190600a8960046200066f565b50620001a0601e8860046200066f565b50602480546001600160a01b0319166001600160a01b038816179055620001cb6027866002620006b2565b50602b849055620001e06029846002620006b2565b50602c80546001600160a01b0319166001600160a01b03848116919091179091556024546040805163db7a460560e01b815281516200027394939093169263db7a4605926004808401939192918290030181865afa15801562000247573d6000803e3d6000fd5b505050506040513d601f19601f820116820180604052508101906200026d919062000b40565b6200054f565b602460009054906101000a90046001600160a01b03166001600160a01b031663deef94de6040518163ffffffff1660e01b8152600401602060405180830381865afa158015620002c7573d6000803e3d6000fd5b505050506040513d601f19601f82011682018060405250810190620002ed919062000ba7565b602580546001600160a01b0319166001600160a01b039283161790556024546040805163d63a6ccd60e01b81529051919092169163d63a6ccd9160048083019260209291908290030181865afa1580156200034c573d6000803e3d6000fd5b505050506040513d601f19601f8201168201806040525081019062000372919062000ba7565b602680546001600160a01b0319166001600160a01b039283169081179091556024805460405163095ea7b360e01b815293166004840152600019908301529063095ea7b3906044016020604051808303816000875af1158015620003da573d6000803e3d6000fd5b505050506040513d601f19601f8201168201806040525081019062000400919062000bce565b5060265460255460405163095ea7b360e01b81526001600160a01b039182166004820152600019602482015291169063095ea7b3906044016020604051808303816000875af115801562000458573d6000803e3d6000fd5b505050506040513d601f19601f820116820180604052508101906200047e919062000bce565b506024805460405163095ea7b360e01b81526001600160a01b03909116600482018190526000199282019290925263095ea7b3906044016020604051808303816000875af1158015620004d5573d6000803e3d6000fd5b505050506040513d601f19601f82011682018060405250810190620004fb919062000bce565b505060006037555050505050505050565b6200052382826200055d60201b62002e551760201c565b60008281526001602090815260409091206200054a91839062002ed9620005fd821b17901c565b505050565b620000c360028281620006e2565b6000828152602081815260408083206001600160a01b038516845290915290205460ff16620000c3576000828152602081815260408083206001600160a01b03851684529091529020805460ff19166001179055620005b93390565b6001600160a01b0316816001600160a01b0316837f2f8788117e7eff1d82e926ec794901d17c78024a50270940304540a733656f0d60405160405180910390a45050565b600062000614836001600160a01b0384166200061d565b90505b92915050565b6000818152600183016020526040812054620006665750815460018181018455600084815260208082209093018490558454848252828601909352604090209190915562000617565b50600062000617565b8260048101928215620006a0579160200282015b82811115620006a057825182559160200191906001019062000683565b50620006ae9291506200072d565b5090565b8260028101928215620006a05791602002820182811115620006a057825182559160200191906001019062000683565b8260028101928215620006a0579160200282015b82811115620006a057825182546001600160a01b0319166001600160a01b03909116178255602090920191600190910190620006f6565b5b80821115620006ae57600081556001016200072e565b634e487b7160e01b600052604160045260246000fd5b604080519081016001600160401b03811182821017156200077f576200077f62000744565b60405290565b604051601f8201601f191681016001600160401b0381118282101715620007b057620007b062000744565b604052919050565b600082601f830112620007ca57600080fd5b604051608081016001600160401b0381118282101715620007ef57620007ef62000744565b6040528060808401858111156200080557600080fd5b845b818110156200082157805183526020928301920162000807565b509195945050505050565b6001600160a01b03811681146200084257600080fd5b50565b805162000852816200082c565b919050565b600082601f8301126200086957600080fd5b620008736200075a565b8060408401858111156200088657600080fd5b845b81811015620008a257805184526020938401930162000888565b509095945050505050565b600080600080600080600080610200898b031215620008cb57600080fd5b88516001600160401b0380821115620008e357600080fd5b818b0191508b601f830112620008f857600080fd5b8151818111156200090d576200090d62000744565b6020915062000925601f8201601f1916830162000785565b8181528d838386010111156200093a57600080fd5b60005b828110156200095a5784810184015182820185015283016200093d565b506000838383010152809b505050620009768c828d01620007b8565b98505050620009898a60a08b01620007b8565b95506200099a6101208a0162000845565b9450620009ac8a6101408b0162000857565b93506101808901519250620009c68a6101a08b0162000857565b9150620009d76101e08a0162000845565b90509295985092959890939650565b600181811c90821680620009fb57607f821691505b60208210810362000a1c57634e487b7160e01b600052602260045260246000fd5b50919050565b601f8211156200054a57600081815260208120601f850160051c8101602086101562000a4b5750805b601f850160051c820191505b8181101562000a6c5782815560010162000a57565b505050505050565b81516001600160401b0381111562000a905762000a9062000744565b62000aa88162000aa18454620009e6565b8462000a22565b602080601f83116001811462000ae0576000841562000ac75750858301515b600019600386901b1c1916600185901b17855562000a6c565b600085815260208120601f198616915b8281101562000b115788860151825594840194600190910190840162000af0565b508582101562000b305787850151600019600388901b60f8161c191681555b5050505050600190811b01905550565b60006040828403121562000b5357600080fd5b82601f83011262000b6357600080fd5b62000b6d6200075a565b80604084018581111562000b8057600080fd5b845b81811015620008a257805162000b98816200082c565b84526020938401930162000b82565b60006020828403121562000bba57600080fd5b815162000bc7816200082c565b9392505050565b60006020828403121562000be157600080fd5b8151801515811462000bc757600080fd5b615bd68062000c026000396000f3fe608060405234801561001057600080fd5b50600436106104b45760003560e01c80637ad71f7211610278578063c87881341161015c578063e4e7c6b4116100ce578063f0b8024d11610092578063f0b8024d14610b1d578063f242432a14610b30578063f3430a1614610b43578063f5298aca14610b56578063fd18a25314610b69578063fdea8e0b14610b7c57600080fd5b8063e4e7c6b414610a69578063e63ab1e914610a7c578063e985e9c514610aa3578063ebd3bb7714610adf578063f0b2df8914610b0a57600080fd5b8063d539139311610120578063d5391393146109e3578063d547741f14610a0a578063d63a6ccd14610a1d578063deef94de14610a30578063df71da7614610a43578063e2a21a9814610a5657600080fd5b8063c87881341461098e578063ca15c87314610997578063ca7b2447146109aa578063d0d5a1ba146109bd578063d36dfac8146109d057600080fd5b8063923108d9116101f5578063a8ad42aa116101b9578063a8ad42aa1461093b578063b1873f1914610943578063b88a802f1461094b578063bd85b03914610953578063bef217cc14610973578063bf587d9a1461098657600080fd5b8063923108d9146108f25780639324b42a14610905578063a1f5c23914610918578063a217fddf14610920578063a22cb4651461092857600080fd5b8063876b15661161023c578063876b15661461088f5780638d3bd55b146108a45780638e4ca8f8146108ac5780639010d07c146108cc57806391d14854146108df57600080fd5b80637ad71f721461081d5780637dfe5914146108305780638456cb5914610861578063862440e214610869578063869f75941461087c57600080fd5b80633f4ba83a1161039f57806365011c101161031c5780636e748f97116102e05780636e748f97146107bb5780636ed93dd0146107c3578063730a83e5146107ce578063731133e9146107ee5780637597001614610801578063780069e01461081457600080fd5b806365011c101461075f57806365731fe9146107725780636ac60068146107955780636b20c454146107a85780636d6689ea146107bb57600080fd5b806352a1ad541161036357806352a1ad54146106ee57806352ad8e5614610701578063553b6975146107215780635a89065a146107345780635c975abb1461075457600080fd5b80633f4ba83a146106965780634b3fd05a1461069e5780634e1273f4146106b15780634f558e79146106c457806351ba5b44146106e657600080fd5b80631f7fdffa116104385780632eb2c2d6116103fc5780632eb2c2d6146106175780632f2ff15d1461062a578063343937431461063d57806336568abe1461064557806337f1e7f2146106585780633a78a7d61461066b57600080fd5b80631f7fdffa146105b357806323f77fa9146105c6578063248a9ca3146105d957806326a49e37146105fc5780632c13f08c1461060f57600080fd5b806306fdde031161047f57806306fdde03146105335780630e89341c1461056e578063104304f31461058157806316230257146105965780631a5e85e51461059e57600080fd5b8062a13c4c146104b9578062ab1fa3146104d5578062fdd58e146104ea57806301ffc9a7146104fd57806303b2add014610520575b600080fd5b6104c2602b5481565b6040519081526020015b60405180910390f35b6104e86104e3366004614a0c565b610b90565b005b6104c26104f8366004614a3a565b610bc5565b61051061050b366004614a7c565b610c5b565b60405190151581526020016104cc565b6104c261052e366004614a0c565b610c66565b6105616040518060400160405280600f81526020016e14d8599948165a595b191cc8139195608a1b81525081565b6040516104cc9190614ae9565b61056161057c366004614a0c565b610c7d565b610589610d3b565b6040516104cc9190614b37565b6104c2610db8565b6105a6610e0a565b6040516104cc9190614b4a565b6104e86105c1366004614cde565b610e5e565b6105896105d4366004614d78565b610eb6565b6104c26105e7366004614a0c565b60009081526020819052604090206001015490565b6104c261060a366004614a0c565b610f29565b610589610f39565b6104e8610625366004614d95565b610fb0565b6104e8610638366004614e42565b610ffc565b6104e8611026565b6104e8610653366004614e42565b6110b3565b6104c2610666366004614e86565b611131565b603b5461067e906001600160a01b031681565b6040516001600160a01b0390911681526020016104cc565b6104e861115f565b60245461067e906001600160a01b031681565b6105896106bf366004614ea1565b611205565b6105106106d2366004614a0c565b600090815260086020526040902054151590565b6104c261132e565b6104c26106fc366004614f6d565b61140f565b6104c261070f366004614a0c565b603f6020526000908152604090205481565b6104e861072f366004614d78565b61143a565b6104c2610742366004614a0c565b60386020526000908152604090205481565b60075460ff16610510565b602c5461067e906001600160a01b031681565b610510610780366004614d78565b60366020526000908152604090205460ff1681565b6104e86107a336600461502b565b611483565b6104e86107b63660046150e4565b6118d8565b6104c2600481565b6104c26305f5e10081565b6104c26107dc366004614a0c565b60396020526000908152604090205481565b6104e86107fc366004615159565b61191b565b6104e861080f3660046151af565b61196d565b6104c260375481565b61067e61082b366004614a0c565b6119a1565b6104c261083e3660046151cb565b602d60209081526000938452604080852082529284528284209052825290205481565b6104e86119c1565b6104e8610877366004615200565b611a65565b6104c261088a366004614a0c565b611aa4565b610897611ab4565b6040516104cc919061523c565b6104c2600281565b6104c26108ba366004614a0c565b60406020819052600091825290205481565b61067e6108da366004614f6d565b611b16565b6105106108ed366004614e42565b611b2e565b61067e610900366004614a0c565b611b57565b6104e86109133660046151cb565b611b81565b610589611bb3565b6104c2600081565b6104e8610936366004615297565b611bc5565b6041546104c2565b610589611bd0565b6104e8611c8a565b6104c2610961366004614a0c565b60009081526008602052604090205490565b61067e610981366004614a0c565b611de7565b6104c2611df7565b6104c2603e5481565b6104c26109a5366004614a0c565b611e0a565b6104c26109b8366004614a0c565b611e21565b6104e86109cb3660046152c5565b611e31565b6104e86109de366004614a0c565b61265a565b6104c27f9f2df0fed2c77648de5860a4cc508cd0818c85b8b8a1ab4ceeef8d981c8956a681565b6104e8610a18366004614e42565b612ab5565b60265461067e906001600160a01b031681565b60255461067e906001600160a01b031681565b6104c2610a51366004614a0c565b612ada565b6104c2610a64366004615305565b612aea565b6104c2610a77366004614a3a565b612b1c565b6104c27f65d7a28e3265b37a6474929f336521b332c1681b933f6cb9f3376673440d862a81565b610510610ab136600461533d565b6001600160a01b03918216600090815260056020908152604080832093909416825291909152205460ff1690565b6104c2610aed366004614e42565b603a60209081526000928352604080842090915290825290205481565b6104c2610b18366004614e86565b612c98565b6104c2610b2b366004614f6d565b612d78565b6104e8610b3e36600461536b565b612d94565b6104e8610b513660046153d3565b612dd9565b6104e8610b643660046151cb565b612e0d565b6104c2610b77366004614a0c565b612e45565b602c5461051090600160a01b900460ff1681565b610b9b600033611b2e565b610bc05760405162461bcd60e51b8152600401610bb7906153ef565b60405180910390fd5b603e55565b60006001600160a01b038316610c305760405162461bcd60e51b815260206004820152602a60248201527f455243313135353a2061646472657373207a65726f206973206e6f742061207660448201526930b634b21037bbb732b960b11b6064820152608401610bb7565b5060008181526004602090815260408083206001600160a01b03861684529091529020545b92915050565b6000610c5582612eee565b60328160048110610c7657600080fd5b0154905081565b600081815260226020526040812080546060929190610c9b9061543e565b80601f0160208091040260200160405190810160405280929190818152602001828054610cc79061543e565b8015610d145780601f10610ce957610100808354040283529160200191610d14565b820191906000526020600020905b815481529060010190602001808311610cf757829003601f168201915b505050505090506000815111610d3257610d2d83612ef9565b610d34565b805b9392505050565b60408051600480825260a08201909252606091600091906020820160808036833701905050905060005b6004811015610db257600a8160048110610d8157610d81615472565b0154828281518110610d9557610d95615472565b602090810291909101015280610daa8161549e565b915050610d65565b50919050565b60375460009081905b8015610db257603754600090815260406020818152818320546039909152912054610dec91906154b7565b610df690836154ca565b915080610e02816154dd565b915050610dc1565b610e12614926565b610e1a614926565b60005b6004811015610db257600081815260086020526040902054828260048110610e4757610e47615472565b602002015280610e568161549e565b915050610e1d565b610e887f9f2df0fed2c77648de5860a4cc508cd0818c85b8b8a1ab4ceeef8d981c8956a633611b2e565b610ea45760405162461bcd60e51b8152600401610bb7906154f4565b610eb084848484612f8d565b50505050565b60408051600480825260a08201909252606091600091906020820160808036833701905050905060005b6004811015610f2257610ef38482610bc5565b828281518110610f0557610f05615472565b602090810291909101015280610f1a8161549e565b915050610ee0565b5092915050565b600a8160048110610c7657600080fd5b60408051600480825260a08201909252606091600091906020820160808036833701905050905060005b6004811015610db257610f81816003811115610b1857610b18615551565b828281518110610f9357610f93615472565b602090810291909101015280610fa88161549e565b915050610f63565b6001600160a01b038516331480610fcc5750610fcc8533610ab1565b610fe85760405162461bcd60e51b8152600401610bb790615567565b610ff585858585856130f7565b5050505050565b600082815260208190526040902060010154611017816132b2565b61102183836132bc565b505050565b611031600033611b2e565b61104d5760405162461bcd60e51b8152600401610bb7906153ef565b602c805460ff600160a01b808304821615810260ff60a01b1990931692909217928390556040517f512e257b3133a95bd1fef520dafc0dfb212f406af4f808d030e788c8ff536c04936110a99390049091161515815260200190565b60405180910390a1565b6001600160a01b03811633146111235760405162461bcd60e51b815260206004820152602f60248201527f416363657373436f6e74726f6c3a2063616e206f6e6c792072656e6f756e636560448201526e103937b632b9903337b91039b2b63360891b6064820152608401610bb7565b61112d82826132de565b5050565b6000600a82600381111561114757611147615551565b6004811061115757611157615472565b015492915050565b6111897f65d7a28e3265b37a6474929f336521b332c1681b933f6cb9f3376673440d862a33611b2e565b6111fb5760405162461bcd60e51b815260206004820152603b60248201527f455243313135355072657365744d696e7465725061757365723a206d7573742060448201527f686176652070617573657220726f6c6520746f20756e706175736500000000006064820152608401610bb7565b611203613300565b565b6060815183511461126a5760405162461bcd60e51b815260206004820152602960248201527f455243313135353a206163636f756e747320616e6420696473206c656e677468604482015268040dad2e6dac2e8c6d60bb1b6064820152608401610bb7565b600083516001600160401b0381111561128557611285614b7b565b6040519080825280602002602001820160405280156112ae578160200160208202803683370190505b50905060005b8451811015611326576112f98582815181106112d2576112d2615472565b60200260200101518583815181106112ec576112ec615472565b6020026020010151610bc5565b82828151811061130b5761130b615472565b602090810291909101015261131f8161549e565b90506112b4565b509392505050565b60003381805b600481101561137a576113488160016154ca565b6113528483610bc5565b61135c91906155b5565b61136690836154ca565b9150806113728161549e565b915050611334565b506000611385610e0a565b90506000805b60048110156113de5761139f8160016154ca565b8382600481106113b1576113b1615472565b60200201516113c091906155b5565b6113ca90836154ca565b9150806113d68161549e565b91505061138b565b50801561140357806113f46305f5e100856155b5565b6113fe91906155cc565b611406565b60005b94505050505090565b600e826004811061141f57600080fd5b60040201816004811061143157600080fd5b01549150829050565b611445600033611b2e565b6114615760405162461bcd60e51b8152600401610bb7906153ef565b603b80546001600160a01b0319166001600160a01b0392909216919091179055565b60006114ad7fb53127684a568b3173ae13b9f8a6016e243e63b6e8ee1178d6a717850b5d61035490565b90506001600160a01b0381166114ec576001600160a01b037fb53127684a568b3173ae13b9f8a6016e243e63b6e8ee1178d6a717850b5d610355611501565b336001600160a01b0382161461150157600080fd5b61150a8961334d565b611515600033613359565b61153f7f9f2df0fed2c77648de5860a4cc508cd0818c85b8b8a1ab4ceeef8d981c8956a633613359565b6115697f65d7a28e3265b37a6474929f336521b332c1681b933f6cb9f3376673440d862a33613359565b611576600a896004614944565b50611584601e886004614944565b50602480546001600160a01b0319166001600160a01b0388161790556115ad6027866002614982565b50602b8490556115c06029846002614982565b50602c80546001600160a01b0319166001600160a01b03848116919091179091556024546040805163db7a460560e01b8152815161164e94939093169263db7a4605926004808401939192918290030181865afa158015611625573d6000803e3d6000fd5b505050506040513d601f19601f8201168201806040525081019061164991906155ee565b613363565b602460009054906101000a90046001600160a01b03166001600160a01b031663deef94de6040518163ffffffff1660e01b8152600401602060405180830381865afa1580156116a1573d6000803e3d6000fd5b505050506040513d601f19601f820116820180604052508101906116c59190615650565b602580546001600160a01b0319166001600160a01b039283161790556024546040805163d63a6ccd60e01b81529051919092169163d63a6ccd9160048083019260209291908290030181865afa158015611723573d6000803e3d6000fd5b505050506040513d601f19601f820116820180604052508101906117479190615650565b602680546001600160a01b0319166001600160a01b039283169081179091556024805460405163095ea7b360e01b815293166004840152600019908301529063095ea7b3906044016020604051808303816000875af11580156117ae573d6000803e3d6000fd5b505050506040513d601f19601f820116820180604052508101906117d2919061566d565b5060265460255460405163095ea7b360e01b81526001600160a01b039182166004820152600019602482015291169063095ea7b3906044016020604051808303816000875af1158015611829573d6000803e3d6000fd5b505050506040513d601f19601f8201168201806040525081019061184d919061566d565b506024805460405163095ea7b360e01b81526001600160a01b03909116600482018190526000199282019290925263095ea7b3906044016020604051808303816000875af11580156118a3573d6000803e3d6000fd5b505050506040513d601f19601f820116820180604052508101906118c7919061566d565b505060006037555050505050505050565b6001600160a01b0383163314806118f457506118f48333610ab1565b6119105760405162461bcd60e51b8152600401610bb790615567565b61102183838361336f565b6119457f9f2df0fed2c77648de5860a4cc508cd0818c85b8b8a1ab4ceeef8d981c8956a633611b2e565b6119615760405162461bcd60e51b8152600401610bb7906154f4565b610eb084848484613518565b611978600033611b2e565b6119945760405162461bcd60e51b8152600401610bb7906153ef565b61112d6027826002614982565b600281600281106119b157600080fd5b01546001600160a01b0316905081565b6119eb7f65d7a28e3265b37a6474929f336521b332c1681b933f6cb9f3376673440d862a33611b2e565b611a5d5760405162461bcd60e51b815260206004820152603960248201527f455243313135355072657365744d696e7465725061757365723a206d7573742060448201527f686176652070617573657220726f6c6520746f207061757365000000000000006064820152608401610bb7565b611203613612565b611a70600033611b2e565b611a8c5760405162461bcd60e51b8152600401610bb7906153ef565b600082815260226020526040902061102182826156d0565b601e8160048110610c7657600080fd5b60606041805480602002602001604051908101604052809291908181526020018280548015611b0c57602002820191906000526020600020905b81546001600160a01b03168152600190910190602001808311611aee575b5050505050905090565b6000828152600160205260408120610d34908361364f565b6000918252602082815260408084206001600160a01b0393909316845291905290205460ff1690565b60418181548110611b6757600080fd5b6000918252602090912001546001600160a01b0316905081565b611b8c600033611b2e565b611ba85760405162461bcd60e51b8152600401610bb7906153ef565b61102183838361365b565b606033611bbf81610eb6565b91505090565b61112d338383613781565b60408051600480825260a08201909252606091600091906020820160808036833701905050905060005b6004811015610db2576000818152603f602052604090205460328260048110611c2557611c25615472565b0154602e8360048110611c3a57611c3a615472565b0154611c479060046155b5565b611c5191906154b7565b611c5b91906154b7565b828281518110611c6d57611c6d615472565b602090810291909101015280611c828161549e565b915050611bfa565b611c92613861565b60375433905b8015611ddb576000611caa8383612b1c565b90508015611dc8576024805460405163a9059cbb60e01b81526001600160a01b03868116600483015292810184905291169063a9059cbb906044016020604051808303816000875af1158015611d04573d6000803e3d6000fd5b505050506040513d601f19601f82011682018060405250810190611d28919061566d565b506000828152603a602090815260408083206001600160a01b038716845290915281208054839290611d5b9084906154ca565b909155505060008281526040602081905281208054839290611d7e9084906154ca565b909155505060408051838152602081018390526001600160a01b038516917f987d620f307ff6b94d58743cb7a7509f24071586a77759b77c2d4e29f75a2f9a910160405180910390a25b5080611dd3816154dd565b915050611c98565b50506112036001600955565b60238181548110611b6757600080fd5b6000611e0533603754612b1c565b905090565b6000818152600160205260408120610c55906138ba565b60298160028110610c7657600080fd5b611e39613861565b60008211611eaf5760405162461bcd60e51b815260206004820152603960248201527f45205243313135355072657365744d696e7465725061757365723a20616d6f7560448201527f6e74206d7573742062652067726561746572207468616e2030000000000000006064820152608401610bb7565b6000600a846003811115611ec557611ec5615551565b60048110611ed557611ed5615472565b015411611f4a5760405162461bcd60e51b815260206004820152603c60248201527f455243313135355072657365744d696e7465725061757365723a20746965722060448201527f7072696365206d7573742062652067726561746572207468616e2030000000006064820152608401610bb7565b6001600160a01b0381161580159080611f745750808015611f7457506001600160a01b0382163314155b611fcf5760405162461bcd60e51b815260206004820152602660248201527f526566657272616c206d75737420626520646966666572656e742066726f6d2060448201526539b2b73232b960d11b6064820152608401610bb7565b6000846003811115611fe357611fe3615551565b602c54909150600160a01b900460ff16156123ae57336000603287600381111561200f5761200f615551565b6004811061201f5761201f615472565b0154602e88600381111561203557612035615551565b6004811061204557612045615472565b01546120529060046155b5565b61205c91906154b7565b9050808611156120c35760405162461bcd60e51b815260206004820152602c60248201527f4d6178696d756d20737570706c7920686173206265656e20726561636865642060448201526b3337b9103a3432903a34b2b960a11b6064820152608401610bb7565b85603f60008960038111156120da576120da615551565b815260200190815260200160002060008282546120f791906154ca565b9250508190555060006305f5e10087603e54600a8b600381111561211d5761211d615551565b6004811061212d5761212d615472565b015461213991906155b5565b61214391906155b5565b61214d91906155cc565b6026549091506001600160a01b03166323b872dd336040516001600160e01b031960e084901b1681526001600160a01b039091166004820152306024820152604481018490526064016020604051808303816000875af11580156121b5573d6000803e3d6000fd5b505050506040513d601f19601f820116820180604052508101906121d9919061566d565b506000856121e8576000612205565b602654602b54612205916001600160a01b03169084908a906138c4565b905060008615612216576000612239565b602654603b54602b54612239926001600160a01b039081169287929116906138c4565b602654909150600090612257906001600160a01b0316856027613a29565b6026546040516370a0823160e01b81523060048201529192506000916001600160a01b03909116906370a0823190602401602060405180830381865afa1580156122a5573d6000803e3d6000fd5b505050506040513d601f19601f820116820180604052508101906122c9919061578f565b9050801561234c57602654602c5460405163a9059cbb60e01b81526001600160a01b0391821660048201526024810184905291169063a9059cbb906044016020604051808303816000875af1158015612326573d6000803e3d6000fd5b505050506040513d601f19601f8201168201806040525081019061234a919061566d565b505b8b600381111561235e5761235e615551565b8b886001600160a01b03167f4e26b0356a15833a75d497ecc40ebbb716b99466ed0dba9454f1fff451e25a908860405161239a91815260200190565b60405180910390a450505050505050612633565b600084600a8760038111156123c5576123c5615551565b600481106123d5576123d5615472565b01546123e191906155b5565b6026549091506001600160a01b03166323b872dd336040516001600160e01b031960e084901b1681526001600160a01b039091166004820152306024820152604481018490526064016020604051808303816000875af1158015612449573d6000803e3d6000fd5b505050506040513d601f19601f8201168201806040525081019061246d919061566d565b50600061248a82602786612482576000613b27565b602b54613b27565b6024805460405163f7e0ba5f60e01b8152600481018490529293506000926001600160a01b039091169163f7e0ba5f91016020604051808303816000875af11580156124da573d6000803e3d6000fd5b505050506040513d601f19601f820116820180604052508101906124fe919061578f565b60245490915060009061251c906001600160a01b0316836027613a29565b90508515612559576000612549602460009054906101000a90046001600160a01b0316848a602b546138c4565b905061255581836154ca565b9150505b6026546040516370a0823160e01b81523060048201526000916001600160a01b0316906370a0823190602401602060405180830381865afa1580156125a2573d6000803e3d6000fd5b505050506040513d601f19601f820116820180604052508101906125c6919061578f565b9050801561262d5760255460405163b6b55f2560e01b8152600481018390526001600160a01b039091169063b6b55f2590602401600060405180830381600087803b15801561261457600080fd5b505af1158015612628573d6000803e3d6000fd5b505050505b50505050505b61264e33828660405180602001604052806000815250613518565b50506110216001600955565b612662613861565b600081116126b25760405162461bcd60e51b815260206004820152601d60248201527f416d6f756e74206d7573742062652067726561746572207468616e20300000006044820152606401610bb7565b6026546001600160a01b03166323b872dd336040516001600160e01b031960e084901b1681526001600160a01b039091166004820152306024820152604481018490526064016020604051808303816000875af1158015612717573d6000803e3d6000fd5b505050506040513d601f19601f8201168201806040525081019061273b919061566d565b506037805490600061274c8361549e565b9091555050603754600090815260386020526040812082905560265461277d906001600160a01b0316836029613a29565b905060006305f5e10061279384620f42406155b5565b61279e9060056155b5565b6127a891906155cc565b603b549091506001600160a01b03161561283757602654603b5460405163a9059cbb60e01b81526001600160a01b0391821660048201526024810184905291169063a9059cbb906044016020604051808303816000875af1158015612811573d6000803e3d6000fd5b505050506040513d601f19601f82011682018060405250810190612835919061566d565b505b602654602c5460405163a9059cbb60e01b81526001600160a01b0391821660048201526024810184905291169063a9059cbb906044016020604051808303816000875af115801561288c573d6000803e3d6000fd5b505050506040513d601f19601f820116820180604052508101906128b0919061566d565b5060006128be8260026155b5565b6128c884866154b7565b6128d291906154b7565b905060005b6041548110156129bc576000604182815481106128f6576128f6615472565b6000918252602090912001546001600160a01b03169050801580159061293457506001600160a01b03811660009081526036602052604090205460ff165b156129a95760005b60048110156129a75760006129518383610bc5565b90508015612994576037546000908152603c602090815260408083206001600160a01b038716845290915290208190836004811061299157612991615472565b01555b508061299f8161549e565b91505061293c565b505b50806129b48161549e565b9150506128d7565b506024805460405163f7e0ba5f60e01b8152600481018490526001600160a01b039091169163f7e0ba5f91016020604051808303816000875af1158015612a07573d6000803e3d6000fd5b505050506040513d601f19601f82011682018060405250810190612a2b919061578f565b603754600090815260396020526040902055612a45610e0a565b6037546000908152603d60205260409020612a61916004614944565b50603754604080519182526020820186905281018290527f35a0431ae8ac3e583720a9e25576a99b5b4bb2cb375a867047eef1e6ea81b26f9060600160405180910390a1505050612ab26001600955565b50565b600082815260208190526040902060010154612ad0816132b2565b61102183836132de565b60278160028110610c7657600080fd5b603c6020528260005260406000206020528160005260406000208160048110612b1257600080fd5b0154925083915050565b6000818152603c602090815260408083206001600160a01b038616845290915280822081516080810192839052839283929060049082845b815481526020019060010190808311612b54575050505050905060005b6004811015612bc457612b858160016154ca565b828260048110612b9757612b97615472565b6020020151612ba691906155b5565b612bb090846154ca565b925080612bbc8161549e565b915050612b71565b506000805b6004811015612c2657612bdd8160016154ca565b6000878152603d602052604090208260048110612bfc57612bfc615472565b0154612c0891906155b5565b612c1290836154ca565b915080612c1e8161549e565b915050612bc9565b5060008115612c5a576000868152603960205260409020548290612c4b9086906155b5565b612c5591906155cc565b612c5d565b60005b6000878152603a602090815260408083206001600160a01b038c168452909152902054909150612c8d90826154b7565b979650505050505050565b600080600a836003811115612caf57612caf615551565b60048110612cbf57612cbf615472565b015490506000612cda84600381111561096157610961615551565b15612cf957612cf484600381111561096157610961615551565b612cfc565b60015b90506000805b603754811015612d3957600081815260386020526040902054612d2590836154ca565b915080612d318161549e565b915050612d02565b50600082866003811115612d4f57612d4f615551565b612d5990846155b5565b612d6391906155cc565b612d6d90856154ca565b509295945050505050565b603d602052816000526040600020816004811061143157600080fd5b6001600160a01b038516331480612db05750612db08533610ab1565b612dcc5760405162461bcd60e51b8152600401610bb790615567565b610ff58585858585613b98565b612de4600033611b2e565b612e005760405162461bcd60e51b8152600401610bb7906153ef565b61112d602e826004614944565b6001600160a01b038316331480612e295750612e298333610ab1565b611ba85760405162461bcd60e51b8152600401610bb790615567565b602e8160048110610c7657600080fd5b612e5f8282611b2e565b61112d576000828152602081815260408083206001600160a01b03851684529091529020805460ff19166001179055612e953390565b6001600160a01b0316816001600160a01b0316837f2f8788117e7eff1d82e926ec794901d17c78024a50270940304540a733656f0d60405160405180910390a45050565b6000610d34836001600160a01b038416613ce2565b6000610c5582613d31565b606060068054612f089061543e565b80601f0160208091040260200160405190810160405280929190818152602001828054612f349061543e565b8015612f815780601f10612f5657610100808354040283529160200191612f81565b820191906000526020600020905b815481529060010190602001808311612f6457829003601f168201915b50505050509050919050565b6001600160a01b038416612fb35760405162461bcd60e51b8152600401610bb7906157a8565b8151835114612fd45760405162461bcd60e51b8152600401610bb7906157e9565b33612fe481600087878787613d71565b60005b84518110156130805783818151811061300257613002615472565b60200260200101516004600087848151811061302057613020615472565b602002602001015181526020019081526020016000206000886001600160a01b03166001600160a01b03168152602001908152602001600020600082825461306891906154ca565b909155508190506130788161549e565b915050612fe7565b50846001600160a01b031660006001600160a01b0316826001600160a01b03167f4a39dc06d4c0dbc64b70af90fd698a233a518aa5d07e595d983b8c0526c8f7fb87876040516130d1929190615831565b60405180910390a46130e881600087878787613eb7565b610ff581600087878787614047565b81518351146131185760405162461bcd60e51b8152600401610bb7906157e9565b6001600160a01b03841661313e5760405162461bcd60e51b8152600401610bb79061585f565b3361314d818787878787613d71565b60005b845181101561323657600085828151811061316d5761316d615472565b60200260200101519050600085838151811061318b5761318b615472565b60209081029190910181015160008481526004835260408082206001600160a01b038e1683529093529190912054909150818110156131dc5760405162461bcd60e51b8152600401610bb7906158a4565b60008381526004602090815260408083206001600160a01b038e8116855292528083208585039055908b1682528120805484929061321b9084906154ca565b925050819055505050508061322f9061549e565b9050613150565b50846001600160a01b0316866001600160a01b0316826001600160a01b03167f4a39dc06d4c0dbc64b70af90fd698a233a518aa5d07e595d983b8c0526c8f7fb8787604051613286929190615831565b60405180910390a461329c818787878787613eb7565b6132aa818787878787614047565b505050505050565b612ab281336141a2565b6132c68282612e55565b60008281526001602052604090206110219082612ed9565b6132e882826141fb565b60008281526001602052604090206110219082614260565b613308614275565b6007805460ff191690557f5db9ee0a495bf2e6ff9c91a7834c1ba4fdd244a5e8aa4e537bd38aeae4b073aa335b6040516001600160a01b0390911681526020016110a9565b600661112d82826156d0565b61112d82826132bc565b61112d600282816149af565b6001600160a01b0383166133955760405162461bcd60e51b8152600401610bb7906158ee565b80518251146133b65760405162461bcd60e51b8152600401610bb7906157e9565b60003390506133d981856000868660405180602001604052806000815250613d71565b60005b83518110156134a15760008482815181106133f9576133f9615472565b60200260200101519050600084838151811061341757613417615472565b60209081029190910181015160008481526004835260408082206001600160a01b038c1683529093529190912054909150818110156134685760405162461bcd60e51b8152600401610bb790615931565b60009283526004602090815260408085206001600160a01b038b16865290915290922091039055806134998161549e565b9150506133dc565b5060006001600160a01b0316846001600160a01b0316826001600160a01b03167f4a39dc06d4c0dbc64b70af90fd698a233a518aa5d07e595d983b8c0526c8f7fb86866040516134f2929190615831565b60405180910390a4610eb081856000868660405180602001604052806000815250613eb7565b6001600160a01b03841661353e5760405162461bcd60e51b8152600401610bb7906157a8565b33600061354a856142be565b90506000613557856142be565b905061356883600089858589613d71565b60008681526004602090815260408083206001600160a01b038b1684529091528120805487929061359a9084906154ca565b909155505060408051878152602081018790526001600160a01b03808a1692600092918716917fc3d58168c5ae7397731d063d5bbf3d657854427343f4c083240f7aacaa2d0f62910160405180910390a46135fa83600089858589613eb7565b61360983600089898989614309565b50505050505050565b61361a6143c4565b6007805460ff191660011790557f62e78cea01bee320cd4e420270b5ea74000d11b0c9f74754ebdbfc544b05a2586133353390565b6000610d34838361440a565b6001600160a01b0383166136815760405162461bcd60e51b8152600401610bb7906158ee565b33600061368d846142be565b9050600061369a846142be565b90506136ba83876000858560405180602001604052806000815250613d71565b60008581526004602090815260408083206001600160a01b038a168452909152902054848110156136fd5760405162461bcd60e51b8152600401610bb790615931565b60008681526004602090815260408083206001600160a01b038b81168086529184528285208a8703905582518b81529384018a90529092908816917fc3d58168c5ae7397731d063d5bbf3d657854427343f4c083240f7aacaa2d0f62910160405180910390a461360984886000868660405180602001604052806000815250613eb7565b816001600160a01b0316836001600160a01b0316036137f45760405162461bcd60e51b815260206004820152602960248201527f455243313135353a2073657474696e6720617070726f76616c20737461747573604482015268103337b91039b2b63360b91b6064820152608401610bb7565b6001600160a01b03838116600081815260056020908152604080832094871680845294825291829020805460ff191686151590811790915591519182527f17307eab39ab6107e8899845ad3d59bd9653f200f220920489ca2b5937696c31910160405180910390a3505050565b6002600954036138b35760405162461bcd60e51b815260206004820152601f60248201527f5265656e7472616e637947756172643a207265656e7472616e742063616c6c006044820152606401610bb7565b6002600955565b6000610c55825490565b6040516370a0823160e01b815230600482015260009081906001600160a01b038716906370a0823190602401602060405180830381865afa15801561390d573d6000803e3d6000fd5b505050506040513d601f19601f82011682018060405250810190613931919061578f565b905060006305f5e10061394485886155b5565b61394e91906155cc565b9050808210156139ab5760405162461bcd60e51b815260206004820152602260248201527f4e6f7420656e6f7567682062616c616e6365206f6e2074686520636f6e74726160448201526118dd60f21b6064820152608401610bb7565b60405163a9059cbb60e01b81526001600160a01b0386811660048301526024820183905288169063a9059cbb906044016020604051808303816000875af11580156139fa573d6000803e3d6000fd5b505050506040513d601f19601f82011682018060405250810190613a1e919061566d565b509695505050505050565b600080805b6002811015613b1e5760006305f5e100858360028110613a5057613a50615472565b0154613a5c90886155b5565b613a6691906155cc565b9050866001600160a01b031663a9059cbb60028460028110613a8a57613a8a615472565b015460405160e083901b6001600160e01b03191681526001600160a01b039091166004820152602481018490526044016020604051808303816000875af1158015613ad9573d6000803e3d6000fd5b505050506040513d601f19601f82011682018060405250810190613afd919061566d565b50613b0881846154ca565b9250508080613b169061549e565b915050613a2e565b50949350505050565b6000806002815b81811015613b6857858160028110613b4857613b48615472565b0154613b5490846154ca565b925080613b608161549e565b915050613b2e565b50613b7384836154ca565b91506305f5e100613b8483886155b5565b613b8e91906155cc565b9695505050505050565b6001600160a01b038416613bbe5760405162461bcd60e51b8152600401610bb79061585f565b336000613bca856142be565b90506000613bd7856142be565b9050613be7838989858589613d71565b60008681526004602090815260408083206001600160a01b038c16845290915290205485811015613c2a5760405162461bcd60e51b8152600401610bb7906158a4565b60008781526004602090815260408083206001600160a01b038d8116855292528083208985039055908a16825281208054889290613c699084906154ca565b909155505060408051888152602081018890526001600160a01b03808b16928c821692918816917fc3d58168c5ae7397731d063d5bbf3d657854427343f4c083240f7aacaa2d0f62910160405180910390a4613cc9848a8a86868a613eb7565b613cd7848a8a8a8a8a614309565b505050505050505050565b6000818152600183016020526040812054613d2957508154600181810184556000848152602080822090930184905584548482528286019093526040902091909155610c55565b506000610c55565b60006001600160e01b03198216636cdb3d1360e11b1480613d6257506001600160e01b031982166303a24d0760e21b145b80610c555750610c5582614434565b6001600160a01b038516613ea95760005b8351811015613ea7576004848281518110613d9f57613d9f615472565b602002602001015110613dea5760405162461bcd60e51b815260206004820152601360248201527229b0b332a7232a1d103bb937b733903a34b2b960691b6044820152606401610bb7565b601e848281518110613dfe57613dfe615472565b602002602001015160048110613e1657613e16615472565b0154613e47858381518110613e2d57613e2d615472565b602002602001015160009081526008602052604090205490565b1115613e955760405162461bcd60e51b815260206004820152601b60248201527f536166654e46543a206d617820737570706c79207265616368656400000000006044820152606401610bb7565b80613e9f8161549e565b915050613d82565b505b6132aa868686868686614459565b6001600160a01b03851615613f3057600160005b8451811015613f0657613eea878683815181106112ec576112ec615472565b15613ef457600091505b80613efe8161549e565b915050613ecb565b508015613f2e576001600160a01b0386166000908152603660205260409020805460ff191690555b505b6001600160a01b038416156140425760005b8351811015614040576004848281518110613f5f57613f5f615472565b602002602001015110613faa5760405162461bcd60e51b815260206004820152601360248201527229b0b332a7232a1d103bb937b733903a34b2b960691b6044820152606401610bb7565b6001600160a01b03851660009081526036602052604090205460ff1661402e576041805460018082019092557f7c9785e8241615bc80415d89775984a1337d15dc1bf4ce50f41988b2a2b336a70180546001600160a01b0319166001600160a01b0388169081179091556000908152603660205260409020805460ff191690911790555b806140388161549e565b915050613f42565b505b6132aa565b6001600160a01b0384163b156132aa5760405163bc197c8160e01b81526001600160a01b0385169063bc197c819061408b9089908990889088908890600401615975565b6020604051808303816000875af19250505080156140c6575060408051601f3d908101601f191682019092526140c3918101906159d3565b60015b614172576140d26159f0565b806308c379a00361410b57506140e6615a0c565b806140f1575061410d565b8060405162461bcd60e51b8152600401610bb79190614ae9565b505b60405162461bcd60e51b815260206004820152603460248201527f455243313135353a207472616e7366657220746f206e6f6e2d455243313135356044820152732932b1b2b4bb32b91034b6b83632b6b2b73a32b960611b6064820152608401610bb7565b6001600160e01b0319811663bc197c8160e01b146136095760405162461bcd60e51b8152600401610bb790615a95565b6141ac8282611b2e565b61112d576141b9816145e0565b6141c48360206145f2565b6040516020016141d5929190615add565b60408051601f198184030181529082905262461bcd60e51b8252610bb791600401614ae9565b6142058282611b2e565b1561112d576000828152602081815260408083206001600160a01b0385168085529252808320805460ff1916905551339285917ff6391f5c32d9c69d2a47ea670b442974b53935d1edc7fd64eb21e047a839171b9190a45050565b6000610d34836001600160a01b03841661478d565b60075460ff166112035760405162461bcd60e51b815260206004820152601460248201527314185d5cd8589b194e881b9bdd081c185d5cd95960621b6044820152606401610bb7565b604080516001808252818301909252606091600091906020808301908036833701905050905082816000815181106142f8576142f8615472565b602090810291909101015292915050565b6001600160a01b0384163b156132aa5760405163f23a6e6160e01b81526001600160a01b0385169063f23a6e619061434d9089908990889088908890600401615b52565b6020604051808303816000875af1925050508015614388575060408051601f3d908101601f19168201909252614385918101906159d3565b60015b614394576140d26159f0565b6001600160e01b0319811663f23a6e6160e01b146136095760405162461bcd60e51b8152600401610bb790615a95565b60075460ff16156112035760405162461bcd60e51b815260206004820152601060248201526f14185d5cd8589b194e881c185d5cd95960821b6044820152606401610bb7565b600082600001828154811061442157614421615472565b9060005260206000200154905092915050565b60006001600160e01b03198216635a05180f60e01b1480610c555750610c5582614880565b6144678686868686866148b5565b6001600160a01b0385166144ee5760005b83518110156144ec5782818151811061449357614493615472565b6020026020010151600860008684815181106144b1576144b1615472565b6020026020010151815260200190815260200160002060008282546144d691906154ca565b909155506144e590508161549e565b9050614478565b505b6001600160a01b0384166132aa5760005b835181101561360957600084828151811061451c5761451c615472565b60200260200101519050600084838151811061453a5761453a615472565b60200260200101519050600060086000848152602001908152602001600020549050818110156145bd5760405162461bcd60e51b815260206004820152602860248201527f455243313135353a206275726e20616d6f756e74206578636565647320746f74604482015267616c537570706c7960c01b6064820152608401610bb7565b600092835260086020526040909220910390556145d98161549e565b90506144ff565b6060610c556001600160a01b03831660145b606060006146018360026155b5565b61460c9060026154ca565b6001600160401b0381111561462357614623614b7b565b6040519080825280601f01601f19166020018201604052801561464d576020820181803683370190505b509050600360fc1b8160008151811061466857614668615472565b60200101906001600160f81b031916908160001a905350600f60fb1b8160018151811061469757614697615472565b60200101906001600160f81b031916908160001a90535060006146bb8460026155b5565b6146c69060016154ca565b90505b600181111561473e576f181899199a1a9b1b9c1cb0b131b232b360811b85600f16601081106146fa576146fa615472565b1a60f81b82828151811061471057614710615472565b60200101906001600160f81b031916908160001a90535060049490941c93614737816154dd565b90506146c9565b508315610d345760405162461bcd60e51b815260206004820181905260248201527f537472696e67733a20686578206c656e67746820696e73756666696369656e746044820152606401610bb7565b600081815260018301602052604081205480156148765760006147b16001836154b7565b85549091506000906147c5906001906154b7565b905081811461482a5760008660000182815481106147e5576147e5615472565b906000526020600020015490508087600001848154811061480857614808615472565b6000918252602080832090910192909255918252600188019052604090208390555b855486908061483b5761483b615b8a565b600190038181906000526020600020016000905590558560010160008681526020019081526020016000206000905560019350505050610c55565b6000915050610c55565b60006001600160e01b03198216637965db0b60e01b1480610c5557506301ffc9a760e01b6001600160e01b0319831614610c55565b6132aa86868686868660075460ff16156132aa5760405162461bcd60e51b815260206004820152602c60248201527f455243313135355061757361626c653a20746f6b656e207472616e736665722060448201526b1dda1a5b19481c185d5cd95960a21b6064820152608401610bb7565b60405180608001604052806004906020820280368337509192915050565b8260048101928215614972579160200282015b82811115614972578251825591602001919060010190614957565b5061497e9291506149f7565b5090565b82600281019282156149725791602002820182811115614972578251825591602001919060010190614957565b8260028101928215614972579160200282015b8281111561497257825182546001600160a01b0319166001600160a01b039091161782556020909201916001909101906149c2565b5b8082111561497e57600081556001016149f8565b600060208284031215614a1e57600080fd5b5035919050565b6001600160a01b0381168114612ab257600080fd5b60008060408385031215614a4d57600080fd5b8235614a5881614a25565b946020939093013593505050565b6001600160e01b031981168114612ab257600080fd5b600060208284031215614a8e57600080fd5b8135610d3481614a66565b60005b83811015614ab4578181015183820152602001614a9c565b50506000910152565b60008151808452614ad5816020860160208601614a99565b601f01601f19169290920160200192915050565b602081526000610d346020830184614abd565b600081518084526020808501945080840160005b83811015614b2c57815187529582019590820190600101614b10565b509495945050505050565b602081526000610d346020830184614afc565b60808101818360005b6004811015614b72578151835260209283019290910190600101614b53565b50505092915050565b634e487b7160e01b600052604160045260246000fd5b604081018181106001600160401b0382111715614bb057614bb0614b7b565b60405250565b601f8201601f191681016001600160401b0381118282101715614bdb57614bdb614b7b565b6040525050565b60006001600160401b03821115614bfb57614bfb614b7b565b5060051b60200190565b600082601f830112614c1657600080fd5b81356020614c2382614be2565b604051614c308282614bb6565b83815260059390931b8501820192828101915086841115614c5057600080fd5b8286015b84811015613a1e5780358352918301918301614c54565b600082601f830112614c7c57600080fd5b81356001600160401b03811115614c9557614c95614b7b565b604051614cac601f8301601f191660200182614bb6565b818152846020838601011115614cc157600080fd5b816020850160208301376000918101602001919091529392505050565b60008060008060808587031215614cf457600080fd5b8435614cff81614a25565b935060208501356001600160401b0380821115614d1b57600080fd5b614d2788838901614c05565b94506040870135915080821115614d3d57600080fd5b614d4988838901614c05565b93506060870135915080821115614d5f57600080fd5b50614d6c87828801614c6b565b91505092959194509250565b600060208284031215614d8a57600080fd5b8135610d3481614a25565b600080600080600060a08688031215614dad57600080fd5b8535614db881614a25565b94506020860135614dc881614a25565b935060408601356001600160401b0380821115614de457600080fd5b614df089838a01614c05565b94506060880135915080821115614e0657600080fd5b614e1289838a01614c05565b93506080880135915080821115614e2857600080fd5b50614e3588828901614c6b565b9150509295509295909350565b60008060408385031215614e5557600080fd5b823591506020830135614e6781614a25565b809150509250929050565b803560048110614e8157600080fd5b919050565b600060208284031215614e9857600080fd5b610d3482614e72565b60008060408385031215614eb457600080fd5b82356001600160401b0380821115614ecb57600080fd5b818501915085601f830112614edf57600080fd5b81356020614eec82614be2565b604051614ef98282614bb6565b83815260059390931b8501820192828101915089841115614f1957600080fd5b948201945b83861015614f40578535614f3181614a25565b82529482019490820190614f1e565b96505086013592505080821115614f5657600080fd5b50614f6385828601614c05565b9150509250929050565b60008060408385031215614f8057600080fd5b50508035926020909101359150565b600082601f830112614fa057600080fd5b604051608081018181106001600160401b0382111715614fc257614fc2614b7b565b604052806080840185811115614fd757600080fd5b845b81811015614ff1578035835260209283019201614fd9565b509195945050505050565b600082601f83011261500d57600080fd5b60405161501981614b91565b806040840185811115614fd757600080fd5b600080600080600080600080610200898b03121561504857600080fd5b88356001600160401b0381111561505e57600080fd5b61506a8b828c01614c6b565b98505061507a8a60208b01614f8f565b96506150898a60a08b01614f8f565b955061012089013561509a81614a25565b94506150aa8a6101408b01614ffc565b935061018089013592506150c28a6101a08b01614ffc565b91506101e08901356150d381614a25565b809150509295985092959890939650565b6000806000606084860312156150f957600080fd5b833561510481614a25565b925060208401356001600160401b038082111561512057600080fd5b61512c87838801614c05565b9350604086013591508082111561514257600080fd5b5061514f86828701614c05565b9150509250925092565b6000806000806080858703121561516f57600080fd5b843561517a81614a25565b9350602085013592506040850135915060608501356001600160401b038111156151a357600080fd5b614d6c87828801614c6b565b6000604082840312156151c157600080fd5b610d348383614ffc565b6000806000606084860312156151e057600080fd5b83356151eb81614a25565b95602085013595506040909401359392505050565b6000806040838503121561521357600080fd5b8235915060208301356001600160401b0381111561523057600080fd5b614f6385828601614c6b565b6020808252825182820181905260009190848201906040850190845b8181101561527d5783516001600160a01b031683529284019291840191600101615258565b50909695505050505050565b8015158114612ab257600080fd5b600080604083850312156152aa57600080fd5b82356152b581614a25565b91506020830135614e6781615289565b6000806000606084860312156152da57600080fd5b6152e384614e72565b92506020840135915060408401356152fa81614a25565b809150509250925092565b60008060006060848603121561531a57600080fd5b83359250602084013561532c81614a25565b929592945050506040919091013590565b6000806040838503121561535057600080fd5b823561535b81614a25565b91506020830135614e6781614a25565b600080600080600060a0868803121561538357600080fd5b853561538e81614a25565b9450602086013561539e81614a25565b9350604086013592506060860135915060808601356001600160401b038111156153c757600080fd5b614e3588828901614c6b565b6000608082840312156153e557600080fd5b610d348383614f8f565b6020808252602f908201527f455243313135355072657365744d696e7465725061757365723a206d7573742060408201526e686176652061646d696e20726f6c6560881b606082015260800190565b600181811c9082168061545257607f821691505b602082108103610db257634e487b7160e01b600052602260045260246000fd5b634e487b7160e01b600052603260045260246000fd5b634e487b7160e01b600052601160045260246000fd5b6000600182016154b0576154b0615488565b5060010190565b81810381811115610c5557610c55615488565b80820180821115610c5557610c55615488565b6000816154ec576154ec615488565b506000190190565b60208082526038908201527f455243313135355072657365744d696e7465725061757365723a206d7573742060408201527f68617665206d696e74657220726f6c6520746f206d696e740000000000000000606082015260800190565b634e487b7160e01b600052602160045260246000fd5b6020808252602e908201527f455243313135353a2063616c6c6572206973206e6f7420746f6b656e206f776e60408201526d195c881bdc88185c1c1c9bdd995960921b606082015260800190565b8082028115828204841417610c5557610c55615488565b6000826155e957634e487b7160e01b600052601260045260246000fd5b500490565b60006040828403121561560057600080fd5b82601f83011261560f57600080fd5b60405161561b81614b91565b80604084018581111561562d57600080fd5b845b81811015614ff157805161564281614a25565b83526020928301920161562f565b60006020828403121561566257600080fd5b8151610d3481614a25565b60006020828403121561567f57600080fd5b8151610d3481615289565b601f82111561102157600081815260208120601f850160051c810160208610156156b15750805b601f850160051c820191505b818110156132aa578281556001016156bd565b81516001600160401b038111156156e9576156e9614b7b565b6156fd816156f7845461543e565b8461568a565b602080601f831160018114615732576000841561571a5750858301515b600019600386901b1c1916600185901b1785556132aa565b600085815260208120601f198616915b8281101561576157888601518255948401946001909101908401615742565b508582101561577f5787850151600019600388901b60f8161c191681555b5050505050600190811b01905550565b6000602082840312156157a157600080fd5b5051919050565b60208082526021908201527f455243313135353a206d696e7420746f20746865207a65726f206164647265736040820152607360f81b606082015260800190565b60208082526028908201527f455243313135353a2069647320616e6420616d6f756e7473206c656e677468206040820152670dad2e6dac2e8c6d60c31b606082015260800190565b6040815260006158446040830185614afc565b82810360208401526158568185614afc565b95945050505050565b60208082526025908201527f455243313135353a207472616e7366657220746f20746865207a65726f206164604082015264647265737360d81b606082015260800190565b6020808252602a908201527f455243313135353a20696e73756666696369656e742062616c616e636520666f60408201526939103a3930b739b332b960b11b606082015260800190565b60208082526023908201527f455243313135353a206275726e2066726f6d20746865207a65726f206164647260408201526265737360e81b606082015260800190565b60208082526024908201527f455243313135353a206275726e20616d6f756e7420657863656564732062616c604082015263616e636560e01b606082015260800190565b60006001600160a01b03808816835280871660208401525060a060408301526159a160a0830186614afc565b82810360608401526159b38186614afc565b905082810360808401526159c78185614abd565b98975050505050505050565b6000602082840312156159e557600080fd5b8151610d3481614a66565b600060033d1115615a095760046000803e5060005160e01c5b90565b600060443d1015615a1a5790565b6040516003193d81016004833e81513d6001600160401b038160248401118184111715615a4957505050505090565b8285019150815181811115615a615750505050505090565b843d8701016020828501011115615a7b5750505050505090565b615a8a60208286010187614bb6565b509095945050505050565b60208082526028908201527f455243313135353a204552433131353552656365697665722072656a656374656040820152676420746f6b656e7360c01b606082015260800190565b7f416363657373436f6e74726f6c3a206163636f756e7420000000000000000000815260008351615b15816017850160208801614a99565b7001034b99036b4b9b9b4b733903937b6329607d1b6017918401918201528351615b46816028840160208801614a99565b01602801949350505050565b60006001600160a01b03808816835280871660208401525084604083015283606083015260a06080830152612c8d60a0830184614abd565b634e487b7160e01b600052603160045260246000fdfea2646970667358221220d748e87d36c5dbfd5dfc162e9e6bdadb65c655ab2b32f092a7c2290da423a0de64736f6c63430008110033b53127684a568b3173ae13b9f8a6016e243e63b6e8ee1178d6a717850b5d610365d7a28e3265b37a6474929f336521b332c1681b933f6cb9f3376673440d862a9f2df0fed2c77648de5860a4cc508cd0818c85b8b8a1ab4ceeef8d981c8956a6",
  "devdoc": {
    "author": "crypt0grapher",
    "kind": "dev",
    "methods": {
      "balanceOf(address,uint256)": {
        "details": "See {IERC1155-balanceOf}. Requirements: - `account` cannot be the zero address."
      },
      "balanceOfBatch(address[],uint256[])": {
        "details": "See {IERC1155-balanceOfBatch}. Requirements: - `accounts` and `ids` must have the same length."
      },
      "buy(uint8,uint256,address)": {
        "params": {
          "_amount": "amount of USD to spend",
          "_referral": "referral getting 5% of the price, should not be the sender, if not specified, goes to treasury",
          "_tier": "tier of the NFT to purchase which stands for ERC1155 token id [0..3]"
        }
      },
      "distributeProfit(uint256)": {
        "params": {
          "_amountUSD": "amount of USD to distribute"
        }
      },
      "exists(uint256)": {
        "details": "Indicates whether any token exist with a given id, or not."
      },
      "getFairPrice(uint8)": {
        "returns": {
          "_0": "counts not only the sale price but also share of the profit for the tier"
        }
      },
      "getPrice(uint8)": {
        "returns": {
          "_0": "NFT price in USD"
        }
      },
      "getPriceTable()": {
        "returns": {
          "_0": "uint256[] containing all NFT prices in one table in USD"
        }
      },
      "getRoleAdmin(bytes32)": {
        "details": "Returns the admin role that controls `role`. See {grantRole} and {revokeRole}. To change a role's admin, use {_setRoleAdmin}."
      },
      "getRoleMember(bytes32,uint256)": {
        "details": "Returns one of the accounts that have `role`. `index` must be a value between 0 and {getRoleMemberCount}, non-inclusive. Role bearers are not sorted in any particular way, and their ordering may change at any point. WARNING: When using {getRoleMember} and {getRoleMemberCount}, make sure you perform all queries on the same block. See the following https://forum.openzeppelin.com/t/iterating-over-elements-on-enumerableset-in-openzeppelin-contracts/2296[forum post] for more information."
      },
      "getRoleMemberCount(bytes32)": {
        "details": "Returns the number of accounts that have `role`. Can be used together with {getRoleMember} to enumerate all bearers of a role."
      },
      "getUnclaimedRewards()": {
        "returns": {
          "_0": "amount of the rewards not yet distributed to NFT holders"
        }
      },
      "grantRole(bytes32,address)": {
        "details": "Grants `role` to `account`. If `account` had not been already granted `role`, emits a {RoleGranted} event. Requirements: - the caller must have ``role``'s admin role. May emit a {RoleGranted} event."
      },
      "hasRole(bytes32,address)": {
        "details": "Returns `true` if `account` has been granted `role`."
      },
      "isApprovedForAll(address,address)": {
        "details": "See {IERC1155-isApprovedForAll}."
      },
      "mint(address,uint256,uint256,bytes)": {
        "details": "Creates `amount` new tokens for `to`, of token type `id`. See {ERC1155-_mint}. Requirements: - the caller must have the `MINTER_ROLE`."
      },
      "mintBatch(address,uint256[],uint256[],bytes)": {
        "details": "xref:ROOT:erc1155.adoc#batch-operations[Batched] variant of {mint}."
      },
      "pause()": {
        "details": "Pauses all token transfers. See {ERC1155Pausable} and {Pausable-_pause}. Requirements: - the caller must have the `PAUSER_ROLE`."
      },
      "paused()": {
        "details": "Returns true if the contract is paused, and false otherwise."
      },
      "renounceRole(bytes32,address)": {
        "details": "Revokes `role` from the calling account. Roles are often managed via {grantRole} and {revokeRole}: this function's purpose is to provide a mechanism for accounts to lose their privileges if they are compromised (such as when a trusted device is misplaced). If the calling account had been revoked `role`, emits a {RoleRevoked} event. Requirements: - the caller must be `account`. May emit a {RoleRevoked} event."
      },
      "revokeRole(bytes32,address)": {
        "details": "Revokes `role` from `account`. If `account` had been granted `role`, emits a {RoleRevoked} event. Requirements: - the caller must have ``role``'s admin role. May emit a {RoleRevoked} event."
      },
      "safeBatchTransferFrom(address,address,uint256[],uint256[],bytes)": {
        "details": "See {IERC1155-safeBatchTransferFrom}."
      },
      "safeTransferFrom(address,address,uint256,uint256,bytes)": {
        "details": "See {IERC1155-safeTransferFrom}."
      },
      "setApprovalForAll(address,bool)": {
        "details": "See {IERC1155-setApprovalForAll}."
      },
      "totalSupply(uint256)": {
        "details": "Total amount of tokens in with a given id."
      },
      "unpause()": {
        "details": "Unpauses all token transfers. See {ERC1155Pausable} and {Pausable-_unpause}. Requirements: - the caller must have the `PAUSER_ROLE`."
      }
    },
    "stateVariables": {
      "currentDistributionId": {
        "return": "current distribution number, the one that assigned to the latest distribution",
        "returns": {
          "_0": "current distribution number, the one that assigned to the latest distribution"
        }
      },
      "discountedPrice": {
        "return": "uint256 containing percent to multiply to the price to get a discount",
        "returns": {
          "_0": "uint256 containing percent to multiply to the price to get a discount"
        }
      }
    },
    "title": "Safe NFT",
    "version": 1
  },
  "userdoc": {
    "kind": "user",
    "methods": {
      "TIERS()": {
        "notice": "todo a number of tiers should be flexible"
      },
      "WALLETS()": {
        "notice": "total wallets on the protocol less vault, see Wallets enum, this can be basically any number"
      },
      "buy(uint8,uint256,address)": {
        "notice": "purchase Safe NFT for exact amount of USD"
      },
      "claimReward()": {
        "notice": "the function calculates the amount of the reward for the NFT holder and transfers it to the NFT holder"
      },
      "currentDistributionId()": {
        "notice": "gets the current distribution number"
      },
      "discountedPrice()": {
        "notice": "gets all discounted NFT prices in USD, for presale for all 4 weeks of the presale"
      },
      "distributeProfit(uint256)": {
        "notice": "distribute profit among the NFT holders, the function fixes the amount of the reward and the NFT holders and their shares at the moment of the call. It does not transfer the reward to the NFT holders, it just records the amount of the reward for each NFT holder."
      },
      "getBalanceTable(address)": {
        "notice": "gets NFT balance for all tiers"
      },
      "getFairPrice(uint8)": {
        "notice": "gets NFT fair price in USD"
      },
      "getFairPriceTable()": {
        "notice": "gets NFT price for all tiers in USD ///todo in SAFE!"
      },
      "getMyBalanceTable()": {
        "notice": "gets NFT balance for all tiers"
      },
      "getMyShareOfTreasury()": {
        "notice": "**Your NFTs (% Treasury) **is calculated in $ as a relation of total price of NFTs possessed by the $ amount of Investment Pool - including its SAFE and stable coin  components."
      },
      "getPendingRewards(address,uint256)": {
        "notice": "returns the amount of the reward share for the NFT holder"
      },
      "getPrice(uint8)": {
        "notice": "gets NFT price in USD"
      },
      "getPriceTable()": {
        "notice": "gets all NFT prices in USD, the original ones without discounts"
      },
      "getUnclaimedRewards()": {
        "notice": "undistributed profit amount in USD"
      },
      "togglePresale()": {
        "notice": "toggles presale status"
      }
    },
    "notice": "Safe Yields NFT token based on ERC1155 standard, id [0..3] represents one of the 4 tiers",
    "version": 1
  },
  "storageLayout": {
    "storage": [
      {
        "astId": 24,
        "contract": "contracts/SafeNFT.sol:SafeNFT",
        "label": "_roles",
        "offset": 0,
        "slot": "0",
        "type": "t_mapping(t_bytes32,t_struct(RoleData)19_storage)"
      },
      {
        "astId": 334,
        "contract": "contracts/SafeNFT.sol:SafeNFT",
        "label": "_roleMembers",
        "offset": 0,
        "slot": "1",
        "type": "t_mapping(t_bytes32,t_struct(AddressSet)4430_storage)"
      },
      {
        "astId": 6550,
        "contract": "contracts/SafeNFT.sol:SafeNFT",
        "label": "wallets",
        "offset": 0,
        "slot": "2",
        "type": "t_array(t_address)2_storage"
      },
      {
        "astId": 726,
        "contract": "contracts/SafeNFT.sol:SafeNFT",
        "label": "_balances",
        "offset": 0,
        "slot": "4",
        "type": "t_mapping(t_uint256,t_mapping(t_address,t_uint256))"
      },
      {
        "astId": 732,
        "contract": "contracts/SafeNFT.sol:SafeNFT",
        "label": "_operatorApprovals",
        "offset": 0,
        "slot": "5",
        "type": "t_mapping(t_address,t_mapping(t_address,t_bool))"
      },
      {
        "astId": 734,
        "contract": "contracts/SafeNFT.sol:SafeNFT",
        "label": "_uri",
        "offset": 0,
        "slot": "6",
        "type": "t_string_storage"
      },
      {
        "astId": 556,
        "contract": "contracts/SafeNFT.sol:SafeNFT",
        "label": "_paused",
        "offset": 0,
        "slot": "7",
        "type": "t_bool"
      },
      {
        "astId": 2213,
        "contract": "contracts/SafeNFT.sol:SafeNFT",
        "label": "_totalSupply",
        "offset": 0,
        "slot": "8",
        "type": "t_mapping(t_uint256,t_uint256)"
      },
      {
        "astId": 657,
        "contract": "contracts/SafeNFT.sol:SafeNFT",
        "label": "_status",
        "offset": 0,
        "slot": "9",
        "type": "t_uint256"
      },
      {
        "astId": 4768,
        "contract": "contracts/SafeNFT.sol:SafeNFT",
        "label": "price",
        "offset": 0,
        "slot": "10",
        "type": "t_array(t_uint256)4_storage"
      },
      {
        "astId": 4774,
        "contract": "contracts/SafeNFT.sol:SafeNFT",
        "label": "presalePrice",
        "offset": 0,
        "slot": "14",
        "type": "t_array(t_array(t_uint256)4_storage)4_storage"
      },
      {
        "astId": 4778,
        "contract": "contracts/SafeNFT.sol:SafeNFT",
        "label": "maxSupply",
        "offset": 0,
        "slot": "30",
        "type": "t_array(t_uint256)4_storage"
      },
      {
        "astId": 4782,
        "contract": "contracts/SafeNFT.sol:SafeNFT",
        "label": "tokenURIs",
        "offset": 0,
        "slot": "34",
        "type": "t_mapping(t_uint256,t_string_storage)"
      },
      {
        "astId": 4785,
        "contract": "contracts/SafeNFT.sol:SafeNFT",
        "label": "unused",
        "offset": 0,
        "slot": "35",
        "type": "t_array(t_address)dyn_storage"
      },
      {
        "astId": 4788,
        "contract": "contracts/SafeNFT.sol:SafeNFT",
        "label": "safeToken",
        "offset": 0,
        "slot": "36",
        "type": "t_contract(ISafeToken)6936"
      },
      {
        "astId": 4791,
        "contract": "contracts/SafeNFT.sol:SafeNFT",
        "label": "safeVault",
        "offset": 0,
        "slot": "37",
        "type": "t_contract(ISafeVault)6974"
      },
      {
        "astId": 4794,
        "contract": "contracts/SafeNFT.sol:SafeNFT",
        "label": "usd",
        "offset": 0,
        "slot": "38",
        "type": "t_contract(IERC20)2651"
      },
      {
        "astId": 4801,
        "contract": "contracts/SafeNFT.sol:SafeNFT",
        "label": "priceDistributionOnMint",
        "offset": 0,
        "slot": "39",
        "type": "t_array(t_uint256)2_storage"
      },
      {
        "astId": 4805,
        "contract": "contracts/SafeNFT.sol:SafeNFT",
        "label": "profitDistribution",
        "offset": 0,
        "slot": "41",
        "type": "t_array(t_uint256)2_storage"
      },
      {
        "astId": 4807,
        "contract": "contracts/SafeNFT.sol:SafeNFT",
        "label": "referralShareForNFTPurchase",
        "offset": 0,
        "slot": "43",
        "type": "t_uint256"
      },
      {
        "astId": 4809,
        "contract": "contracts/SafeNFT.sol:SafeNFT",
        "label": "preVaultWallet",
        "offset": 0,
        "slot": "44",
        "type": "t_address"
      },
      {
        "astId": 4811,
        "contract": "contracts/SafeNFT.sol:SafeNFT",
        "label": "presale",
        "offset": 20,
        "slot": "44",
        "type": "t_bool"
      },
      {
        "astId": 4819,
        "contract": "contracts/SafeNFT.sol:SafeNFT",
        "label": "soldPerPresaleWeek",
        "offset": 0,
        "slot": "45",
        "type": "t_mapping(t_address,t_mapping(t_uint256,t_mapping(t_uint256,t_uint256)))"
      },
      {
        "astId": 4823,
        "contract": "contracts/SafeNFT.sol:SafeNFT",
        "label": "presaleMaxSupply",
        "offset": 0,
        "slot": "46",
        "type": "t_array(t_uint256)4_storage"
      },
      {
        "astId": 4827,
        "contract": "contracts/SafeNFT.sol:SafeNFT",
        "label": "currentlySoldInPresale",
        "offset": 0,
        "slot": "50",
        "type": "t_array(t_uint256)4_storage"
      },
      {
        "astId": 4831,
        "contract": "contracts/SafeNFT.sol:SafeNFT",
        "label": "isTokenHolder",
        "offset": 0,
        "slot": "54",
        "type": "t_mapping(t_address,t_bool)"
      },
      {
        "astId": 4833,
        "contract": "contracts/SafeNFT.sol:SafeNFT",
        "label": "currentDistributionId",
        "offset": 0,
        "slot": "55",
        "type": "t_uint256"
      },
      {
        "astId": 4837,
        "contract": "contracts/SafeNFT.sol:SafeNFT",
        "label": "profitToDistribute",
        "offset": 0,
        "slot": "56",
        "type": "t_mapping(t_uint256,t_uint256)"
      },
      {
        "astId": 4841,
        "contract": "contracts/SafeNFT.sol:SafeNFT",
        "label": "safeToDistribute",
        "offset": 0,
        "slot": "57",
        "type": "t_mapping(t_uint256,t_uint256)"
      },
      {
        "astId": 4847,
        "contract": "contracts/SafeNFT.sol:SafeNFT",
        "label": "alreadyDistributed",
        "offset": 0,
        "slot": "58",
        "type": "t_mapping(t_uint256,t_mapping(t_address,t_uint256))"
      },
      {
        "astId": 4849,
        "contract": "contracts/SafeNFT.sol:SafeNFT",
        "label": "ambassador",
        "offset": 0,
        "slot": "59",
        "type": "t_address"
      },
      {
        "astId": 4857,
        "contract": "contracts/SafeNFT.sol:SafeNFT",
        "label": "snapshotOfOwnedTokens",
        "offset": 0,
        "slot": "60",
        "type": "t_mapping(t_uint256,t_mapping(t_address,t_array(t_uint256)4_storage))"
      },
      {
        "astId": 4863,
        "contract": "contracts/SafeNFT.sol:SafeNFT",
        "label": "snapshotOfTotalSupply",
        "offset": 0,
        "slot": "61",
        "type": "t_mapping(t_uint256,t_array(t_uint256)4_storage)"
      },
      {
        "astId": 4865,
        "contract": "contracts/SafeNFT.sol:SafeNFT",
        "label": "discountedPrice",
        "offset": 0,
        "slot": "62",
        "type": "t_uint256"
      },
      {
        "astId": 4869,
        "contract": "contracts/SafeNFT.sol:SafeNFT",
        "label": "soldInDiscountedSale",
        "offset": 0,
        "slot": "63",
        "type": "t_mapping(t_uint256,t_uint256)"
      },
      {
        "astId": 4873,
        "contract": "contracts/SafeNFT.sol:SafeNFT",
        "label": "alreadyDistributedTotal",
        "offset": 0,
        "slot": "64",
        "type": "t_mapping(t_uint256,t_uint256)"
      },
      {
        "astId": 4876,
        "contract": "contracts/SafeNFT.sol:SafeNFT",
        "label": "tokenHolders",
        "offset": 0,
        "slot": "65",
        "type": "t_array(t_address)dyn_storage"
      }
    ],
    "types": {
      "t_address": {
        "encoding": "inplace",
        "label": "address",
        "numberOfBytes": "20"
      },
      "t_array(t_address)2_storage": {
        "base": "t_address",
        "encoding": "inplace",
        "label": "address[2]",
        "numberOfBytes": "64"
      },
      "t_array(t_address)dyn_storage": {
        "base": "t_address",
        "encoding": "dynamic_array",
        "label": "address[]",
        "numberOfBytes": "32"
      },
      "t_array(t_array(t_uint256)4_storage)4_storage": {
        "base": "t_array(t_uint256)4_storage",
        "encoding": "inplace",
        "label": "uint256[4][4]",
        "numberOfBytes": "512"
      },
      "t_array(t_bytes32)dyn_storage": {
        "base": "t_bytes32",
        "encoding": "dynamic_array",
        "label": "bytes32[]",
        "numberOfBytes": "32"
      },
      "t_array(t_uint256)2_storage": {
        "base": "t_uint256",
        "encoding": "inplace",
        "label": "uint256[2]",
        "numberOfBytes": "64"
      },
      "t_array(t_uint256)4_storage": {
        "base": "t_uint256",
        "encoding": "inplace",
        "label": "uint256[4]",
        "numberOfBytes": "128"
      },
      "t_bool": {
        "encoding": "inplace",
        "label": "bool",
        "numberOfBytes": "1"
      },
      "t_bytes32": {
        "encoding": "inplace",
        "label": "bytes32",
        "numberOfBytes": "32"
      },
      "t_contract(IERC20)2651": {
        "encoding": "inplace",
        "label": "contract IERC20",
        "numberOfBytes": "20"
      },
      "t_contract(ISafeToken)6936": {
        "encoding": "inplace",
        "label": "contract ISafeToken",
        "numberOfBytes": "20"
      },
      "t_contract(ISafeVault)6974": {
        "encoding": "inplace",
        "label": "contract ISafeVault",
        "numberOfBytes": "20"
      },
      "t_mapping(t_address,t_array(t_uint256)4_storage)": {
        "encoding": "mapping",
        "key": "t_address",
        "label": "mapping(address => uint256[4])",
        "numberOfBytes": "32",
        "value": "t_array(t_uint256)4_storage"
      },
      "t_mapping(t_address,t_bool)": {
        "encoding": "mapping",
        "key": "t_address",
        "label": "mapping(address => bool)",
        "numberOfBytes": "32",
        "value": "t_bool"
      },
      "t_mapping(t_address,t_mapping(t_address,t_bool))": {
        "encoding": "mapping",
        "key": "t_address",
        "label": "mapping(address => mapping(address => bool))",
        "numberOfBytes": "32",
        "value": "t_mapping(t_address,t_bool)"
      },
      "t_mapping(t_address,t_mapping(t_uint256,t_mapping(t_uint256,t_uint256)))": {
        "encoding": "mapping",
        "key": "t_address",
        "label": "mapping(address => mapping(uint256 => mapping(uint256 => uint256)))",
        "numberOfBytes": "32",
        "value": "t_mapping(t_uint256,t_mapping(t_uint256,t_uint256))"
      },
      "t_mapping(t_address,t_uint256)": {
        "encoding": "mapping",
        "key": "t_address",
        "label": "mapping(address => uint256)",
        "numberOfBytes": "32",
        "value": "t_uint256"
      },
      "t_mapping(t_bytes32,t_struct(AddressSet)4430_storage)": {
        "encoding": "mapping",
        "key": "t_bytes32",
        "label": "mapping(bytes32 => struct EnumerableSet.AddressSet)",
        "numberOfBytes": "32",
        "value": "t_struct(AddressSet)4430_storage"
      },
      "t_mapping(t_bytes32,t_struct(RoleData)19_storage)": {
        "encoding": "mapping",
        "key": "t_bytes32",
        "label": "mapping(bytes32 => struct AccessControl.RoleData)",
        "numberOfBytes": "32",
        "value": "t_struct(RoleData)19_storage"
      },
      "t_mapping(t_bytes32,t_uint256)": {
        "encoding": "mapping",
        "key": "t_bytes32",
        "label": "mapping(bytes32 => uint256)",
        "numberOfBytes": "32",
        "value": "t_uint256"
      },
      "t_mapping(t_uint256,t_array(t_uint256)4_storage)": {
        "encoding": "mapping",
        "key": "t_uint256",
        "label": "mapping(uint256 => uint256[4])",
        "numberOfBytes": "32",
        "value": "t_array(t_uint256)4_storage"
      },
      "t_mapping(t_uint256,t_mapping(t_address,t_array(t_uint256)4_storage))": {
        "encoding": "mapping",
        "key": "t_uint256",
        "label": "mapping(uint256 => mapping(address => uint256[4]))",
        "numberOfBytes": "32",
        "value": "t_mapping(t_address,t_array(t_uint256)4_storage)"
      },
      "t_mapping(t_uint256,t_mapping(t_address,t_uint256))": {
        "encoding": "mapping",
        "key": "t_uint256",
        "label": "mapping(uint256 => mapping(address => uint256))",
        "numberOfBytes": "32",
        "value": "t_mapping(t_address,t_uint256)"
      },
      "t_mapping(t_uint256,t_mapping(t_uint256,t_uint256))": {
        "encoding": "mapping",
        "key": "t_uint256",
        "label": "mapping(uint256 => mapping(uint256 => uint256))",
        "numberOfBytes": "32",
        "value": "t_mapping(t_uint256,t_uint256)"
      },
      "t_mapping(t_uint256,t_string_storage)": {
        "encoding": "mapping",
        "key": "t_uint256",
        "label": "mapping(uint256 => string)",
        "numberOfBytes": "32",
        "value": "t_string_storage"
      },
      "t_mapping(t_uint256,t_uint256)": {
        "encoding": "mapping",
        "key": "t_uint256",
        "label": "mapping(uint256 => uint256)",
        "numberOfBytes": "32",
        "value": "t_uint256"
      },
      "t_string_storage": {
        "encoding": "bytes",
        "label": "string",
        "numberOfBytes": "32"
      },
      "t_struct(AddressSet)4430_storage": {
        "encoding": "inplace",
        "label": "struct EnumerableSet.AddressSet",
        "members": [
          {
            "astId": 4429,
            "contract": "contracts/SafeNFT.sol:SafeNFT",
            "label": "_inner",
            "offset": 0,
            "slot": "0",
            "type": "t_struct(Set)4115_storage"
          }
        ],
        "numberOfBytes": "64"
      },
      "t_struct(RoleData)19_storage": {
        "encoding": "inplace",
        "label": "struct AccessControl.RoleData",
        "members": [
          {
            "astId": 16,
            "contract": "contracts/SafeNFT.sol:SafeNFT",
            "label": "members",
            "offset": 0,
            "slot": "0",
            "type": "t_mapping(t_address,t_bool)"
          },
          {
            "astId": 18,
            "contract": "contracts/SafeNFT.sol:SafeNFT",
            "label": "adminRole",
            "offset": 0,
            "slot": "1",
            "type": "t_bytes32"
          }
        ],
        "numberOfBytes": "64"
      },
      "t_struct(Set)4115_storage": {
        "encoding": "inplace",
        "label": "struct EnumerableSet.Set",
        "members": [
          {
            "astId": 4110,
            "contract": "contracts/SafeNFT.sol:SafeNFT",
            "label": "_values",
            "offset": 0,
            "slot": "0",
            "type": "t_array(t_bytes32)dyn_storage"
          },
          {
            "astId": 4114,
            "contract": "contracts/SafeNFT.sol:SafeNFT",
            "label": "_indexes",
            "offset": 0,
            "slot": "1",
            "type": "t_mapping(t_bytes32,t_uint256)"
          }
        ],
        "numberOfBytes": "64"
      },
      "t_uint256": {
        "encoding": "inplace",
        "label": "uint256",
        "numberOfBytes": "32"
      }
    }
  }
}