{
  "address": "0xEB018F4afFdfA2CC2D64352Aff4bCC35e2AFdc1f",
  "abi": [
    {
      "inputs": [
        {
          "internalType": "address",
          "name": "_usdToken",
          "type": "address"
        },
        {
          "internalType": "address",
          "name": "_safeVault",
          "type": "address"
        },
        {
          "internalType": "address[2]",
          "name": "_wallets",
          "type": "address[2]"
        },
        {
          "internalType": "uint256[2]",
          "name": "_taxDistributionOnMintAndBurn",
          "type": "uint256[2]"
        },
        {
          "internalType": "uint256",
          "name": "_buyTaxPercent",
          "type": "uint256"
        },
        {
          "internalType": "uint256",
          "name": "_sellTaxPercent",
          "type": "uint256"
        }
      ],
      "stateMutability": "nonpayable",
      "type": "constructor"
    },
    {
      "anonymous": false,
      "inputs": [
        {
          "indexed": true,
          "internalType": "address",
          "name": "owner",
          "type": "address"
        },
        {
          "indexed": true,
          "internalType": "address",
          "name": "spender",
          "type": "address"
        },
        {
          "indexed": false,
          "internalType": "uint256",
          "name": "value",
          "type": "uint256"
        }
      ],
      "name": "Approval",
      "type": "event"
    },
    {
      "anonymous": false,
      "inputs": [
        {
          "indexed": false,
          "internalType": "address",
          "name": "account",
          "type": "address"
        }
      ],
      "name": "Paused",
      "type": "event"
    },
    {
      "anonymous": false,
      "inputs": [
        {
          "indexed": true,
          "internalType": "address",
          "name": "from",
          "type": "address"
        },
        {
          "indexed": true,
          "internalType": "address",
          "name": "to",
          "type": "address"
        },
        {
          "indexed": false,
          "internalType": "uint256",
          "name": "value",
          "type": "uint256"
        }
      ],
      "name": "Transfer",
      "type": "event"
    },
    {
      "anonymous": false,
      "inputs": [
        {
          "indexed": false,
          "internalType": "address",
          "name": "account",
          "type": "address"
        }
      ],
      "name": "Unpaused",
      "type": "event"
    },
    {
      "inputs": [],
      "name": "BUY_TAX_PERCENT",
      "outputs": [
        {
          "internalType": "uint256",
          "name": "",
          "type": "uint256"
        }
      ],
      "stateMutability": "view",
      "type": "function"
    },
    {
      "inputs": [],
      "name": "HUNDRED_PERCENT",
      "outputs": [
        {
          "internalType": "uint256",
          "name": "",
          "type": "uint256"
        }
      ],
      "stateMutability": "view",
      "type": "function"
    },
    {
      "inputs": [],
      "name": "SELL_TAX_PERCENT",
      "outputs": [
        {
          "internalType": "uint256",
          "name": "",
          "type": "uint256"
        }
      ],
      "stateMutability": "view",
      "type": "function"
    },
    {
      "inputs": [],
      "name": "WALLETS",
      "outputs": [
        {
          "internalType": "uint256",
          "name": "",
          "type": "uint256"
        }
      ],
      "stateMutability": "view",
      "type": "function"
    },
    {
      "inputs": [
        {
          "internalType": "address",
          "name": "",
          "type": "address"
        },
        {
          "internalType": "address",
          "name": "",
          "type": "address"
        }
      ],
      "name": "allowance",
      "outputs": [
        {
          "internalType": "uint256",
          "name": "",
          "type": "uint256"
        }
      ],
      "stateMutability": "view",
      "type": "function"
    },
    {
      "inputs": [
        {
          "internalType": "address",
          "name": "usr",
          "type": "address"
        },
        {
          "internalType": "uint256",
          "name": "amt",
          "type": "uint256"
        }
      ],
      "name": "approve",
      "outputs": [
        {
          "internalType": "bool",
          "name": "",
          "type": "bool"
        }
      ],
      "stateMutability": "nonpayable",
      "type": "function"
    },
    {
      "inputs": [
        {
          "internalType": "address",
          "name": "",
          "type": "address"
        }
      ],
      "name": "balanceOf",
      "outputs": [
        {
          "internalType": "uint256",
          "name": "",
          "type": "uint256"
        }
      ],
      "stateMutability": "view",
      "type": "function"
    },
    {
      "inputs": [
        {
          "internalType": "address",
          "name": "_user",
          "type": "address"
        },
        {
          "internalType": "uint256",
          "name": "_amount",
          "type": "uint256"
        }
      ],
      "name": "burn",
      "outputs": [],
      "stateMutability": "nonpayable",
      "type": "function"
    },
    {
      "inputs": [
        {
          "internalType": "uint256",
          "name": "_safeTokensToBuy",
          "type": "uint256"
        }
      ],
      "name": "buyExactAmountOfSafe",
      "outputs": [],
      "stateMutability": "nonpayable",
      "type": "function"
    },
    {
      "inputs": [
        {
          "internalType": "uint256",
          "name": "_usdToSpend",
          "type": "uint256"
        }
      ],
      "name": "buySafeForExactAmountOfUSD",
      "outputs": [
        {
          "internalType": "uint256",
          "name": "",
          "type": "uint256"
        }
      ],
      "stateMutability": "nonpayable",
      "type": "function"
    },
    {
      "inputs": [],
      "name": "decimals",
      "outputs": [
        {
          "internalType": "uint8",
          "name": "",
          "type": "uint8"
        }
      ],
      "stateMutability": "view",
      "type": "function"
    },
    {
      "inputs": [],
      "name": "getUsdReserves",
      "outputs": [
        {
          "internalType": "uint256",
          "name": "",
          "type": "uint256"
        }
      ],
      "stateMutability": "view",
      "type": "function"
    },
    {
      "inputs": [],
      "name": "getWallets",
      "outputs": [
        {
          "internalType": "address[2]",
          "name": "",
          "type": "address[2]"
        }
      ],
      "stateMutability": "view",
      "type": "function"
    },
    {
      "inputs": [
        {
          "internalType": "address",
          "name": "_usdToken",
          "type": "address"
        },
        {
          "internalType": "address",
          "name": "_safeVault",
          "type": "address"
        },
        {
          "internalType": "address[2]",
          "name": "_wallets",
          "type": "address[2]"
        },
        {
          "internalType": "uint256[2]",
          "name": "_taxDistributionOnMintAndBurn",
          "type": "uint256[2]"
        },
        {
          "internalType": "uint256",
          "name": "_buyTaxPercent",
          "type": "uint256"
        },
        {
          "internalType": "uint256",
          "name": "_sellTaxPercent",
          "type": "uint256"
        }
      ],
      "name": "initialize",
      "outputs": [],
      "stateMutability": "nonpayable",
      "type": "function"
    },
    {
      "inputs": [
        {
          "internalType": "address",
          "name": "_user",
          "type": "address"
        },
        {
          "internalType": "uint256",
          "name": "_amount",
          "type": "uint256"
        }
      ],
      "name": "mint",
      "outputs": [],
      "stateMutability": "nonpayable",
      "type": "function"
    },
    {
      "inputs": [],
      "name": "name",
      "outputs": [
        {
          "internalType": "string",
          "name": "",
          "type": "string"
        }
      ],
      "stateMutability": "view",
      "type": "function"
    },
    {
      "inputs": [],
      "name": "pause",
      "outputs": [],
      "stateMutability": "nonpayable",
      "type": "function"
    },
    {
      "inputs": [],
      "name": "paused",
      "outputs": [
        {
          "internalType": "bool",
          "name": "",
          "type": "bool"
        }
      ],
      "stateMutability": "view",
      "type": "function"
    },
    {
      "inputs": [],
      "name": "price",
      "outputs": [
        {
          "internalType": "uint256",
          "name": "",
          "type": "uint256"
        }
      ],
      "stateMutability": "view",
      "type": "function"
    },
    {
      "inputs": [],
      "name": "safeVault",
      "outputs": [
        {
          "internalType": "contract ISafeVault",
          "name": "",
          "type": "address"
        }
      ],
      "stateMutability": "view",
      "type": "function"
    },
    {
      "inputs": [
        {
          "internalType": "uint256",
          "name": "_safeTokensToSell",
          "type": "uint256"
        }
      ],
      "name": "sellExactAmountOfSafe",
      "outputs": [
        {
          "internalType": "uint256",
          "name": "",
          "type": "uint256"
        }
      ],
      "stateMutability": "nonpayable",
      "type": "function"
    },
    {
      "inputs": [
        {
          "internalType": "uint256",
          "name": "_usdToPayToUser",
          "type": "uint256"
        }
      ],
      "name": "sellSafeForExactAmountOfUSD",
      "outputs": [],
      "stateMutability": "nonpayable",
      "type": "function"
    },
    {
      "inputs": [],
      "name": "symbol",
      "outputs": [
        {
          "internalType": "string",
          "name": "",
          "type": "string"
        }
      ],
      "stateMutability": "view",
      "type": "function"
    },
    {
      "inputs": [
        {
          "internalType": "uint256",
          "name": "",
          "type": "uint256"
        }
      ],
      "name": "taxDistributionOnMintAndBurn",
      "outputs": [
        {
          "internalType": "uint256",
          "name": "",
          "type": "uint256"
        }
      ],
      "stateMutability": "view",
      "type": "function"
    },
    {
      "inputs": [],
      "name": "totalSupply",
      "outputs": [
        {
          "internalType": "uint256",
          "name": "",
          "type": "uint256"
        }
      ],
      "stateMutability": "view",
      "type": "function"
    },
    {
      "inputs": [
        {
          "internalType": "address",
          "name": "dst",
          "type": "address"
        },
        {
          "internalType": "uint256",
          "name": "amt",
          "type": "uint256"
        }
      ],
      "name": "transfer",
      "outputs": [
        {
          "internalType": "bool",
          "name": "",
          "type": "bool"
        }
      ],
      "stateMutability": "nonpayable",
      "type": "function"
    },
    {
      "inputs": [
        {
          "internalType": "address",
          "name": "src",
          "type": "address"
        },
        {
          "internalType": "address",
          "name": "dst",
          "type": "address"
        },
        {
          "internalType": "uint256",
          "name": "amt",
          "type": "uint256"
        }
      ],
      "name": "transferFrom",
      "outputs": [
        {
          "internalType": "bool",
          "name": "",
          "type": "bool"
        }
      ],
      "stateMutability": "nonpayable",
      "type": "function"
    },
    {
      "inputs": [],
      "name": "unpause",
      "outputs": [],
      "stateMutability": "nonpayable",
      "type": "function"
    },
    {
      "inputs": [],
      "name": "usd",
      "outputs": [
        {
          "internalType": "contract IERC20",
          "name": "",
          "type": "address"
        }
      ],
      "stateMutability": "view",
      "type": "function"
    },
    {
      "inputs": [],
      "name": "version",
      "outputs": [
        {
          "internalType": "string",
          "name": "",
          "type": "string"
        }
      ],
      "stateMutability": "view",
      "type": "function"
    },
    {
      "inputs": [
        {
          "internalType": "uint256",
          "name": "",
          "type": "uint256"
        }
      ],
      "name": "wallets",
      "outputs": [
        {
          "internalType": "address",
          "name": "",
          "type": "address"
        }
      ],
      "stateMutability": "view",
      "type": "function"
    },
    {
      "inputs": [
        {
          "internalType": "address",
          "name": "guy",
          "type": "address"
        }
      ],
      "name": "whiteListRemove",
      "outputs": [],
      "stateMutability": "nonpayable",
      "type": "function"
    },
    {
      "inputs": [
        {
          "internalType": "address",
          "name": "",
          "type": "address"
        }
      ],
      "name": "whitelist",
      "outputs": [
        {
          "internalType": "bool",
          "name": "",
          "type": "bool"
        }
      ],
      "stateMutability": "view",
      "type": "function"
    },
    {
      "inputs": [
        {
          "internalType": "address",
          "name": "guy",
          "type": "address"
        }
      ],
      "name": "whitelistAdd",
      "outputs": [],
      "stateMutability": "nonpayable",
      "type": "function"
    }
  ],
  "transactionHash": "0xa2d700d5e48c8dd16325de9101846e64d7d9d0a4b71311ae3ed008f48e151664",
  "args": [
    "0xFF970A61A04b1cA14834A43f5dE4533eBDDB5CC8",
    "0x1A7E5071E623F47BC4A64b8BB2D4E57b9dBcDbB2",
    [
      "0xb7eCbD7262a9250A44EaA040A2B2a184536F3861",
      "0xca086A28753a0826733D53A7e674011307e027d8"
    ],
    [
      30000000,
      20000000
    ],
    250000,
    250000
  ],
  "numDeployments": 5,
  "solcInputHash": "1945f90ec01eb4ba30028a6b7477a6ac",
  "bytecode": "0x60806040523480156200001157600080fd5b506040516200252538038062002525833981016040819052620000349162000317565b6002805460ff191690556001600355620000538686868686866200005f565b505050505050620003fd565b600062000079600080516020620025058339815191525490565b90506001600160a01b038116620000a9576001600160a01b036000805160206200250583398151915255620000bf565b336001600160a01b03821614620000bf57600080fd5b336000908152600560205260409020805460ff19166001179055600b80546001600160a01b038881166001600160a01b031992831617909255600a8054928a16929091169190911790556200011485620001b5565b62000123600c856002620001c8565b5060088390556009829055600a54600b5460405163095ea7b360e01b81526001600160a01b039182166004820152600019602482015291169063095ea7b3906044016020604051808303816000875af115801562000185573d6000803e3d6000fd5b505050506040513d601f19601f82011682018060405250810190620001ab9190620003d2565b5050505050505050565b620001c460008260026200020b565b5050565b8260028101928215620001f9579160200282015b82811115620001f9578251825591602001919060010190620001dc565b506200020792915062000256565b5090565b8260028101928215620001f9579160200282015b82811115620001f957825182546001600160a01b0319166001600160a01b039091161782556020909201916001909101906200021f565b5b8082111562000207576000815560010162000257565b80516001600160a01b03811681146200028557600080fd5b919050565b604080519081016001600160401b0381118282101715620002bb57634e487b7160e01b600052604160045260246000fd5b60405290565b600082601f830112620002d357600080fd5b620002dd6200028a565b806040840185811115620002f057600080fd5b845b818110156200030c578051845260209384019301620002f2565b509095945050505050565b60008060008060008061010087890312156200033257600080fd5b6200033d876200026d565b955060206200034e8189016200026d565b955088605f8901126200036057600080fd5b6200036a6200028a565b8060808a018b8111156200037d57600080fd5b60408b015b81811015620003a45762000396816200026d565b845292840192840162000382565b50819750620003b48c82620002c1565b96505050505060c0870151915060e087015190509295509295509295565b600060208284031215620003e557600080fd5b81518015158114620003f657600080fd5b9392505050565b6120f8806200040d6000396000f3fe608060405234801561001057600080fd5b50600436106102065760003560e01c80638a38bcbc1161011a578063a634755e116100ad578063d63a6ccd1161007c578063d63a6ccd14610479578063db7a46051461048c578063dd62ed3e146104a1578063deef94de146104cc578063f7e0ba5f146104df57600080fd5b8063a634755e14610437578063a9059cbb1461044a578063b416d1a31461045d578063ba69c3581461046657600080fd5b80639b19251a116100e95780639b19251a146103f15780639baaa20f146104145780639dc29fac1461041c578063a035b1fe1461042f57600080fd5b80638a38bcbc146103aa5780638ce8e9d7146103bd5780638d3bd55b146103c657806395d89b41146103ce57600080fd5b8063524fa7b91161019d57806370a082311161016c57806370a08231146103315780637ad71f72146103515780638456cb591461037c578063889a52401461038457806389d1cabc1461039757600080fd5b8063524fa7b9146102e857806354fd4d50146102fb5780635c975abb1461031b5780636ed93dd01461032657600080fd5b8063313ce567116101d9578063313ce5671461029e5780633f4ba83a146102b857806340c10f19146102c257806349da8288146102d557600080fd5b806306fdde031461020b578063095ea7b31461025157806318160ddd1461027457806323b872dd1461028b575b600080fd5b61023b6040518060400160405280601181526020017029b0b332902cb4b2b63239902a37b5b2b760791b81525081565b6040516102489190611cc4565b60405180910390f35b61026461025f366004611cee565b6104f2565b6040519015158152602001610248565b61027d60045481565b604051908152602001610248565b610264610299366004611d18565b61055a565b6102a6600681565b60405160ff9091168152602001610248565b6102c06108f7565b005b6102c06102d0366004611cee565b610941565b6102c06102e3366004611ddb565b61098f565b6102c06102f6366004611e87565b610ad8565b61023b604051806040016040528060018152602001603160f81b81525081565b60025460ff16610264565b61027d6305f5e10081565b61027d61033f366004611e87565b60066020526000908152604090205481565b61036461035f366004611ea2565b610b3c565b6040516001600160a01b039091168152602001610248565b6102c0610b5c565b61027d610392366004611ea2565b610ba4565b6102c06103a5366004611ea2565b610bbb565b6102c06103b8366004611e87565b610dc4565b61027d60095481565b61027d600281565b61023b604051806040016040528060048152602001635341464560e01b81525081565b6102646103ff366004611e87565b60056020526000908152604090205460ff1681565b61027d610e25565b6102c061042a366004611cee565b610e98565b61027d610ee2565b6102c0610445366004611ea2565b610f18565b610264610458366004611cee565b61111b565b61027d60085481565b61027d610474366004611ea2565b611128565b600a54610364906001600160a01b031681565b610494611394565b6040516102489190611ebb565b61027d6104af366004611ef5565b600760209081526000928352604080842090915290825290205481565b600b54610364906001600160a01b031681565b61027d6104ed366004611ea2565b6113d8565b3360008181526007602090815260408083206001600160a01b03871680855290835281842086905590518581529293909290917f8c5be1e5ebec7d5bd14f71427d1e84f3dd0314c0f7b2291e5b200ac8c7c3b925910160405180910390a35060015b92915050565b6000610564611638565b6000805160206120a383398151915254339061058260025460ff1690565b156105c75760405162461bcd60e51b815260206004820152601060248201526f14d85999551bdad95b8e9c185d5cd95960821b60448201526064015b60405180910390fd5b6001600160a01b03861660009081526005602052604090205460ff1615156001148061061057506001600160a01b03851660009081526005602052604090205460ff1615156001145b8061062c5750816001600160a01b0316816001600160a01b0316145b6106785760405162461bcd60e51b815260206004820152601e60248201527f53616665546f6b656e3a207472616e736665722d70726f68696269746564000060448201526064016105be565b6001600160a01b0386166000908152600660205260409020548411156106e05760405162461bcd60e51b815260206004820152601e60248201527f53616665546f6b656e3a696e73756666696369656e742d62616c616e6365000060448201526064016105be565b6001600160a01b0385161580159061070057506001600160a01b03861615155b61074c5760405162461bcd60e51b815260206004820152601660248201527f53616665546f6b656e3a7a65726f2d616464726573730000000000000000000060448201526064016105be565b816001600160a01b0316866001600160a01b0316141580156107805750806001600160a01b0316826001600160a01b031614155b15610837576001600160a01b038087166000908152600760209081526040808320938616835292905220548411156107fa5760405162461bcd60e51b815260206004820181905260248201527f53616665546f6b656e3a696e73756666696369656e742d616c6c6f77616e636560448201526064016105be565b6001600160a01b03808716600090815260076020908152604080832093861683529290529081208054869290610831908490611f3e565b90915550505b6001600160a01b0386166000908152600660205260408120805486929061085f908490611f3e565b90915550506001600160a01b0385166000908152600660205260408120805486929061088c908490611f51565b92505081905550846001600160a01b0316866001600160a01b03167fddf252ad1be2c89b69c2b068fc378daa952ba7f163c4a11628f55a4df523b3ef866040516108d891815260200190565b60405180910390a36001925050506108f06001600355565b9392505050565b6000805160206120a3833981519152546001600160a01b0316336001600160a01b0316146109375760405162461bcd60e51b81526004016105be90611f64565b61093f611691565b565b6000805160206120a3833981519152546001600160a01b0316336001600160a01b0316146109815760405162461bcd60e51b81526004016105be90611f64565b61098b82826116e3565b5050565b60006109a76000805160206120a38339815191525490565b90506001600160a01b0381166109d4576001600160a01b036000805160206120a3833981519152556109e9565b336001600160a01b038216146109e957600080fd5b336000908152600560205260409020805460ff19166001179055600b80546001600160a01b038881166001600160a01b031992831617909255600a8054928a1692909116919091179055610a3c8561176e565b610a49600c856002611bc5565b5060088390556009829055600a54600b5460405163095ea7b360e01b81526001600160a01b039182166004820152600019602482015291169063095ea7b3906044016020604051808303816000875af1158015610aaa573d6000803e3d6000fd5b505050506040513d601f19601f82011682018060405250810190610ace9190611f8c565b5050505050505050565b6000805160206120a3833981519152546001600160a01b0316336001600160a01b031614610b185760405162461bcd60e51b81526004016105be90611f64565b6001600160a01b03166000908152600560205260409020805460ff19166001179055565b60008160028110610b4c57600080fd5b01546001600160a01b0316905081565b6000805160206120a3833981519152546001600160a01b0316336001600160a01b031614610b9c5760405162461bcd60e51b81526004016105be90611f64565b61093f61177b565b600c8160028110610bb457600080fd5b0154905081565b610bc3611638565b60008111610be35760405162461bcd60e51b81526004016105be90611fae565b6000620f4240610bf1610ee2565b610bfb9084611ff6565b610c05919061200d565b905060006305f5e10060085483610c1c9190611ff6565b610c26919061200d565b90506000610c348284611f51565b9050610c4033856116e3565b600a546000906001600160a01b03166323b872dd336040516001600160e01b031960e084901b1681526001600160a01b039091166004820152306024820152604481018590526064016020604051808303816000875af1158015610ca8573d6000803e3d6000fd5b505050506040513d601f19601f82011682018060405250810190610ccc9190611f8c565b905080610d175760405162461bcd60e51b815260206004820152601960248201527814d85999551bdad95b8e9d1c985b9cd9995c8b59985a5b1959603a1b60448201526064016105be565b600a54600090610d32906001600160a01b031685600c6117b8565b90506000610d408285611f3e565b1115610db257600b546001600160a01b031663b6b55f25610d618386611f3e565b6040518263ffffffff1660e01b8152600401610d7f91815260200190565b600060405180830381600087803b158015610d9957600080fd5b505af1158015610dad573d6000803e3d6000fd5b505050505b5050505050610dc16001600355565b50565b6000805160206120a3833981519152546001600160a01b0316336001600160a01b031614610e045760405162461bcd60e51b81526004016105be90611f64565b6001600160a01b03166000908152600560205260409020805460ff19169055565b600b54604080516318160ddd60e01b815290516000926001600160a01b0316916318160ddd9160048083019260209291908290030181865afa158015610e6f573d6000803e3d6000fd5b505050506040513d601f19601f82011682018060405250810190610e93919061202f565b905090565b6000805160206120a3833981519152546001600160a01b0316336001600160a01b031614610ed85760405162461bcd60e51b81526004016105be90611f64565b61098b82826118b6565b6000600454600014610f1057600454610ef9610e25565b610f0690620f4240611ff6565b610e93919061200d565b50620f424090565b610f20611638565b60008111610f405760405162461bcd60e51b81526004016105be90611fae565b60006305f5e10060095483610f559190611ff6565b610f5f919061200d565b90506000610f6d8284611f51565b90506000610f79610ee2565b610f8683620f4240611ff6565b610f90919061200d565b9050610f9c33826118b6565b600b546001600160a01b031663abe7f1ab336040516001600160e01b031960e084901b1681526001600160a01b03909116600482015260248101879052604401600060405180830381600087803b158015610ff657600080fd5b505af115801561100a573d6000803e3d6000fd5b5050600b5460405163abe7f1ab60e01b8152306004820152602481018790526001600160a01b03909116925063abe7f1ab9150604401600060405180830381600087803b15801561105a57600080fd5b505af115801561106e573d6000803e3d6000fd5b5050600a546000925061108d91506001600160a01b031685600c6117b8565b9050600061109b8286611f3e565b111561110d57600b546001600160a01b031663b6b55f256110bc8387611f3e565b6040518263ffffffff1660e01b81526004016110da91815260200190565b600060405180830381600087803b1580156110f457600080fd5b505af1158015611108573d6000803e3d6000fd5b505050505b50505050610dc16001600355565b60006108f033848461055a565b6000611132611638565b600082116111525760405162461bcd60e51b81526004016105be90611fae565b6000620f4240611160610ee2565b61116a9085611ff6565b611174919061200d565b905060006305f5e1006009548361118b9190611ff6565b611195919061200d565b905060006111a38284611f3e565b90506111d96040518060400160405280600c81526020016b5f6d736753656e646572282960a01b8152506111d43390565b611ad0565b6112056040518060400160405280600a81526020016936b9b39739b2b73232b960b11b81525033611ad0565b61120f33866118b6565b600b546001600160a01b031663abe7f1ab336040516001600160e01b031960e084901b1681526001600160a01b03909116600482015260248101849052604401600060405180830381600087803b15801561126957600080fd5b505af115801561127d573d6000803e3d6000fd5b5050600b5460405163abe7f1ab60e01b8152306004820152602481018690526001600160a01b03909116925063abe7f1ab9150604401600060405180830381600087803b1580156112cd57600080fd5b505af11580156112e1573d6000803e3d6000fd5b5050600a546000925061130091506001600160a01b031684600c6117b8565b9050600061130e8285611f3e565b111561138057600b546001600160a01b031663b6b55f2561132f8386611f3e565b6040518263ffffffff1660e01b815260040161134d91815260200190565b600060405180830381600087803b15801561136757600080fd5b505af115801561137b573d6000803e3d6000fd5b505050505b509250505061138f6001600355565b919050565b61139c611c03565b60408051808201918290529060009060029082845b81546001600160a01b031681526001909101906020018083116113b1575050505050905090565b60006113e2611638565b6114116040518060400160405280600c81526020016b5f6d736753656e646572282960a01b8152506111d43390565b6114406040518060400160405280600d81526020016c6164647265737328746869732960981b81525030611ad0565b600082116114605760405162461bcd60e51b81526004016105be90611fae565b60006305f5e100600854846114759190611ff6565b61147f919061200d565b9050600061148d8285611f3e565b90506000611499610ee2565b6114a683620f4240611ff6565b6114b0919061200d565b90506114bc33826116e3565b600a546000906001600160a01b03166323b872dd336040516001600160e01b031960e084901b1681526001600160a01b039091166004820152306024820152604481018990526064016020604051808303816000875af1158015611524573d6000803e3d6000fd5b505050506040513d601f19601f820116820180604052508101906115489190611f8c565b9050806115935760405162461bcd60e51b815260206004820152601960248201527814d85999551bdad95b8e9d1c985b9cd9995c8b59985a5b1959603a1b60448201526064016105be565b600a546000906115ae906001600160a01b031686600c6117b8565b600b549091506001600160a01b031663b6b55f25826115cd8888611f51565b6115d79190611f3e565b6040518263ffffffff1660e01b81526004016115f591815260200190565b600060405180830381600087803b15801561160f57600080fd5b505af1158015611623573d6000803e3d6000fd5b509497505050505050505061138f6001600355565b60026003540361168a5760405162461bcd60e51b815260206004820152601f60248201527f5265656e7472616e637947756172643a207265656e7472616e742063616c6c0060448201526064016105be565b6002600355565b611699611b15565b6002805460ff191690557f5db9ee0a495bf2e6ff9c91a7834c1ba4fdd244a5e8aa4e537bd38aeae4b073aa335b6040516001600160a01b03909116815260200160405180910390a1565b6001600160a01b0382166000908152600660205260408120805483929061170b908490611f51565b9250508190555080600460008282546117249190611f51565b90915550506040518181526001600160a01b038316906000907fddf252ad1be2c89b69c2b068fc378daa952ba7f163c4a11628f55a4df523b3ef9060200160405180910390a35050565b61098b6000826002611c21565b611783611b5e565b6002805460ff191660011790557f62e78cea01bee320cd4e420270b5ea74000d11b0c9f74754ebdbfc544b05a2586116c63390565b600080805b60028110156118ad5760006305f5e1008583600281106117df576117df612048565b01546117eb9088611ff6565b6117f5919061200d565b9050866001600160a01b031663a9059cbb6000846002811061181957611819612048565b015460405160e083901b6001600160e01b03191681526001600160a01b039091166004820152602481018490526044016020604051808303816000875af1158015611868573d6000803e3d6000fd5b505050506040513d601f19601f8201168201806040525081019061188c9190611f8c565b506118978184611f51565b92505080806118a59061205e565b9150506117bd565b50949350505050565b6001600160a01b03821660009081526006602052604090205481111561191e5760405162461bcd60e51b815260206004820152601e60248201527f53616665546f6b656e3a696e73756666696369656e742d62616c616e6365000060448201526064016105be565b6000805160206120a38339815191525433906001600160a01b0316811480159061195a5750806001600160a01b0316836001600160a01b031614155b801561198d57506001600160a01b0380841660009081526007602090815260408083209385168352929052205460001914155b15611a44576001600160a01b03808416600090815260076020908152604080832093851683529290522054821115611a075760405162461bcd60e51b815260206004820181905260248201527f53616665546f6b656e3a696e73756666696369656e742d616c6c6f77616e636560448201526064016105be565b6001600160a01b03808416600090815260076020908152604080832093851683529290529081208054849290611a3e908490611f3e565b90915550505b6001600160a01b03831660009081526006602052604081208054849290611a6c908490611f3e565b925050819055508160046000828254611a859190611f3e565b90915550506040518281526000906001600160a01b038516907fddf252ad1be2c89b69c2b068fc378daa952ba7f163c4a11628f55a4df523b3ef9060200160405180910390a3505050565b61098b8282604051602401611ae6929190612077565b60408051601f198184030181529190526020810180516001600160e01b031663319af33360e01b179052611ba4565b60025460ff1661093f5760405162461bcd60e51b815260206004820152601460248201527314185d5cd8589b194e881b9bdd081c185d5cd95960621b60448201526064016105be565b60025460ff161561093f5760405162461bcd60e51b815260206004820152601060248201526f14185d5cd8589b194e881c185d5cd95960821b60448201526064016105be565b80516a636f6e736f6c652e6c6f67602083016000808483855afa5050505050565b8260028101928215611bf3579160200282015b82811115611bf3578251825591602001919060010190611bd8565b50611bff929150611c69565b5090565b60405180604001604052806002906020820280368337509192915050565b8260028101928215611bf3579160200282015b82811115611bf357825182546001600160a01b0319166001600160a01b03909116178255602090920191600190910190611c34565b5b80821115611bff5760008155600101611c6a565b6000815180845260005b81811015611ca457602081850181015186830182015201611c88565b506000602082860101526020601f19601f83011685010191505092915050565b6020815260006108f06020830184611c7e565b80356001600160a01b038116811461138f57600080fd5b60008060408385031215611d0157600080fd5b611d0a83611cd7565b946020939093013593505050565b600080600060608486031215611d2d57600080fd5b611d3684611cd7565b9250611d4460208501611cd7565b9150604084013590509250925092565b6040805190810167ffffffffffffffff81118282101715611d8557634e487b7160e01b600052604160045260246000fd5b60405290565b600082601f830112611d9c57600080fd5b611da4611d54565b806040840185811115611db657600080fd5b845b81811015611dd0578035845260209384019301611db8565b509095945050505050565b6000806000806000806101008789031215611df557600080fd5b611dfe87611cd7565b95506020611e0d818901611cd7565b955088605f890112611e1e57600080fd5b611e26611d54565b8060808a018b811115611e3857600080fd5b60408b015b81811015611e5b57611e4e81611cd7565b8452928401928401611e3d565b50819750611e698c82611d8b565b96505050505060c0870135915060e087013590509295509295509295565b600060208284031215611e9957600080fd5b6108f082611cd7565b600060208284031215611eb457600080fd5b5035919050565b60408101818360005b6002811015611eec5781516001600160a01b0316835260209283019290910190600101611ec4565b50505092915050565b60008060408385031215611f0857600080fd5b611f1183611cd7565b9150611f1f60208401611cd7565b90509250929050565b634e487b7160e01b600052601160045260246000fd5b8181038181111561055457610554611f28565b8082018082111561055457610554611f28565b6020808252600e908201526d1393d517d055551213d49256915160921b604082015260600190565b600060208284031215611f9e57600080fd5b815180151581146108f057600080fd5b60208082526028908201527f53616665546f6b656e3a20616d6f756e74206d75737420626520677265617465604082015267072207468616e20360c41b606082015260800190565b808202811582820484141761055457610554611f28565b60008261202a57634e487b7160e01b600052601260045260246000fd5b500490565b60006020828403121561204157600080fd5b5051919050565b634e487b7160e01b600052603260045260246000fd5b60006001820161207057612070611f28565b5060010190565b60408152600061208a6040830185611c7e565b90506001600160a01b0383166020830152939250505056feb53127684a568b3173ae13b9f8a6016e243e63b6e8ee1178d6a717850b5d6103a2646970667358221220065ef1f6d479bfb0a3d70cb954ecc29a177b2b5452ead3fb69052ee68c9c28dd64736f6c63430008110033b53127684a568b3173ae13b9f8a6016e243e63b6e8ee1178d6a717850b5d6103",
  "devdoc": {
    "author": "crypt0grapher",
    "kind": "dev",
    "methods": {
      "buyExactAmountOfSafe(uint256)": {
        "params": {
          "_safeTokensToBuy": "number of tokens to buy, the respective amount of stable coin  will be deducted from the user, Safe Yield token will be minted"
        }
      },
      "buySafeForExactAmountOfUSD(uint256)": {
        "params": {
          "_usdToSpend": "number of tokens to buy, the respective amount of USD will be deducted from the user, Safe Yield token will be minted"
        }
      },
      "getUsdReserves()": {
        "details": "this is intentional that not deposited() is used, because the total amount of USD in the vault is used to calculate the price"
      },
      "initialize(address,address,address[2],uint256[2],uint256,uint256)": {
        "details": "this one is called by the proxy"
      },
      "paused()": {
        "details": "Returns true if the contract is paused, and false otherwise."
      },
      "price()": {
        "details": "the key is the price is usd reserves, so not only user deposits from safe purchase, but also injections from the NFT purchase and treasury if needed"
      },
      "sellExactAmountOfSafe(uint256)": {
        "params": {
          "_safeTokensToSell": "number of tokens to sell, the respective amount of stable coin  will be returned from the user, Safe Yield token will be burned"
        }
      }
    },
    "stateVariables": {
      "allowance": {
        "details": "Returns the remaining number of tokens that `spender` will be allowed to spend on behalf of `owner` through {transferFrom}. This is zero by default. This value changes when {approve} or {transferFrom} are called."
      },
      "balanceOf": {
        "details": "Returns the amount of tokens owned by `account`."
      },
      "decimals": {
        "details": "Returns the decimals places of the token."
      },
      "name": {
        "details": "Returns the name of the token."
      },
      "symbol": {
        "details": "Returns the symbol of the token."
      },
      "whitelist": {
        "details": "if not included into the list, transfer is prohibited"
      }
    },
    "title": "SafeToken",
    "version": 1
  },
  "userdoc": {
    "kind": "user",
    "methods": {
      "WALLETS()": {
        "notice": "total wallets on the protocol less vault, see Wallets enum, this can be basically any number"
      },
      "buyExactAmountOfSafe(uint256)": {
        "notice": "calculate and deduct amount of USD needed to buy given amount of SAFE tokens, SAFE is minted"
      },
      "buySafeForExactAmountOfUSD(uint256)": {
        "notice": "buy SAFE tokens for given amount of USD, taxes deducted from the provided amount, SAFE is minted"
      },
      "getWallets()": {
        "notice": "list of wallets participating in tax distribution on top of the vault"
      },
      "safeVault()": {
        "notice": "attached safe vault contract"
      },
      "sellExactAmountOfSafe(uint256)": {
        "notice": "sell given amount of SAFE tokens for USD, taxes deducted from the user, SAFE is burned"
      },
      "totalSupply()": {
        "notice": "Total supply of the token, the ratio of totalSupply of the vault by the totalSupply of the Safe Token defines the price of the token"
      },
      "usd()": {
        "notice": "stable coin token contract used in the protocol"
      },
      "whitelist(address)": {
        "notice": "Whitelisted addresses for transfers, contains protocol contracts and selected partners"
      }
    },
    "notice": "This contract is used as a token for the SafeYields protocol",
    "version": 1
  },
  "storageLayout": {
    "storage": [
      {
        "astId": 1825,
        "contract": "contracts/SafeToken.sol:SafeToken",
        "label": "wallets",
        "offset": 0,
        "slot": "0",
        "type": "t_array(t_address)2_storage"
      },
      {
        "astId": 17,
        "contract": "contracts/SafeToken.sol:SafeToken",
        "label": "_paused",
        "offset": 0,
        "slot": "2",
        "type": "t_bool"
      },
      {
        "astId": 118,
        "contract": "contracts/SafeToken.sol:SafeToken",
        "label": "_status",
        "offset": 0,
        "slot": "3",
        "type": "t_uint256"
      },
      {
        "astId": 678,
        "contract": "contracts/SafeToken.sol:SafeToken",
        "label": "totalSupply",
        "offset": 0,
        "slot": "4",
        "type": "t_uint256"
      },
      {
        "astId": 683,
        "contract": "contracts/SafeToken.sol:SafeToken",
        "label": "whitelist",
        "offset": 0,
        "slot": "5",
        "type": "t_mapping(t_address,t_bool)"
      },
      {
        "astId": 687,
        "contract": "contracts/SafeToken.sol:SafeToken",
        "label": "balanceOf",
        "offset": 0,
        "slot": "6",
        "type": "t_mapping(t_address,t_uint256)"
      },
      {
        "astId": 693,
        "contract": "contracts/SafeToken.sol:SafeToken",
        "label": "allowance",
        "offset": 0,
        "slot": "7",
        "type": "t_mapping(t_address,t_mapping(t_address,t_uint256))"
      },
      {
        "astId": 695,
        "contract": "contracts/SafeToken.sol:SafeToken",
        "label": "BUY_TAX_PERCENT",
        "offset": 0,
        "slot": "8",
        "type": "t_uint256"
      },
      {
        "astId": 697,
        "contract": "contracts/SafeToken.sol:SafeToken",
        "label": "SELL_TAX_PERCENT",
        "offset": 0,
        "slot": "9",
        "type": "t_uint256"
      },
      {
        "astId": 700,
        "contract": "contracts/SafeToken.sol:SafeToken",
        "label": "usd",
        "offset": 0,
        "slot": "10",
        "type": "t_contract(IERC20)239"
      },
      {
        "astId": 703,
        "contract": "contracts/SafeToken.sol:SafeToken",
        "label": "safeVault",
        "offset": 0,
        "slot": "11",
        "type": "t_contract(ISafeVault)2120"
      },
      {
        "astId": 707,
        "contract": "contracts/SafeToken.sol:SafeToken",
        "label": "taxDistributionOnMintAndBurn",
        "offset": 0,
        "slot": "12",
        "type": "t_array(t_uint256)2_storage"
      }
    ],
    "types": {
      "t_address": {
        "encoding": "inplace",
        "label": "address",
        "numberOfBytes": "20"
      },
      "t_array(t_address)2_storage": {
        "base": "t_address",
        "encoding": "inplace",
        "label": "address[2]",
        "numberOfBytes": "64"
      },
      "t_array(t_uint256)2_storage": {
        "base": "t_uint256",
        "encoding": "inplace",
        "label": "uint256[2]",
        "numberOfBytes": "64"
      },
      "t_bool": {
        "encoding": "inplace",
        "label": "bool",
        "numberOfBytes": "1"
      },
      "t_contract(IERC20)239": {
        "encoding": "inplace",
        "label": "contract IERC20",
        "numberOfBytes": "20"
      },
      "t_contract(ISafeVault)2120": {
        "encoding": "inplace",
        "label": "contract ISafeVault",
        "numberOfBytes": "20"
      },
      "t_mapping(t_address,t_bool)": {
        "encoding": "mapping",
        "key": "t_address",
        "label": "mapping(address => bool)",
        "numberOfBytes": "32",
        "value": "t_bool"
      },
      "t_mapping(t_address,t_mapping(t_address,t_uint256))": {
        "encoding": "mapping",
        "key": "t_address",
        "label": "mapping(address => mapping(address => uint256))",
        "numberOfBytes": "32",
        "value": "t_mapping(t_address,t_uint256)"
      },
      "t_mapping(t_address,t_uint256)": {
        "encoding": "mapping",
        "key": "t_address",
        "label": "mapping(address => uint256)",
        "numberOfBytes": "32",
        "value": "t_uint256"
      },
      "t_uint256": {
        "encoding": "inplace",
        "label": "uint256",
        "numberOfBytes": "32"
      }
    }
  }
}