{
  "address": "0x88735bb7Fcb12b2B8389723B51E25DfD03aeA156",
  "abi": [
    {
      "inputs": [
        {
          "internalType": "address",
          "name": "_kyberSwapRouter",
          "type": "address"
        },
        {
          "internalType": "address",
          "name": "_usd",
          "type": "address"
        },
        {
          "internalType": "address",
          "name": "_safeToken",
          "type": "address"
        }
      ],
      "stateMutability": "nonpayable",
      "type": "constructor"
    },
    {
      "anonymous": false,
      "inputs": [
        {
          "indexed": false,
          "internalType": "uint256",
          "name": "amountUSD",
          "type": "uint256"
        },
        {
          "indexed": false,
          "internalType": "uint256",
          "name": "amountSAFE",
          "type": "uint256"
        },
        {
          "indexed": false,
          "internalType": "uint256",
          "name": "recipeintsCount",
          "type": "uint256"
        }
      ],
      "name": "PayBulk",
      "type": "event"
    },
    {
      "inputs": [
        {
          "internalType": "address[]",
          "name": "tokens",
          "type": "address[]"
        },
        {
          "internalType": "address",
          "name": "spender",
          "type": "address"
        },
        {
          "internalType": "uint256",
          "name": "amount",
          "type": "uint256"
        }
      ],
      "name": "approveTokens",
      "outputs": [],
      "stateMutability": "nonpayable",
      "type": "function"
    },
    {
      "inputs": [
        {
          "internalType": "address",
          "name": "_kyberSwapRouter",
          "type": "address"
        },
        {
          "internalType": "address",
          "name": "_usd",
          "type": "address"
        },
        {
          "internalType": "address",
          "name": "_safeToken",
          "type": "address"
        }
      ],
      "name": "initialize",
      "outputs": [],
      "stateMutability": "nonpayable",
      "type": "function"
    },
    {
      "inputs": [],
      "name": "kyberSwapRouterContract",
      "outputs": [
        {
          "internalType": "address",
          "name": "",
          "type": "address"
        }
      ],
      "stateMutability": "view",
      "type": "function"
    },
    {
      "inputs": [
        {
          "internalType": "address[]",
          "name": "_receivers",
          "type": "address[]"
        },
        {
          "internalType": "uint256[]",
          "name": "_usdAmounts",
          "type": "uint256[]"
        }
      ],
      "name": "payBulk",
      "outputs": [],
      "stateMutability": "nonpayable",
      "type": "function"
    },
    {
      "inputs": [
        {
          "internalType": "bytes",
          "name": "data",
          "type": "bytes"
        }
      ],
      "name": "proxyAndBuy",
      "outputs": [],
      "stateMutability": "nonpayable",
      "type": "function"
    },
    {
      "inputs": [],
      "name": "safeTokenContract",
      "outputs": [
        {
          "internalType": "contract ISafeToken",
          "name": "",
          "type": "address"
        }
      ],
      "stateMutability": "view",
      "type": "function"
    },
    {
      "inputs": [
        {
          "internalType": "bytes",
          "name": "data",
          "type": "bytes"
        },
        {
          "internalType": "uint256",
          "name": "safeAmount",
          "type": "uint256"
        }
      ],
      "name": "sellAndProxy",
      "outputs": [],
      "stateMutability": "nonpayable",
      "type": "function"
    },
    {
      "inputs": [],
      "name": "swap",
      "outputs": [
        {
          "internalType": "bytes4",
          "name": "",
          "type": "bytes4"
        }
      ],
      "stateMutability": "view",
      "type": "function"
    },
    {
      "inputs": [],
      "name": "swapSimpleMode",
      "outputs": [
        {
          "internalType": "bytes4",
          "name": "",
          "type": "bytes4"
        }
      ],
      "stateMutability": "view",
      "type": "function"
    },
    {
      "inputs": [
        {
          "internalType": "address",
          "name": "_allowedContract",
          "type": "address"
        }
      ],
      "name": "updateAllowedContract",
      "outputs": [],
      "stateMutability": "nonpayable",
      "type": "function"
    },
    {
      "inputs": [],
      "name": "usd",
      "outputs": [
        {
          "internalType": "contract IERC20",
          "name": "",
          "type": "address"
        }
      ],
      "stateMutability": "view",
      "type": "function"
    }
  ],
  "transactionHash": "0x8152fe393bfae2212787966fd779100600217c1a1b421e8d4b4062b0b2a7632a",
  "args": [
    "0x6131B5fae19EA4f9D964eAc0408E4408b66337b5",
    "0xFF970A61A04b1cA14834A43f5dE4533eBDDB5CC8",
    "0x519EfB2bEFBd3f00D335dc9DF42BF721D591604f"
  ],
  "numDeployments": 2,
  "solcInputHash": "8eb1c3cba2ef17d6bad97f1baee253df",
  "bytecode": "0x60806040523480156200001157600080fd5b506040516200165b3803806200165b8339810160408190526200003491620001f9565b6001600055620000468383836200004f565b5050506200026e565b6000620000696000805160206200163b8339815191525490565b90506001600160a01b03811662000099576001600160a01b036000805160206200163b83398151915255620000af565b336001600160a01b03821614620000af57600080fd5b600180546001600160a01b038681166001600160a01b0319928316179092556003805486841690831681179091556002805493861693909216831790915560405163095ea7b360e01b8152600481019290925260001960248301529063095ea7b3906044016020604051808303816000875af115801562000134573d6000803e3d6000fd5b505050506040513d601f19601f820116820180604052508101906200015a919062000243565b5060025460405163095ea7b360e01b81526001600160a01b039091166004820181905260001960248301529063095ea7b3906044016020604051808303816000875af1158015620001af573d6000803e3d6000fd5b505050506040513d601f19601f82011682018060405250810190620001d5919062000243565b5050505050565b80516001600160a01b0381168114620001f457600080fd5b919050565b6000806000606084860312156200020f57600080fd5b6200021a84620001dc565b92506200022a60208501620001dc565b91506200023a60408501620001dc565b90509250925092565b6000602082840312156200025657600080fd5b815180151581146200026757600080fd5b9392505050565b6113bd806200027e6000396000f3fe608060405234801561001057600080fd5b50600436106100a95760003560e01c80638119c065116100715780638119c0651461012857806391acb84814610136578063c0c53b8b14610161578063c72adad814610174578063d63a6ccd14610187578063e75875fc1461019a57600080fd5b80631a6dc57b146100ae578063255345e4146100da5780633aa93254146100ef578063474e718c14610102578063584710d914610115575b600080fd5b6100bc638af033fb60e01b81565b6040516001600160e01b031990911681526020015b60405180910390f35b6100ed6100e836600461103c565b6101ad565b005b6100ed6100fd3660046110df565b610402565b6100ed61011036600461113b565b610587565b6100ed6101233660046111a7565b610991565b6100bc63e21fd0e960e01b81565b600154610149906001600160a01b031681565b6040516001600160a01b0390911681526020016100d1565b6100ed61016f3660046111f3565b610d21565b6100ed610182366004611236565b610ec6565b600354610149906001600160a01b031681565b600254610149906001600160a01b031681565b6101b5610f48565b60006101f683838080601f016020809104026020016040519081016040528093929190818152602001838380828437600092019190915250610fa192505050565b90506001600160e01b0319811663e21fd0e960e01b148061022757506001600160e01b03198116638af033fb60e01b145b61026f5760405162461bcd60e51b81526020600482015260146024820152732737ba1030b63637bbb2b210333ab731ba34b7b760611b60448201526064015b60405180910390fd5b60015460405160009182916001600160a01b03909116906102939087908790611258565b6000604051808303816000865af19150503d80600081146102d0576040519150601f19603f3d011682016040523d82523d6000602084013e6102d5565b606091505b5091509150816102e85780518082602001fd5b600080828060200190518101906102ff9190611268565b60025460405163f7e0ba5f60e01b8152600481018490529294509092506000916001600160a01b039091169063f7e0ba5f906024016020604051808303816000875af1158015610353573d6000803e3d6000fd5b505050506040513d601f19601f82011682018060405250810190610377919061128c565b60025460405163a9059cbb60e01b8152336004820152602481018390529192506001600160a01b03169063a9059cbb906044016020604051808303816000875af11580156103c9573d6000803e3d6000fd5b505050506040513d601f19601f820116820180604052508101906103ed91906112a5565b505050505050506103fe6001600055565b5050565b7fb53127684a568b3173ae13b9f8a6016e243e63b6e8ee1178d6a717850b5d6103546001600160a01b0316336001600160a01b0316146104755760405162461bcd60e51b815260206004820152600e60248201526d1393d517d055551213d49256915160921b6044820152606401610266565b8260005b8181101561057f576000868683818110610495576104956112c7565b90506020020160208101906104aa9190611236565b60405163095ea7b360e01b81526001600160a01b0387811660048301526024820187905291925060009183169063095ea7b3906044016020604051808303816000875af11580156104ff573d6000803e3d6000fd5b505050506040513d601f19601f8201168201806040525081019061052391906112a5565b90508061056a5760405162461bcd60e51b8152602060048201526015602482015274151bdad95b88185c1c1c9bdd985b0819985a5b1959605a1b6044820152606401610266565b50508080610577906112f3565b915050610479565b505050505050565b61058f610f48565b821580159061059d57508083145b6106195760405162461bcd60e51b815260206004820152604160248201527f53616665546f6b656e3a20726563656976657273206d757374206265206e6f6e60448201527f2d656d70747920616e642073616d65206c656e67746820617320616d6f756e746064820152607360f81b608482015260a401610266565b6000805b828110156106d6576000848483818110610639576106396112c7565b905060200201351161069e5760405162461bcd60e51b815260206004820152602860248201527f53616665546f6b656e3a20616d6f756e74206d75737420626520677265617465604482015267072207468616e20360c41b6064820152608401610266565b8383828181106106b0576106b06112c7565b90506020020135826106c2919061130c565b9150806106ce816112f3565b91505061061d565b506003546040516323b872dd60e01b8152336004820152306024820152604481018390526001600160a01b03909116906323b872dd906064016020604051808303816000875af115801561072e573d6000803e3d6000fd5b505050506040513d601f19601f8201168201806040525081019061075291906112a5565b5060025460405163f7e0ba5f60e01b8152600481018390526000916001600160a01b03169063f7e0ba5f906024016020604051808303816000875af115801561079f573d6000803e3d6000fd5b505050506040513d601f19601f820116820180604052508101906107c3919061128c565b905060008567ffffffffffffffff8111156107e0576107e0611325565b604051908082528060200260200182016040528015610809578160200160208202803683370190505b50905060005b8681101561093c578386868381811061082a5761082a6112c7565b905060200201358461083c919061133b565b6108469190611352565b828281518110610858576108586112c7565b60209081029190910101526002546001600160a01b031663a9059cbb898984818110610886576108866112c7565b905060200201602081019061089b9190611236565b8484815181106108ad576108ad6112c7565b60200260200101516040518363ffffffff1660e01b81526004016108e69291906001600160a01b03929092168252602082015260400190565b6020604051808303816000875af1158015610905573d6000803e3d6000fd5b505050506040513d601f19601f8201168201806040525081019061092991906112a5565b5080610934816112f3565b91505061080f565b5060408051848152602081018490529081018790527ff2c8cf17989f13c48a832786418fc6f4a7eba29331d69c9f267aa145d7d0fdc09060600160405180910390a150505061098b6001600055565b50505050565b610999610f48565b60006109da84848080601f016020809104026020016040519081016040528093929190818152602001838380828437600092019190915250610fa192505050565b90506001600160e01b0319811663e21fd0e960e01b1480610a0b57506001600160e01b03198116638af033fb60e01b145b610a4e5760405162461bcd60e51b81526020600482015260146024820152732737ba1030b63637bbb2b210333ab731ba34b7b760611b6044820152606401610266565b6003546040516370a0823160e01b81523060048201526000916001600160a01b0316906370a0823190602401602060405180830381865afa158015610a97573d6000803e3d6000fd5b505050506040513d601f19601f82011682018060405250810190610abb919061128c565b60025460405163174d386b60e31b8152600481018690529192506000916001600160a01b039091169063ba69c358906024016020604051808303816000875af1158015610b0c573d6000803e3d6000fd5b505050506040513d601f19601f82011682018060405250810190610b30919061128c565b60015460405191925060009182916001600160a01b031690610b55908a908a90611258565b600060405180830381855af49150503d8060008114610b90576040519150601f19603f3d011682016040523d82523d6000602084013e610b95565b606091505b509150915081610be75760405162461bcd60e51b815260206004820152601a60248201527f4b796265725377617020657865637574696f6e206661696c65640000000000006044820152606401610266565b60008082806020019051810190610bfe9190611268565b6003546040516370a0823160e01b81523060048201529294509092506000916001600160a01b03909116906370a0823190602401602060405180830381865afa158015610c4f573d6000803e3d6000fd5b505050506040513d601f19601f82011682018060405250810190610c73919061128c565b905086811115610d0a576003546001600160a01b031663a9059cbb33610c998a85611374565b6040516001600160e01b031960e085901b1681526001600160a01b03909216600483015260248201526044016020604051808303816000875af1158015610ce4573d6000803e3d6000fd5b505050506040513d601f19601f82011682018060405250810190610d0891906112a5565b505b5050505050505050610d1c6001600055565b505050565b6000610d4b7fb53127684a568b3173ae13b9f8a6016e243e63b6e8ee1178d6a717850b5d61035490565b90506001600160a01b038116610d8a576001600160a01b037fb53127684a568b3173ae13b9f8a6016e243e63b6e8ee1178d6a717850b5d610355610d9f565b336001600160a01b03821614610d9f57600080fd5b600180546001600160a01b038681166001600160a01b0319928316179092556003805486841690831681179091556002805493861693909216831790915560405163095ea7b360e01b8152600481019290925260001960248301529063095ea7b3906044016020604051808303816000875af1158015610e23573d6000803e3d6000fd5b505050506040513d601f19601f82011682018060405250810190610e4791906112a5565b5060025460405163095ea7b360e01b81526001600160a01b039091166004820181905260001960248301529063095ea7b3906044016020604051808303816000875af1158015610e9b573d6000803e3d6000fd5b505050506040513d601f19601f82011682018060405250810190610ebf91906112a5565b5050505050565b333214610f265760405162461bcd60e51b815260206004820152602860248201527f4f6e6c7920454f412063616e207570646174652074686520616c6c6f7765642060448201526718dbdb9d1c9858dd60c21b6064820152608401610266565b600180546001600160a01b0319166001600160a01b0392909216919091179055565b600260005403610f9a5760405162461bcd60e51b815260206004820152601f60248201527f5265656e7472616e637947756172643a207265656e7472616e742063616c6c006044820152606401610266565b6002600055565b6000600482511015610feb5760405162461bcd60e51b8152602060048201526013602482015272092dcecc2d8d2c840c8c2e8c240d8cadccee8d606b1b6044820152606401610266565b506020015190565b60008083601f84011261100557600080fd5b50813567ffffffffffffffff81111561101d57600080fd5b60208301915083602082850101111561103557600080fd5b9250929050565b6000806020838503121561104f57600080fd5b823567ffffffffffffffff81111561106657600080fd5b61107285828601610ff3565b90969095509350505050565b60008083601f84011261109057600080fd5b50813567ffffffffffffffff8111156110a857600080fd5b6020830191508360208260051b850101111561103557600080fd5b80356001600160a01b03811681146110da57600080fd5b919050565b600080600080606085870312156110f557600080fd5b843567ffffffffffffffff81111561110c57600080fd5b6111188782880161107e565b909550935061112b9050602086016110c3565b9396929550929360400135925050565b6000806000806040858703121561115157600080fd5b843567ffffffffffffffff8082111561116957600080fd5b6111758883890161107e565b9096509450602087013591508082111561118e57600080fd5b5061119b8782880161107e565b95989497509550505050565b6000806000604084860312156111bc57600080fd5b833567ffffffffffffffff8111156111d357600080fd5b6111df86828701610ff3565b909790965060209590950135949350505050565b60008060006060848603121561120857600080fd5b611211846110c3565b925061121f602085016110c3565b915061122d604085016110c3565b90509250925092565b60006020828403121561124857600080fd5b611251826110c3565b9392505050565b8183823760009101908152919050565b6000806040838503121561127b57600080fd5b505080516020909101519092909150565b60006020828403121561129e57600080fd5b5051919050565b6000602082840312156112b757600080fd5b8151801515811461125157600080fd5b634e487b7160e01b600052603260045260246000fd5b634e487b7160e01b600052601160045260246000fd5b600060018201611305576113056112dd565b5060010190565b8082018082111561131f5761131f6112dd565b92915050565b634e487b7160e01b600052604160045260246000fd5b808202811582820484141761131f5761131f6112dd565b60008261136f57634e487b7160e01b600052601260045260246000fd5b500490565b8181038181111561131f5761131f6112dd56fea2646970667358221220af1c501f0e7be25a53eac82db7d187389bc005a666e3ccb1ca8bb4c7a628c14e64736f6c63430008110033b53127684a568b3173ae13b9f8a6016e243e63b6e8ee1178d6a717850b5d6103",
  "devdoc": {
    "kind": "dev",
    "methods": {},
    "version": 1
  },
  "userdoc": {
    "kind": "user",
    "methods": {},
    "version": 1
  },
  "storageLayout": {
    "storage": [
      {
        "astId": 10,
        "contract": "contracts/SafeRouter.sol:SafeRouter",
        "label": "_status",
        "offset": 0,
        "slot": "0",
        "type": "t_uint256"
      },
      {
        "astId": 167,
        "contract": "contracts/SafeRouter.sol:SafeRouter",
        "label": "kyberSwapRouterContract",
        "offset": 0,
        "slot": "1",
        "type": "t_address"
      },
      {
        "astId": 170,
        "contract": "contracts/SafeRouter.sol:SafeRouter",
        "label": "safeTokenContract",
        "offset": 0,
        "slot": "2",
        "type": "t_contract(ISafeToken)734"
      },
      {
        "astId": 179,
        "contract": "contracts/SafeRouter.sol:SafeRouter",
        "label": "usd",
        "offset": 0,
        "slot": "3",
        "type": "t_contract(IERC20)131"
      }
    ],
    "types": {
      "t_address": {
        "encoding": "inplace",
        "label": "address",
        "numberOfBytes": "20"
      },
      "t_contract(IERC20)131": {
        "encoding": "inplace",
        "label": "contract IERC20",
        "numberOfBytes": "20"
      },
      "t_contract(ISafeToken)734": {
        "encoding": "inplace",
        "label": "contract ISafeToken",
        "numberOfBytes": "20"
      },
      "t_uint256": {
        "encoding": "inplace",
        "label": "uint256",
        "numberOfBytes": "32"
      }
    }
  }
}