{
  "address": "0xF82472ea1acE5C7236DB0829e2F7E68e99C53056",
  "abi": [
    {
      "inputs": [
        {
          "internalType": "address",
          "name": "_safeNFT",
          "type": "address"
        }
      ],
      "stateMutability": "nonpayable",
      "type": "constructor"
    },
    {
      "anonymous": false,
      "inputs": [
        {
          "indexed": true,
          "internalType": "uint256",
          "name": "proposalId",
          "type": "uint256"
        },
        {
          "indexed": false,
          "internalType": "string",
          "name": "description",
          "type": "string"
        }
      ],
      "name": "ProposalAdded",
      "type": "event"
    },
    {
      "anonymous": false,
      "inputs": [
        {
          "indexed": true,
          "internalType": "uint256",
          "name": "proposalId",
          "type": "uint256"
        }
      ],
      "name": "ProposalClosed",
      "type": "event"
    },
    {
      "anonymous": false,
      "inputs": [
        {
          "indexed": true,
          "internalType": "uint256",
          "name": "proposalId",
          "type": "uint256"
        },
        {
          "indexed": true,
          "internalType": "address",
          "name": "voter",
          "type": "address"
        },
        {
          "indexed": true,
          "internalType": "uint256",
          "name": "vote",
          "type": "uint256"
        }
      ],
      "name": "VoteCasted",
      "type": "event"
    },
    {
      "inputs": [
        {
          "internalType": "string",
          "name": "_description",
          "type": "string"
        }
      ],
      "name": "addProposal",
      "outputs": [],
      "stateMutability": "nonpayable",
      "type": "function"
    },
    {
      "inputs": [
        {
          "internalType": "uint256",
          "name": "_proposalId",
          "type": "uint256"
        }
      ],
      "name": "closeProposal",
      "outputs": [],
      "stateMutability": "nonpayable",
      "type": "function"
    },
    {
      "inputs": [
        {
          "internalType": "uint256",
          "name": "_proposalId",
          "type": "uint256"
        }
      ],
      "name": "getProposal",
      "outputs": [
        {
          "internalType": "string",
          "name": "description",
          "type": "string"
        },
        {
          "internalType": "uint256",
          "name": "yesVotes",
          "type": "uint256"
        },
        {
          "internalType": "uint256",
          "name": "noVotes",
          "type": "uint256"
        },
        {
          "internalType": "enum IVotingDAO.Status",
          "name": "status",
          "type": "uint8"
        }
      ],
      "stateMutability": "view",
      "type": "function"
    },
    {
      "inputs": [
        {
          "internalType": "address",
          "name": "_safeNFT",
          "type": "address"
        }
      ],
      "name": "initialize",
      "outputs": [],
      "stateMutability": "nonpayable",
      "type": "function"
    },
    {
      "inputs": [
        {
          "internalType": "uint256",
          "name": "",
          "type": "uint256"
        }
      ],
      "name": "proposals",
      "outputs": [
        {
          "internalType": "string",
          "name": "description",
          "type": "string"
        },
        {
          "internalType": "uint256",
          "name": "yesVotes",
          "type": "uint256"
        },
        {
          "internalType": "uint256",
          "name": "noVotes",
          "type": "uint256"
        },
        {
          "internalType": "enum IVotingDAO.Status",
          "name": "status",
          "type": "uint8"
        }
      ],
      "stateMutability": "view",
      "type": "function"
    },
    {
      "inputs": [],
      "name": "safeNFT",
      "outputs": [
        {
          "internalType": "contract ISafeNFT",
          "name": "",
          "type": "address"
        }
      ],
      "stateMutability": "view",
      "type": "function"
    },
    {
      "inputs": [
        {
          "internalType": "uint256",
          "name": "_proposalId",
          "type": "uint256"
        },
        {
          "internalType": "enum IVotingDAO.Vote",
          "name": "_vote",
          "type": "uint8"
        }
      ],
      "name": "vote",
      "outputs": [],
      "stateMutability": "nonpayable",
      "type": "function"
    }
  ],
  "transactionHash": "0xa61d919969b7a2d54752572a74518b0e05c527116e91cc78d037dae6d194054c",
  "args": [
    "0xAa1D2ca80198470dbCC594CbcA8B7Ea4cBf9a3fE"
  ],
  "numDeployments": 1,
  "solcInputHash": "ff316e747261efd5e1332b3d0409961d",
  "bytecode": "0x608060405234801561001057600080fd5b50604051610ebb380380610ebb83398101604081905261002f916100bb565b6100388161003e565b506100eb565b6000610056600080516020610e9b8339815191525490565b90506001600160a01b038116610083576001600160a01b03600080516020610e9b83398151915255610098565b336001600160a01b0382161461009857600080fd5b50600080546001600160a01b0319166001600160a01b0392909216919091179055565b6000602082840312156100cd57600080fd5b81516001600160a01b03811681146100e457600080fd5b9392505050565b610da1806100fa6000396000f3fe608060405234801561001057600080fd5b506004361061007d5760003560e01c8063943e82161161005b578063943e8216146100d6578063b718c80a146100e9578063c4d66de814610114578063c7f758a81461012757600080fd5b8063013cf08b146100825780630386a016146100ae5780632fdae3c5146100c3575b600080fd5b6100956100903660046109b0565b61013a565b6040516100a59493929190610a25565b60405180910390f35b6100c16100bc3660046109b0565b610207565b005b6100c16100d1366004610a89565b610340565b6100c16100e4366004610b3a565b610451565b6000546100fc906001600160a01b031681565b6040516001600160a01b0390911681526020016100a5565b6100c1610122366004610b6e565b61081b565b6100956101353660046109b0565b6108c9565b6001818154811061014a57600080fd5b906000526020600020906005020160009150905080600001805461016d90610b9e565b80601f016020809104026020016040519081016040528092919081815260200182805461019990610b9e565b80156101e65780601f106101bb576101008083540402835291602001916101e6565b820191906000526020600020905b8154815290600101906020018083116101c957829003601f168201915b50505050600183015460028401546003909401549293909290915060ff1684565b7fb53127684a568b3173ae13b9f8a6016e243e63b6e8ee1178d6a717850b5d6103546001600160a01b0316336001600160a01b03161461027f5760405162461bcd60e51b815260206004820152600e60248201526d1393d517d055551213d49256915160921b60448201526064015b60405180910390fd5b60006001828154811061029457610294610bd8565b6000918252602082206005909102019150600382015460ff1660018111156102be576102be610a0f565b146103025760405162461bcd60e51b8152602060048201526014602482015273283937b837b9b0b61034b9903737ba1037b832b760611b6044820152606401610276565b60038101805460ff1916600117905560405182907f887777ccf43690541bed9e00b10d0fccfa7520b11875f09847a57b3085d8ab9290600090a25050565b7fb53127684a568b3173ae13b9f8a6016e243e63b6e8ee1178d6a717850b5d6103546001600160a01b0316336001600160a01b0316146103b35760405162461bcd60e51b815260206004820152600e60248201526d1393d517d055551213d49256915160921b6044820152606401610276565b600180548101808255600082815291906103ce908290610c04565b815481106103de576103de610bd8565b600091825260209091206005909102019050806103fb8382610c6c565b5060038101805460ff19169055600180546104169190610c04565b7ff970aa486598017b8116c2beb18c50d4584ecbc3c688817f59b26796725f31bf836040516104459190610d2c565b60405180910390a25050565b6000805460405163603a39fb60e11b81523360048201526001600160a01b039091169063c07473f690602401602060405180830381865afa15801561049a573d6000803e3d6000fd5b505050506040513d601f19601f820116820180604052508101906104be9190610d3f565b1161051f5760405162461bcd60e51b815260206004820152602b60248201527f4f6e6c792053616665204e4654206f776e6572732063616e2063616c6c20746860448201526a34b990333ab731ba34b7b760a91b6064820152608401610276565b60006001838154811061053457610534610bd8565b6000918252602082206005909102019150600382015460ff16600181111561055e5761055e610a0f565b146105a25760405162461bcd60e51b8152602060048201526014602482015273283937b837b9b0b61034b9903737ba1037b832b760611b6044820152606401610276565b33600090815260048201602052604081205460ff1660028111156105c8576105c8610a0f565b146106155760405162461bcd60e51b815260206004820152601660248201527f596f75206861766520616c726561647920766f746564000000000000000000006044820152606401610276565b600182600281111561062957610629610a0f565b036106b85760005460405163603a39fb60e11b81523360048201526001600160a01b039091169063c07473f690602401602060405180830381865afa158015610676573d6000803e3d6000fd5b505050506040513d601f19601f8201168201806040525081019061069a9190610d3f565b8160010160008282546106ad9190610d58565b909155506107a49050565b60028260028111156106cc576106cc610a0f565b036107505760005460405163603a39fb60e11b81523360048201526001600160a01b039091169063c07473f690602401602060405180830381865afa158015610719573d6000803e3d6000fd5b505050506040513d601f19601f8201168201806040525081019061073d9190610d3f565b8160020160008282546106ad9190610d58565b60405162461bcd60e51b8152602060048201526024808201527f496e76616c696420766f74652c206f6e6c792059657320283129206f72204e6f6044820152632028322960e01b6064820152608401610276565b3360009081526004820160205260409020805483919060ff191660018360028111156107d2576107d2610a0f565b02179055508160028111156107e9576107e9610a0f565b604051339085907fe7ee74ca1f4bb1b82b14f87794c45b3e59c39e372b862fb97a6316b43355b69e90600090a4505050565b60006108457fb53127684a568b3173ae13b9f8a6016e243e63b6e8ee1178d6a717850b5d61035490565b90506001600160a01b038116610884576001600160a01b037fb53127684a568b3173ae13b9f8a6016e243e63b6e8ee1178d6a717850b5d610355610899565b336001600160a01b0382161461089957600080fd5b506000805473ffffffffffffffffffffffffffffffffffffffff19166001600160a01b0392909216919091179055565b6060600080600080600186815481106108e4576108e4610bd8565b9060005260206000209060050201905080600001816001015482600201548360030160009054906101000a900460ff1683805461092090610b9e565b80601f016020809104026020016040519081016040528092919081815260200182805461094c90610b9e565b80156109995780601f1061096e57610100808354040283529160200191610999565b820191906000526020600020905b81548152906001019060200180831161097c57829003601f168201915b505050505093509450945094509450509193509193565b6000602082840312156109c257600080fd5b5035919050565b6000815180845260005b818110156109ef576020818501810151868301820152016109d3565b506000602082860101526020601f19601f83011685010191505092915050565b634e487b7160e01b600052602160045260246000fd5b608081526000610a3860808301876109c9565b905084602083015283604083015260028310610a6457634e487b7160e01b600052602160045260246000fd5b82606083015295945050505050565b634e487b7160e01b600052604160045260246000fd5b600060208284031215610a9b57600080fd5b813567ffffffffffffffff80821115610ab357600080fd5b818401915084601f830112610ac757600080fd5b813581811115610ad957610ad9610a73565b604051601f8201601f19908116603f01168101908382118183101715610b0157610b01610a73565b81604052828152876020848701011115610b1a57600080fd5b826020860160208301376000928101602001929092525095945050505050565b60008060408385031215610b4d57600080fd5b82359150602083013560038110610b6357600080fd5b809150509250929050565b600060208284031215610b8057600080fd5b81356001600160a01b0381168114610b9757600080fd5b9392505050565b600181811c90821680610bb257607f821691505b602082108103610bd257634e487b7160e01b600052602260045260246000fd5b50919050565b634e487b7160e01b600052603260045260246000fd5b634e487b7160e01b600052601160045260246000fd5b81810381811115610c1757610c17610bee565b92915050565b601f821115610c6757600081815260208120601f850160051c81016020861015610c445750805b601f850160051c820191505b81811015610c6357828155600101610c50565b5050505b505050565b815167ffffffffffffffff811115610c8657610c86610a73565b610c9a81610c948454610b9e565b84610c1d565b602080601f831160018114610ccf5760008415610cb75750858301515b600019600386901b1c1916600185901b178555610c63565b600085815260208120601f198616915b82811015610cfe57888601518255948401946001909101908401610cdf565b5085821015610d1c5787850151600019600388901b60f8161c191681555b5050505050600190811b01905550565b602081526000610b9760208301846109c9565b600060208284031215610d5157600080fd5b5051919050565b80820180821115610c1757610c17610bee56fea26469706673582212209230c5ac6cd42b1a1dc4faa27b85c9582855d0bfa42d395a45b5ba258b7b0da264736f6c63430008110033b53127684a568b3173ae13b9f8a6016e243e63b6e8ee1178d6a717850b5d6103",
  "devdoc": {
    "kind": "dev",
    "methods": {
      "addProposal(string)": {
        "params": {
          "_description": "The description of the proposal."
        }
      },
      "closeProposal(uint256)": {
        "params": {
          "_proposalId": "The ID of the proposal."
        }
      },
      "getProposal(uint256)": {
        "params": {
          "_proposalId": "The ID of the proposal."
        },
        "returns": {
          "description": "The description of the proposal.",
          "noVotes": "The number of no votes.",
          "status": "The status of the proposal (Open or Closed).",
          "yesVotes": "The number of yes votes."
        }
      },
      "vote(uint256,uint8)": {
        "params": {
          "_proposalId": "The ID of the proposal.",
          "_vote": "The vote (Yes 1 or No 2)."
        }
      }
    },
    "version": 1
  },
  "userdoc": {
    "kind": "user",
    "methods": {
      "addProposal(string)": {
        "notice": "This function adds a new proposal to the list of proposals."
      },
      "closeProposal(uint256)": {
        "notice": "This function allows the admin to close a proposal."
      },
      "getProposal(uint256)": {
        "notice": "This function returns the details of a proposal."
      },
      "vote(uint256,uint8)": {
        "notice": "This function allows Safe NFT owners to vote on a proposal."
      }
    },
    "version": 1
  },
  "storageLayout": {
    "storage": [
      {
        "astId": 145,
        "contract": "contracts/VotingDAO.sol:VotingDAO",
        "label": "safeNFT",
        "offset": 0,
        "slot": "0",
        "type": "t_contract(ISafeNFT)531"
      },
      {
        "astId": 149,
        "contract": "contracts/VotingDAO.sol:VotingDAO",
        "label": "proposals",
        "offset": 0,
        "slot": "1",
        "type": "t_array(t_struct(Proposal)573_storage)dyn_storage"
      }
    ],
    "types": {
      "t_address": {
        "encoding": "inplace",
        "label": "address",
        "numberOfBytes": "20"
      },
      "t_array(t_struct(Proposal)573_storage)dyn_storage": {
        "base": "t_struct(Proposal)573_storage",
        "encoding": "dynamic_array",
        "label": "struct IVotingDAO.Proposal[]",
        "numberOfBytes": "32"
      },
      "t_contract(ISafeNFT)531": {
        "encoding": "inplace",
        "label": "contract ISafeNFT",
        "numberOfBytes": "20"
      },
      "t_enum(Status)554": {
        "encoding": "inplace",
        "label": "enum IVotingDAO.Status",
        "numberOfBytes": "1"
      },
      "t_enum(Vote)558": {
        "encoding": "inplace",
        "label": "enum IVotingDAO.Vote",
        "numberOfBytes": "1"
      },
      "t_mapping(t_address,t_enum(Vote)558)": {
        "encoding": "mapping",
        "key": "t_address",
        "label": "mapping(address => enum IVotingDAO.Vote)",
        "numberOfBytes": "32",
        "value": "t_enum(Vote)558"
      },
      "t_string_storage": {
        "encoding": "bytes",
        "label": "string",
        "numberOfBytes": "32"
      },
      "t_struct(Proposal)573_storage": {
        "encoding": "inplace",
        "label": "struct IVotingDAO.Proposal",
        "members": [
          {
            "astId": 560,
            "contract": "contracts/VotingDAO.sol:VotingDAO",
            "label": "description",
            "offset": 0,
            "slot": "0",
            "type": "t_string_storage"
          },
          {
            "astId": 562,
            "contract": "contracts/VotingDAO.sol:VotingDAO",
            "label": "yesVotes",
            "offset": 0,
            "slot": "1",
            "type": "t_uint256"
          },
          {
            "astId": 564,
            "contract": "contracts/VotingDAO.sol:VotingDAO",
            "label": "noVotes",
            "offset": 0,
            "slot": "2",
            "type": "t_uint256"
          },
          {
            "astId": 567,
            "contract": "contracts/VotingDAO.sol:VotingDAO",
            "label": "status",
            "offset": 0,
            "slot": "3",
            "type": "t_enum(Status)554"
          },
          {
            "astId": 572,
            "contract": "contracts/VotingDAO.sol:VotingDAO",
            "label": "votesByMember",
            "offset": 0,
            "slot": "4",
            "type": "t_mapping(t_address,t_enum(Vote)558)"
          }
        ],
        "numberOfBytes": "160"
      },
      "t_uint256": {
        "encoding": "inplace",
        "label": "uint256",
        "numberOfBytes": "32"
      }
    }
  }
}